{
	"contracts/Song.sol": {
		"Song": {
			"abi": [
				{
					"inputs": [
						{
							"internalType": "address",
							"name": "initialOwner",
							"type": "address"
						}
					],
					"stateMutability": "nonpayable",
					"type": "constructor"
				},
				{
					"inputs": [
						{
							"internalType": "address",
							"name": "sender",
							"type": "address"
						},
						{
							"internalType": "uint256",
							"name": "balance",
							"type": "uint256"
						},
						{
							"internalType": "uint256",
							"name": "needed",
							"type": "uint256"
						},
						{
							"internalType": "uint256",
							"name": "tokenId",
							"type": "uint256"
						}
					],
					"name": "ERC1155InsufficientBalance",
					"type": "error"
				},
				{
					"inputs": [
						{
							"internalType": "address",
							"name": "approver",
							"type": "address"
						}
					],
					"name": "ERC1155InvalidApprover",
					"type": "error"
				},
				{
					"inputs": [
						{
							"internalType": "uint256",
							"name": "idsLength",
							"type": "uint256"
						},
						{
							"internalType": "uint256",
							"name": "valuesLength",
							"type": "uint256"
						}
					],
					"name": "ERC1155InvalidArrayLength",
					"type": "error"
				},
				{
					"inputs": [
						{
							"internalType": "address",
							"name": "operator",
							"type": "address"
						}
					],
					"name": "ERC1155InvalidOperator",
					"type": "error"
				},
				{
					"inputs": [
						{
							"internalType": "address",
							"name": "receiver",
							"type": "address"
						}
					],
					"name": "ERC1155InvalidReceiver",
					"type": "error"
				},
				{
					"inputs": [
						{
							"internalType": "address",
							"name": "sender",
							"type": "address"
						}
					],
					"name": "ERC1155InvalidSender",
					"type": "error"
				},
				{
					"inputs": [
						{
							"internalType": "address",
							"name": "operator",
							"type": "address"
						},
						{
							"internalType": "address",
							"name": "owner",
							"type": "address"
						}
					],
					"name": "ERC1155MissingApprovalForAll",
					"type": "error"
				},
				{
					"inputs": [
						{
							"internalType": "address",
							"name": "owner",
							"type": "address"
						}
					],
					"name": "OwnableInvalidOwner",
					"type": "error"
				},
				{
					"inputs": [
						{
							"internalType": "address",
							"name": "account",
							"type": "address"
						}
					],
					"name": "OwnableUnauthorizedAccount",
					"type": "error"
				},
				{
					"anonymous": false,
					"inputs": [
						{
							"indexed": true,
							"internalType": "address",
							"name": "account",
							"type": "address"
						},
						{
							"indexed": true,
							"internalType": "address",
							"name": "operator",
							"type": "address"
						},
						{
							"indexed": false,
							"internalType": "bool",
							"name": "approved",
							"type": "bool"
						}
					],
					"name": "ApprovalForAll",
					"type": "event"
				},
				{
					"anonymous": false,
					"inputs": [
						{
							"indexed": true,
							"internalType": "address",
							"name": "previousOwner",
							"type": "address"
						},
						{
							"indexed": true,
							"internalType": "address",
							"name": "newOwner",
							"type": "address"
						}
					],
					"name": "OwnershipTransferred",
					"type": "event"
				},
				{
					"anonymous": false,
					"inputs": [
						{
							"indexed": false,
							"internalType": "uint256",
							"name": "tokenId",
							"type": "uint256"
						}
					],
					"name": "SongMinted",
					"type": "event"
				},
				{
					"anonymous": false,
					"inputs": [
						{
							"indexed": true,
							"internalType": "address",
							"name": "operator",
							"type": "address"
						},
						{
							"indexed": true,
							"internalType": "address",
							"name": "from",
							"type": "address"
						},
						{
							"indexed": true,
							"internalType": "address",
							"name": "to",
							"type": "address"
						},
						{
							"indexed": false,
							"internalType": "uint256[]",
							"name": "ids",
							"type": "uint256[]"
						},
						{
							"indexed": false,
							"internalType": "uint256[]",
							"name": "values",
							"type": "uint256[]"
						}
					],
					"name": "TransferBatch",
					"type": "event"
				},
				{
					"anonymous": false,
					"inputs": [
						{
							"indexed": true,
							"internalType": "address",
							"name": "operator",
							"type": "address"
						},
						{
							"indexed": true,
							"internalType": "address",
							"name": "from",
							"type": "address"
						},
						{
							"indexed": true,
							"internalType": "address",
							"name": "to",
							"type": "address"
						},
						{
							"indexed": false,
							"internalType": "uint256",
							"name": "id",
							"type": "uint256"
						},
						{
							"indexed": false,
							"internalType": "uint256",
							"name": "value",
							"type": "uint256"
						}
					],
					"name": "TransferSingle",
					"type": "event"
				},
				{
					"anonymous": false,
					"inputs": [
						{
							"indexed": false,
							"internalType": "string",
							"name": "value",
							"type": "string"
						},
						{
							"indexed": true,
							"internalType": "uint256",
							"name": "id",
							"type": "uint256"
						}
					],
					"name": "URI",
					"type": "event"
				},
				{
					"inputs": [
						{
							"internalType": "address",
							"name": "account",
							"type": "address"
						},
						{
							"internalType": "uint256",
							"name": "id",
							"type": "uint256"
						}
					],
					"name": "balanceOf",
					"outputs": [
						{
							"internalType": "uint256",
							"name": "",
							"type": "uint256"
						}
					],
					"stateMutability": "view",
					"type": "function"
				},
				{
					"inputs": [
						{
							"internalType": "address[]",
							"name": "accounts",
							"type": "address[]"
						},
						{
							"internalType": "uint256[]",
							"name": "ids",
							"type": "uint256[]"
						}
					],
					"name": "balanceOfBatch",
					"outputs": [
						{
							"internalType": "uint256[]",
							"name": "",
							"type": "uint256[]"
						}
					],
					"stateMutability": "view",
					"type": "function"
				},
				{
					"inputs": [
						{
							"internalType": "uint256",
							"name": "id",
							"type": "uint256"
						}
					],
					"name": "exists",
					"outputs": [
						{
							"internalType": "bool",
							"name": "",
							"type": "bool"
						}
					],
					"stateMutability": "view",
					"type": "function"
				},
				{
					"inputs": [
						{
							"internalType": "address",
							"name": "account",
							"type": "address"
						},
						{
							"internalType": "address",
							"name": "operator",
							"type": "address"
						}
					],
					"name": "isApprovedForAll",
					"outputs": [
						{
							"internalType": "bool",
							"name": "",
							"type": "bool"
						}
					],
					"stateMutability": "view",
					"type": "function"
				},
				{
					"inputs": [
						{
							"internalType": "address",
							"name": "account",
							"type": "address"
						},
						{
							"internalType": "uint256",
							"name": "amount",
							"type": "uint256"
						},
						{
							"internalType": "bytes",
							"name": "data",
							"type": "bytes"
						}
					],
					"name": "mint",
					"outputs": [],
					"stateMutability": "nonpayable",
					"type": "function"
				},
				{
					"inputs": [
						{
							"internalType": "address",
							"name": "to",
							"type": "address"
						},
						{
							"internalType": "uint256[]",
							"name": "ids",
							"type": "uint256[]"
						},
						{
							"internalType": "uint256[]",
							"name": "amounts",
							"type": "uint256[]"
						},
						{
							"internalType": "bytes",
							"name": "data",
							"type": "bytes"
						}
					],
					"name": "mintBatch",
					"outputs": [],
					"stateMutability": "nonpayable",
					"type": "function"
				},
				{
					"inputs": [],
					"name": "owner",
					"outputs": [
						{
							"internalType": "address",
							"name": "",
							"type": "address"
						}
					],
					"stateMutability": "view",
					"type": "function"
				},
				{
					"inputs": [],
					"name": "renounceOwnership",
					"outputs": [],
					"stateMutability": "nonpayable",
					"type": "function"
				},
				{
					"inputs": [
						{
							"internalType": "address",
							"name": "from",
							"type": "address"
						},
						{
							"internalType": "address",
							"name": "to",
							"type": "address"
						},
						{
							"internalType": "uint256[]",
							"name": "ids",
							"type": "uint256[]"
						},
						{
							"internalType": "uint256[]",
							"name": "values",
							"type": "uint256[]"
						},
						{
							"internalType": "bytes",
							"name": "data",
							"type": "bytes"
						}
					],
					"name": "safeBatchTransferFrom",
					"outputs": [],
					"stateMutability": "nonpayable",
					"type": "function"
				},
				{
					"inputs": [
						{
							"internalType": "address",
							"name": "from",
							"type": "address"
						},
						{
							"internalType": "address",
							"name": "to",
							"type": "address"
						},
						{
							"internalType": "uint256",
							"name": "id",
							"type": "uint256"
						},
						{
							"internalType": "uint256",
							"name": "value",
							"type": "uint256"
						},
						{
							"internalType": "bytes",
							"name": "data",
							"type": "bytes"
						}
					],
					"name": "safeTransferFrom",
					"outputs": [],
					"stateMutability": "nonpayable",
					"type": "function"
				},
				{
					"inputs": [
						{
							"internalType": "address",
							"name": "operator",
							"type": "address"
						},
						{
							"internalType": "bool",
							"name": "approved",
							"type": "bool"
						}
					],
					"name": "setApprovalForAll",
					"outputs": [],
					"stateMutability": "nonpayable",
					"type": "function"
				},
				{
					"inputs": [
						{
							"internalType": "string",
							"name": "newuri",
							"type": "string"
						}
					],
					"name": "setURI",
					"outputs": [],
					"stateMutability": "nonpayable",
					"type": "function"
				},
				{
					"inputs": [
						{
							"internalType": "bytes4",
							"name": "interfaceId",
							"type": "bytes4"
						}
					],
					"name": "supportsInterface",
					"outputs": [
						{
							"internalType": "bool",
							"name": "",
							"type": "bool"
						}
					],
					"stateMutability": "view",
					"type": "function"
				},
				{
					"inputs": [],
					"name": "totalSupply",
					"outputs": [
						{
							"internalType": "uint256",
							"name": "",
							"type": "uint256"
						}
					],
					"stateMutability": "view",
					"type": "function"
				},
				{
					"inputs": [
						{
							"internalType": "uint256",
							"name": "id",
							"type": "uint256"
						}
					],
					"name": "totalSupply",
					"outputs": [
						{
							"internalType": "uint256",
							"name": "",
							"type": "uint256"
						}
					],
					"stateMutability": "view",
					"type": "function"
				},
				{
					"inputs": [
						{
							"internalType": "address",
							"name": "from",
							"type": "address"
						},
						{
							"internalType": "address",
							"name": "to",
							"type": "address"
						},
						{
							"internalType": "uint256",
							"name": "id",
							"type": "uint256"
						},
						{
							"internalType": "uint256",
							"name": "value",
							"type": "uint256"
						},
						{
							"internalType": "bytes",
							"name": "data",
							"type": "bytes"
						}
					],
					"name": "transfer",
					"outputs": [],
					"stateMutability": "nonpayable",
					"type": "function"
				},
				{
					"inputs": [
						{
							"internalType": "address",
							"name": "newOwner",
							"type": "address"
						}
					],
					"name": "transferOwnership",
					"outputs": [],
					"stateMutability": "nonpayable",
					"type": "function"
				},
				{
					"inputs": [
						{
							"internalType": "uint256",
							"name": "",
							"type": "uint256"
						}
					],
					"name": "uri",
					"outputs": [
						{
							"internalType": "string",
							"name": "",
							"type": "string"
						}
					],
					"stateMutability": "view",
					"type": "function"
				}
			],
			"devdoc": {
				"errors": {
					"ERC1155InsufficientBalance(address,uint256,uint256,uint256)": [
						{
							"details": "Indicates an error related to the current `balance` of a `sender`. Used in transfers.",
							"params": {
								"balance": "Current balance for the interacting account.",
								"needed": "Minimum amount required to perform a transfer.",
								"sender": "Address whose tokens are being transferred.",
								"tokenId": "Identifier number of a token."
							}
						}
					],
					"ERC1155InvalidApprover(address)": [
						{
							"details": "Indicates a failure with the `approver` of a token to be approved. Used in approvals.",
							"params": {
								"approver": "Address initiating an approval operation."
							}
						}
					],
					"ERC1155InvalidArrayLength(uint256,uint256)": [
						{
							"details": "Indicates an array length mismatch between ids and values in a safeBatchTransferFrom operation. Used in batch transfers.",
							"params": {
								"idsLength": "Length of the array of token identifiers",
								"valuesLength": "Length of the array of token amounts"
							}
						}
					],
					"ERC1155InvalidOperator(address)": [
						{
							"details": "Indicates a failure with the `operator` to be approved. Used in approvals.",
							"params": {
								"operator": "Address that may be allowed to operate on tokens without being their owner."
							}
						}
					],
					"ERC1155InvalidReceiver(address)": [
						{
							"details": "Indicates a failure with the token `receiver`. Used in transfers.",
							"params": {
								"receiver": "Address to which tokens are being transferred."
							}
						}
					],
					"ERC1155InvalidSender(address)": [
						{
							"details": "Indicates a failure with the token `sender`. Used in transfers.",
							"params": {
								"sender": "Address whose tokens are being transferred."
							}
						}
					],
					"ERC1155MissingApprovalForAll(address,address)": [
						{
							"details": "Indicates a failure with the `operator`’s approval. Used in transfers.",
							"params": {
								"operator": "Address that may be allowed to operate on tokens without being their owner.",
								"owner": "Address of the current owner of a token."
							}
						}
					],
					"OwnableInvalidOwner(address)": [
						{
							"details": "The owner is not a valid owner account. (eg. `address(0)`)"
						}
					],
					"OwnableUnauthorizedAccount(address)": [
						{
							"details": "The caller account is not authorized to perform an operation."
						}
					]
				},
				"events": {
					"ApprovalForAll(address,address,bool)": {
						"details": "Emitted when `account` grants or revokes permission to `operator` to transfer their tokens, according to `approved`."
					},
					"TransferBatch(address,address,address,uint256[],uint256[])": {
						"details": "Equivalent to multiple {TransferSingle} events, where `operator`, `from` and `to` are the same for all transfers."
					},
					"TransferSingle(address,address,address,uint256,uint256)": {
						"details": "Emitted when `value` amount of tokens of type `id` are transferred from `from` to `to` by `operator`."
					},
					"URI(string,uint256)": {
						"details": "Emitted when the URI for token type `id` changes to `value`, if it is a non-programmatic URI. If an {URI} event was emitted for `id`, the standard https://eips.ethereum.org/EIPS/eip-1155#metadata-extensions[guarantees] that `value` will equal the value returned by {IERC1155MetadataURI-uri}."
					}
				},
				"kind": "dev",
				"methods": {
					"balanceOf(address,uint256)": {
						"details": "See {IERC1155-balanceOf}."
					},
					"balanceOfBatch(address[],uint256[])": {
						"details": "See {IERC1155-balanceOfBatch}. Requirements: - `accounts` and `ids` must have the same length."
					},
					"exists(uint256)": {
						"details": "Indicates whether any token exist with a given id, or not."
					},
					"isApprovedForAll(address,address)": {
						"details": "See {IERC1155-isApprovedForAll}."
					},
					"owner()": {
						"details": "Returns the address of the current owner."
					},
					"renounceOwnership()": {
						"details": "Leaves the contract without owner. It will not be possible to call `onlyOwner` functions. Can only be called by the current owner. NOTE: Renouncing ownership will leave the contract without an owner, thereby disabling any functionality that is only available to the owner."
					},
					"safeBatchTransferFrom(address,address,uint256[],uint256[],bytes)": {
						"details": "See {IERC1155-safeBatchTransferFrom}."
					},
					"safeTransferFrom(address,address,uint256,uint256,bytes)": {
						"details": "See {IERC1155-safeTransferFrom}."
					},
					"setApprovalForAll(address,bool)": {
						"details": "See {IERC1155-setApprovalForAll}."
					},
					"supportsInterface(bytes4)": {
						"details": "See {IERC165-supportsInterface}."
					},
					"totalSupply()": {
						"details": "Total value of tokens."
					},
					"totalSupply(uint256)": {
						"details": "Total value of tokens in with a given id."
					},
					"transferOwnership(address)": {
						"details": "Transfers ownership of the contract to a new account (`newOwner`). Can only be called by the current owner."
					},
					"uri(uint256)": {
						"details": "See {IERC1155MetadataURI-uri}. This implementation returns the same URI for *all* token types. It relies on the token type ID substitution mechanism https://eips.ethereum.org/EIPS/eip-1155#metadata[defined in the EIP]. Clients calling this function must replace the `\\{id\\}` substring with the actual token type ID."
					}
				},
				"version": 1
			},
			"evm": {
				"assembly": "    /* \"contracts/Song.sol\":351:1711  contract Song is ERC1155, Ownable, ERC1155Supply {... */\n  mstore(0x40, 0x80)\n    /* \"contracts/Song.sol\":518:588  constructor(address initialOwner) ERC1155(\"\") Ownable(initialOwner) {} */\n  callvalue\n  dup1\n  iszero\n  tag_1\n  jumpi\n  0x00\n  dup1\n  revert\ntag_1:\n  pop\n  mload(0x40)\n  sub(codesize, bytecodeSize)\n  dup1\n  bytecodeSize\n  dup4\n  codecopy\n  dup2\n  dup2\n  add\n  0x40\n  mstore\n  dup2\n  add\n  swap1\n  tag_2\n  swap2\n  swap1\n  tag_3\n  jump\t// in\ntag_2:\n    /* \"contracts/Song.sol\":572:584  initialOwner */\n  dup1\n    /* \"@openzeppelin/contracts/token/ERC1155/ERC1155.sol\":1251:1313  constructor(string memory uri_) {... */\n  mload(0x40)\n  dup1\n  0x20\n  add\n  0x40\n  mstore\n  dup1\n  0x00\n  dup2\n  mstore\n  pop\n    /* \"@openzeppelin/contracts/token/ERC1155/ERC1155.sol\":1293:1306  _setURI(uri_) */\n  tag_8\n    /* \"@openzeppelin/contracts/token/ERC1155/ERC1155.sol\":1301:1305  uri_ */\n  dup2\n    /* \"@openzeppelin/contracts/token/ERC1155/ERC1155.sol\":1293:1300  _setURI */\n  shl(0x20, tag_9)\n    /* \"@openzeppelin/contracts/token/ERC1155/ERC1155.sol\":1293:1306  _setURI(uri_) */\n  0x20\n  shr\n  jump\t// in\ntag_8:\n    /* \"@openzeppelin/contracts/token/ERC1155/ERC1155.sol\":1251:1313  constructor(string memory uri_) {... */\n  pop\n    /* \"@openzeppelin/contracts/access/Ownable.sol\":1297:1298  0 */\n  0x00\n    /* \"@openzeppelin/contracts/access/Ownable.sol\":1273:1299  initialOwner == address(0) */\n  0xffffffffffffffffffffffffffffffffffffffff\n  and\n    /* \"@openzeppelin/contracts/access/Ownable.sol\":1273:1285  initialOwner */\n  dup2\n    /* \"@openzeppelin/contracts/access/Ownable.sol\":1273:1299  initialOwner == address(0) */\n  0xffffffffffffffffffffffffffffffffffffffff\n  and\n  sub\n    /* \"@openzeppelin/contracts/access/Ownable.sol\":1269:1364  if (initialOwner == address(0)) {... */\n  tag_11\n  jumpi\n    /* \"@openzeppelin/contracts/access/Ownable.sol\":1350:1351  0 */\n  0x00\n    /* \"@openzeppelin/contracts/access/Ownable.sol\":1322:1353  OwnableInvalidOwner(address(0)) */\n  mload(0x40)\n  0x1e4fbdf700000000000000000000000000000000000000000000000000000000\n  dup2\n  mstore\n  0x04\n  add\n  tag_12\n  swap2\n  swap1\n  tag_13\n  jump\t// in\ntag_12:\n  mload(0x40)\n  dup1\n  swap2\n  sub\n  swap1\n  revert\n    /* \"@openzeppelin/contracts/access/Ownable.sol\":1269:1364  if (initialOwner == address(0)) {... */\ntag_11:\n    /* \"@openzeppelin/contracts/access/Ownable.sol\":1373:1405  _transferOwnership(initialOwner) */\n  tag_14\n    /* \"@openzeppelin/contracts/access/Ownable.sol\":1392:1404  initialOwner */\n  dup2\n    /* \"@openzeppelin/contracts/access/Ownable.sol\":1373:1391  _transferOwnership */\n  shl(0x20, tag_15)\n    /* \"@openzeppelin/contracts/access/Ownable.sol\":1373:1405  _transferOwnership(initialOwner) */\n  0x20\n  shr\n  jump\t// in\ntag_14:\n    /* \"@openzeppelin/contracts/access/Ownable.sol\":1225:1412  constructor(address initialOwner) {... */\n  pop\n    /* \"contracts/Song.sol\":518:588  constructor(address initialOwner) ERC1155(\"\") Ownable(initialOwner) {} */\n  pop\n    /* \"contracts/Song.sol\":351:1711  contract Song is ERC1155, Ownable, ERC1155Supply {... */\n  jump(tag_17)\n    /* \"@openzeppelin/contracts/token/ERC1155/ERC1155.sol\":10282:10368  function _setURI(string memory newuri) internal virtual {... */\ntag_9:\n    /* \"@openzeppelin/contracts/token/ERC1155/ERC1155.sol\":10355:10361  newuri */\n  dup1\n    /* \"@openzeppelin/contracts/token/ERC1155/ERC1155.sol\":10348:10352  _uri */\n  0x02\n    /* \"@openzeppelin/contracts/token/ERC1155/ERC1155.sol\":10348:10361  _uri = newuri */\n  swap1\n  dup2\n  tag_19\n  swap2\n  swap1\n  tag_20\n  jump\t// in\ntag_19:\n  pop\n    /* \"@openzeppelin/contracts/token/ERC1155/ERC1155.sol\":10282:10368  function _setURI(string memory newuri) internal virtual {... */\n  pop\n  jump\t// out\n    /* \"@openzeppelin/contracts/access/Ownable.sol\":2912:3099  function _transferOwnership(address newOwner) internal virtual {... */\ntag_15:\n    /* \"@openzeppelin/contracts/access/Ownable.sol\":2985:3001  address oldOwner */\n  0x00\n    /* \"@openzeppelin/contracts/access/Ownable.sol\":3004:3010  _owner */\n  0x03\n  0x00\n  swap1\n  sload\n  swap1\n  0x0100\n  exp\n  swap1\n  div\n  0xffffffffffffffffffffffffffffffffffffffff\n  and\n    /* \"@openzeppelin/contracts/access/Ownable.sol\":2985:3010  address oldOwner = _owner */\n  swap1\n  pop\n    /* \"@openzeppelin/contracts/access/Ownable.sol\":3029:3037  newOwner */\n  dup2\n    /* \"@openzeppelin/contracts/access/Ownable.sol\":3020:3026  _owner */\n  0x03\n  0x00\n    /* \"@openzeppelin/contracts/access/Ownable.sol\":3020:3037  _owner = newOwner */\n  0x0100\n  exp\n  dup2\n  sload\n  dup2\n  0xffffffffffffffffffffffffffffffffffffffff\n  mul\n  not\n  and\n  swap1\n  dup4\n  0xffffffffffffffffffffffffffffffffffffffff\n  and\n  mul\n  or\n  swap1\n  sstore\n  pop\n    /* \"@openzeppelin/contracts/access/Ownable.sol\":3083:3091  newOwner */\n  dup2\n    /* \"@openzeppelin/contracts/access/Ownable.sol\":3052:3092  OwnershipTransferred(oldOwner, newOwner) */\n  0xffffffffffffffffffffffffffffffffffffffff\n  and\n    /* \"@openzeppelin/contracts/access/Ownable.sol\":3073:3081  oldOwner */\n  dup2\n    /* \"@openzeppelin/contracts/access/Ownable.sol\":3052:3092  OwnershipTransferred(oldOwner, newOwner) */\n  0xffffffffffffffffffffffffffffffffffffffff\n  and\n  0x8be0079c531659141344cd1fd0a4f28419497f9722a3daafe3b4186f6b6457e0\n  mload(0x40)\n  mload(0x40)\n  dup1\n  swap2\n  sub\n  swap1\n  log3\n    /* \"@openzeppelin/contracts/access/Ownable.sol\":2975:3099  {... */\n  pop\n    /* \"@openzeppelin/contracts/access/Ownable.sol\":2912:3099  function _transferOwnership(address newOwner) internal virtual {... */\n  pop\n  jump\t// out\n    /* \"#utility.yul\":88:205   */\ntag_23:\n    /* \"#utility.yul\":197:198   */\n  0x00\n    /* \"#utility.yul\":194:195   */\n  dup1\n    /* \"#utility.yul\":187:199   */\n  revert\n    /* \"#utility.yul\":334:460   */\ntag_25:\n    /* \"#utility.yul\":371:378   */\n  0x00\n    /* \"#utility.yul\":411:453   */\n  0xffffffffffffffffffffffffffffffffffffffff\n    /* \"#utility.yul\":404:409   */\n  dup3\n    /* \"#utility.yul\":400:454   */\n  and\n    /* \"#utility.yul\":389:454   */\n  swap1\n  pop\n    /* \"#utility.yul\":334:460   */\n  swap2\n  swap1\n  pop\n  jump\t// out\n    /* \"#utility.yul\":466:562   */\ntag_26:\n    /* \"#utility.yul\":503:510   */\n  0x00\n    /* \"#utility.yul\":532:556   */\n  tag_56\n    /* \"#utility.yul\":550:555   */\n  dup3\n    /* \"#utility.yul\":532:556   */\n  tag_25\n  jump\t// in\ntag_56:\n    /* \"#utility.yul\":521:556   */\n  swap1\n  pop\n    /* \"#utility.yul\":466:562   */\n  swap2\n  swap1\n  pop\n  jump\t// out\n    /* \"#utility.yul\":568:690   */\ntag_27:\n    /* \"#utility.yul\":641:665   */\n  tag_58\n    /* \"#utility.yul\":659:664   */\n  dup2\n    /* \"#utility.yul\":641:665   */\n  tag_26\n  jump\t// in\ntag_58:\n    /* \"#utility.yul\":634:639   */\n  dup2\n    /* \"#utility.yul\":631:666   */\n  eq\n    /* \"#utility.yul\":621:684   */\n  tag_59\n  jumpi\n    /* \"#utility.yul\":680:681   */\n  0x00\n    /* \"#utility.yul\":677:678   */\n  dup1\n    /* \"#utility.yul\":670:682   */\n  revert\n    /* \"#utility.yul\":621:684   */\ntag_59:\n    /* \"#utility.yul\":568:690   */\n  pop\n  jump\t// out\n    /* \"#utility.yul\":696:839   */\ntag_28:\n    /* \"#utility.yul\":753:758   */\n  0x00\n    /* \"#utility.yul\":784:790   */\n  dup2\n    /* \"#utility.yul\":778:791   */\n  mload\n    /* \"#utility.yul\":769:791   */\n  swap1\n  pop\n    /* \"#utility.yul\":800:833   */\n  tag_61\n    /* \"#utility.yul\":827:832   */\n  dup2\n    /* \"#utility.yul\":800:833   */\n  tag_27\n  jump\t// in\ntag_61:\n    /* \"#utility.yul\":696:839   */\n  swap3\n  swap2\n  pop\n  pop\n  jump\t// out\n    /* \"#utility.yul\":845:1196   */\ntag_3:\n    /* \"#utility.yul\":915:921   */\n  0x00\n    /* \"#utility.yul\":964:966   */\n  0x20\n    /* \"#utility.yul\":952:961   */\n  dup3\n    /* \"#utility.yul\":943:950   */\n  dup5\n    /* \"#utility.yul\":939:962   */\n  sub\n    /* \"#utility.yul\":935:967   */\n  slt\n    /* \"#utility.yul\":932:1051   */\n  iszero\n  tag_63\n  jumpi\n    /* \"#utility.yul\":970:1049   */\n  tag_64\n  tag_23\n  jump\t// in\ntag_64:\n    /* \"#utility.yul\":932:1051   */\ntag_63:\n    /* \"#utility.yul\":1090:1091   */\n  0x00\n    /* \"#utility.yul\":1115:1179   */\n  tag_65\n    /* \"#utility.yul\":1171:1178   */\n  dup5\n    /* \"#utility.yul\":1162:1168   */\n  dup3\n    /* \"#utility.yul\":1151:1160   */\n  dup6\n    /* \"#utility.yul\":1147:1169   */\n  add\n    /* \"#utility.yul\":1115:1179   */\n  tag_28\n  jump\t// in\ntag_65:\n    /* \"#utility.yul\":1105:1179   */\n  swap2\n  pop\n    /* \"#utility.yul\":1061:1189   */\n  pop\n    /* \"#utility.yul\":845:1196   */\n  swap3\n  swap2\n  pop\n  pop\n  jump\t// out\n    /* \"#utility.yul\":1202:1320   */\ntag_29:\n    /* \"#utility.yul\":1289:1313   */\n  tag_67\n    /* \"#utility.yul\":1307:1312   */\n  dup2\n    /* \"#utility.yul\":1289:1313   */\n  tag_26\n  jump\t// in\ntag_67:\n    /* \"#utility.yul\":1284:1287   */\n  dup3\n    /* \"#utility.yul\":1277:1314   */\n  mstore\n    /* \"#utility.yul\":1202:1320   */\n  pop\n  pop\n  jump\t// out\n    /* \"#utility.yul\":1326:1548   */\ntag_13:\n    /* \"#utility.yul\":1419:1423   */\n  0x00\n    /* \"#utility.yul\":1457:1459   */\n  0x20\n    /* \"#utility.yul\":1446:1455   */\n  dup3\n    /* \"#utility.yul\":1442:1460   */\n  add\n    /* \"#utility.yul\":1434:1460   */\n  swap1\n  pop\n    /* \"#utility.yul\":1470:1541   */\n  tag_69\n    /* \"#utility.yul\":1538:1539   */\n  0x00\n    /* \"#utility.yul\":1527:1536   */\n  dup4\n    /* \"#utility.yul\":1523:1540   */\n  add\n    /* \"#utility.yul\":1514:1520   */\n  dup5\n    /* \"#utility.yul\":1470:1541   */\n  tag_29\n  jump\t// in\ntag_69:\n    /* \"#utility.yul\":1326:1548   */\n  swap3\n  swap2\n  pop\n  pop\n  jump\t// out\n    /* \"#utility.yul\":1554:1653   */\ntag_30:\n    /* \"#utility.yul\":1606:1612   */\n  0x00\n    /* \"#utility.yul\":1640:1645   */\n  dup2\n    /* \"#utility.yul\":1634:1646   */\n  mload\n    /* \"#utility.yul\":1624:1646   */\n  swap1\n  pop\n    /* \"#utility.yul\":1554:1653   */\n  swap2\n  swap1\n  pop\n  jump\t// out\n    /* \"#utility.yul\":1659:1839   */\ntag_31:\n    /* \"#utility.yul\":1707:1784   */\n  0x4e487b7100000000000000000000000000000000000000000000000000000000\n    /* \"#utility.yul\":1704:1705   */\n  0x00\n    /* \"#utility.yul\":1697:1785   */\n  mstore\n    /* \"#utility.yul\":1804:1808   */\n  0x41\n    /* \"#utility.yul\":1801:1802   */\n  0x04\n    /* \"#utility.yul\":1794:1809   */\n  mstore\n    /* \"#utility.yul\":1828:1832   */\n  0x24\n    /* \"#utility.yul\":1825:1826   */\n  0x00\n    /* \"#utility.yul\":1818:1833   */\n  revert\n    /* \"#utility.yul\":1845:2025   */\ntag_32:\n    /* \"#utility.yul\":1893:1970   */\n  0x4e487b7100000000000000000000000000000000000000000000000000000000\n    /* \"#utility.yul\":1890:1891   */\n  0x00\n    /* \"#utility.yul\":1883:1971   */\n  mstore\n    /* \"#utility.yul\":1990:1994   */\n  0x22\n    /* \"#utility.yul\":1987:1988   */\n  0x04\n    /* \"#utility.yul\":1980:1995   */\n  mstore\n    /* \"#utility.yul\":2014:2018   */\n  0x24\n    /* \"#utility.yul\":2011:2012   */\n  0x00\n    /* \"#utility.yul\":2004:2019   */\n  revert\n    /* \"#utility.yul\":2031:2351   */\ntag_33:\n    /* \"#utility.yul\":2075:2081   */\n  0x00\n    /* \"#utility.yul\":2112:2113   */\n  0x02\n    /* \"#utility.yul\":2106:2110   */\n  dup3\n    /* \"#utility.yul\":2102:2114   */\n  div\n    /* \"#utility.yul\":2092:2114   */\n  swap1\n  pop\n    /* \"#utility.yul\":2159:2160   */\n  0x01\n    /* \"#utility.yul\":2153:2157   */\n  dup3\n    /* \"#utility.yul\":2149:2161   */\n  and\n    /* \"#utility.yul\":2180:2198   */\n  dup1\n    /* \"#utility.yul\":2170:2251   */\n  tag_74\n  jumpi\n    /* \"#utility.yul\":2236:2240   */\n  0x7f\n    /* \"#utility.yul\":2228:2234   */\n  dup3\n    /* \"#utility.yul\":2224:2241   */\n  and\n    /* \"#utility.yul\":2214:2241   */\n  swap2\n  pop\n    /* \"#utility.yul\":2170:2251   */\ntag_74:\n    /* \"#utility.yul\":2298:2300   */\n  0x20\n    /* \"#utility.yul\":2290:2296   */\n  dup3\n    /* \"#utility.yul\":2287:2301   */\n  lt\n    /* \"#utility.yul\":2267:2285   */\n  dup2\n    /* \"#utility.yul\":2264:2302   */\n  sub\n    /* \"#utility.yul\":2261:2345   */\n  tag_75\n  jumpi\n    /* \"#utility.yul\":2317:2335   */\n  tag_76\n  tag_32\n  jump\t// in\ntag_76:\n    /* \"#utility.yul\":2261:2345   */\ntag_75:\n    /* \"#utility.yul\":2082:2351   */\n  pop\n    /* \"#utility.yul\":2031:2351   */\n  swap2\n  swap1\n  pop\n  jump\t// out\n    /* \"#utility.yul\":2357:2498   */\ntag_34:\n    /* \"#utility.yul\":2406:2410   */\n  0x00\n    /* \"#utility.yul\":2429:2432   */\n  dup2\n    /* \"#utility.yul\":2421:2432   */\n  swap1\n  pop\n    /* \"#utility.yul\":2452:2455   */\n  dup2\n    /* \"#utility.yul\":2449:2450   */\n  0x00\n    /* \"#utility.yul\":2442:2456   */\n  mstore\n    /* \"#utility.yul\":2486:2490   */\n  0x20\n    /* \"#utility.yul\":2483:2484   */\n  0x00\n    /* \"#utility.yul\":2473:2491   */\n  keccak256\n    /* \"#utility.yul\":2465:2491   */\n  swap1\n  pop\n    /* \"#utility.yul\":2357:2498   */\n  swap2\n  swap1\n  pop\n  jump\t// out\n    /* \"#utility.yul\":2504:2597   */\ntag_35:\n    /* \"#utility.yul\":2541:2547   */\n  0x00\n    /* \"#utility.yul\":2588:2590   */\n  0x20\n    /* \"#utility.yul\":2583:2585   */\n  0x1f\n    /* \"#utility.yul\":2576:2581   */\n  dup4\n    /* \"#utility.yul\":2572:2586   */\n  add\n    /* \"#utility.yul\":2568:2591   */\n  div\n    /* \"#utility.yul\":2558:2591   */\n  swap1\n  pop\n    /* \"#utility.yul\":2504:2597   */\n  swap2\n  swap1\n  pop\n  jump\t// out\n    /* \"#utility.yul\":2603:2710   */\ntag_36:\n    /* \"#utility.yul\":2647:2655   */\n  0x00\n    /* \"#utility.yul\":2697:2702   */\n  dup3\n    /* \"#utility.yul\":2691:2695   */\n  dup3\n    /* \"#utility.yul\":2687:2703   */\n  shl\n    /* \"#utility.yul\":2666:2703   */\n  swap1\n  pop\n    /* \"#utility.yul\":2603:2710   */\n  swap3\n  swap2\n  pop\n  pop\n  jump\t// out\n    /* \"#utility.yul\":2716:3109   */\ntag_37:\n    /* \"#utility.yul\":2785:2791   */\n  0x00\n    /* \"#utility.yul\":2835:2836   */\n  0x08\n    /* \"#utility.yul\":2823:2833   */\n  dup4\n    /* \"#utility.yul\":2819:2837   */\n  mul\n    /* \"#utility.yul\":2858:2955   */\n  tag_81\n    /* \"#utility.yul\":2888:2954   */\n  0xffffffffffffffffffffffffffffffffffffffffffffffffffffffffffffffff\n    /* \"#utility.yul\":2877:2886   */\n  dup3\n    /* \"#utility.yul\":2858:2955   */\n  tag_36\n  jump\t// in\ntag_81:\n    /* \"#utility.yul\":2976:3015   */\n  tag_82\n    /* \"#utility.yul\":3006:3014   */\n  dup7\n    /* \"#utility.yul\":2995:3004   */\n  dup4\n    /* \"#utility.yul\":2976:3015   */\n  tag_36\n  jump\t// in\ntag_82:\n    /* \"#utility.yul\":2964:3015   */\n  swap6\n  pop\n    /* \"#utility.yul\":3048:3052   */\n  dup1\n    /* \"#utility.yul\":3044:3053   */\n  not\n    /* \"#utility.yul\":3037:3042   */\n  dup5\n    /* \"#utility.yul\":3033:3054   */\n  and\n    /* \"#utility.yul\":3024:3054   */\n  swap4\n  pop\n    /* \"#utility.yul\":3097:3101   */\n  dup1\n    /* \"#utility.yul\":3087:3095   */\n  dup7\n    /* \"#utility.yul\":3083:3102   */\n  and\n    /* \"#utility.yul\":3076:3081   */\n  dup5\n    /* \"#utility.yul\":3073:3103   */\n  or\n    /* \"#utility.yul\":3063:3103   */\n  swap3\n  pop\n    /* \"#utility.yul\":2792:3109   */\n  pop\n  pop\n    /* \"#utility.yul\":2716:3109   */\n  swap4\n  swap3\n  pop\n  pop\n  pop\n  jump\t// out\n    /* \"#utility.yul\":3115:3192   */\ntag_38:\n    /* \"#utility.yul\":3152:3159   */\n  0x00\n    /* \"#utility.yul\":3181:3186   */\n  dup2\n    /* \"#utility.yul\":3170:3186   */\n  swap1\n  pop\n    /* \"#utility.yul\":3115:3192   */\n  swap2\n  swap1\n  pop\n  jump\t// out\n    /* \"#utility.yul\":3198:3258   */\ntag_39:\n    /* \"#utility.yul\":3226:3229   */\n  0x00\n    /* \"#utility.yul\":3247:3252   */\n  dup2\n    /* \"#utility.yul\":3240:3252   */\n  swap1\n  pop\n    /* \"#utility.yul\":3198:3258   */\n  swap2\n  swap1\n  pop\n  jump\t// out\n    /* \"#utility.yul\":3264:3406   */\ntag_40:\n    /* \"#utility.yul\":3314:3323   */\n  0x00\n    /* \"#utility.yul\":3347:3400   */\n  tag_86\n    /* \"#utility.yul\":3365:3399   */\n  tag_87\n    /* \"#utility.yul\":3374:3398   */\n  tag_88\n    /* \"#utility.yul\":3392:3397   */\n  dup5\n    /* \"#utility.yul\":3374:3398   */\n  tag_38\n  jump\t// in\ntag_88:\n    /* \"#utility.yul\":3365:3399   */\n  tag_39\n  jump\t// in\ntag_87:\n    /* \"#utility.yul\":3347:3400   */\n  tag_38\n  jump\t// in\ntag_86:\n    /* \"#utility.yul\":3334:3400   */\n  swap1\n  pop\n    /* \"#utility.yul\":3264:3406   */\n  swap2\n  swap1\n  pop\n  jump\t// out\n    /* \"#utility.yul\":3412:3487   */\ntag_41:\n    /* \"#utility.yul\":3455:3458   */\n  0x00\n    /* \"#utility.yul\":3476:3481   */\n  dup2\n    /* \"#utility.yul\":3469:3481   */\n  swap1\n  pop\n    /* \"#utility.yul\":3412:3487   */\n  swap2\n  swap1\n  pop\n  jump\t// out\n    /* \"#utility.yul\":3493:3762   */\ntag_42:\n    /* \"#utility.yul\":3603:3642   */\n  tag_91\n    /* \"#utility.yul\":3634:3641   */\n  dup4\n    /* \"#utility.yul\":3603:3642   */\n  tag_40\n  jump\t// in\ntag_91:\n    /* \"#utility.yul\":3664:3755   */\n  tag_92\n    /* \"#utility.yul\":3713:3754   */\n  tag_93\n    /* \"#utility.yul\":3737:3753   */\n  dup3\n    /* \"#utility.yul\":3713:3754   */\n  tag_41\n  jump\t// in\ntag_93:\n    /* \"#utility.yul\":3705:3711   */\n  dup5\n    /* \"#utility.yul\":3698:3702   */\n  dup5\n    /* \"#utility.yul\":3692:3703   */\n  sload\n    /* \"#utility.yul\":3664:3755   */\n  tag_37\n  jump\t// in\ntag_92:\n    /* \"#utility.yul\":3658:3662   */\n  dup3\n    /* \"#utility.yul\":3651:3756   */\n  sstore\n    /* \"#utility.yul\":3569:3762   */\n  pop\n    /* \"#utility.yul\":3493:3762   */\n  pop\n  pop\n  pop\n  jump\t// out\n    /* \"#utility.yul\":3768:3841   */\ntag_43:\n    /* \"#utility.yul\":3813:3816   */\n  0x00\n    /* \"#utility.yul\":3768:3841   */\n  swap1\n  jump\t// out\n    /* \"#utility.yul\":3847:4036   */\ntag_44:\n    /* \"#utility.yul\":3924:3956   */\n  tag_96\n  tag_43\n  jump\t// in\ntag_96:\n    /* \"#utility.yul\":3965:4030   */\n  tag_97\n    /* \"#utility.yul\":4023:4029   */\n  dup2\n    /* \"#utility.yul\":4015:4021   */\n  dup5\n    /* \"#utility.yul\":4009:4013   */\n  dup5\n    /* \"#utility.yul\":3965:4030   */\n  tag_42\n  jump\t// in\ntag_97:\n    /* \"#utility.yul\":3900:4036   */\n  pop\n    /* \"#utility.yul\":3847:4036   */\n  pop\n  pop\n  jump\t// out\n    /* \"#utility.yul\":4042:4228   */\ntag_45:\n    /* \"#utility.yul\":4102:4222   */\ntag_99:\n    /* \"#utility.yul\":4119:4122   */\n  dup2\n    /* \"#utility.yul\":4112:4117   */\n  dup2\n    /* \"#utility.yul\":4109:4123   */\n  lt\n    /* \"#utility.yul\":4102:4222   */\n  iszero\n  tag_101\n  jumpi\n    /* \"#utility.yul\":4173:4212   */\n  tag_102\n    /* \"#utility.yul\":4210:4211   */\n  0x00\n    /* \"#utility.yul\":4203:4208   */\n  dup3\n    /* \"#utility.yul\":4173:4212   */\n  tag_44\n  jump\t// in\ntag_102:\n    /* \"#utility.yul\":4146:4147   */\n  0x01\n    /* \"#utility.yul\":4139:4144   */\n  dup2\n    /* \"#utility.yul\":4135:4148   */\n  add\n    /* \"#utility.yul\":4126:4148   */\n  swap1\n  pop\n    /* \"#utility.yul\":4102:4222   */\n  jump(tag_99)\ntag_101:\n    /* \"#utility.yul\":4042:4228   */\n  pop\n  pop\n  jump\t// out\n    /* \"#utility.yul\":4234:4777   */\ntag_46:\n    /* \"#utility.yul\":4335:4337   */\n  0x1f\n    /* \"#utility.yul\":4330:4333   */\n  dup3\n    /* \"#utility.yul\":4327:4338   */\n  gt\n    /* \"#utility.yul\":4324:4770   */\n  iszero\n  tag_104\n  jumpi\n    /* \"#utility.yul\":4369:4407   */\n  tag_105\n    /* \"#utility.yul\":4401:4406   */\n  dup2\n    /* \"#utility.yul\":4369:4407   */\n  tag_34\n  jump\t// in\ntag_105:\n    /* \"#utility.yul\":4453:4482   */\n  tag_106\n    /* \"#utility.yul\":4471:4481   */\n  dup5\n    /* \"#utility.yul\":4453:4482   */\n  tag_35\n  jump\t// in\ntag_106:\n    /* \"#utility.yul\":4443:4451   */\n  dup2\n    /* \"#utility.yul\":4439:4483   */\n  add\n    /* \"#utility.yul\":4636:4638   */\n  0x20\n    /* \"#utility.yul\":4624:4634   */\n  dup6\n    /* \"#utility.yul\":4621:4639   */\n  lt\n    /* \"#utility.yul\":4618:4667   */\n  iszero\n  tag_107\n  jumpi\n    /* \"#utility.yul\":4657:4665   */\n  dup2\n    /* \"#utility.yul\":4642:4665   */\n  swap1\n  pop\n    /* \"#utility.yul\":4618:4667   */\ntag_107:\n    /* \"#utility.yul\":4680:4760   */\n  tag_108\n    /* \"#utility.yul\":4736:4758   */\n  tag_109\n    /* \"#utility.yul\":4754:4757   */\n  dup6\n    /* \"#utility.yul\":4736:4758   */\n  tag_35\n  jump\t// in\ntag_109:\n    /* \"#utility.yul\":4726:4734   */\n  dup4\n    /* \"#utility.yul\":4722:4759   */\n  add\n    /* \"#utility.yul\":4709:4720   */\n  dup3\n    /* \"#utility.yul\":4680:4760   */\n  tag_45\n  jump\t// in\ntag_108:\n    /* \"#utility.yul\":4339:4770   */\n  pop\n  pop\n    /* \"#utility.yul\":4324:4770   */\ntag_104:\n    /* \"#utility.yul\":4234:4777   */\n  pop\n  pop\n  pop\n  jump\t// out\n    /* \"#utility.yul\":4783:4900   */\ntag_47:\n    /* \"#utility.yul\":4837:4845   */\n  0x00\n    /* \"#utility.yul\":4887:4892   */\n  dup3\n    /* \"#utility.yul\":4881:4885   */\n  dup3\n    /* \"#utility.yul\":4877:4893   */\n  shr\n    /* \"#utility.yul\":4856:4893   */\n  swap1\n  pop\n    /* \"#utility.yul\":4783:4900   */\n  swap3\n  swap2\n  pop\n  pop\n  jump\t// out\n    /* \"#utility.yul\":4906:5075   */\ntag_48:\n    /* \"#utility.yul\":4950:4956   */\n  0x00\n    /* \"#utility.yul\":4983:5034   */\n  tag_112\n    /* \"#utility.yul\":5031:5032   */\n  0x00\n    /* \"#utility.yul\":5027:5033   */\n  not\n    /* \"#utility.yul\":5019:5024   */\n  dup5\n    /* \"#utility.yul\":5016:5017   */\n  0x08\n    /* \"#utility.yul\":5012:5025   */\n  mul\n    /* \"#utility.yul\":4983:5034   */\n  tag_47\n  jump\t// in\ntag_112:\n    /* \"#utility.yul\":4979:5035   */\n  not\n    /* \"#utility.yul\":5064:5068   */\n  dup1\n    /* \"#utility.yul\":5058:5062   */\n  dup4\n    /* \"#utility.yul\":5054:5069   */\n  and\n    /* \"#utility.yul\":5044:5069   */\n  swap2\n  pop\n    /* \"#utility.yul\":4957:5075   */\n  pop\n    /* \"#utility.yul\":4906:5075   */\n  swap3\n  swap2\n  pop\n  pop\n  jump\t// out\n    /* \"#utility.yul\":5080:5375   */\ntag_49:\n    /* \"#utility.yul\":5156:5160   */\n  0x00\n    /* \"#utility.yul\":5302:5331   */\n  tag_114\n    /* \"#utility.yul\":5327:5330   */\n  dup4\n    /* \"#utility.yul\":5321:5325   */\n  dup4\n    /* \"#utility.yul\":5302:5331   */\n  tag_48\n  jump\t// in\ntag_114:\n    /* \"#utility.yul\":5294:5331   */\n  swap2\n  pop\n    /* \"#utility.yul\":5364:5367   */\n  dup3\n    /* \"#utility.yul\":5361:5362   */\n  0x02\n    /* \"#utility.yul\":5357:5368   */\n  mul\n    /* \"#utility.yul\":5351:5355   */\n  dup3\n    /* \"#utility.yul\":5348:5369   */\n  or\n    /* \"#utility.yul\":5340:5369   */\n  swap1\n  pop\n    /* \"#utility.yul\":5080:5375   */\n  swap3\n  swap2\n  pop\n  pop\n  jump\t// out\n    /* \"#utility.yul\":5380:6775   */\ntag_20:\n    /* \"#utility.yul\":5497:5534   */\n  tag_116\n    /* \"#utility.yul\":5530:5533   */\n  dup3\n    /* \"#utility.yul\":5497:5534   */\n  tag_30\n  jump\t// in\ntag_116:\n    /* \"#utility.yul\":5599:5617   */\n  0xffffffffffffffff\n    /* \"#utility.yul\":5591:5597   */\n  dup2\n    /* \"#utility.yul\":5588:5618   */\n  gt\n    /* \"#utility.yul\":5585:5641   */\n  iszero\n  tag_117\n  jumpi\n    /* \"#utility.yul\":5621:5639   */\n  tag_118\n  tag_31\n  jump\t// in\ntag_118:\n    /* \"#utility.yul\":5585:5641   */\ntag_117:\n    /* \"#utility.yul\":5665:5703   */\n  tag_119\n    /* \"#utility.yul\":5697:5701   */\n  dup3\n    /* \"#utility.yul\":5691:5702   */\n  sload\n    /* \"#utility.yul\":5665:5703   */\n  tag_33\n  jump\t// in\ntag_119:\n    /* \"#utility.yul\":5750:5817   */\n  tag_120\n    /* \"#utility.yul\":5810:5816   */\n  dup3\n    /* \"#utility.yul\":5802:5808   */\n  dup3\n    /* \"#utility.yul\":5796:5800   */\n  dup6\n    /* \"#utility.yul\":5750:5817   */\n  tag_46\n  jump\t// in\ntag_120:\n    /* \"#utility.yul\":5844:5845   */\n  0x00\n    /* \"#utility.yul\":5868:5872   */\n  0x20\n    /* \"#utility.yul\":5855:5872   */\n  swap1\n  pop\n    /* \"#utility.yul\":5900:5902   */\n  0x1f\n    /* \"#utility.yul\":5892:5898   */\n  dup4\n    /* \"#utility.yul\":5889:5903   */\n  gt\n    /* \"#utility.yul\":5917:5918   */\n  0x01\n    /* \"#utility.yul\":5912:6530   */\n  dup2\n  eq\n  tag_122\n  jumpi\n    /* \"#utility.yul\":6574:6575   */\n  0x00\n    /* \"#utility.yul\":6591:6597   */\n  dup5\n    /* \"#utility.yul\":6588:6665   */\n  iszero\n  tag_123\n  jumpi\n    /* \"#utility.yul\":6640:6649   */\n  dup3\n    /* \"#utility.yul\":6635:6638   */\n  dup8\n    /* \"#utility.yul\":6631:6650   */\n  add\n    /* \"#utility.yul\":6625:6651   */\n  mload\n    /* \"#utility.yul\":6616:6651   */\n  swap1\n  pop\n    /* \"#utility.yul\":6588:6665   */\ntag_123:\n    /* \"#utility.yul\":6691:6758   */\n  tag_124\n    /* \"#utility.yul\":6751:6757   */\n  dup6\n    /* \"#utility.yul\":6744:6749   */\n  dup3\n    /* \"#utility.yul\":6691:6758   */\n  tag_49\n  jump\t// in\ntag_124:\n    /* \"#utility.yul\":6685:6689   */\n  dup7\n    /* \"#utility.yul\":6678:6759   */\n  sstore\n    /* \"#utility.yul\":6547:6769   */\n  pop\n    /* \"#utility.yul\":5882:6769   */\n  jump(tag_121)\n    /* \"#utility.yul\":5912:6530   */\ntag_122:\n    /* \"#utility.yul\":5964:5968   */\n  0x1f\n    /* \"#utility.yul\":5960:5969   */\n  not\n    /* \"#utility.yul\":5952:5958   */\n  dup5\n    /* \"#utility.yul\":5948:5970   */\n  and\n    /* \"#utility.yul\":5998:6035   */\n  tag_125\n    /* \"#utility.yul\":6030:6034   */\n  dup7\n    /* \"#utility.yul\":5998:6035   */\n  tag_34\n  jump\t// in\ntag_125:\n    /* \"#utility.yul\":6057:6058   */\n  0x00\n    /* \"#utility.yul\":6071:6279   */\ntag_126:\n    /* \"#utility.yul\":6085:6092   */\n  dup3\n    /* \"#utility.yul\":6082:6083   */\n  dup2\n    /* \"#utility.yul\":6079:6093   */\n  lt\n    /* \"#utility.yul\":6071:6279   */\n  iszero\n  tag_128\n  jumpi\n    /* \"#utility.yul\":6164:6173   */\n  dup5\n    /* \"#utility.yul\":6159:6162   */\n  dup10\n    /* \"#utility.yul\":6155:6174   */\n  add\n    /* \"#utility.yul\":6149:6175   */\n  mload\n    /* \"#utility.yul\":6141:6147   */\n  dup3\n    /* \"#utility.yul\":6134:6176   */\n  sstore\n    /* \"#utility.yul\":6215:6216   */\n  0x01\n    /* \"#utility.yul\":6207:6213   */\n  dup3\n    /* \"#utility.yul\":6203:6217   */\n  add\n    /* \"#utility.yul\":6193:6217   */\n  swap2\n  pop\n    /* \"#utility.yul\":6262:6264   */\n  0x20\n    /* \"#utility.yul\":6251:6260   */\n  dup6\n    /* \"#utility.yul\":6247:6265   */\n  add\n    /* \"#utility.yul\":6234:6265   */\n  swap5\n  pop\n    /* \"#utility.yul\":6108:6112   */\n  0x20\n    /* \"#utility.yul\":6105:6106   */\n  dup2\n    /* \"#utility.yul\":6101:6113   */\n  add\n    /* \"#utility.yul\":6096:6113   */\n  swap1\n  pop\n    /* \"#utility.yul\":6071:6279   */\n  jump(tag_126)\ntag_128:\n    /* \"#utility.yul\":6307:6313   */\n  dup7\n    /* \"#utility.yul\":6298:6305   */\n  dup4\n    /* \"#utility.yul\":6295:6314   */\n  lt\n    /* \"#utility.yul\":6292:6471   */\n  iszero\n  tag_129\n  jumpi\n    /* \"#utility.yul\":6365:6374   */\n  dup5\n    /* \"#utility.yul\":6360:6363   */\n  dup10\n    /* \"#utility.yul\":6356:6375   */\n  add\n    /* \"#utility.yul\":6350:6376   */\n  mload\n    /* \"#utility.yul\":6408:6456   */\n  tag_130\n    /* \"#utility.yul\":6450:6454   */\n  0x1f\n    /* \"#utility.yul\":6442:6448   */\n  dup10\n    /* \"#utility.yul\":6438:6455   */\n  and\n    /* \"#utility.yul\":6427:6436   */\n  dup3\n    /* \"#utility.yul\":6408:6456   */\n  tag_48\n  jump\t// in\ntag_130:\n    /* \"#utility.yul\":6400:6406   */\n  dup4\n    /* \"#utility.yul\":6393:6457   */\n  sstore\n    /* \"#utility.yul\":6315:6471   */\n  pop\n    /* \"#utility.yul\":6292:6471   */\ntag_129:\n    /* \"#utility.yul\":6517:6518   */\n  0x01\n    /* \"#utility.yul\":6513:6514   */\n  0x02\n    /* \"#utility.yul\":6505:6511   */\n  dup9\n    /* \"#utility.yul\":6501:6515   */\n  mul\n    /* \"#utility.yul\":6497:6519   */\n  add\n    /* \"#utility.yul\":6491:6495   */\n  dup9\n    /* \"#utility.yul\":6484:6520   */\n  sstore\n    /* \"#utility.yul\":5919:6530   */\n  pop\n  pop\n  pop\n    /* \"#utility.yul\":5882:6769   */\ntag_121:\n  pop\n    /* \"#utility.yul\":5472:6775   */\n  pop\n  pop\n  pop\n    /* \"#utility.yul\":5380:6775   */\n  pop\n  pop\n  jump\t// out\n    /* \"contracts/Song.sol\":351:1711  contract Song is ERC1155, Ownable, ERC1155Supply {... */\ntag_17:\n  dataSize(sub_0)\n  dup1\n  dataOffset(sub_0)\n  0x00\n  codecopy\n  0x00\n  return\nstop\n\nsub_0: assembly {\n        /* \"contracts/Song.sol\":351:1711  contract Song is ERC1155, Ownable, ERC1155Supply {... */\n      mstore(0x40, 0x80)\n      callvalue\n      dup1\n      iszero\n      tag_1\n      jumpi\n      0x00\n      dup1\n      revert\n    tag_1:\n      pop\n      jumpi(tag_2, lt(calldatasize, 0x04))\n      shr(0xe0, calldataload(0x00))\n      dup1\n      0x4f558e79\n      gt\n      tag_21\n      jumpi\n      dup1\n      0xa22cb465\n      gt\n      tag_22\n      jumpi\n      dup1\n      0xa22cb465\n      eq\n      tag_16\n      jumpi\n      dup1\n      0xbd85b039\n      eq\n      tag_17\n      jumpi\n      dup1\n      0xe985e9c5\n      eq\n      tag_18\n      jumpi\n      dup1\n      0xf242432a\n      eq\n      tag_19\n      jumpi\n      dup1\n      0xf2fde38b\n      eq\n      tag_20\n      jumpi\n      jump(tag_2)\n    tag_22:\n      dup1\n      0x4f558e79\n      eq\n      tag_12\n      jumpi\n      dup1\n      0x715018a6\n      eq\n      tag_13\n      jumpi\n      dup1\n      0x8da5cb5b\n      eq\n      tag_14\n      jumpi\n      dup1\n      0x94d008ef\n      eq\n      tag_15\n      jumpi\n      jump(tag_2)\n    tag_21:\n      dup1\n      0x127217d6\n      gt\n      tag_23\n      jumpi\n      dup1\n      0x127217d6\n      eq\n      tag_7\n      jumpi\n      dup1\n      0x18160ddd\n      eq\n      tag_8\n      jumpi\n      dup1\n      0x1f7fdffa\n      eq\n      tag_9\n      jumpi\n      dup1\n      0x2eb2c2d6\n      eq\n      tag_10\n      jumpi\n      dup1\n      0x4e1273f4\n      eq\n      tag_11\n      jumpi\n      jump(tag_2)\n    tag_23:\n      dup1\n      0xfdd58e\n      eq\n      tag_3\n      jumpi\n      dup1\n      0x01ffc9a7\n      eq\n      tag_4\n      jumpi\n      dup1\n      0x02fe5305\n      eq\n      tag_5\n      jumpi\n      dup1\n      0x0e89341c\n      eq\n      tag_6\n      jumpi\n    tag_2:\n      0x00\n      dup1\n      revert\n        /* \"@openzeppelin/contracts/token/ERC1155/ERC1155.sol\":2247:2379  function balanceOf(address account, uint256 id) public view virtual returns (uint256) {... */\n    tag_3:\n      tag_24\n      0x04\n      dup1\n      calldatasize\n      sub\n      dup2\n      add\n      swap1\n      tag_25\n      swap2\n      swap1\n      tag_26\n      jump\t// in\n    tag_25:\n      tag_27\n      jump\t// in\n    tag_24:\n      mload(0x40)\n      tag_28\n      swap2\n      swap1\n      tag_29\n      jump\t// in\n    tag_28:\n      mload(0x40)\n      dup1\n      swap2\n      sub\n      swap1\n      return\n        /* \"@openzeppelin/contracts/token/ERC1155/ERC1155.sol\":1380:1685  function supportsInterface(bytes4 interfaceId) public view virtual override(ERC165, IERC165) returns (bool) {... */\n    tag_4:\n      tag_30\n      0x04\n      dup1\n      calldatasize\n      sub\n      dup2\n      add\n      swap1\n      tag_31\n      swap2\n      swap1\n      tag_32\n      jump\t// in\n    tag_31:\n      tag_33\n      jump\t// in\n    tag_30:\n      mload(0x40)\n      tag_34\n      swap2\n      swap1\n      tag_35\n      jump\t// in\n    tag_34:\n      mload(0x40)\n      dup1\n      swap2\n      sub\n      swap1\n      return\n        /* \"contracts/Song.sol\":594:681  function setURI(string memory newuri) public onlyOwner {... */\n    tag_5:\n      tag_36\n      0x04\n      dup1\n      calldatasize\n      sub\n      dup2\n      add\n      swap1\n      tag_37\n      swap2\n      swap1\n      tag_38\n      jump\t// in\n    tag_37:\n      tag_39\n      jump\t// in\n    tag_36:\n      stop\n        /* \"@openzeppelin/contracts/token/ERC1155/ERC1155.sol\":2084:2187  function uri(uint256 /* id */) public view virtual returns (string memory) {... */\n    tag_6:\n      tag_40\n      0x04\n      dup1\n      calldatasize\n      sub\n      dup2\n      add\n      swap1\n      tag_41\n      swap2\n      swap1\n      tag_42\n      jump\t// in\n    tag_41:\n      tag_43\n      jump\t// in\n    tag_40:\n      mload(0x40)\n      tag_44\n      swap2\n      swap1\n      tag_45\n      jump\t// in\n    tag_44:\n      mload(0x40)\n      dup1\n      swap2\n      sub\n      swap1\n      return\n        /* \"contracts/Song.sol\":1211:1425  function transfer(... */\n    tag_7:\n      tag_46\n      0x04\n      dup1\n      calldatasize\n      sub\n      dup2\n      add\n      swap1\n      tag_47\n      swap2\n      swap1\n      tag_48\n      jump\t// in\n    tag_47:\n      tag_49\n      jump\t// in\n    tag_46:\n      stop\n        /* \"@openzeppelin/contracts/token/ERC1155/extensions/ERC1155Supply.sol\":1127:1227  function totalSupply() public view virtual returns (uint256) {... */\n    tag_8:\n      tag_50\n      tag_51\n      jump\t// in\n    tag_50:\n      mload(0x40)\n      tag_52\n      swap2\n      swap1\n      tag_29\n      jump\t// in\n    tag_52:\n      mload(0x40)\n      dup1\n      swap2\n      sub\n      swap1\n      return\n        /* \"contracts/Song.sol\":1001:1205  function mintBatch(... */\n    tag_9:\n      tag_53\n      0x04\n      dup1\n      calldatasize\n      sub\n      dup2\n      add\n      swap1\n      tag_54\n      swap2\n      swap1\n      tag_55\n      jump\t// in\n    tag_54:\n      tag_56\n      jump\t// in\n    tag_53:\n      stop\n        /* \"@openzeppelin/contracts/token/ERC1155/ERC1155.sol\":4014:4443  function safeBatchTransferFrom(... */\n    tag_10:\n      tag_57\n      0x04\n      dup1\n      calldatasize\n      sub\n      dup2\n      add\n      swap1\n      tag_58\n      swap2\n      swap1\n      tag_59\n      jump\t// in\n    tag_58:\n      tag_60\n      jump\t// in\n    tag_57:\n      stop\n        /* \"@openzeppelin/contracts/token/ERC1155/ERC1155.sol\":2536:3088  function balanceOfBatch(... */\n    tag_11:\n      tag_61\n      0x04\n      dup1\n      calldatasize\n      sub\n      dup2\n      add\n      swap1\n      tag_62\n      swap2\n      swap1\n      tag_63\n      jump\t// in\n    tag_62:\n      tag_64\n      jump\t// in\n    tag_61:\n      mload(0x40)\n      tag_65\n      swap2\n      swap1\n      tag_66\n      jump\t// in\n    tag_65:\n      mload(0x40)\n      dup1\n      swap2\n      sub\n      swap1\n      return\n        /* \"@openzeppelin/contracts/token/ERC1155/extensions/ERC1155Supply.sol\":1320:1426  function exists(uint256 id) public view virtual returns (bool) {... */\n    tag_12:\n      tag_67\n      0x04\n      dup1\n      calldatasize\n      sub\n      dup2\n      add\n      swap1\n      tag_68\n      swap2\n      swap1\n      tag_42\n      jump\t// in\n    tag_68:\n      tag_69\n      jump\t// in\n    tag_67:\n      mload(0x40)\n      tag_70\n      swap2\n      swap1\n      tag_35\n      jump\t// in\n    tag_70:\n      mload(0x40)\n      dup1\n      swap2\n      sub\n      swap1\n      return\n        /* \"@openzeppelin/contracts/access/Ownable.sol\":2293:2394  function renounceOwnership() public virtual onlyOwner {... */\n    tag_13:\n      tag_71\n      tag_72\n      jump\t// in\n    tag_71:\n      stop\n        /* \"@openzeppelin/contracts/access/Ownable.sol\":1638:1723  function owner() public view virtual returns (address) {... */\n    tag_14:\n      tag_73\n      tag_74\n      jump\t// in\n    tag_73:\n      mload(0x40)\n      tag_75\n      swap2\n      swap1\n      tag_76\n      jump\t// in\n    tag_75:\n      mload(0x40)\n      dup1\n      swap2\n      sub\n      swap1\n      return\n        /* \"contracts/Song.sol\":687:995  function mint(address account, uint256 amount, bytes memory data)... */\n    tag_15:\n      tag_77\n      0x04\n      dup1\n      calldatasize\n      sub\n      dup2\n      add\n      swap1\n      tag_78\n      swap2\n      swap1\n      tag_79\n      jump\t// in\n    tag_78:\n      tag_80\n      jump\t// in\n    tag_77:\n      stop\n        /* \"@openzeppelin/contracts/token/ERC1155/ERC1155.sol\":3156:3300  function setApprovalForAll(address operator, bool approved) public virtual {... */\n    tag_16:\n      tag_81\n      0x04\n      dup1\n      calldatasize\n      sub\n      dup2\n      add\n      swap1\n      tag_82\n      swap2\n      swap1\n      tag_83\n      jump\t// in\n    tag_82:\n      tag_84\n      jump\t// in\n    tag_81:\n      stop\n        /* \"@openzeppelin/contracts/token/ERC1155/extensions/ERC1155Supply.sol\":959:1070  function totalSupply(uint256 id) public view virtual returns (uint256) {... */\n    tag_17:\n      tag_85\n      0x04\n      dup1\n      calldatasize\n      sub\n      dup2\n      add\n      swap1\n      tag_86\n      swap2\n      swap1\n      tag_42\n      jump\t// in\n    tag_86:\n      tag_87\n      jump\t// in\n    tag_85:\n      mload(0x40)\n      tag_88\n      swap2\n      swap1\n      tag_29\n      jump\t// in\n    tag_88:\n      mload(0x40)\n      dup1\n      swap2\n      sub\n      swap1\n      return\n        /* \"@openzeppelin/contracts/token/ERC1155/ERC1155.sol\":3367:3524  function isApprovedForAll(address account, address operator) public view virtual returns (bool) {... */\n    tag_18:\n      tag_89\n      0x04\n      dup1\n      calldatasize\n      sub\n      dup2\n      add\n      swap1\n      tag_90\n      swap2\n      swap1\n      tag_91\n      jump\t// in\n    tag_90:\n      tag_92\n      jump\t// in\n    tag_89:\n      mload(0x40)\n      tag_93\n      swap2\n      swap1\n      tag_35\n      jump\t// in\n    tag_93:\n      mload(0x40)\n      dup1\n      swap2\n      sub\n      swap1\n      return\n        /* \"@openzeppelin/contracts/token/ERC1155/ERC1155.sol\":3591:3942  function safeTransferFrom(address from, address to, uint256 id, uint256 value, bytes memory data) public virtual {... */\n    tag_19:\n      tag_94\n      0x04\n      dup1\n      calldatasize\n      sub\n      dup2\n      add\n      swap1\n      tag_95\n      swap2\n      swap1\n      tag_48\n      jump\t// in\n    tag_95:\n      tag_96\n      jump\t// in\n    tag_94:\n      stop\n        /* \"@openzeppelin/contracts/access/Ownable.sol\":2543:2758  function transferOwnership(address newOwner) public virtual onlyOwner {... */\n    tag_20:\n      tag_97\n      0x04\n      dup1\n      calldatasize\n      sub\n      dup2\n      add\n      swap1\n      tag_98\n      swap2\n      swap1\n      tag_99\n      jump\t// in\n    tag_98:\n      tag_100\n      jump\t// in\n    tag_97:\n      stop\n        /* \"@openzeppelin/contracts/token/ERC1155/ERC1155.sol\":2247:2379  function balanceOf(address account, uint256 id) public view virtual returns (uint256) {... */\n    tag_27:\n        /* \"@openzeppelin/contracts/token/ERC1155/ERC1155.sol\":2324:2331  uint256 */\n      0x00\n        /* \"@openzeppelin/contracts/token/ERC1155/ERC1155.sol\":2350:2359  _balances */\n      dup1\n        /* \"@openzeppelin/contracts/token/ERC1155/ERC1155.sol\":2350:2363  _balances[id] */\n      0x00\n        /* \"@openzeppelin/contracts/token/ERC1155/ERC1155.sol\":2360:2362  id */\n      dup4\n        /* \"@openzeppelin/contracts/token/ERC1155/ERC1155.sol\":2350:2363  _balances[id] */\n      dup2\n      mstore\n      0x20\n      add\n      swap1\n      dup2\n      mstore\n      0x20\n      add\n      0x00\n      keccak256\n        /* \"@openzeppelin/contracts/token/ERC1155/ERC1155.sol\":2350:2372  _balances[id][account] */\n      0x00\n        /* \"@openzeppelin/contracts/token/ERC1155/ERC1155.sol\":2364:2371  account */\n      dup5\n        /* \"@openzeppelin/contracts/token/ERC1155/ERC1155.sol\":2350:2372  _balances[id][account] */\n      0xffffffffffffffffffffffffffffffffffffffff\n      and\n      0xffffffffffffffffffffffffffffffffffffffff\n      and\n      dup2\n      mstore\n      0x20\n      add\n      swap1\n      dup2\n      mstore\n      0x20\n      add\n      0x00\n      keccak256\n      sload\n        /* \"@openzeppelin/contracts/token/ERC1155/ERC1155.sol\":2343:2372  return _balances[id][account] */\n      swap1\n      pop\n        /* \"@openzeppelin/contracts/token/ERC1155/ERC1155.sol\":2247:2379  function balanceOf(address account, uint256 id) public view virtual returns (uint256) {... */\n      swap3\n      swap2\n      pop\n      pop\n      jump\t// out\n        /* \"@openzeppelin/contracts/token/ERC1155/ERC1155.sol\":1380:1685  function supportsInterface(bytes4 interfaceId) public view virtual override(ERC165, IERC165) returns (bool) {... */\n    tag_33:\n        /* \"@openzeppelin/contracts/token/ERC1155/ERC1155.sol\":1482:1486  bool */\n      0x00\n        /* \"@openzeppelin/contracts/token/ERC1155/ERC1155.sol\":1532:1558  type(IERC1155).interfaceId */\n      0xd9b67a2600000000000000000000000000000000000000000000000000000000\n        /* \"@openzeppelin/contracts/token/ERC1155/ERC1155.sol\":1517:1558  interfaceId == type(IERC1155).interfaceId */\n      not(0xffffffffffffffffffffffffffffffffffffffffffffffffffffffff)\n      and\n        /* \"@openzeppelin/contracts/token/ERC1155/ERC1155.sol\":1517:1528  interfaceId */\n      dup3\n        /* \"@openzeppelin/contracts/token/ERC1155/ERC1155.sol\":1517:1558  interfaceId == type(IERC1155).interfaceId */\n      not(0xffffffffffffffffffffffffffffffffffffffffffffffffffffffff)\n      and\n      eq\n        /* \"@openzeppelin/contracts/token/ERC1155/ERC1155.sol\":1517:1626  interfaceId == type(IERC1155).interfaceId ||... */\n      dup1\n      tag_103\n      jumpi\n      pop\n        /* \"@openzeppelin/contracts/token/ERC1155/ERC1155.sol\":1589:1626  type(IERC1155MetadataURI).interfaceId */\n      0x0e89341c00000000000000000000000000000000000000000000000000000000\n        /* \"@openzeppelin/contracts/token/ERC1155/ERC1155.sol\":1574:1626  interfaceId == type(IERC1155MetadataURI).interfaceId */\n      not(0xffffffffffffffffffffffffffffffffffffffffffffffffffffffff)\n      and\n        /* \"@openzeppelin/contracts/token/ERC1155/ERC1155.sol\":1574:1585  interfaceId */\n      dup3\n        /* \"@openzeppelin/contracts/token/ERC1155/ERC1155.sol\":1574:1626  interfaceId == type(IERC1155MetadataURI).interfaceId */\n      not(0xffffffffffffffffffffffffffffffffffffffffffffffffffffffff)\n      and\n      eq\n        /* \"@openzeppelin/contracts/token/ERC1155/ERC1155.sol\":1517:1626  interfaceId == type(IERC1155).interfaceId ||... */\n    tag_103:\n        /* \"@openzeppelin/contracts/token/ERC1155/ERC1155.sol\":1517:1678  interfaceId == type(IERC1155).interfaceId ||... */\n      dup1\n      tag_104\n      jumpi\n      pop\n        /* \"@openzeppelin/contracts/token/ERC1155/ERC1155.sol\":1642:1678  super.supportsInterface(interfaceId) */\n      tag_105\n        /* \"@openzeppelin/contracts/token/ERC1155/ERC1155.sol\":1666:1677  interfaceId */\n      dup3\n        /* \"@openzeppelin/contracts/token/ERC1155/ERC1155.sol\":1642:1665  super.supportsInterface */\n      tag_106\n        /* \"@openzeppelin/contracts/token/ERC1155/ERC1155.sol\":1642:1678  super.supportsInterface(interfaceId) */\n      jump\t// in\n    tag_105:\n        /* \"@openzeppelin/contracts/token/ERC1155/ERC1155.sol\":1517:1678  interfaceId == type(IERC1155).interfaceId ||... */\n    tag_104:\n        /* \"@openzeppelin/contracts/token/ERC1155/ERC1155.sol\":1498:1678  return... */\n      swap1\n      pop\n        /* \"@openzeppelin/contracts/token/ERC1155/ERC1155.sol\":1380:1685  function supportsInterface(bytes4 interfaceId) public view virtual override(ERC165, IERC165) returns (bool) {... */\n      swap2\n      swap1\n      pop\n      jump\t// out\n        /* \"contracts/Song.sol\":594:681  function setURI(string memory newuri) public onlyOwner {... */\n    tag_39:\n        /* \"@openzeppelin/contracts/access/Ownable.sol\":1531:1544  _checkOwner() */\n      tag_108\n        /* \"@openzeppelin/contracts/access/Ownable.sol\":1531:1542  _checkOwner */\n      tag_109\n        /* \"@openzeppelin/contracts/access/Ownable.sol\":1531:1544  _checkOwner() */\n      jump\t// in\n    tag_108:\n        /* \"contracts/Song.sol\":659:674  _setURI(newuri) */\n      tag_111\n        /* \"contracts/Song.sol\":667:673  newuri */\n      dup2\n        /* \"contracts/Song.sol\":659:666  _setURI */\n      tag_112\n        /* \"contracts/Song.sol\":659:674  _setURI(newuri) */\n      jump\t// in\n    tag_111:\n        /* \"contracts/Song.sol\":594:681  function setURI(string memory newuri) public onlyOwner {... */\n      pop\n      jump\t// out\n        /* \"@openzeppelin/contracts/token/ERC1155/ERC1155.sol\":2084:2187  function uri(uint256 /* id */) public view virtual returns (string memory) {... */\n    tag_43:\n        /* \"@openzeppelin/contracts/token/ERC1155/ERC1155.sol\":2144:2157  string memory */\n      0x60\n        /* \"@openzeppelin/contracts/token/ERC1155/ERC1155.sol\":2176:2180  _uri */\n      0x02\n        /* \"@openzeppelin/contracts/token/ERC1155/ERC1155.sol\":2169:2180  return _uri */\n      dup1\n      sload\n      tag_114\n      swap1\n      tag_115\n      jump\t// in\n    tag_114:\n      dup1\n      0x1f\n      add\n      0x20\n      dup1\n      swap2\n      div\n      mul\n      0x20\n      add\n      mload(0x40)\n      swap1\n      dup2\n      add\n      0x40\n      mstore\n      dup1\n      swap3\n      swap2\n      swap1\n      dup2\n      dup2\n      mstore\n      0x20\n      add\n      dup3\n      dup1\n      sload\n      tag_116\n      swap1\n      tag_115\n      jump\t// in\n    tag_116:\n      dup1\n      iszero\n      tag_117\n      jumpi\n      dup1\n      0x1f\n      lt\n      tag_118\n      jumpi\n      0x0100\n      dup1\n      dup4\n      sload\n      div\n      mul\n      dup4\n      mstore\n      swap2\n      0x20\n      add\n      swap2\n      jump(tag_117)\n    tag_118:\n      dup3\n      add\n      swap2\n      swap1\n      0x00\n      mstore\n      keccak256(0x00, 0x20)\n      swap1\n    tag_119:\n      dup2\n      sload\n      dup2\n      mstore\n      swap1\n      0x01\n      add\n      swap1\n      0x20\n      add\n      dup1\n      dup4\n      gt\n      tag_119\n      jumpi\n      dup3\n      swap1\n      sub\n      0x1f\n      and\n      dup3\n      add\n      swap2\n    tag_117:\n      pop\n      pop\n      pop\n      pop\n      pop\n      swap1\n      pop\n        /* \"@openzeppelin/contracts/token/ERC1155/ERC1155.sol\":2084:2187  function uri(uint256 /* id */) public view virtual returns (string memory) {... */\n      swap2\n      swap1\n      pop\n      jump\t// out\n        /* \"contracts/Song.sol\":1211:1425  function transfer(... */\n    tag_49:\n        /* \"@openzeppelin/contracts/access/Ownable.sol\":1531:1544  _checkOwner() */\n      tag_121\n        /* \"@openzeppelin/contracts/access/Ownable.sol\":1531:1542  _checkOwner */\n      tag_109\n        /* \"@openzeppelin/contracts/access/Ownable.sol\":1531:1544  _checkOwner() */\n      jump\t// in\n    tag_121:\n        /* \"contracts/Song.sol\":1374:1418  _safeTransferFrom(from, to, id, value, data) */\n      tag_123\n        /* \"contracts/Song.sol\":1392:1396  from */\n      dup6\n        /* \"contracts/Song.sol\":1398:1400  to */\n      dup6\n        /* \"contracts/Song.sol\":1402:1404  id */\n      dup6\n        /* \"contracts/Song.sol\":1406:1411  value */\n      dup6\n        /* \"contracts/Song.sol\":1413:1417  data */\n      dup6\n        /* \"contracts/Song.sol\":1374:1391  _safeTransferFrom */\n      tag_124\n        /* \"contracts/Song.sol\":1374:1418  _safeTransferFrom(from, to, id, value, data) */\n      jump\t// in\n    tag_123:\n        /* \"contracts/Song.sol\":1211:1425  function transfer(... */\n      pop\n      pop\n      pop\n      pop\n      pop\n      jump\t// out\n        /* \"@openzeppelin/contracts/token/ERC1155/extensions/ERC1155Supply.sol\":1127:1227  function totalSupply() public view virtual returns (uint256) {... */\n    tag_51:\n        /* \"@openzeppelin/contracts/token/ERC1155/extensions/ERC1155Supply.sol\":1179:1186  uint256 */\n      0x00\n        /* \"@openzeppelin/contracts/token/ERC1155/extensions/ERC1155Supply.sol\":1205:1220  _totalSupplyAll */\n      sload(0x05)\n        /* \"@openzeppelin/contracts/token/ERC1155/extensions/ERC1155Supply.sol\":1198:1220  return _totalSupplyAll */\n      swap1\n      pop\n        /* \"@openzeppelin/contracts/token/ERC1155/extensions/ERC1155Supply.sol\":1127:1227  function totalSupply() public view virtual returns (uint256) {... */\n      swap1\n      jump\t// out\n        /* \"contracts/Song.sol\":1001:1205  function mintBatch(... */\n    tag_56:\n        /* \"@openzeppelin/contracts/access/Ownable.sol\":1531:1544  _checkOwner() */\n      tag_127\n        /* \"@openzeppelin/contracts/access/Ownable.sol\":1531:1542  _checkOwner */\n      tag_109\n        /* \"@openzeppelin/contracts/access/Ownable.sol\":1531:1544  _checkOwner() */\n      jump\t// in\n    tag_127:\n        /* \"contracts/Song.sol\":1164:1198  _mintBatch(to, ids, amounts, data) */\n      tag_129\n        /* \"contracts/Song.sol\":1175:1177  to */\n      dup5\n        /* \"contracts/Song.sol\":1179:1182  ids */\n      dup5\n        /* \"contracts/Song.sol\":1184:1191  amounts */\n      dup5\n        /* \"contracts/Song.sol\":1193:1197  data */\n      dup5\n        /* \"contracts/Song.sol\":1164:1174  _mintBatch */\n      tag_130\n        /* \"contracts/Song.sol\":1164:1198  _mintBatch(to, ids, amounts, data) */\n      jump\t// in\n    tag_129:\n        /* \"contracts/Song.sol\":1001:1205  function mintBatch(... */\n      pop\n      pop\n      pop\n      pop\n      jump\t// out\n        /* \"@openzeppelin/contracts/token/ERC1155/ERC1155.sol\":4014:4443  function safeBatchTransferFrom(... */\n    tag_60:\n        /* \"@openzeppelin/contracts/token/ERC1155/ERC1155.sol\":4208:4222  address sender */\n      0x00\n        /* \"@openzeppelin/contracts/token/ERC1155/ERC1155.sol\":4225:4237  _msgSender() */\n      tag_132\n        /* \"@openzeppelin/contracts/token/ERC1155/ERC1155.sol\":4225:4235  _msgSender */\n      tag_133\n        /* \"@openzeppelin/contracts/token/ERC1155/ERC1155.sol\":4225:4237  _msgSender() */\n      jump\t// in\n    tag_132:\n        /* \"@openzeppelin/contracts/token/ERC1155/ERC1155.sol\":4208:4237  address sender = _msgSender() */\n      swap1\n      pop\n        /* \"@openzeppelin/contracts/token/ERC1155/ERC1155.sol\":4259:4265  sender */\n      dup1\n        /* \"@openzeppelin/contracts/token/ERC1155/ERC1155.sol\":4251:4265  from != sender */\n      0xffffffffffffffffffffffffffffffffffffffff\n      and\n        /* \"@openzeppelin/contracts/token/ERC1155/ERC1155.sol\":4251:4255  from */\n      dup7\n        /* \"@openzeppelin/contracts/token/ERC1155/ERC1155.sol\":4251:4265  from != sender */\n      0xffffffffffffffffffffffffffffffffffffffff\n      and\n      eq\n      iszero\n        /* \"@openzeppelin/contracts/token/ERC1155/ERC1155.sol\":4251:4300  from != sender && !isApprovedForAll(from, sender) */\n      dup1\n      iszero\n      tag_134\n      jumpi\n      pop\n        /* \"@openzeppelin/contracts/token/ERC1155/ERC1155.sol\":4270:4300  isApprovedForAll(from, sender) */\n      tag_135\n        /* \"@openzeppelin/contracts/token/ERC1155/ERC1155.sol\":4287:4291  from */\n      dup7\n        /* \"@openzeppelin/contracts/token/ERC1155/ERC1155.sol\":4293:4299  sender */\n      dup3\n        /* \"@openzeppelin/contracts/token/ERC1155/ERC1155.sol\":4270:4286  isApprovedForAll */\n      tag_92\n        /* \"@openzeppelin/contracts/token/ERC1155/ERC1155.sol\":4270:4300  isApprovedForAll(from, sender) */\n      jump\t// in\n    tag_135:\n        /* \"@openzeppelin/contracts/token/ERC1155/ERC1155.sol\":4269:4300  !isApprovedForAll(from, sender) */\n      iszero\n        /* \"@openzeppelin/contracts/token/ERC1155/ERC1155.sol\":4251:4300  from != sender && !isApprovedForAll(from, sender) */\n    tag_134:\n        /* \"@openzeppelin/contracts/token/ERC1155/ERC1155.sol\":4247:4376  if (from != sender && !isApprovedForAll(from, sender)) {... */\n      iszero\n      tag_136\n      jumpi\n        /* \"@openzeppelin/contracts/token/ERC1155/ERC1155.sol\":4352:4358  sender */\n      dup1\n        /* \"@openzeppelin/contracts/token/ERC1155/ERC1155.sol\":4360:4364  from */\n      dup7\n        /* \"@openzeppelin/contracts/token/ERC1155/ERC1155.sol\":4323:4365  ERC1155MissingApprovalForAll(sender, from) */\n      mload(0x40)\n      0xe237d92200000000000000000000000000000000000000000000000000000000\n      dup2\n      mstore\n      0x04\n      add\n      tag_137\n      swap3\n      swap2\n      swap1\n      tag_138\n      jump\t// in\n    tag_137:\n      mload(0x40)\n      dup1\n      swap2\n      sub\n      swap1\n      revert\n        /* \"@openzeppelin/contracts/token/ERC1155/ERC1155.sol\":4247:4376  if (from != sender && !isApprovedForAll(from, sender)) {... */\n    tag_136:\n        /* \"@openzeppelin/contracts/token/ERC1155/ERC1155.sol\":4385:4436  _safeBatchTransferFrom(from, to, ids, values, data) */\n      tag_139\n        /* \"@openzeppelin/contracts/token/ERC1155/ERC1155.sol\":4408:4412  from */\n      dup7\n        /* \"@openzeppelin/contracts/token/ERC1155/ERC1155.sol\":4414:4416  to */\n      dup7\n        /* \"@openzeppelin/contracts/token/ERC1155/ERC1155.sol\":4418:4421  ids */\n      dup7\n        /* \"@openzeppelin/contracts/token/ERC1155/ERC1155.sol\":4423:4429  values */\n      dup7\n        /* \"@openzeppelin/contracts/token/ERC1155/ERC1155.sol\":4431:4435  data */\n      dup7\n        /* \"@openzeppelin/contracts/token/ERC1155/ERC1155.sol\":4385:4407  _safeBatchTransferFrom */\n      tag_140\n        /* \"@openzeppelin/contracts/token/ERC1155/ERC1155.sol\":4385:4436  _safeBatchTransferFrom(from, to, ids, values, data) */\n      jump\t// in\n    tag_139:\n        /* \"@openzeppelin/contracts/token/ERC1155/ERC1155.sol\":4198:4443  {... */\n      pop\n        /* \"@openzeppelin/contracts/token/ERC1155/ERC1155.sol\":4014:4443  function safeBatchTransferFrom(... */\n      pop\n      pop\n      pop\n      pop\n      pop\n      jump\t// out\n        /* \"@openzeppelin/contracts/token/ERC1155/ERC1155.sol\":2536:3088  function balanceOfBatch(... */\n    tag_64:\n        /* \"@openzeppelin/contracts/token/ERC1155/ERC1155.sol\":2660:2676  uint256[] memory */\n      0x60\n        /* \"@openzeppelin/contracts/token/ERC1155/ERC1155.sol\":2711:2714  ids */\n      dup2\n        /* \"@openzeppelin/contracts/token/ERC1155/ERC1155.sol\":2711:2721  ids.length */\n      mload\n        /* \"@openzeppelin/contracts/token/ERC1155/ERC1155.sol\":2692:2700  accounts */\n      dup4\n        /* \"@openzeppelin/contracts/token/ERC1155/ERC1155.sol\":2692:2707  accounts.length */\n      mload\n        /* \"@openzeppelin/contracts/token/ERC1155/ERC1155.sol\":2692:2721  accounts.length != ids.length */\n      eq\n        /* \"@openzeppelin/contracts/token/ERC1155/ERC1155.sol\":2688:2809  if (accounts.length != ids.length) {... */\n      tag_142\n      jumpi\n        /* \"@openzeppelin/contracts/token/ERC1155/ERC1155.sol\":2770:2773  ids */\n      dup2\n        /* \"@openzeppelin/contracts/token/ERC1155/ERC1155.sol\":2770:2780  ids.length */\n      mload\n        /* \"@openzeppelin/contracts/token/ERC1155/ERC1155.sol\":2782:2790  accounts */\n      dup4\n        /* \"@openzeppelin/contracts/token/ERC1155/ERC1155.sol\":2782:2797  accounts.length */\n      mload\n        /* \"@openzeppelin/contracts/token/ERC1155/ERC1155.sol\":2744:2798  ERC1155InvalidArrayLength(ids.length, accounts.length) */\n      mload(0x40)\n      0x5b05999100000000000000000000000000000000000000000000000000000000\n      dup2\n      mstore\n      0x04\n      add\n      tag_143\n      swap3\n      swap2\n      swap1\n      tag_144\n      jump\t// in\n    tag_143:\n      mload(0x40)\n      dup1\n      swap2\n      sub\n      swap1\n      revert\n        /* \"@openzeppelin/contracts/token/ERC1155/ERC1155.sol\":2688:2809  if (accounts.length != ids.length) {... */\n    tag_142:\n        /* \"@openzeppelin/contracts/token/ERC1155/ERC1155.sol\":2819:2849  uint256[] memory batchBalances */\n      0x00\n        /* \"@openzeppelin/contracts/token/ERC1155/ERC1155.sol\":2866:2874  accounts */\n      dup4\n        /* \"@openzeppelin/contracts/token/ERC1155/ERC1155.sol\":2866:2881  accounts.length */\n      mload\n        /* \"@openzeppelin/contracts/token/ERC1155/ERC1155.sol\":2852:2882  new uint256[](accounts.length) */\n      0xffffffffffffffff\n      dup2\n      gt\n      iszero\n      tag_145\n      jumpi\n      tag_146\n      tag_147\n      jump\t// in\n    tag_146:\n    tag_145:\n      mload(0x40)\n      swap1\n      dup1\n      dup3\n      mstore\n      dup1\n      0x20\n      mul\n      0x20\n      add\n      dup3\n      add\n      0x40\n      mstore\n      dup1\n      iszero\n      tag_148\n      jumpi\n      dup2\n      0x20\n      add\n      0x20\n      dup3\n      mul\n      dup1\n      calldatasize\n      dup4\n      calldatacopy\n      dup1\n      dup3\n      add\n      swap2\n      pop\n      pop\n      swap1\n      pop\n    tag_148:\n      pop\n        /* \"@openzeppelin/contracts/token/ERC1155/ERC1155.sol\":2819:2882  uint256[] memory batchBalances = new uint256[](accounts.length) */\n      swap1\n      pop\n        /* \"@openzeppelin/contracts/token/ERC1155/ERC1155.sol\":2898:2907  uint256 i */\n      0x00\n        /* \"@openzeppelin/contracts/token/ERC1155/ERC1155.sol\":2893:3051  for (uint256 i = 0; i < accounts.length; ++i) {... */\n    tag_149:\n        /* \"@openzeppelin/contracts/token/ERC1155/ERC1155.sol\":2917:2925  accounts */\n      dup5\n        /* \"@openzeppelin/contracts/token/ERC1155/ERC1155.sol\":2917:2932  accounts.length */\n      mload\n        /* \"@openzeppelin/contracts/token/ERC1155/ERC1155.sol\":2913:2914  i */\n      dup2\n        /* \"@openzeppelin/contracts/token/ERC1155/ERC1155.sol\":2913:2932  i < accounts.length */\n      lt\n        /* \"@openzeppelin/contracts/token/ERC1155/ERC1155.sol\":2893:3051  for (uint256 i = 0; i < accounts.length; ++i) {... */\n      iszero\n      tag_150\n      jumpi\n        /* \"@openzeppelin/contracts/token/ERC1155/ERC1155.sol\":2972:3040  balanceOf(accounts.unsafeMemoryAccess(i), ids.unsafeMemoryAccess(i)) */\n      tag_152\n        /* \"@openzeppelin/contracts/token/ERC1155/ERC1155.sol\":2982:3012  accounts.unsafeMemoryAccess(i) */\n      tag_153\n        /* \"@openzeppelin/contracts/token/ERC1155/ERC1155.sol\":3010:3011  i */\n      dup3\n        /* \"@openzeppelin/contracts/token/ERC1155/ERC1155.sol\":2982:2990  accounts */\n      dup8\n        /* \"@openzeppelin/contracts/token/ERC1155/ERC1155.sol\":2982:3009  accounts.unsafeMemoryAccess */\n      tag_154\n      swap1\n        /* \"@openzeppelin/contracts/token/ERC1155/ERC1155.sol\":2982:3012  accounts.unsafeMemoryAccess(i) */\n      swap2\n      swap1\n      0xffffffff\n      and\n      jump\t// in\n    tag_153:\n        /* \"@openzeppelin/contracts/token/ERC1155/ERC1155.sol\":3014:3039  ids.unsafeMemoryAccess(i) */\n      tag_155\n        /* \"@openzeppelin/contracts/token/ERC1155/ERC1155.sol\":3037:3038  i */\n      dup4\n        /* \"@openzeppelin/contracts/token/ERC1155/ERC1155.sol\":3014:3017  ids */\n      dup8\n        /* \"@openzeppelin/contracts/token/ERC1155/ERC1155.sol\":3014:3036  ids.unsafeMemoryAccess */\n      tag_156\n      swap1\n        /* \"@openzeppelin/contracts/token/ERC1155/ERC1155.sol\":3014:3039  ids.unsafeMemoryAccess(i) */\n      swap2\n      swap1\n      0xffffffff\n      and\n      jump\t// in\n    tag_155:\n        /* \"@openzeppelin/contracts/token/ERC1155/ERC1155.sol\":2972:2981  balanceOf */\n      tag_27\n        /* \"@openzeppelin/contracts/token/ERC1155/ERC1155.sol\":2972:3040  balanceOf(accounts.unsafeMemoryAccess(i), ids.unsafeMemoryAccess(i)) */\n      jump\t// in\n    tag_152:\n        /* \"@openzeppelin/contracts/token/ERC1155/ERC1155.sol\":2953:2966  batchBalances */\n      dup3\n        /* \"@openzeppelin/contracts/token/ERC1155/ERC1155.sol\":2967:2968  i */\n      dup3\n        /* \"@openzeppelin/contracts/token/ERC1155/ERC1155.sol\":2953:2969  batchBalances[i] */\n      dup2\n      mload\n      dup2\n      lt\n      tag_157\n      jumpi\n      tag_158\n      tag_159\n      jump\t// in\n    tag_158:\n    tag_157:\n      0x20\n      mul\n      0x20\n      add\n      add\n        /* \"@openzeppelin/contracts/token/ERC1155/ERC1155.sol\":2953:3040  batchBalances[i] = balanceOf(accounts.unsafeMemoryAccess(i), ids.unsafeMemoryAccess(i)) */\n      dup2\n      dup2\n      mstore\n      pop\n      pop\n        /* \"@openzeppelin/contracts/token/ERC1155/ERC1155.sol\":2934:2937  ++i */\n      dup1\n      0x01\n      add\n      swap1\n      pop\n        /* \"@openzeppelin/contracts/token/ERC1155/ERC1155.sol\":2893:3051  for (uint256 i = 0; i < accounts.length; ++i) {... */\n      jump(tag_149)\n    tag_150:\n      pop\n        /* \"@openzeppelin/contracts/token/ERC1155/ERC1155.sol\":3068:3081  batchBalances */\n      dup1\n        /* \"@openzeppelin/contracts/token/ERC1155/ERC1155.sol\":3061:3081  return batchBalances */\n      swap2\n      pop\n      pop\n        /* \"@openzeppelin/contracts/token/ERC1155/ERC1155.sol\":2536:3088  function balanceOfBatch(... */\n      swap3\n      swap2\n      pop\n      pop\n      jump\t// out\n        /* \"@openzeppelin/contracts/token/ERC1155/extensions/ERC1155Supply.sol\":1320:1426  function exists(uint256 id) public view virtual returns (bool) {... */\n    tag_69:\n        /* \"@openzeppelin/contracts/token/ERC1155/extensions/ERC1155Supply.sol\":1377:1381  bool */\n      0x00\n        /* \"@openzeppelin/contracts/token/ERC1155/extensions/ERC1155Supply.sol\":1418:1419  0 */\n      dup1\n        /* \"@openzeppelin/contracts/token/ERC1155/extensions/ERC1155Supply.sol\":1400:1415  totalSupply(id) */\n      tag_161\n        /* \"@openzeppelin/contracts/token/ERC1155/extensions/ERC1155Supply.sol\":1412:1414  id */\n      dup4\n        /* \"@openzeppelin/contracts/token/ERC1155/extensions/ERC1155Supply.sol\":1400:1411  totalSupply */\n      tag_87\n        /* \"@openzeppelin/contracts/token/ERC1155/extensions/ERC1155Supply.sol\":1400:1415  totalSupply(id) */\n      jump\t// in\n    tag_161:\n        /* \"@openzeppelin/contracts/token/ERC1155/extensions/ERC1155Supply.sol\":1400:1419  totalSupply(id) > 0 */\n      gt\n        /* \"@openzeppelin/contracts/token/ERC1155/extensions/ERC1155Supply.sol\":1393:1419  return totalSupply(id) > 0 */\n      swap1\n      pop\n        /* \"@openzeppelin/contracts/token/ERC1155/extensions/ERC1155Supply.sol\":1320:1426  function exists(uint256 id) public view virtual returns (bool) {... */\n      swap2\n      swap1\n      pop\n      jump\t// out\n        /* \"@openzeppelin/contracts/access/Ownable.sol\":2293:2394  function renounceOwnership() public virtual onlyOwner {... */\n    tag_72:\n        /* \"@openzeppelin/contracts/access/Ownable.sol\":1531:1544  _checkOwner() */\n      tag_163\n        /* \"@openzeppelin/contracts/access/Ownable.sol\":1531:1542  _checkOwner */\n      tag_109\n        /* \"@openzeppelin/contracts/access/Ownable.sol\":1531:1544  _checkOwner() */\n      jump\t// in\n    tag_163:\n        /* \"@openzeppelin/contracts/access/Ownable.sol\":2357:2387  _transferOwnership(address(0)) */\n      tag_165\n        /* \"@openzeppelin/contracts/access/Ownable.sol\":2384:2385  0 */\n      0x00\n        /* \"@openzeppelin/contracts/access/Ownable.sol\":2357:2375  _transferOwnership */\n      tag_166\n        /* \"@openzeppelin/contracts/access/Ownable.sol\":2357:2387  _transferOwnership(address(0)) */\n      jump\t// in\n    tag_165:\n        /* \"@openzeppelin/contracts/access/Ownable.sol\":2293:2394  function renounceOwnership() public virtual onlyOwner {... */\n      jump\t// out\n        /* \"@openzeppelin/contracts/access/Ownable.sol\":1638:1723  function owner() public view virtual returns (address) {... */\n    tag_74:\n        /* \"@openzeppelin/contracts/access/Ownable.sol\":1684:1691  address */\n      0x00\n        /* \"@openzeppelin/contracts/access/Ownable.sol\":1710:1716  _owner */\n      0x03\n      0x00\n      swap1\n      sload\n      swap1\n      0x0100\n      exp\n      swap1\n      div\n      0xffffffffffffffffffffffffffffffffffffffff\n      and\n        /* \"@openzeppelin/contracts/access/Ownable.sol\":1703:1716  return _owner */\n      swap1\n      pop\n        /* \"@openzeppelin/contracts/access/Ownable.sol\":1638:1723  function owner() public view virtual returns (address) {... */\n      swap1\n      jump\t// out\n        /* \"contracts/Song.sol\":687:995  function mint(address account, uint256 amount, bytes memory data)... */\n    tag_80:\n        /* \"@openzeppelin/contracts/access/Ownable.sol\":1531:1544  _checkOwner() */\n      tag_169\n        /* \"@openzeppelin/contracts/access/Ownable.sol\":1531:1542  _checkOwner */\n      tag_109\n        /* \"@openzeppelin/contracts/access/Ownable.sol\":1531:1544  _checkOwner() */\n      jump\t// in\n    tag_169:\n        /* \"contracts/Song.sol\":800:810  uint256 id */\n      0x00\n        /* \"contracts/Song.sol\":813:830  tokenId.current() */\n      tag_171\n        /* \"contracts/Song.sol\":813:820  tokenId */\n      0x06\n        /* \"contracts/Song.sol\":813:828  tokenId.current */\n      tag_172\n        /* \"contracts/Song.sol\":813:830  tokenId.current() */\n      jump\t// in\n    tag_171:\n        /* \"contracts/Song.sol\":800:830  uint256 id = tokenId.current() */\n      swap1\n      pop\n        /* \"contracts/Song.sol\":840:859  tokenId.increment() */\n      tag_173\n        /* \"contracts/Song.sol\":840:847  tokenId */\n      0x06\n        /* \"contracts/Song.sol\":840:857  tokenId.increment */\n      tag_174\n        /* \"contracts/Song.sol\":840:859  tokenId.increment() */\n      jump\t// in\n    tag_173:\n        /* \"contracts/Song.sol\":869:901  _mint(account, id, amount, data) */\n      tag_175\n        /* \"contracts/Song.sol\":875:882  account */\n      dup5\n        /* \"contracts/Song.sol\":884:886  id */\n      dup3\n        /* \"contracts/Song.sol\":888:894  amount */\n      dup6\n        /* \"contracts/Song.sol\":896:900  data */\n      dup6\n        /* \"contracts/Song.sol\":869:874  _mint */\n      tag_176\n        /* \"contracts/Song.sol\":869:901  _mint(account, id, amount, data) */\n      jump\t// in\n    tag_175:\n        /* \"contracts/Song.sol\":911:959  _setApprovalForAll(account, address(this), true) */\n      tag_177\n        /* \"contracts/Song.sol\":930:937  account */\n      dup5\n        /* \"contracts/Song.sol\":947:951  this */\n      address\n        /* \"contracts/Song.sol\":954:958  true */\n      0x01\n        /* \"contracts/Song.sol\":911:929  _setApprovalForAll */\n      tag_178\n        /* \"contracts/Song.sol\":911:959  _setApprovalForAll(account, address(this), true) */\n      jump\t// in\n    tag_177:\n        /* \"contracts/Song.sol\":974:988  SongMinted(id) */\n      0x23671a655a5b028acaa9a5c23db2113fa8bd161984ff35c7d2dd7f4f7b5f93a4\n        /* \"contracts/Song.sol\":985:987  id */\n      dup2\n        /* \"contracts/Song.sol\":974:988  SongMinted(id) */\n      mload(0x40)\n      tag_179\n      swap2\n      swap1\n      tag_29\n      jump\t// in\n    tag_179:\n      mload(0x40)\n      dup1\n      swap2\n      sub\n      swap1\n      log1\n        /* \"contracts/Song.sol\":790:995  {... */\n      pop\n        /* \"contracts/Song.sol\":687:995  function mint(address account, uint256 amount, bytes memory data)... */\n      pop\n      pop\n      pop\n      jump\t// out\n        /* \"@openzeppelin/contracts/token/ERC1155/ERC1155.sol\":3156:3300  function setApprovalForAll(address operator, bool approved) public virtual {... */\n    tag_84:\n        /* \"@openzeppelin/contracts/token/ERC1155/ERC1155.sol\":3241:3293  _setApprovalForAll(_msgSender(), operator, approved) */\n      tag_181\n        /* \"@openzeppelin/contracts/token/ERC1155/ERC1155.sol\":3260:3272  _msgSender() */\n      tag_182\n        /* \"@openzeppelin/contracts/token/ERC1155/ERC1155.sol\":3260:3270  _msgSender */\n      tag_133\n        /* \"@openzeppelin/contracts/token/ERC1155/ERC1155.sol\":3260:3272  _msgSender() */\n      jump\t// in\n    tag_182:\n        /* \"@openzeppelin/contracts/token/ERC1155/ERC1155.sol\":3274:3282  operator */\n      dup4\n        /* \"@openzeppelin/contracts/token/ERC1155/ERC1155.sol\":3284:3292  approved */\n      dup4\n        /* \"@openzeppelin/contracts/token/ERC1155/ERC1155.sol\":3241:3259  _setApprovalForAll */\n      tag_178\n        /* \"@openzeppelin/contracts/token/ERC1155/ERC1155.sol\":3241:3293  _setApprovalForAll(_msgSender(), operator, approved) */\n      jump\t// in\n    tag_181:\n        /* \"@openzeppelin/contracts/token/ERC1155/ERC1155.sol\":3156:3300  function setApprovalForAll(address operator, bool approved) public virtual {... */\n      pop\n      pop\n      jump\t// out\n        /* \"@openzeppelin/contracts/token/ERC1155/extensions/ERC1155Supply.sol\":959:1070  function totalSupply(uint256 id) public view virtual returns (uint256) {... */\n    tag_87:\n        /* \"@openzeppelin/contracts/token/ERC1155/extensions/ERC1155Supply.sol\":1021:1028  uint256 */\n      0x00\n        /* \"@openzeppelin/contracts/token/ERC1155/extensions/ERC1155Supply.sol\":1047:1059  _totalSupply */\n      0x04\n        /* \"@openzeppelin/contracts/token/ERC1155/extensions/ERC1155Supply.sol\":1047:1063  _totalSupply[id] */\n      0x00\n        /* \"@openzeppelin/contracts/token/ERC1155/extensions/ERC1155Supply.sol\":1060:1062  id */\n      dup4\n        /* \"@openzeppelin/contracts/token/ERC1155/extensions/ERC1155Supply.sol\":1047:1063  _totalSupply[id] */\n      dup2\n      mstore\n      0x20\n      add\n      swap1\n      dup2\n      mstore\n      0x20\n      add\n      0x00\n      keccak256\n      sload\n        /* \"@openzeppelin/contracts/token/ERC1155/extensions/ERC1155Supply.sol\":1040:1063  return _totalSupply[id] */\n      swap1\n      pop\n        /* \"@openzeppelin/contracts/token/ERC1155/extensions/ERC1155Supply.sol\":959:1070  function totalSupply(uint256 id) public view virtual returns (uint256) {... */\n      swap2\n      swap1\n      pop\n      jump\t// out\n        /* \"@openzeppelin/contracts/token/ERC1155/ERC1155.sol\":3367:3524  function isApprovedForAll(address account, address operator) public view virtual returns (bool) {... */\n    tag_92:\n        /* \"@openzeppelin/contracts/token/ERC1155/ERC1155.sol\":3457:3461  bool */\n      0x00\n        /* \"@openzeppelin/contracts/token/ERC1155/ERC1155.sol\":3480:3498  _operatorApprovals */\n      0x01\n        /* \"@openzeppelin/contracts/token/ERC1155/ERC1155.sol\":3480:3507  _operatorApprovals[account] */\n      0x00\n        /* \"@openzeppelin/contracts/token/ERC1155/ERC1155.sol\":3499:3506  account */\n      dup5\n        /* \"@openzeppelin/contracts/token/ERC1155/ERC1155.sol\":3480:3507  _operatorApprovals[account] */\n      0xffffffffffffffffffffffffffffffffffffffff\n      and\n      0xffffffffffffffffffffffffffffffffffffffff\n      and\n      dup2\n      mstore\n      0x20\n      add\n      swap1\n      dup2\n      mstore\n      0x20\n      add\n      0x00\n      keccak256\n        /* \"@openzeppelin/contracts/token/ERC1155/ERC1155.sol\":3480:3517  _operatorApprovals[account][operator] */\n      0x00\n        /* \"@openzeppelin/contracts/token/ERC1155/ERC1155.sol\":3508:3516  operator */\n      dup4\n        /* \"@openzeppelin/contracts/token/ERC1155/ERC1155.sol\":3480:3517  _operatorApprovals[account][operator] */\n      0xffffffffffffffffffffffffffffffffffffffff\n      and\n      0xffffffffffffffffffffffffffffffffffffffff\n      and\n      dup2\n      mstore\n      0x20\n      add\n      swap1\n      dup2\n      mstore\n      0x20\n      add\n      0x00\n      keccak256\n      0x00\n      swap1\n      sload\n      swap1\n      0x0100\n      exp\n      swap1\n      div\n      0xff\n      and\n        /* \"@openzeppelin/contracts/token/ERC1155/ERC1155.sol\":3473:3517  return _operatorApprovals[account][operator] */\n      swap1\n      pop\n        /* \"@openzeppelin/contracts/token/ERC1155/ERC1155.sol\":3367:3524  function isApprovedForAll(address account, address operator) public view virtual returns (bool) {... */\n      swap3\n      swap2\n      pop\n      pop\n      jump\t// out\n        /* \"@openzeppelin/contracts/token/ERC1155/ERC1155.sol\":3591:3942  function safeTransferFrom(address from, address to, uint256 id, uint256 value, bytes memory data) public virtual {... */\n    tag_96:\n        /* \"@openzeppelin/contracts/token/ERC1155/ERC1155.sol\":3714:3728  address sender */\n      0x00\n        /* \"@openzeppelin/contracts/token/ERC1155/ERC1155.sol\":3731:3743  _msgSender() */\n      tag_186\n        /* \"@openzeppelin/contracts/token/ERC1155/ERC1155.sol\":3731:3741  _msgSender */\n      tag_133\n        /* \"@openzeppelin/contracts/token/ERC1155/ERC1155.sol\":3731:3743  _msgSender() */\n      jump\t// in\n    tag_186:\n        /* \"@openzeppelin/contracts/token/ERC1155/ERC1155.sol\":3714:3743  address sender = _msgSender() */\n      swap1\n      pop\n        /* \"@openzeppelin/contracts/token/ERC1155/ERC1155.sol\":3765:3771  sender */\n      dup1\n        /* \"@openzeppelin/contracts/token/ERC1155/ERC1155.sol\":3757:3771  from != sender */\n      0xffffffffffffffffffffffffffffffffffffffff\n      and\n        /* \"@openzeppelin/contracts/token/ERC1155/ERC1155.sol\":3757:3761  from */\n      dup7\n        /* \"@openzeppelin/contracts/token/ERC1155/ERC1155.sol\":3757:3771  from != sender */\n      0xffffffffffffffffffffffffffffffffffffffff\n      and\n      eq\n      iszero\n        /* \"@openzeppelin/contracts/token/ERC1155/ERC1155.sol\":3757:3806  from != sender && !isApprovedForAll(from, sender) */\n      dup1\n      iszero\n      tag_187\n      jumpi\n      pop\n        /* \"@openzeppelin/contracts/token/ERC1155/ERC1155.sol\":3776:3806  isApprovedForAll(from, sender) */\n      tag_188\n        /* \"@openzeppelin/contracts/token/ERC1155/ERC1155.sol\":3793:3797  from */\n      dup7\n        /* \"@openzeppelin/contracts/token/ERC1155/ERC1155.sol\":3799:3805  sender */\n      dup3\n        /* \"@openzeppelin/contracts/token/ERC1155/ERC1155.sol\":3776:3792  isApprovedForAll */\n      tag_92\n        /* \"@openzeppelin/contracts/token/ERC1155/ERC1155.sol\":3776:3806  isApprovedForAll(from, sender) */\n      jump\t// in\n    tag_188:\n        /* \"@openzeppelin/contracts/token/ERC1155/ERC1155.sol\":3775:3806  !isApprovedForAll(from, sender) */\n      iszero\n        /* \"@openzeppelin/contracts/token/ERC1155/ERC1155.sol\":3757:3806  from != sender && !isApprovedForAll(from, sender) */\n    tag_187:\n        /* \"@openzeppelin/contracts/token/ERC1155/ERC1155.sol\":3753:3882  if (from != sender && !isApprovedForAll(from, sender)) {... */\n      iszero\n      tag_189\n      jumpi\n        /* \"@openzeppelin/contracts/token/ERC1155/ERC1155.sol\":3858:3864  sender */\n      dup1\n        /* \"@openzeppelin/contracts/token/ERC1155/ERC1155.sol\":3866:3870  from */\n      dup7\n        /* \"@openzeppelin/contracts/token/ERC1155/ERC1155.sol\":3829:3871  ERC1155MissingApprovalForAll(sender, from) */\n      mload(0x40)\n      0xe237d92200000000000000000000000000000000000000000000000000000000\n      dup2\n      mstore\n      0x04\n      add\n      tag_190\n      swap3\n      swap2\n      swap1\n      tag_138\n      jump\t// in\n    tag_190:\n      mload(0x40)\n      dup1\n      swap2\n      sub\n      swap1\n      revert\n        /* \"@openzeppelin/contracts/token/ERC1155/ERC1155.sol\":3753:3882  if (from != sender && !isApprovedForAll(from, sender)) {... */\n    tag_189:\n        /* \"@openzeppelin/contracts/token/ERC1155/ERC1155.sol\":3891:3935  _safeTransferFrom(from, to, id, value, data) */\n      tag_191\n        /* \"@openzeppelin/contracts/token/ERC1155/ERC1155.sol\":3909:3913  from */\n      dup7\n        /* \"@openzeppelin/contracts/token/ERC1155/ERC1155.sol\":3915:3917  to */\n      dup7\n        /* \"@openzeppelin/contracts/token/ERC1155/ERC1155.sol\":3919:3921  id */\n      dup7\n        /* \"@openzeppelin/contracts/token/ERC1155/ERC1155.sol\":3923:3928  value */\n      dup7\n        /* \"@openzeppelin/contracts/token/ERC1155/ERC1155.sol\":3930:3934  data */\n      dup7\n        /* \"@openzeppelin/contracts/token/ERC1155/ERC1155.sol\":3891:3908  _safeTransferFrom */\n      tag_124\n        /* \"@openzeppelin/contracts/token/ERC1155/ERC1155.sol\":3891:3935  _safeTransferFrom(from, to, id, value, data) */\n      jump\t// in\n    tag_191:\n        /* \"@openzeppelin/contracts/token/ERC1155/ERC1155.sol\":3704:3942  {... */\n      pop\n        /* \"@openzeppelin/contracts/token/ERC1155/ERC1155.sol\":3591:3942  function safeTransferFrom(address from, address to, uint256 id, uint256 value, bytes memory data) public virtual {... */\n      pop\n      pop\n      pop\n      pop\n      pop\n      jump\t// out\n        /* \"@openzeppelin/contracts/access/Ownable.sol\":2543:2758  function transferOwnership(address newOwner) public virtual onlyOwner {... */\n    tag_100:\n        /* \"@openzeppelin/contracts/access/Ownable.sol\":1531:1544  _checkOwner() */\n      tag_193\n        /* \"@openzeppelin/contracts/access/Ownable.sol\":1531:1542  _checkOwner */\n      tag_109\n        /* \"@openzeppelin/contracts/access/Ownable.sol\":1531:1544  _checkOwner() */\n      jump\t// in\n    tag_193:\n        /* \"@openzeppelin/contracts/access/Ownable.sol\":2647:2648  0 */\n      0x00\n        /* \"@openzeppelin/contracts/access/Ownable.sol\":2627:2649  newOwner == address(0) */\n      0xffffffffffffffffffffffffffffffffffffffff\n      and\n        /* \"@openzeppelin/contracts/access/Ownable.sol\":2627:2635  newOwner */\n      dup2\n        /* \"@openzeppelin/contracts/access/Ownable.sol\":2627:2649  newOwner == address(0) */\n      0xffffffffffffffffffffffffffffffffffffffff\n      and\n      sub\n        /* \"@openzeppelin/contracts/access/Ownable.sol\":2623:2714  if (newOwner == address(0)) {... */\n      tag_195\n      jumpi\n        /* \"@openzeppelin/contracts/access/Ownable.sol\":2700:2701  0 */\n      0x00\n        /* \"@openzeppelin/contracts/access/Ownable.sol\":2672:2703  OwnableInvalidOwner(address(0)) */\n      mload(0x40)\n      0x1e4fbdf700000000000000000000000000000000000000000000000000000000\n      dup2\n      mstore\n      0x04\n      add\n      tag_196\n      swap2\n      swap1\n      tag_76\n      jump\t// in\n    tag_196:\n      mload(0x40)\n      dup1\n      swap2\n      sub\n      swap1\n      revert\n        /* \"@openzeppelin/contracts/access/Ownable.sol\":2623:2714  if (newOwner == address(0)) {... */\n    tag_195:\n        /* \"@openzeppelin/contracts/access/Ownable.sol\":2723:2751  _transferOwnership(newOwner) */\n      tag_197\n        /* \"@openzeppelin/contracts/access/Ownable.sol\":2742:2750  newOwner */\n      dup2\n        /* \"@openzeppelin/contracts/access/Ownable.sol\":2723:2741  _transferOwnership */\n      tag_166\n        /* \"@openzeppelin/contracts/access/Ownable.sol\":2723:2751  _transferOwnership(newOwner) */\n      jump\t// in\n    tag_197:\n        /* \"@openzeppelin/contracts/access/Ownable.sol\":2543:2758  function transferOwnership(address newOwner) public virtual onlyOwner {... */\n      pop\n      jump\t// out\n        /* \"@openzeppelin/contracts/utils/introspection/ERC165.sol\":762:908  function supportsInterface(bytes4 interfaceId) public view virtual returns (bool) {... */\n    tag_106:\n        /* \"@openzeppelin/contracts/utils/introspection/ERC165.sol\":838:842  bool */\n      0x00\n        /* \"@openzeppelin/contracts/utils/introspection/ERC165.sol\":876:901  type(IERC165).interfaceId */\n      0x01ffc9a700000000000000000000000000000000000000000000000000000000\n        /* \"@openzeppelin/contracts/utils/introspection/ERC165.sol\":861:901  interfaceId == type(IERC165).interfaceId */\n      not(0xffffffffffffffffffffffffffffffffffffffffffffffffffffffff)\n      and\n        /* \"@openzeppelin/contracts/utils/introspection/ERC165.sol\":861:872  interfaceId */\n      dup3\n        /* \"@openzeppelin/contracts/utils/introspection/ERC165.sol\":861:901  interfaceId == type(IERC165).interfaceId */\n      not(0xffffffffffffffffffffffffffffffffffffffffffffffffffffffff)\n      and\n      eq\n        /* \"@openzeppelin/contracts/utils/introspection/ERC165.sol\":854:901  return interfaceId == type(IERC165).interfaceId */\n      swap1\n      pop\n        /* \"@openzeppelin/contracts/utils/introspection/ERC165.sol\":762:908  function supportsInterface(bytes4 interfaceId) public view virtual returns (bool) {... */\n      swap2\n      swap1\n      pop\n      jump\t// out\n        /* \"@openzeppelin/contracts/access/Ownable.sol\":1796:1958  function _checkOwner() internal view virtual {... */\n    tag_109:\n        /* \"@openzeppelin/contracts/access/Ownable.sol\":1866:1878  _msgSender() */\n      tag_200\n        /* \"@openzeppelin/contracts/access/Ownable.sol\":1866:1876  _msgSender */\n      tag_133\n        /* \"@openzeppelin/contracts/access/Ownable.sol\":1866:1878  _msgSender() */\n      jump\t// in\n    tag_200:\n        /* \"@openzeppelin/contracts/access/Ownable.sol\":1855:1878  owner() != _msgSender() */\n      0xffffffffffffffffffffffffffffffffffffffff\n      and\n        /* \"@openzeppelin/contracts/access/Ownable.sol\":1855:1862  owner() */\n      tag_201\n        /* \"@openzeppelin/contracts/access/Ownable.sol\":1855:1860  owner */\n      tag_74\n        /* \"@openzeppelin/contracts/access/Ownable.sol\":1855:1862  owner() */\n      jump\t// in\n    tag_201:\n        /* \"@openzeppelin/contracts/access/Ownable.sol\":1855:1878  owner() != _msgSender() */\n      0xffffffffffffffffffffffffffffffffffffffff\n      and\n      eq\n        /* \"@openzeppelin/contracts/access/Ownable.sol\":1851:1952  if (owner() != _msgSender()) {... */\n      tag_202\n      jumpi\n        /* \"@openzeppelin/contracts/access/Ownable.sol\":1928:1940  _msgSender() */\n      tag_203\n        /* \"@openzeppelin/contracts/access/Ownable.sol\":1928:1938  _msgSender */\n      tag_133\n        /* \"@openzeppelin/contracts/access/Ownable.sol\":1928:1940  _msgSender() */\n      jump\t// in\n    tag_203:\n        /* \"@openzeppelin/contracts/access/Ownable.sol\":1901:1941  OwnableUnauthorizedAccount(_msgSender()) */\n      mload(0x40)\n      0x118cdaa700000000000000000000000000000000000000000000000000000000\n      dup2\n      mstore\n      0x04\n      add\n      tag_204\n      swap2\n      swap1\n      tag_76\n      jump\t// in\n    tag_204:\n      mload(0x40)\n      dup1\n      swap2\n      sub\n      swap1\n      revert\n        /* \"@openzeppelin/contracts/access/Ownable.sol\":1851:1952  if (owner() != _msgSender()) {... */\n    tag_202:\n        /* \"@openzeppelin/contracts/access/Ownable.sol\":1796:1958  function _checkOwner() internal view virtual {... */\n      jump\t// out\n        /* \"@openzeppelin/contracts/token/ERC1155/ERC1155.sol\":10282:10368  function _setURI(string memory newuri) internal virtual {... */\n    tag_112:\n        /* \"@openzeppelin/contracts/token/ERC1155/ERC1155.sol\":10355:10361  newuri */\n      dup1\n        /* \"@openzeppelin/contracts/token/ERC1155/ERC1155.sol\":10348:10352  _uri */\n      0x02\n        /* \"@openzeppelin/contracts/token/ERC1155/ERC1155.sol\":10348:10361  _uri = newuri */\n      swap1\n      dup2\n      tag_206\n      swap2\n      swap1\n      tag_207\n      jump\t// in\n    tag_206:\n      pop\n        /* \"@openzeppelin/contracts/token/ERC1155/ERC1155.sol\":10282:10368  function _setURI(string memory newuri) internal virtual {... */\n      pop\n      jump\t// out\n        /* \"@openzeppelin/contracts/token/ERC1155/ERC1155.sol\":8151:8614  function _safeTransferFrom(address from, address to, uint256 id, uint256 value, bytes memory data) internal {... */\n    tag_124:\n        /* \"@openzeppelin/contracts/token/ERC1155/ERC1155.sol\":8287:8288  0 */\n      0x00\n        /* \"@openzeppelin/contracts/token/ERC1155/ERC1155.sol\":8273:8289  to == address(0) */\n      0xffffffffffffffffffffffffffffffffffffffff\n      and\n        /* \"@openzeppelin/contracts/token/ERC1155/ERC1155.sol\":8273:8275  to */\n      dup5\n        /* \"@openzeppelin/contracts/token/ERC1155/ERC1155.sol\":8273:8289  to == address(0) */\n      0xffffffffffffffffffffffffffffffffffffffff\n      and\n      sub\n        /* \"@openzeppelin/contracts/token/ERC1155/ERC1155.sol\":8269:8357  if (to == address(0)) {... */\n      tag_209\n      jumpi\n        /* \"@openzeppelin/contracts/token/ERC1155/ERC1155.sol\":8343:8344  0 */\n      0x00\n        /* \"@openzeppelin/contracts/token/ERC1155/ERC1155.sol\":8312:8346  ERC1155InvalidReceiver(address(0)) */\n      mload(0x40)\n      0x57f447ce00000000000000000000000000000000000000000000000000000000\n      dup2\n      mstore\n      0x04\n      add\n      tag_210\n      swap2\n      swap1\n      tag_76\n      jump\t// in\n    tag_210:\n      mload(0x40)\n      dup1\n      swap2\n      sub\n      swap1\n      revert\n        /* \"@openzeppelin/contracts/token/ERC1155/ERC1155.sol\":8269:8357  if (to == address(0)) {... */\n    tag_209:\n        /* \"@openzeppelin/contracts/token/ERC1155/ERC1155.sol\":8386:8387  0 */\n      0x00\n        /* \"@openzeppelin/contracts/token/ERC1155/ERC1155.sol\":8370:8388  from == address(0) */\n      0xffffffffffffffffffffffffffffffffffffffff\n      and\n        /* \"@openzeppelin/contracts/token/ERC1155/ERC1155.sol\":8370:8374  from */\n      dup6\n        /* \"@openzeppelin/contracts/token/ERC1155/ERC1155.sol\":8370:8388  from == address(0) */\n      0xffffffffffffffffffffffffffffffffffffffff\n      and\n      sub\n        /* \"@openzeppelin/contracts/token/ERC1155/ERC1155.sol\":8366:8454  if (from == address(0)) {... */\n      tag_211\n      jumpi\n        /* \"@openzeppelin/contracts/token/ERC1155/ERC1155.sol\":8440:8441  0 */\n      0x00\n        /* \"@openzeppelin/contracts/token/ERC1155/ERC1155.sol\":8411:8443  ERC1155InvalidSender(address(0)) */\n      mload(0x40)\n      0x01a8351400000000000000000000000000000000000000000000000000000000\n      dup2\n      mstore\n      0x04\n      add\n      tag_212\n      swap2\n      swap1\n      tag_76\n      jump\t// in\n    tag_212:\n      mload(0x40)\n      dup1\n      swap2\n      sub\n      swap1\n      revert\n        /* \"@openzeppelin/contracts/token/ERC1155/ERC1155.sol\":8366:8454  if (from == address(0)) {... */\n    tag_211:\n        /* \"@openzeppelin/contracts/token/ERC1155/ERC1155.sol\":8464:8484  uint256[] memory ids */\n      0x00\n        /* \"@openzeppelin/contracts/token/ERC1155/ERC1155.sol\":8486:8509  uint256[] memory values */\n      dup1\n        /* \"@openzeppelin/contracts/token/ERC1155/ERC1155.sol\":8513:8542  _asSingletonArrays(id, value) */\n      tag_213\n        /* \"@openzeppelin/contracts/token/ERC1155/ERC1155.sol\":8532:8534  id */\n      dup6\n        /* \"@openzeppelin/contracts/token/ERC1155/ERC1155.sol\":8536:8541  value */\n      dup6\n        /* \"@openzeppelin/contracts/token/ERC1155/ERC1155.sol\":8513:8531  _asSingletonArrays */\n      tag_214\n        /* \"@openzeppelin/contracts/token/ERC1155/ERC1155.sol\":8513:8542  _asSingletonArrays(id, value) */\n      jump\t// in\n    tag_213:\n        /* \"@openzeppelin/contracts/token/ERC1155/ERC1155.sol\":8463:8542  (uint256[] memory ids, uint256[] memory values) = _asSingletonArrays(id, value) */\n      swap2\n      pop\n      swap2\n      pop\n        /* \"@openzeppelin/contracts/token/ERC1155/ERC1155.sol\":8552:8607  _updateWithAcceptanceCheck(from, to, ids, values, data) */\n      tag_215\n        /* \"@openzeppelin/contracts/token/ERC1155/ERC1155.sol\":8579:8583  from */\n      dup8\n        /* \"@openzeppelin/contracts/token/ERC1155/ERC1155.sol\":8585:8587  to */\n      dup8\n        /* \"@openzeppelin/contracts/token/ERC1155/ERC1155.sol\":8589:8592  ids */\n      dup5\n        /* \"@openzeppelin/contracts/token/ERC1155/ERC1155.sol\":8594:8600  values */\n      dup5\n        /* \"@openzeppelin/contracts/token/ERC1155/ERC1155.sol\":8602:8606  data */\n      dup8\n        /* \"@openzeppelin/contracts/token/ERC1155/ERC1155.sol\":8552:8578  _updateWithAcceptanceCheck */\n      tag_216\n        /* \"@openzeppelin/contracts/token/ERC1155/ERC1155.sol\":8552:8607  _updateWithAcceptanceCheck(from, to, ids, values, data) */\n      jump\t// in\n    tag_215:\n        /* \"@openzeppelin/contracts/token/ERC1155/ERC1155.sol\":8259:8614  {... */\n      pop\n      pop\n        /* \"@openzeppelin/contracts/token/ERC1155/ERC1155.sol\":8151:8614  function _safeTransferFrom(address from, address to, uint256 id, uint256 value, bytes memory data) internal {... */\n      pop\n      pop\n      pop\n      pop\n      pop\n      jump\t// out\n        /* \"@openzeppelin/contracts/token/ERC1155/ERC1155.sol\":11523:11805  function _mintBatch(address to, uint256[] memory ids, uint256[] memory values, bytes memory data) internal {... */\n    tag_130:\n        /* \"@openzeppelin/contracts/token/ERC1155/ERC1155.sol\":11658:11659  0 */\n      0x00\n        /* \"@openzeppelin/contracts/token/ERC1155/ERC1155.sol\":11644:11660  to == address(0) */\n      0xffffffffffffffffffffffffffffffffffffffff\n      and\n        /* \"@openzeppelin/contracts/token/ERC1155/ERC1155.sol\":11644:11646  to */\n      dup5\n        /* \"@openzeppelin/contracts/token/ERC1155/ERC1155.sol\":11644:11660  to == address(0) */\n      0xffffffffffffffffffffffffffffffffffffffff\n      and\n      sub\n        /* \"@openzeppelin/contracts/token/ERC1155/ERC1155.sol\":11640:11728  if (to == address(0)) {... */\n      tag_218\n      jumpi\n        /* \"@openzeppelin/contracts/token/ERC1155/ERC1155.sol\":11714:11715  0 */\n      0x00\n        /* \"@openzeppelin/contracts/token/ERC1155/ERC1155.sol\":11683:11717  ERC1155InvalidReceiver(address(0)) */\n      mload(0x40)\n      0x57f447ce00000000000000000000000000000000000000000000000000000000\n      dup2\n      mstore\n      0x04\n      add\n      tag_219\n      swap2\n      swap1\n      tag_76\n      jump\t// in\n    tag_219:\n      mload(0x40)\n      dup1\n      swap2\n      sub\n      swap1\n      revert\n        /* \"@openzeppelin/contracts/token/ERC1155/ERC1155.sol\":11640:11728  if (to == address(0)) {... */\n    tag_218:\n        /* \"@openzeppelin/contracts/token/ERC1155/ERC1155.sol\":11737:11798  _updateWithAcceptanceCheck(address(0), to, ids, values, data) */\n      tag_220\n        /* \"@openzeppelin/contracts/token/ERC1155/ERC1155.sol\":11772:11773  0 */\n      0x00\n        /* \"@openzeppelin/contracts/token/ERC1155/ERC1155.sol\":11776:11778  to */\n      dup6\n        /* \"@openzeppelin/contracts/token/ERC1155/ERC1155.sol\":11780:11783  ids */\n      dup6\n        /* \"@openzeppelin/contracts/token/ERC1155/ERC1155.sol\":11785:11791  values */\n      dup6\n        /* \"@openzeppelin/contracts/token/ERC1155/ERC1155.sol\":11793:11797  data */\n      dup6\n        /* \"@openzeppelin/contracts/token/ERC1155/ERC1155.sol\":11737:11763  _updateWithAcceptanceCheck */\n      tag_216\n        /* \"@openzeppelin/contracts/token/ERC1155/ERC1155.sol\":11737:11798  _updateWithAcceptanceCheck(address(0), to, ids, values, data) */\n      jump\t// in\n    tag_220:\n        /* \"@openzeppelin/contracts/token/ERC1155/ERC1155.sol\":11523:11805  function _mintBatch(address to, uint256[] memory ids, uint256[] memory values, bytes memory data) internal {... */\n      pop\n      pop\n      pop\n      pop\n      jump\t// out\n        /* \"@openzeppelin/contracts/utils/Context.sol\":656:752  function _msgSender() internal view virtual returns (address) {... */\n    tag_133:\n        /* \"@openzeppelin/contracts/utils/Context.sol\":709:716  address */\n      0x00\n        /* \"@openzeppelin/contracts/utils/Context.sol\":735:745  msg.sender */\n      caller\n        /* \"@openzeppelin/contracts/utils/Context.sol\":728:745  return msg.sender */\n      swap1\n      pop\n        /* \"@openzeppelin/contracts/utils/Context.sol\":656:752  function _msgSender() internal view virtual returns (address) {... */\n      swap1\n      jump\t// out\n        /* \"@openzeppelin/contracts/token/ERC1155/ERC1155.sol\":9015:9460  function _safeBatchTransferFrom(... */\n    tag_140:\n        /* \"@openzeppelin/contracts/token/ERC1155/ERC1155.sol\":9222:9223  0 */\n      0x00\n        /* \"@openzeppelin/contracts/token/ERC1155/ERC1155.sol\":9208:9224  to == address(0) */\n      0xffffffffffffffffffffffffffffffffffffffff\n      and\n        /* \"@openzeppelin/contracts/token/ERC1155/ERC1155.sol\":9208:9210  to */\n      dup5\n        /* \"@openzeppelin/contracts/token/ERC1155/ERC1155.sol\":9208:9224  to == address(0) */\n      0xffffffffffffffffffffffffffffffffffffffff\n      and\n      sub\n        /* \"@openzeppelin/contracts/token/ERC1155/ERC1155.sol\":9204:9292  if (to == address(0)) {... */\n      tag_223\n      jumpi\n        /* \"@openzeppelin/contracts/token/ERC1155/ERC1155.sol\":9278:9279  0 */\n      0x00\n        /* \"@openzeppelin/contracts/token/ERC1155/ERC1155.sol\":9247:9281  ERC1155InvalidReceiver(address(0)) */\n      mload(0x40)\n      0x57f447ce00000000000000000000000000000000000000000000000000000000\n      dup2\n      mstore\n      0x04\n      add\n      tag_224\n      swap2\n      swap1\n      tag_76\n      jump\t// in\n    tag_224:\n      mload(0x40)\n      dup1\n      swap2\n      sub\n      swap1\n      revert\n        /* \"@openzeppelin/contracts/token/ERC1155/ERC1155.sol\":9204:9292  if (to == address(0)) {... */\n    tag_223:\n        /* \"@openzeppelin/contracts/token/ERC1155/ERC1155.sol\":9321:9322  0 */\n      0x00\n        /* \"@openzeppelin/contracts/token/ERC1155/ERC1155.sol\":9305:9323  from == address(0) */\n      0xffffffffffffffffffffffffffffffffffffffff\n      and\n        /* \"@openzeppelin/contracts/token/ERC1155/ERC1155.sol\":9305:9309  from */\n      dup6\n        /* \"@openzeppelin/contracts/token/ERC1155/ERC1155.sol\":9305:9323  from == address(0) */\n      0xffffffffffffffffffffffffffffffffffffffff\n      and\n      sub\n        /* \"@openzeppelin/contracts/token/ERC1155/ERC1155.sol\":9301:9389  if (from == address(0)) {... */\n      tag_225\n      jumpi\n        /* \"@openzeppelin/contracts/token/ERC1155/ERC1155.sol\":9375:9376  0 */\n      0x00\n        /* \"@openzeppelin/contracts/token/ERC1155/ERC1155.sol\":9346:9378  ERC1155InvalidSender(address(0)) */\n      mload(0x40)\n      0x01a8351400000000000000000000000000000000000000000000000000000000\n      dup2\n      mstore\n      0x04\n      add\n      tag_226\n      swap2\n      swap1\n      tag_76\n      jump\t// in\n    tag_226:\n      mload(0x40)\n      dup1\n      swap2\n      sub\n      swap1\n      revert\n        /* \"@openzeppelin/contracts/token/ERC1155/ERC1155.sol\":9301:9389  if (from == address(0)) {... */\n    tag_225:\n        /* \"@openzeppelin/contracts/token/ERC1155/ERC1155.sol\":9398:9453  _updateWithAcceptanceCheck(from, to, ids, values, data) */\n      tag_227\n        /* \"@openzeppelin/contracts/token/ERC1155/ERC1155.sol\":9425:9429  from */\n      dup6\n        /* \"@openzeppelin/contracts/token/ERC1155/ERC1155.sol\":9431:9433  to */\n      dup6\n        /* \"@openzeppelin/contracts/token/ERC1155/ERC1155.sol\":9435:9438  ids */\n      dup6\n        /* \"@openzeppelin/contracts/token/ERC1155/ERC1155.sol\":9440:9446  values */\n      dup6\n        /* \"@openzeppelin/contracts/token/ERC1155/ERC1155.sol\":9448:9452  data */\n      dup6\n        /* \"@openzeppelin/contracts/token/ERC1155/ERC1155.sol\":9398:9424  _updateWithAcceptanceCheck */\n      tag_216\n        /* \"@openzeppelin/contracts/token/ERC1155/ERC1155.sol\":9398:9453  _updateWithAcceptanceCheck(from, to, ids, values, data) */\n      jump\t// in\n    tag_227:\n        /* \"@openzeppelin/contracts/token/ERC1155/ERC1155.sol\":9015:9460  function _safeBatchTransferFrom(... */\n      pop\n      pop\n      pop\n      pop\n      pop\n      jump\t// out\n        /* \"@openzeppelin/contracts/utils/Arrays.sol\":4603:4800  function unsafeMemoryAccess(address[] memory arr, uint256 pos) internal pure returns (address res) {... */\n    tag_154:\n        /* \"@openzeppelin/contracts/utils/Arrays.sol\":4689:4700  address res */\n      0x00\n        /* \"@openzeppelin/contracts/utils/Arrays.sol\":4777:4781  0x20 */\n      0x20\n        /* \"@openzeppelin/contracts/utils/Arrays.sol\":4772:4775  pos */\n      dup3\n        /* \"@openzeppelin/contracts/utils/Arrays.sol\":4768:4782  mul(pos, 0x20) */\n      mul\n        /* \"@openzeppelin/contracts/utils/Arrays.sol\":4761:4765  0x20 */\n      0x20\n        /* \"@openzeppelin/contracts/utils/Arrays.sol\":4756:4759  arr */\n      dup5\n        /* \"@openzeppelin/contracts/utils/Arrays.sol\":4752:4766  add(arr, 0x20) */\n      add\n        /* \"@openzeppelin/contracts/utils/Arrays.sol\":4748:4783  add(add(arr, 0x20), mul(pos, 0x20)) */\n      add\n        /* \"@openzeppelin/contracts/utils/Arrays.sol\":4742:4784  mload(add(add(arr, 0x20), mul(pos, 0x20))) */\n      mload\n        /* \"@openzeppelin/contracts/utils/Arrays.sol\":4735:4784  res := mload(add(add(arr, 0x20), mul(pos, 0x20))) */\n      swap1\n      pop\n        /* \"@openzeppelin/contracts/utils/Arrays.sol\":4603:4800  function unsafeMemoryAccess(address[] memory arr, uint256 pos) internal pure returns (address res) {... */\n      swap3\n      swap2\n      pop\n      pop\n      jump\t// out\n        /* \"@openzeppelin/contracts/utils/Arrays.sol\":4204:4401  function unsafeMemoryAccess(uint256[] memory arr, uint256 pos) internal pure returns (uint256 res) {... */\n    tag_156:\n        /* \"@openzeppelin/contracts/utils/Arrays.sol\":4290:4301  uint256 res */\n      0x00\n        /* \"@openzeppelin/contracts/utils/Arrays.sol\":4378:4382  0x20 */\n      0x20\n        /* \"@openzeppelin/contracts/utils/Arrays.sol\":4373:4376  pos */\n      dup3\n        /* \"@openzeppelin/contracts/utils/Arrays.sol\":4369:4383  mul(pos, 0x20) */\n      mul\n        /* \"@openzeppelin/contracts/utils/Arrays.sol\":4362:4366  0x20 */\n      0x20\n        /* \"@openzeppelin/contracts/utils/Arrays.sol\":4357:4360  arr */\n      dup5\n        /* \"@openzeppelin/contracts/utils/Arrays.sol\":4353:4367  add(arr, 0x20) */\n      add\n        /* \"@openzeppelin/contracts/utils/Arrays.sol\":4349:4384  add(add(arr, 0x20), mul(pos, 0x20)) */\n      add\n        /* \"@openzeppelin/contracts/utils/Arrays.sol\":4343:4385  mload(add(add(arr, 0x20), mul(pos, 0x20))) */\n      mload\n        /* \"@openzeppelin/contracts/utils/Arrays.sol\":4336:4385  res := mload(add(add(arr, 0x20), mul(pos, 0x20))) */\n      swap1\n      pop\n        /* \"@openzeppelin/contracts/utils/Arrays.sol\":4204:4401  function unsafeMemoryAccess(uint256[] memory arr, uint256 pos) internal pure returns (uint256 res) {... */\n      swap3\n      swap2\n      pop\n      pop\n      jump\t// out\n        /* \"@openzeppelin/contracts/access/Ownable.sol\":2912:3099  function _transferOwnership(address newOwner) internal virtual {... */\n    tag_166:\n        /* \"@openzeppelin/contracts/access/Ownable.sol\":2985:3001  address oldOwner */\n      0x00\n        /* \"@openzeppelin/contracts/access/Ownable.sol\":3004:3010  _owner */\n      0x03\n      0x00\n      swap1\n      sload\n      swap1\n      0x0100\n      exp\n      swap1\n      div\n      0xffffffffffffffffffffffffffffffffffffffff\n      and\n        /* \"@openzeppelin/contracts/access/Ownable.sol\":2985:3010  address oldOwner = _owner */\n      swap1\n      pop\n        /* \"@openzeppelin/contracts/access/Ownable.sol\":3029:3037  newOwner */\n      dup2\n        /* \"@openzeppelin/contracts/access/Ownable.sol\":3020:3026  _owner */\n      0x03\n      0x00\n        /* \"@openzeppelin/contracts/access/Ownable.sol\":3020:3037  _owner = newOwner */\n      0x0100\n      exp\n      dup2\n      sload\n      dup2\n      0xffffffffffffffffffffffffffffffffffffffff\n      mul\n      not\n      and\n      swap1\n      dup4\n      0xffffffffffffffffffffffffffffffffffffffff\n      and\n      mul\n      or\n      swap1\n      sstore\n      pop\n        /* \"@openzeppelin/contracts/access/Ownable.sol\":3083:3091  newOwner */\n      dup2\n        /* \"@openzeppelin/contracts/access/Ownable.sol\":3052:3092  OwnershipTransferred(oldOwner, newOwner) */\n      0xffffffffffffffffffffffffffffffffffffffff\n      and\n        /* \"@openzeppelin/contracts/access/Ownable.sol\":3073:3081  oldOwner */\n      dup2\n        /* \"@openzeppelin/contracts/access/Ownable.sol\":3052:3092  OwnershipTransferred(oldOwner, newOwner) */\n      0xffffffffffffffffffffffffffffffffffffffff\n      and\n      0x8be0079c531659141344cd1fd0a4f28419497f9722a3daafe3b4186f6b6457e0\n      mload(0x40)\n      mload(0x40)\n      dup1\n      swap2\n      sub\n      swap1\n      log3\n        /* \"@openzeppelin/contracts/access/Ownable.sol\":2975:3099  {... */\n      pop\n        /* \"@openzeppelin/contracts/access/Ownable.sol\":2912:3099  function _transferOwnership(address newOwner) internal virtual {... */\n      pop\n      jump\t// out\n        /* \"@openzeppelin/contracts/utils/Counters.sol\":827:939  function current(Counter storage counter) internal view returns (uint256) {... */\n    tag_172:\n        /* \"@openzeppelin/contracts/utils/Counters.sol\":892:899  uint256 */\n      0x00\n        /* \"@openzeppelin/contracts/utils/Counters.sol\":918:925  counter */\n      dup2\n        /* \"@openzeppelin/contracts/utils/Counters.sol\":918:932  counter._value */\n      0x00\n      add\n      sload\n        /* \"@openzeppelin/contracts/utils/Counters.sol\":911:932  return counter._value */\n      swap1\n      pop\n        /* \"@openzeppelin/contracts/utils/Counters.sol\":827:939  function current(Counter storage counter) internal view returns (uint256) {... */\n      swap2\n      swap1\n      pop\n      jump\t// out\n        /* \"@openzeppelin/contracts/utils/Counters.sol\":945:1068  function increment(Counter storage counter) internal {... */\n    tag_174:\n        /* \"@openzeppelin/contracts/utils/Counters.sol\":1050:1051  1 */\n      0x01\n        /* \"@openzeppelin/contracts/utils/Counters.sol\":1032:1039  counter */\n      dup2\n        /* \"@openzeppelin/contracts/utils/Counters.sol\":1032:1046  counter._value */\n      0x00\n      add\n      0x00\n        /* \"@openzeppelin/contracts/utils/Counters.sol\":1032:1051  counter._value += 1 */\n      dup3\n      dup3\n      sload\n      add\n      swap3\n      pop\n      pop\n      dup2\n      swap1\n      sstore\n      pop\n        /* \"@openzeppelin/contracts/utils/Counters.sol\":945:1068  function increment(Counter storage counter) internal {... */\n      pop\n      jump\t// out\n        /* \"@openzeppelin/contracts/token/ERC1155/ERC1155.sol\":10746:11092  function _mint(address to, uint256 id, uint256 value, bytes memory data) internal {... */\n    tag_176:\n        /* \"@openzeppelin/contracts/token/ERC1155/ERC1155.sol\":10856:10857  0 */\n      0x00\n        /* \"@openzeppelin/contracts/token/ERC1155/ERC1155.sol\":10842:10858  to == address(0) */\n      0xffffffffffffffffffffffffffffffffffffffff\n      and\n        /* \"@openzeppelin/contracts/token/ERC1155/ERC1155.sol\":10842:10844  to */\n      dup5\n        /* \"@openzeppelin/contracts/token/ERC1155/ERC1155.sol\":10842:10858  to == address(0) */\n      0xffffffffffffffffffffffffffffffffffffffff\n      and\n      sub\n        /* \"@openzeppelin/contracts/token/ERC1155/ERC1155.sol\":10838:10926  if (to == address(0)) {... */\n      tag_234\n      jumpi\n        /* \"@openzeppelin/contracts/token/ERC1155/ERC1155.sol\":10912:10913  0 */\n      0x00\n        /* \"@openzeppelin/contracts/token/ERC1155/ERC1155.sol\":10881:10915  ERC1155InvalidReceiver(address(0)) */\n      mload(0x40)\n      0x57f447ce00000000000000000000000000000000000000000000000000000000\n      dup2\n      mstore\n      0x04\n      add\n      tag_235\n      swap2\n      swap1\n      tag_76\n      jump\t// in\n    tag_235:\n      mload(0x40)\n      dup1\n      swap2\n      sub\n      swap1\n      revert\n        /* \"@openzeppelin/contracts/token/ERC1155/ERC1155.sol\":10838:10926  if (to == address(0)) {... */\n    tag_234:\n        /* \"@openzeppelin/contracts/token/ERC1155/ERC1155.sol\":10936:10956  uint256[] memory ids */\n      0x00\n        /* \"@openzeppelin/contracts/token/ERC1155/ERC1155.sol\":10958:10981  uint256[] memory values */\n      dup1\n        /* \"@openzeppelin/contracts/token/ERC1155/ERC1155.sol\":10985:11014  _asSingletonArrays(id, value) */\n      tag_236\n        /* \"@openzeppelin/contracts/token/ERC1155/ERC1155.sol\":11004:11006  id */\n      dup6\n        /* \"@openzeppelin/contracts/token/ERC1155/ERC1155.sol\":11008:11013  value */\n      dup6\n        /* \"@openzeppelin/contracts/token/ERC1155/ERC1155.sol\":10985:11003  _asSingletonArrays */\n      tag_214\n        /* \"@openzeppelin/contracts/token/ERC1155/ERC1155.sol\":10985:11014  _asSingletonArrays(id, value) */\n      jump\t// in\n    tag_236:\n        /* \"@openzeppelin/contracts/token/ERC1155/ERC1155.sol\":10935:11014  (uint256[] memory ids, uint256[] memory values) = _asSingletonArrays(id, value) */\n      swap2\n      pop\n      swap2\n      pop\n        /* \"@openzeppelin/contracts/token/ERC1155/ERC1155.sol\":11024:11085  _updateWithAcceptanceCheck(address(0), to, ids, values, data) */\n      tag_237\n        /* \"@openzeppelin/contracts/token/ERC1155/ERC1155.sol\":11059:11060  0 */\n      0x00\n        /* \"@openzeppelin/contracts/token/ERC1155/ERC1155.sol\":11063:11065  to */\n      dup8\n        /* \"@openzeppelin/contracts/token/ERC1155/ERC1155.sol\":11067:11070  ids */\n      dup5\n        /* \"@openzeppelin/contracts/token/ERC1155/ERC1155.sol\":11072:11078  values */\n      dup5\n        /* \"@openzeppelin/contracts/token/ERC1155/ERC1155.sol\":11080:11084  data */\n      dup8\n        /* \"@openzeppelin/contracts/token/ERC1155/ERC1155.sol\":11024:11050  _updateWithAcceptanceCheck */\n      tag_216\n        /* \"@openzeppelin/contracts/token/ERC1155/ERC1155.sol\":11024:11085  _updateWithAcceptanceCheck(address(0), to, ids, values, data) */\n      jump\t// in\n    tag_237:\n        /* \"@openzeppelin/contracts/token/ERC1155/ERC1155.sol\":10828:11092  {... */\n      pop\n      pop\n        /* \"@openzeppelin/contracts/token/ERC1155/ERC1155.sol\":10746:11092  function _mint(address to, uint256 id, uint256 value, bytes memory data) internal {... */\n      pop\n      pop\n      pop\n      pop\n      jump\t// out\n        /* \"@openzeppelin/contracts/token/ERC1155/ERC1155.sol\":13268:13583  function _setApprovalForAll(address owner, address operator, bool approved) internal virtual {... */\n    tag_178:\n        /* \"@openzeppelin/contracts/token/ERC1155/ERC1155.sol\":13395:13396  0 */\n      0x00\n        /* \"@openzeppelin/contracts/token/ERC1155/ERC1155.sol\":13375:13397  operator == address(0) */\n      0xffffffffffffffffffffffffffffffffffffffff\n      and\n        /* \"@openzeppelin/contracts/token/ERC1155/ERC1155.sol\":13375:13383  operator */\n      dup3\n        /* \"@openzeppelin/contracts/token/ERC1155/ERC1155.sol\":13375:13397  operator == address(0) */\n      0xffffffffffffffffffffffffffffffffffffffff\n      and\n      sub\n        /* \"@openzeppelin/contracts/token/ERC1155/ERC1155.sol\":13371:13465  if (operator == address(0)) {... */\n      tag_239\n      jumpi\n        /* \"@openzeppelin/contracts/token/ERC1155/ERC1155.sol\":13451:13452  0 */\n      0x00\n        /* \"@openzeppelin/contracts/token/ERC1155/ERC1155.sol\":13420:13454  ERC1155InvalidOperator(address(0)) */\n      mload(0x40)\n      0xced3e10000000000000000000000000000000000000000000000000000000000\n      dup2\n      mstore\n      0x04\n      add\n      tag_240\n      swap2\n      swap1\n      tag_76\n      jump\t// in\n    tag_240:\n      mload(0x40)\n      dup1\n      swap2\n      sub\n      swap1\n      revert\n        /* \"@openzeppelin/contracts/token/ERC1155/ERC1155.sol\":13371:13465  if (operator == address(0)) {... */\n    tag_239:\n        /* \"@openzeppelin/contracts/token/ERC1155/ERC1155.sol\":13512:13520  approved */\n      dup1\n        /* \"@openzeppelin/contracts/token/ERC1155/ERC1155.sol\":13474:13492  _operatorApprovals */\n      0x01\n        /* \"@openzeppelin/contracts/token/ERC1155/ERC1155.sol\":13474:13499  _operatorApprovals[owner] */\n      0x00\n        /* \"@openzeppelin/contracts/token/ERC1155/ERC1155.sol\":13493:13498  owner */\n      dup6\n        /* \"@openzeppelin/contracts/token/ERC1155/ERC1155.sol\":13474:13499  _operatorApprovals[owner] */\n      0xffffffffffffffffffffffffffffffffffffffff\n      and\n      0xffffffffffffffffffffffffffffffffffffffff\n      and\n      dup2\n      mstore\n      0x20\n      add\n      swap1\n      dup2\n      mstore\n      0x20\n      add\n      0x00\n      keccak256\n        /* \"@openzeppelin/contracts/token/ERC1155/ERC1155.sol\":13474:13509  _operatorApprovals[owner][operator] */\n      0x00\n        /* \"@openzeppelin/contracts/token/ERC1155/ERC1155.sol\":13500:13508  operator */\n      dup5\n        /* \"@openzeppelin/contracts/token/ERC1155/ERC1155.sol\":13474:13509  _operatorApprovals[owner][operator] */\n      0xffffffffffffffffffffffffffffffffffffffff\n      and\n      0xffffffffffffffffffffffffffffffffffffffff\n      and\n      dup2\n      mstore\n      0x20\n      add\n      swap1\n      dup2\n      mstore\n      0x20\n      add\n      0x00\n      keccak256\n      0x00\n        /* \"@openzeppelin/contracts/token/ERC1155/ERC1155.sol\":13474:13520  _operatorApprovals[owner][operator] = approved */\n      0x0100\n      exp\n      dup2\n      sload\n      dup2\n      0xff\n      mul\n      not\n      and\n      swap1\n      dup4\n      iszero\n      iszero\n      mul\n      or\n      swap1\n      sstore\n      pop\n        /* \"@openzeppelin/contracts/token/ERC1155/ERC1155.sol\":13557:13565  operator */\n      dup2\n        /* \"@openzeppelin/contracts/token/ERC1155/ERC1155.sol\":13535:13576  ApprovalForAll(owner, operator, approved) */\n      0xffffffffffffffffffffffffffffffffffffffff\n      and\n        /* \"@openzeppelin/contracts/token/ERC1155/ERC1155.sol\":13550:13555  owner */\n      dup4\n        /* \"@openzeppelin/contracts/token/ERC1155/ERC1155.sol\":13535:13576  ApprovalForAll(owner, operator, approved) */\n      0xffffffffffffffffffffffffffffffffffffffff\n      and\n      0x17307eab39ab6107e8899845ad3d59bd9653f200f220920489ca2b5937696c31\n        /* \"@openzeppelin/contracts/token/ERC1155/ERC1155.sol\":13567:13575  approved */\n      dup4\n        /* \"@openzeppelin/contracts/token/ERC1155/ERC1155.sol\":13535:13576  ApprovalForAll(owner, operator, approved) */\n      mload(0x40)\n      tag_241\n      swap2\n      swap1\n      tag_35\n      jump\t// in\n    tag_241:\n      mload(0x40)\n      dup1\n      swap2\n      sub\n      swap1\n      log3\n        /* \"@openzeppelin/contracts/token/ERC1155/ERC1155.sol\":13268:13583  function _setApprovalForAll(address owner, address operator, bool approved) internal virtual {... */\n      pop\n      pop\n      pop\n      jump\t// out\n        /* \"@openzeppelin/contracts/token/ERC1155/ERC1155.sol\":16080:16929  function _asSingletonArrays(... */\n    tag_214:\n        /* \"@openzeppelin/contracts/token/ERC1155/ERC1155.sol\":16188:16211  uint256[] memory array1 */\n      0x60\n        /* \"@openzeppelin/contracts/token/ERC1155/ERC1155.sol\":16213:16236  uint256[] memory array2 */\n      dup1\n        /* \"@openzeppelin/contracts/token/ERC1155/ERC1155.sol\":16374:16378  0x40 */\n      0x40\n        /* \"@openzeppelin/contracts/token/ERC1155/ERC1155.sol\":16368:16379  mload(0x40) */\n      mload\n        /* \"@openzeppelin/contracts/token/ERC1155/ERC1155.sol\":16358:16379  array1 := mload(0x40) */\n      swap2\n      pop\n        /* \"@openzeppelin/contracts/token/ERC1155/ERC1155.sol\":16444:16445  1 */\n      0x01\n        /* \"@openzeppelin/contracts/token/ERC1155/ERC1155.sol\":16436:16442  array1 */\n      dup3\n        /* \"@openzeppelin/contracts/token/ERC1155/ERC1155.sol\":16429:16446  mstore(array1, 1) */\n      mstore\n        /* \"@openzeppelin/contracts/token/ERC1155/ERC1155.sol\":16582:16590  element1 */\n      dup4\n        /* \"@openzeppelin/contracts/token/ERC1155/ERC1155.sol\":16575:16579  0x20 */\n      0x20\n        /* \"@openzeppelin/contracts/token/ERC1155/ERC1155.sol\":16567:16573  array1 */\n      dup4\n        /* \"@openzeppelin/contracts/token/ERC1155/ERC1155.sol\":16563:16580  add(array1, 0x20) */\n      add\n        /* \"@openzeppelin/contracts/token/ERC1155/ERC1155.sol\":16556:16591  mstore(add(array1, 0x20), element1) */\n      mstore\n        /* \"@openzeppelin/contracts/token/ERC1155/ERC1155.sol\":16704:16708  0x40 */\n      0x40\n        /* \"@openzeppelin/contracts/token/ERC1155/ERC1155.sol\":16696:16702  array1 */\n      dup3\n        /* \"@openzeppelin/contracts/token/ERC1155/ERC1155.sol\":16692:16709  add(array1, 0x40) */\n      add\n        /* \"@openzeppelin/contracts/token/ERC1155/ERC1155.sol\":16682:16709  array2 := add(array1, 0x40) */\n      swap1\n      pop\n        /* \"@openzeppelin/contracts/token/ERC1155/ERC1155.sol\":16737:16738  1 */\n      0x01\n        /* \"@openzeppelin/contracts/token/ERC1155/ERC1155.sol\":16729:16735  array2 */\n      dup2\n        /* \"@openzeppelin/contracts/token/ERC1155/ERC1155.sol\":16722:16739  mstore(array2, 1) */\n      mstore\n        /* \"@openzeppelin/contracts/token/ERC1155/ERC1155.sol\":16778:16786  element2 */\n      dup3\n        /* \"@openzeppelin/contracts/token/ERC1155/ERC1155.sol\":16771:16775  0x20 */\n      0x20\n        /* \"@openzeppelin/contracts/token/ERC1155/ERC1155.sol\":16763:16769  array2 */\n      dup3\n        /* \"@openzeppelin/contracts/token/ERC1155/ERC1155.sol\":16759:16776  add(array2, 0x20) */\n      add\n        /* \"@openzeppelin/contracts/token/ERC1155/ERC1155.sol\":16752:16787  mstore(add(array2, 0x20), element2) */\n      mstore\n        /* \"@openzeppelin/contracts/token/ERC1155/ERC1155.sol\":16907:16911  0x40 */\n      0x40\n        /* \"@openzeppelin/contracts/token/ERC1155/ERC1155.sol\":16899:16905  array2 */\n      dup2\n        /* \"@openzeppelin/contracts/token/ERC1155/ERC1155.sol\":16895:16912  add(array2, 0x40) */\n      add\n        /* \"@openzeppelin/contracts/token/ERC1155/ERC1155.sol\":16889:16893  0x40 */\n      0x40\n        /* \"@openzeppelin/contracts/token/ERC1155/ERC1155.sol\":16882:16913  mstore(0x40, add(array2, 0x40)) */\n      mstore\n        /* \"@openzeppelin/contracts/token/ERC1155/ERC1155.sol\":16080:16929  function _asSingletonArrays(... */\n      swap3\n      pop\n      swap3\n      swap1\n      pop\n      jump\t// out\n        /* \"@openzeppelin/contracts/token/ERC1155/ERC1155.sol\":7004:7694  function _updateWithAcceptanceCheck(... */\n    tag_216:\n        /* \"@openzeppelin/contracts/token/ERC1155/ERC1155.sol\":7205:7235  _update(from, to, ids, values) */\n      tag_244\n        /* \"@openzeppelin/contracts/token/ERC1155/ERC1155.sol\":7213:7217  from */\n      dup6\n        /* \"@openzeppelin/contracts/token/ERC1155/ERC1155.sol\":7219:7221  to */\n      dup6\n        /* \"@openzeppelin/contracts/token/ERC1155/ERC1155.sol\":7223:7226  ids */\n      dup6\n        /* \"@openzeppelin/contracts/token/ERC1155/ERC1155.sol\":7228:7234  values */\n      dup6\n        /* \"@openzeppelin/contracts/token/ERC1155/ERC1155.sol\":7205:7212  _update */\n      tag_245\n        /* \"@openzeppelin/contracts/token/ERC1155/ERC1155.sol\":7205:7235  _update(from, to, ids, values) */\n      jump\t// in\n    tag_244:\n        /* \"@openzeppelin/contracts/token/ERC1155/ERC1155.sol\":7263:7264  0 */\n      0x00\n        /* \"@openzeppelin/contracts/token/ERC1155/ERC1155.sol\":7249:7265  to != address(0) */\n      0xffffffffffffffffffffffffffffffffffffffff\n      and\n        /* \"@openzeppelin/contracts/token/ERC1155/ERC1155.sol\":7249:7251  to */\n      dup5\n        /* \"@openzeppelin/contracts/token/ERC1155/ERC1155.sol\":7249:7265  to != address(0) */\n      0xffffffffffffffffffffffffffffffffffffffff\n      and\n      eq\n        /* \"@openzeppelin/contracts/token/ERC1155/ERC1155.sol\":7245:7688  if (to != address(0)) {... */\n      tag_246\n      jumpi\n        /* \"@openzeppelin/contracts/token/ERC1155/ERC1155.sol\":7281:7297  address operator */\n      0x00\n        /* \"@openzeppelin/contracts/token/ERC1155/ERC1155.sol\":7300:7312  _msgSender() */\n      tag_247\n        /* \"@openzeppelin/contracts/token/ERC1155/ERC1155.sol\":7300:7310  _msgSender */\n      tag_133\n        /* \"@openzeppelin/contracts/token/ERC1155/ERC1155.sol\":7300:7312  _msgSender() */\n      jump\t// in\n    tag_247:\n        /* \"@openzeppelin/contracts/token/ERC1155/ERC1155.sol\":7281:7312  address operator = _msgSender() */\n      swap1\n      pop\n        /* \"@openzeppelin/contracts/token/ERC1155/ERC1155.sol\":7344:7345  1 */\n      0x01\n        /* \"@openzeppelin/contracts/token/ERC1155/ERC1155.sol\":7330:7333  ids */\n      dup5\n        /* \"@openzeppelin/contracts/token/ERC1155/ERC1155.sol\":7330:7340  ids.length */\n      mload\n        /* \"@openzeppelin/contracts/token/ERC1155/ERC1155.sol\":7330:7345  ids.length == 1 */\n      sub\n        /* \"@openzeppelin/contracts/token/ERC1155/ERC1155.sol\":7326:7678  if (ids.length == 1) {... */\n      tag_248\n      jumpi\n        /* \"@openzeppelin/contracts/token/ERC1155/ERC1155.sol\":7365:7375  uint256 id */\n      0x00\n        /* \"@openzeppelin/contracts/token/ERC1155/ERC1155.sol\":7378:7403  ids.unsafeMemoryAccess(0) */\n      tag_249\n        /* \"@openzeppelin/contracts/token/ERC1155/ERC1155.sol\":7401:7402  0 */\n      0x00\n        /* \"@openzeppelin/contracts/token/ERC1155/ERC1155.sol\":7378:7381  ids */\n      dup7\n        /* \"@openzeppelin/contracts/token/ERC1155/ERC1155.sol\":7378:7400  ids.unsafeMemoryAccess */\n      tag_156\n      swap1\n        /* \"@openzeppelin/contracts/token/ERC1155/ERC1155.sol\":7378:7403  ids.unsafeMemoryAccess(0) */\n      swap2\n      swap1\n      0xffffffff\n      and\n      jump\t// in\n    tag_249:\n        /* \"@openzeppelin/contracts/token/ERC1155/ERC1155.sol\":7365:7403  uint256 id = ids.unsafeMemoryAccess(0) */\n      swap1\n      pop\n        /* \"@openzeppelin/contracts/token/ERC1155/ERC1155.sol\":7421:7434  uint256 value */\n      0x00\n        /* \"@openzeppelin/contracts/token/ERC1155/ERC1155.sol\":7437:7465  values.unsafeMemoryAccess(0) */\n      tag_250\n        /* \"@openzeppelin/contracts/token/ERC1155/ERC1155.sol\":7463:7464  0 */\n      0x00\n        /* \"@openzeppelin/contracts/token/ERC1155/ERC1155.sol\":7437:7443  values */\n      dup7\n        /* \"@openzeppelin/contracts/token/ERC1155/ERC1155.sol\":7437:7462  values.unsafeMemoryAccess */\n      tag_156\n      swap1\n        /* \"@openzeppelin/contracts/token/ERC1155/ERC1155.sol\":7437:7465  values.unsafeMemoryAccess(0) */\n      swap2\n      swap1\n      0xffffffff\n      and\n      jump\t// in\n    tag_250:\n        /* \"@openzeppelin/contracts/token/ERC1155/ERC1155.sol\":7421:7465  uint256 value = values.unsafeMemoryAccess(0) */\n      swap1\n      pop\n        /* \"@openzeppelin/contracts/token/ERC1155/ERC1155.sol\":7483:7550  _doSafeTransferAcceptanceCheck(operator, from, to, id, value, data) */\n      tag_251\n        /* \"@openzeppelin/contracts/token/ERC1155/ERC1155.sol\":7514:7522  operator */\n      dup4\n        /* \"@openzeppelin/contracts/token/ERC1155/ERC1155.sol\":7524:7528  from */\n      dup10\n        /* \"@openzeppelin/contracts/token/ERC1155/ERC1155.sol\":7530:7532  to */\n      dup10\n        /* \"@openzeppelin/contracts/token/ERC1155/ERC1155.sol\":7534:7536  id */\n      dup6\n        /* \"@openzeppelin/contracts/token/ERC1155/ERC1155.sol\":7538:7543  value */\n      dup6\n        /* \"@openzeppelin/contracts/token/ERC1155/ERC1155.sol\":7545:7549  data */\n      dup10\n        /* \"@openzeppelin/contracts/token/ERC1155/ERC1155.sol\":7483:7513  _doSafeTransferAcceptanceCheck */\n      tag_252\n        /* \"@openzeppelin/contracts/token/ERC1155/ERC1155.sol\":7483:7550  _doSafeTransferAcceptanceCheck(operator, from, to, id, value, data) */\n      jump\t// in\n    tag_251:\n        /* \"@openzeppelin/contracts/token/ERC1155/ERC1155.sol\":7347:7565  {... */\n      pop\n      pop\n        /* \"@openzeppelin/contracts/token/ERC1155/ERC1155.sol\":7326:7678  if (ids.length == 1) {... */\n      jump(tag_253)\n    tag_248:\n        /* \"@openzeppelin/contracts/token/ERC1155/ERC1155.sol\":7589:7663  _doSafeBatchTransferAcceptanceCheck(operator, from, to, ids, values, data) */\n      tag_254\n        /* \"@openzeppelin/contracts/token/ERC1155/ERC1155.sol\":7625:7633  operator */\n      dup2\n        /* \"@openzeppelin/contracts/token/ERC1155/ERC1155.sol\":7635:7639  from */\n      dup8\n        /* \"@openzeppelin/contracts/token/ERC1155/ERC1155.sol\":7641:7643  to */\n      dup8\n        /* \"@openzeppelin/contracts/token/ERC1155/ERC1155.sol\":7645:7648  ids */\n      dup8\n        /* \"@openzeppelin/contracts/token/ERC1155/ERC1155.sol\":7650:7656  values */\n      dup8\n        /* \"@openzeppelin/contracts/token/ERC1155/ERC1155.sol\":7658:7662  data */\n      dup8\n        /* \"@openzeppelin/contracts/token/ERC1155/ERC1155.sol\":7589:7624  _doSafeBatchTransferAcceptanceCheck */\n      tag_255\n        /* \"@openzeppelin/contracts/token/ERC1155/ERC1155.sol\":7589:7663  _doSafeBatchTransferAcceptanceCheck(operator, from, to, ids, values, data) */\n      jump\t// in\n    tag_254:\n        /* \"@openzeppelin/contracts/token/ERC1155/ERC1155.sol\":7326:7678  if (ids.length == 1) {... */\n    tag_253:\n        /* \"@openzeppelin/contracts/token/ERC1155/ERC1155.sol\":7267:7688  {... */\n      pop\n        /* \"@openzeppelin/contracts/token/ERC1155/ERC1155.sol\":7245:7688  if (to != address(0)) {... */\n    tag_246:\n        /* \"@openzeppelin/contracts/token/ERC1155/ERC1155.sol\":7004:7694  function _updateWithAcceptanceCheck(... */\n      pop\n      pop\n      pop\n      pop\n      pop\n      jump\t// out\n        /* \"contracts/Song.sol\":1504:1709  function _update(address from, address to, uint256[] memory ids, uint256[] memory values)... */\n    tag_245:\n        /* \"contracts/Song.sol\":1666:1702  super._update(from, to, ids, values) */\n      tag_257\n        /* \"contracts/Song.sol\":1680:1684  from */\n      dup5\n        /* \"contracts/Song.sol\":1686:1688  to */\n      dup5\n        /* \"contracts/Song.sol\":1690:1693  ids */\n      dup5\n        /* \"contracts/Song.sol\":1695:1701  values */\n      dup5\n        /* \"contracts/Song.sol\":1666:1679  super._update */\n      tag_258\n        /* \"contracts/Song.sol\":1666:1702  super._update(from, to, ids, values) */\n      jump\t// in\n    tag_257:\n        /* \"contracts/Song.sol\":1504:1709  function _update(address from, address to, uint256[] memory ids, uint256[] memory values)... */\n      pop\n      pop\n      pop\n      pop\n      jump\t// out\n        /* \"@openzeppelin/contracts/token/ERC1155/ERC1155.sol\":13761:14735  function _doSafeTransferAcceptanceCheck(... */\n    tag_252:\n        /* \"@openzeppelin/contracts/token/ERC1155/ERC1155.sol\":13984:13985  0 */\n      0x00\n        /* \"@openzeppelin/contracts/token/ERC1155/ERC1155.sol\":13967:13969  to */\n      dup5\n        /* \"@openzeppelin/contracts/token/ERC1155/ERC1155.sol\":13967:13981  to.code.length */\n      0xffffffffffffffffffffffffffffffffffffffff\n      and\n      extcodesize\n        /* \"@openzeppelin/contracts/token/ERC1155/ERC1155.sol\":13967:13985  to.code.length > 0 */\n      gt\n        /* \"@openzeppelin/contracts/token/ERC1155/ERC1155.sol\":13963:14729  if (to.code.length > 0) {... */\n      iszero\n      tag_260\n      jumpi\n        /* \"@openzeppelin/contracts/token/ERC1155/ERC1155.sol\":14022:14024  to */\n      dup4\n        /* \"@openzeppelin/contracts/token/ERC1155/ERC1155.sol\":14005:14043  IERC1155Receiver(to).onERC1155Received */\n      0xffffffffffffffffffffffffffffffffffffffff\n      and\n      0xf23a6e61\n        /* \"@openzeppelin/contracts/token/ERC1155/ERC1155.sol\":14044:14052  operator */\n      dup8\n        /* \"@openzeppelin/contracts/token/ERC1155/ERC1155.sol\":14054:14058  from */\n      dup8\n        /* \"@openzeppelin/contracts/token/ERC1155/ERC1155.sol\":14060:14062  id */\n      dup7\n        /* \"@openzeppelin/contracts/token/ERC1155/ERC1155.sol\":14064:14069  value */\n      dup7\n        /* \"@openzeppelin/contracts/token/ERC1155/ERC1155.sol\":14071:14075  data */\n      dup7\n        /* \"@openzeppelin/contracts/token/ERC1155/ERC1155.sol\":14005:14076  IERC1155Receiver(to).onERC1155Received(operator, from, id, value, data) */\n      mload(0x40)\n      dup7\n      0xffffffff\n      and\n      0xe0\n      shl\n      dup2\n      mstore\n      0x04\n      add\n      tag_261\n      swap6\n      swap5\n      swap4\n      swap3\n      swap2\n      swap1\n      tag_262\n      jump\t// in\n    tag_261:\n      0x20\n      mload(0x40)\n      dup1\n      dup4\n      sub\n      dup2\n      0x00\n      dup8\n      gas\n      call\n      swap3\n      pop\n      pop\n      pop\n      dup1\n      iszero\n      tag_263\n      jumpi\n      pop\n      mload(0x40)\n      returndatasize\n      not(0x1f)\n      0x1f\n      dup3\n      add\n      and\n      dup3\n      add\n      dup1\n      0x40\n      mstore\n      pop\n      dup2\n      add\n      swap1\n      tag_264\n      swap2\n      swap1\n      tag_265\n      jump\t// in\n    tag_264:\n      0x01\n    tag_263:\n        /* \"@openzeppelin/contracts/token/ERC1155/ERC1155.sol\":14001:14719  try IERC1155Receiver(to).onERC1155Received(operator, from, id, value, data) returns (bytes4 response) {... */\n      tag_266\n      jumpi\n      returndatasize\n      dup1\n      0x00\n      dup2\n      eq\n      tag_271\n      jumpi\n      mload(0x40)\n      swap2\n      pop\n      and(add(returndatasize, 0x3f), not(0x1f))\n      dup3\n      add\n      0x40\n      mstore\n      returndatasize\n      dup3\n      mstore\n      returndatasize\n      0x00\n      0x20\n      dup5\n      add\n      returndatacopy\n      jump(tag_270)\n    tag_271:\n      0x60\n      swap2\n      pop\n    tag_270:\n      pop\n        /* \"@openzeppelin/contracts/token/ERC1155/ERC1155.sol\":14377:14378  0 */\n      0x00\n        /* \"@openzeppelin/contracts/token/ERC1155/ERC1155.sol\":14360:14366  reason */\n      dup2\n        /* \"@openzeppelin/contracts/token/ERC1155/ERC1155.sol\":14360:14373  reason.length */\n      mload\n        /* \"@openzeppelin/contracts/token/ERC1155/ERC1155.sol\":14360:14378  reason.length == 0 */\n      sub\n        /* \"@openzeppelin/contracts/token/ERC1155/ERC1155.sol\":14356:14705  if (reason.length == 0) {... */\n      tag_272\n      jumpi\n        /* \"@openzeppelin/contracts/token/ERC1155/ERC1155.sol\":14487:14489  to */\n      dup5\n        /* \"@openzeppelin/contracts/token/ERC1155/ERC1155.sol\":14464:14490  ERC1155InvalidReceiver(to) */\n      mload(0x40)\n      0x57f447ce00000000000000000000000000000000000000000000000000000000\n      dup2\n      mstore\n      0x04\n      add\n      tag_273\n      swap2\n      swap1\n      tag_76\n      jump\t// in\n    tag_273:\n      mload(0x40)\n      dup1\n      swap2\n      sub\n      swap1\n      revert\n        /* \"@openzeppelin/contracts/token/ERC1155/ERC1155.sol\":14356:14705  if (reason.length == 0) {... */\n    tag_272:\n        /* \"@openzeppelin/contracts/token/ERC1155/ERC1155.sol\":14657:14663  reason */\n      dup1\n        /* \"@openzeppelin/contracts/token/ERC1155/ERC1155.sol\":14651:14664  mload(reason) */\n      mload\n        /* \"@openzeppelin/contracts/token/ERC1155/ERC1155.sol\":14642:14648  reason */\n      dup2\n        /* \"@openzeppelin/contracts/token/ERC1155/ERC1155.sol\":14638:14640  32 */\n      0x20\n        /* \"@openzeppelin/contracts/token/ERC1155/ERC1155.sol\":14634:14649  add(32, reason) */\n      add\n        /* \"@openzeppelin/contracts/token/ERC1155/ERC1155.sol\":14627:14665  revert(add(32, reason), mload(reason)) */\n      revert\n        /* \"@openzeppelin/contracts/token/ERC1155/ERC1155.sol\":14001:14719  try IERC1155Receiver(to).onERC1155Received(operator, from, id, value, data) returns (bytes4 response) {... */\n    tag_266:\n        /* \"@openzeppelin/contracts/token/ERC1155/ERC1155.sol\":14137:14180  IERC1155Receiver.onERC1155Received.selector */\n      shl(0xe0, 0xf23a6e61)\n        /* \"@openzeppelin/contracts/token/ERC1155/ERC1155.sol\":14125:14180  response != IERC1155Receiver.onERC1155Received.selector */\n      not(0xffffffffffffffffffffffffffffffffffffffffffffffffffffffff)\n      and\n        /* \"@openzeppelin/contracts/token/ERC1155/ERC1155.sol\":14125:14133  response */\n      dup2\n        /* \"@openzeppelin/contracts/token/ERC1155/ERC1155.sol\":14125:14180  response != IERC1155Receiver.onERC1155Received.selector */\n      not(0xffffffffffffffffffffffffffffffffffffffffffffffffffffffff)\n      and\n      eq\n        /* \"@openzeppelin/contracts/token/ERC1155/ERC1155.sol\":14121:14295  if (response != IERC1155Receiver.onERC1155Received.selector) {... */\n      tag_276\n      jumpi\n        /* \"@openzeppelin/contracts/token/ERC1155/ERC1155.sol\":14273:14275  to */\n      dup5\n        /* \"@openzeppelin/contracts/token/ERC1155/ERC1155.sol\":14250:14276  ERC1155InvalidReceiver(to) */\n      mload(0x40)\n      0x57f447ce00000000000000000000000000000000000000000000000000000000\n      dup2\n      mstore\n      0x04\n      add\n      tag_277\n      swap2\n      swap1\n      tag_76\n      jump\t// in\n    tag_277:\n      mload(0x40)\n      dup1\n      swap2\n      sub\n      swap1\n      revert\n        /* \"@openzeppelin/contracts/token/ERC1155/ERC1155.sol\":14121:14295  if (response != IERC1155Receiver.onERC1155Received.selector) {... */\n    tag_276:\n        /* \"@openzeppelin/contracts/token/ERC1155/ERC1155.sol\":14077:14309  returns (bytes4 response) {... */\n      pop\n        /* \"@openzeppelin/contracts/token/ERC1155/ERC1155.sol\":13963:14729  if (to.code.length > 0) {... */\n    tag_260:\n        /* \"@openzeppelin/contracts/token/ERC1155/ERC1155.sol\":13761:14735  function _doSafeTransferAcceptanceCheck(... */\n      pop\n      pop\n      pop\n      pop\n      pop\n      pop\n      jump\t// out\n        /* \"@openzeppelin/contracts/token/ERC1155/ERC1155.sol\":14923:15964  function _doSafeBatchTransferAcceptanceCheck(... */\n    tag_255:\n        /* \"@openzeppelin/contracts/token/ERC1155/ERC1155.sol\":15171:15172  0 */\n      0x00\n        /* \"@openzeppelin/contracts/token/ERC1155/ERC1155.sol\":15154:15156  to */\n      dup5\n        /* \"@openzeppelin/contracts/token/ERC1155/ERC1155.sol\":15154:15168  to.code.length */\n      0xffffffffffffffffffffffffffffffffffffffff\n      and\n      extcodesize\n        /* \"@openzeppelin/contracts/token/ERC1155/ERC1155.sol\":15154:15172  to.code.length > 0 */\n      gt\n        /* \"@openzeppelin/contracts/token/ERC1155/ERC1155.sol\":15150:15958  if (to.code.length > 0) {... */\n      iszero\n      tag_279\n      jumpi\n        /* \"@openzeppelin/contracts/token/ERC1155/ERC1155.sol\":15209:15211  to */\n      dup4\n        /* \"@openzeppelin/contracts/token/ERC1155/ERC1155.sol\":15192:15235  IERC1155Receiver(to).onERC1155BatchReceived */\n      0xffffffffffffffffffffffffffffffffffffffff\n      and\n      0xbc197c81\n        /* \"@openzeppelin/contracts/token/ERC1155/ERC1155.sol\":15236:15244  operator */\n      dup8\n        /* \"@openzeppelin/contracts/token/ERC1155/ERC1155.sol\":15246:15250  from */\n      dup8\n        /* \"@openzeppelin/contracts/token/ERC1155/ERC1155.sol\":15252:15255  ids */\n      dup7\n        /* \"@openzeppelin/contracts/token/ERC1155/ERC1155.sol\":15257:15263  values */\n      dup7\n        /* \"@openzeppelin/contracts/token/ERC1155/ERC1155.sol\":15265:15269  data */\n      dup7\n        /* \"@openzeppelin/contracts/token/ERC1155/ERC1155.sol\":15192:15270  IERC1155Receiver(to).onERC1155BatchReceived(operator, from, ids, values, data) */\n      mload(0x40)\n      dup7\n      0xffffffff\n      and\n      0xe0\n      shl\n      dup2\n      mstore\n      0x04\n      add\n      tag_280\n      swap6\n      swap5\n      swap4\n      swap3\n      swap2\n      swap1\n      tag_281\n      jump\t// in\n    tag_280:\n      0x20\n      mload(0x40)\n      dup1\n      dup4\n      sub\n      dup2\n      0x00\n      dup8\n      gas\n      call\n      swap3\n      pop\n      pop\n      pop\n      dup1\n      iszero\n      tag_282\n      jumpi\n      pop\n      mload(0x40)\n      returndatasize\n      not(0x1f)\n      0x1f\n      dup3\n      add\n      and\n      dup3\n      add\n      dup1\n      0x40\n      mstore\n      pop\n      dup2\n      add\n      swap1\n      tag_283\n      swap2\n      swap1\n      tag_265\n      jump\t// in\n    tag_283:\n      0x01\n    tag_282:\n        /* \"@openzeppelin/contracts/token/ERC1155/ERC1155.sol\":15188:15948  try IERC1155Receiver(to).onERC1155BatchReceived(operator, from, ids, values, data) returns (... */\n      tag_284\n      jumpi\n      returndatasize\n      dup1\n      0x00\n      dup2\n      eq\n      tag_289\n      jumpi\n      mload(0x40)\n      swap2\n      pop\n      and(add(returndatasize, 0x3f), not(0x1f))\n      dup3\n      add\n      0x40\n      mstore\n      returndatasize\n      dup3\n      mstore\n      returndatasize\n      0x00\n      0x20\n      dup5\n      add\n      returndatacopy\n      jump(tag_288)\n    tag_289:\n      0x60\n      swap2\n      pop\n    tag_288:\n      pop\n        /* \"@openzeppelin/contracts/token/ERC1155/ERC1155.sol\":15606:15607  0 */\n      0x00\n        /* \"@openzeppelin/contracts/token/ERC1155/ERC1155.sol\":15589:15595  reason */\n      dup2\n        /* \"@openzeppelin/contracts/token/ERC1155/ERC1155.sol\":15589:15602  reason.length */\n      mload\n        /* \"@openzeppelin/contracts/token/ERC1155/ERC1155.sol\":15589:15607  reason.length == 0 */\n      sub\n        /* \"@openzeppelin/contracts/token/ERC1155/ERC1155.sol\":15585:15934  if (reason.length == 0) {... */\n      tag_290\n      jumpi\n        /* \"@openzeppelin/contracts/token/ERC1155/ERC1155.sol\":15716:15718  to */\n      dup5\n        /* \"@openzeppelin/contracts/token/ERC1155/ERC1155.sol\":15693:15719  ERC1155InvalidReceiver(to) */\n      mload(0x40)\n      0x57f447ce00000000000000000000000000000000000000000000000000000000\n      dup2\n      mstore\n      0x04\n      add\n      tag_291\n      swap2\n      swap1\n      tag_76\n      jump\t// in\n    tag_291:\n      mload(0x40)\n      dup1\n      swap2\n      sub\n      swap1\n      revert\n        /* \"@openzeppelin/contracts/token/ERC1155/ERC1155.sol\":15585:15934  if (reason.length == 0) {... */\n    tag_290:\n        /* \"@openzeppelin/contracts/token/ERC1155/ERC1155.sol\":15886:15892  reason */\n      dup1\n        /* \"@openzeppelin/contracts/token/ERC1155/ERC1155.sol\":15880:15893  mload(reason) */\n      mload\n        /* \"@openzeppelin/contracts/token/ERC1155/ERC1155.sol\":15871:15877  reason */\n      dup2\n        /* \"@openzeppelin/contracts/token/ERC1155/ERC1155.sol\":15867:15869  32 */\n      0x20\n        /* \"@openzeppelin/contracts/token/ERC1155/ERC1155.sol\":15863:15878  add(32, reason) */\n      add\n        /* \"@openzeppelin/contracts/token/ERC1155/ERC1155.sol\":15856:15894  revert(add(32, reason), mload(reason)) */\n      revert\n        /* \"@openzeppelin/contracts/token/ERC1155/ERC1155.sol\":15188:15948  try IERC1155Receiver(to).onERC1155BatchReceived(operator, from, ids, values, data) returns (... */\n    tag_284:\n        /* \"@openzeppelin/contracts/token/ERC1155/ERC1155.sol\":15361:15409  IERC1155Receiver.onERC1155BatchReceived.selector */\n      shl(0xe0, 0xbc197c81)\n        /* \"@openzeppelin/contracts/token/ERC1155/ERC1155.sol\":15349:15409  response != IERC1155Receiver.onERC1155BatchReceived.selector */\n      not(0xffffffffffffffffffffffffffffffffffffffffffffffffffffffff)\n      and\n        /* \"@openzeppelin/contracts/token/ERC1155/ERC1155.sol\":15349:15357  response */\n      dup2\n        /* \"@openzeppelin/contracts/token/ERC1155/ERC1155.sol\":15349:15409  response != IERC1155Receiver.onERC1155BatchReceived.selector */\n      not(0xffffffffffffffffffffffffffffffffffffffffffffffffffffffff)\n      and\n      eq\n        /* \"@openzeppelin/contracts/token/ERC1155/ERC1155.sol\":15345:15524  if (response != IERC1155Receiver.onERC1155BatchReceived.selector) {... */\n      tag_294\n      jumpi\n        /* \"@openzeppelin/contracts/token/ERC1155/ERC1155.sol\":15502:15504  to */\n      dup5\n        /* \"@openzeppelin/contracts/token/ERC1155/ERC1155.sol\":15479:15505  ERC1155InvalidReceiver(to) */\n      mload(0x40)\n      0x57f447ce00000000000000000000000000000000000000000000000000000000\n      dup2\n      mstore\n      0x04\n      add\n      tag_295\n      swap2\n      swap1\n      tag_76\n      jump\t// in\n    tag_295:\n      mload(0x40)\n      dup1\n      swap2\n      sub\n      swap1\n      revert\n        /* \"@openzeppelin/contracts/token/ERC1155/ERC1155.sol\":15345:15524  if (response != IERC1155Receiver.onERC1155BatchReceived.selector) {... */\n    tag_294:\n        /* \"@openzeppelin/contracts/token/ERC1155/ERC1155.sol\":15271:15538  returns (... */\n      pop\n        /* \"@openzeppelin/contracts/token/ERC1155/ERC1155.sol\":15150:15958  if (to.code.length > 0) {... */\n    tag_279:\n        /* \"@openzeppelin/contracts/token/ERC1155/ERC1155.sol\":14923:15964  function _doSafeBatchTransferAcceptanceCheck(... */\n      pop\n      pop\n      pop\n      pop\n      pop\n      pop\n      jump\t// out\n        /* \"@openzeppelin/contracts/token/ERC1155/extensions/ERC1155Supply.sol\":1483:3001  function _update(... */\n    tag_258:\n        /* \"@openzeppelin/contracts/token/ERC1155/extensions/ERC1155Supply.sol\":1647:1683  super._update(from, to, ids, values) */\n      tag_297\n        /* \"@openzeppelin/contracts/token/ERC1155/extensions/ERC1155Supply.sol\":1661:1665  from */\n      dup5\n        /* \"@openzeppelin/contracts/token/ERC1155/extensions/ERC1155Supply.sol\":1667:1669  to */\n      dup5\n        /* \"@openzeppelin/contracts/token/ERC1155/extensions/ERC1155Supply.sol\":1671:1674  ids */\n      dup5\n        /* \"@openzeppelin/contracts/token/ERC1155/extensions/ERC1155Supply.sol\":1676:1682  values */\n      dup5\n        /* \"@openzeppelin/contracts/token/ERC1155/extensions/ERC1155Supply.sol\":1647:1660  super._update */\n      tag_298\n        /* \"@openzeppelin/contracts/token/ERC1155/extensions/ERC1155Supply.sol\":1647:1683  super._update(from, to, ids, values) */\n      jump\t// in\n    tag_297:\n        /* \"@openzeppelin/contracts/token/ERC1155/extensions/ERC1155Supply.sol\":1714:1715  0 */\n      0x00\n        /* \"@openzeppelin/contracts/token/ERC1155/extensions/ERC1155Supply.sol\":1698:1716  from == address(0) */\n      0xffffffffffffffffffffffffffffffffffffffff\n      and\n        /* \"@openzeppelin/contracts/token/ERC1155/extensions/ERC1155Supply.sol\":1698:1702  from */\n      dup5\n        /* \"@openzeppelin/contracts/token/ERC1155/extensions/ERC1155Supply.sol\":1698:1716  from == address(0) */\n      0xffffffffffffffffffffffffffffffffffffffff\n      and\n      sub\n        /* \"@openzeppelin/contracts/token/ERC1155/extensions/ERC1155Supply.sol\":1694:2227  if (from == address(0)) {... */\n      tag_299\n      jumpi\n        /* \"@openzeppelin/contracts/token/ERC1155/extensions/ERC1155Supply.sol\":1732:1754  uint256 totalMintValue */\n      0x00\n        /* \"@openzeppelin/contracts/token/ERC1155/extensions/ERC1155Supply.sol\":1777:1786  uint256 i */\n      dup1\n        /* \"@openzeppelin/contracts/token/ERC1155/extensions/ERC1155Supply.sol\":1772:2065  for (uint256 i = 0; i < ids.length; ++i) {... */\n    tag_300:\n        /* \"@openzeppelin/contracts/token/ERC1155/extensions/ERC1155Supply.sol\":1796:1799  ids */\n      dup4\n        /* \"@openzeppelin/contracts/token/ERC1155/extensions/ERC1155Supply.sol\":1796:1806  ids.length */\n      mload\n        /* \"@openzeppelin/contracts/token/ERC1155/extensions/ERC1155Supply.sol\":1792:1793  i */\n      dup2\n        /* \"@openzeppelin/contracts/token/ERC1155/extensions/ERC1155Supply.sol\":1792:1806  i < ids.length */\n      lt\n        /* \"@openzeppelin/contracts/token/ERC1155/extensions/ERC1155Supply.sol\":1772:2065  for (uint256 i = 0; i < ids.length; ++i) {... */\n      iszero\n      tag_301\n      jumpi\n        /* \"@openzeppelin/contracts/token/ERC1155/extensions/ERC1155Supply.sol\":1831:1844  uint256 value */\n      0x00\n        /* \"@openzeppelin/contracts/token/ERC1155/extensions/ERC1155Supply.sol\":1847:1853  values */\n      dup4\n        /* \"@openzeppelin/contracts/token/ERC1155/extensions/ERC1155Supply.sol\":1854:1855  i */\n      dup3\n        /* \"@openzeppelin/contracts/token/ERC1155/extensions/ERC1155Supply.sol\":1847:1856  values[i] */\n      dup2\n      mload\n      dup2\n      lt\n      tag_303\n      jumpi\n      tag_304\n      tag_159\n      jump\t// in\n    tag_304:\n    tag_303:\n      0x20\n      mul\n      0x20\n      add\n      add\n      mload\n        /* \"@openzeppelin/contracts/token/ERC1155/extensions/ERC1155Supply.sol\":1831:1856  uint256 value = values[i] */\n      swap1\n      pop\n        /* \"@openzeppelin/contracts/token/ERC1155/extensions/ERC1155Supply.sol\":2004:2009  value */\n      dup1\n        /* \"@openzeppelin/contracts/token/ERC1155/extensions/ERC1155Supply.sol\":1980:1992  _totalSupply */\n      0x04\n        /* \"@openzeppelin/contracts/token/ERC1155/extensions/ERC1155Supply.sol\":1980:2000  _totalSupply[ids[i]] */\n      0x00\n        /* \"@openzeppelin/contracts/token/ERC1155/extensions/ERC1155Supply.sol\":1993:1996  ids */\n      dup8\n        /* \"@openzeppelin/contracts/token/ERC1155/extensions/ERC1155Supply.sol\":1997:1998  i */\n      dup6\n        /* \"@openzeppelin/contracts/token/ERC1155/extensions/ERC1155Supply.sol\":1993:1999  ids[i] */\n      dup2\n      mload\n      dup2\n      lt\n      tag_305\n      jumpi\n      tag_306\n      tag_159\n      jump\t// in\n    tag_306:\n    tag_305:\n      0x20\n      mul\n      0x20\n      add\n      add\n      mload\n        /* \"@openzeppelin/contracts/token/ERC1155/extensions/ERC1155Supply.sol\":1980:2000  _totalSupply[ids[i]] */\n      dup2\n      mstore\n      0x20\n      add\n      swap1\n      dup2\n      mstore\n      0x20\n      add\n      0x00\n      keccak256\n      0x00\n        /* \"@openzeppelin/contracts/token/ERC1155/extensions/ERC1155Supply.sol\":1980:2009  _totalSupply[ids[i]] += value */\n      dup3\n      dup3\n      sload\n      tag_307\n      swap2\n      swap1\n      tag_308\n      jump\t// in\n    tag_307:\n      swap3\n      pop\n      pop\n      dup2\n      swap1\n      sstore\n      pop\n        /* \"@openzeppelin/contracts/token/ERC1155/extensions/ERC1155Supply.sol\":2045:2050  value */\n      dup1\n        /* \"@openzeppelin/contracts/token/ERC1155/extensions/ERC1155Supply.sol\":2027:2050  totalMintValue += value */\n      dup4\n      tag_309\n      swap2\n      swap1\n      tag_308\n      jump\t// in\n    tag_309:\n      swap3\n      pop\n        /* \"@openzeppelin/contracts/token/ERC1155/extensions/ERC1155Supply.sol\":1813:2065  {... */\n      pop\n        /* \"@openzeppelin/contracts/token/ERC1155/extensions/ERC1155Supply.sol\":1808:1811  ++i */\n      dup1\n      0x01\n      add\n      swap1\n      pop\n        /* \"@openzeppelin/contracts/token/ERC1155/extensions/ERC1155Supply.sol\":1772:2065  for (uint256 i = 0; i < ids.length; ++i) {... */\n      jump(tag_300)\n    tag_301:\n      pop\n        /* \"@openzeppelin/contracts/token/ERC1155/extensions/ERC1155Supply.sol\":2202:2216  totalMintValue */\n      dup1\n        /* \"@openzeppelin/contracts/token/ERC1155/extensions/ERC1155Supply.sol\":2183:2198  _totalSupplyAll */\n      0x05\n      0x00\n        /* \"@openzeppelin/contracts/token/ERC1155/extensions/ERC1155Supply.sol\":2183:2216  _totalSupplyAll += totalMintValue */\n      dup3\n      dup3\n      sload\n      tag_310\n      swap2\n      swap1\n      tag_308\n      jump\t// in\n    tag_310:\n      swap3\n      pop\n      pop\n      dup2\n      swap1\n      sstore\n      pop\n        /* \"@openzeppelin/contracts/token/ERC1155/extensions/ERC1155Supply.sol\":1718:2227  {... */\n      pop\n        /* \"@openzeppelin/contracts/token/ERC1155/extensions/ERC1155Supply.sol\":1694:2227  if (from == address(0)) {... */\n    tag_299:\n        /* \"@openzeppelin/contracts/token/ERC1155/extensions/ERC1155Supply.sol\":2255:2256  0 */\n      0x00\n        /* \"@openzeppelin/contracts/token/ERC1155/extensions/ERC1155Supply.sol\":2241:2257  to == address(0) */\n      0xffffffffffffffffffffffffffffffffffffffff\n      and\n        /* \"@openzeppelin/contracts/token/ERC1155/extensions/ERC1155Supply.sol\":2241:2243  to */\n      dup4\n        /* \"@openzeppelin/contracts/token/ERC1155/extensions/ERC1155Supply.sol\":2241:2257  to == address(0) */\n      0xffffffffffffffffffffffffffffffffffffffff\n      and\n      sub\n        /* \"@openzeppelin/contracts/token/ERC1155/extensions/ERC1155Supply.sol\":2237:2995  if (to == address(0)) {... */\n      tag_311\n      jumpi\n        /* \"@openzeppelin/contracts/token/ERC1155/extensions/ERC1155Supply.sol\":2273:2295  uint256 totalBurnValue */\n      0x00\n        /* \"@openzeppelin/contracts/token/ERC1155/extensions/ERC1155Supply.sol\":2318:2327  uint256 i */\n      dup1\n        /* \"@openzeppelin/contracts/token/ERC1155/extensions/ERC1155Supply.sol\":2313:2772  for (uint256 i = 0; i < ids.length; ++i) {... */\n    tag_312:\n        /* \"@openzeppelin/contracts/token/ERC1155/extensions/ERC1155Supply.sol\":2337:2340  ids */\n      dup4\n        /* \"@openzeppelin/contracts/token/ERC1155/extensions/ERC1155Supply.sol\":2337:2347  ids.length */\n      mload\n        /* \"@openzeppelin/contracts/token/ERC1155/extensions/ERC1155Supply.sol\":2333:2334  i */\n      dup2\n        /* \"@openzeppelin/contracts/token/ERC1155/extensions/ERC1155Supply.sol\":2333:2347  i < ids.length */\n      lt\n        /* \"@openzeppelin/contracts/token/ERC1155/extensions/ERC1155Supply.sol\":2313:2772  for (uint256 i = 0; i < ids.length; ++i) {... */\n      iszero\n      tag_313\n      jumpi\n        /* \"@openzeppelin/contracts/token/ERC1155/extensions/ERC1155Supply.sol\":2372:2385  uint256 value */\n      0x00\n        /* \"@openzeppelin/contracts/token/ERC1155/extensions/ERC1155Supply.sol\":2388:2394  values */\n      dup4\n        /* \"@openzeppelin/contracts/token/ERC1155/extensions/ERC1155Supply.sol\":2395:2396  i */\n      dup3\n        /* \"@openzeppelin/contracts/token/ERC1155/extensions/ERC1155Supply.sol\":2388:2397  values[i] */\n      dup2\n      mload\n      dup2\n      lt\n      tag_315\n      jumpi\n      tag_316\n      tag_159\n      jump\t// in\n    tag_316:\n    tag_315:\n      0x20\n      mul\n      0x20\n      add\n      add\n      mload\n        /* \"@openzeppelin/contracts/token/ERC1155/extensions/ERC1155Supply.sol\":2372:2397  uint256 value = values[i] */\n      swap1\n      pop\n        /* \"@openzeppelin/contracts/token/ERC1155/extensions/ERC1155Supply.sol\":2578:2583  value */\n      dup1\n        /* \"@openzeppelin/contracts/token/ERC1155/extensions/ERC1155Supply.sol\":2554:2566  _totalSupply */\n      0x04\n        /* \"@openzeppelin/contracts/token/ERC1155/extensions/ERC1155Supply.sol\":2554:2574  _totalSupply[ids[i]] */\n      0x00\n        /* \"@openzeppelin/contracts/token/ERC1155/extensions/ERC1155Supply.sol\":2567:2570  ids */\n      dup8\n        /* \"@openzeppelin/contracts/token/ERC1155/extensions/ERC1155Supply.sol\":2571:2572  i */\n      dup6\n        /* \"@openzeppelin/contracts/token/ERC1155/extensions/ERC1155Supply.sol\":2567:2573  ids[i] */\n      dup2\n      mload\n      dup2\n      lt\n      tag_317\n      jumpi\n      tag_318\n      tag_159\n      jump\t// in\n    tag_318:\n    tag_317:\n      0x20\n      mul\n      0x20\n      add\n      add\n      mload\n        /* \"@openzeppelin/contracts/token/ERC1155/extensions/ERC1155Supply.sol\":2554:2574  _totalSupply[ids[i]] */\n      dup2\n      mstore\n      0x20\n      add\n      swap1\n      dup2\n      mstore\n      0x20\n      add\n      0x00\n      keccak256\n      0x00\n        /* \"@openzeppelin/contracts/token/ERC1155/extensions/ERC1155Supply.sol\":2554:2583  _totalSupply[ids[i]] -= value */\n      dup3\n      dup3\n      sload\n      sub\n      swap3\n      pop\n      pop\n      dup2\n      swap1\n      sstore\n      pop\n        /* \"@openzeppelin/contracts/token/ERC1155/extensions/ERC1155Supply.sol\":2734:2739  value */\n      dup1\n        /* \"@openzeppelin/contracts/token/ERC1155/extensions/ERC1155Supply.sol\":2716:2739  totalBurnValue += value */\n      dup4\n      add\n      swap3\n      pop\n        /* \"@openzeppelin/contracts/token/ERC1155/extensions/ERC1155Supply.sol\":2354:2772  {... */\n      pop\n        /* \"@openzeppelin/contracts/token/ERC1155/extensions/ERC1155Supply.sol\":2349:2352  ++i */\n      dup1\n      0x01\n      add\n      swap1\n      pop\n        /* \"@openzeppelin/contracts/token/ERC1155/extensions/ERC1155Supply.sol\":2313:2772  for (uint256 i = 0; i < ids.length; ++i) {... */\n      jump(tag_312)\n    tag_313:\n      pop\n        /* \"@openzeppelin/contracts/token/ERC1155/extensions/ERC1155Supply.sol\":2956:2970  totalBurnValue */\n      dup1\n        /* \"@openzeppelin/contracts/token/ERC1155/extensions/ERC1155Supply.sol\":2937:2952  _totalSupplyAll */\n      0x05\n      0x00\n        /* \"@openzeppelin/contracts/token/ERC1155/extensions/ERC1155Supply.sol\":2937:2970  _totalSupplyAll -= totalBurnValue */\n      dup3\n      dup3\n      sload\n      sub\n      swap3\n      pop\n      pop\n      dup2\n      swap1\n      sstore\n      pop\n        /* \"@openzeppelin/contracts/token/ERC1155/extensions/ERC1155Supply.sol\":2259:2995  {... */\n      pop\n        /* \"@openzeppelin/contracts/token/ERC1155/extensions/ERC1155Supply.sol\":2237:2995  if (to == address(0)) {... */\n    tag_311:\n        /* \"@openzeppelin/contracts/token/ERC1155/extensions/ERC1155Supply.sol\":1483:3001  function _update(... */\n      pop\n      pop\n      pop\n      pop\n      jump\t// out\n        /* \"@openzeppelin/contracts/token/ERC1155/ERC1155.sol\":5144:6425  function _update(address from, address to, uint256[] memory ids, uint256[] memory values) internal virtual {... */\n    tag_298:\n        /* \"@openzeppelin/contracts/token/ERC1155/ERC1155.sol\":5279:5285  values */\n      dup1\n        /* \"@openzeppelin/contracts/token/ERC1155/ERC1155.sol\":5279:5292  values.length */\n      mload\n        /* \"@openzeppelin/contracts/token/ERC1155/ERC1155.sol\":5265:5268  ids */\n      dup3\n        /* \"@openzeppelin/contracts/token/ERC1155/ERC1155.sol\":5265:5275  ids.length */\n      mload\n        /* \"@openzeppelin/contracts/token/ERC1155/ERC1155.sol\":5265:5292  ids.length != values.length */\n      eq\n        /* \"@openzeppelin/contracts/token/ERC1155/ERC1155.sol\":5261:5378  if (ids.length != values.length) {... */\n      tag_320\n      jumpi\n        /* \"@openzeppelin/contracts/token/ERC1155/ERC1155.sol\":5341:5344  ids */\n      dup2\n        /* \"@openzeppelin/contracts/token/ERC1155/ERC1155.sol\":5341:5351  ids.length */\n      mload\n        /* \"@openzeppelin/contracts/token/ERC1155/ERC1155.sol\":5353:5359  values */\n      dup2\n        /* \"@openzeppelin/contracts/token/ERC1155/ERC1155.sol\":5353:5366  values.length */\n      mload\n        /* \"@openzeppelin/contracts/token/ERC1155/ERC1155.sol\":5315:5367  ERC1155InvalidArrayLength(ids.length, values.length) */\n      mload(0x40)\n      0x5b05999100000000000000000000000000000000000000000000000000000000\n      dup2\n      mstore\n      0x04\n      add\n      tag_321\n      swap3\n      swap2\n      swap1\n      tag_144\n      jump\t// in\n    tag_321:\n      mload(0x40)\n      dup1\n      swap2\n      sub\n      swap1\n      revert\n        /* \"@openzeppelin/contracts/token/ERC1155/ERC1155.sol\":5261:5378  if (ids.length != values.length) {... */\n    tag_320:\n        /* \"@openzeppelin/contracts/token/ERC1155/ERC1155.sol\":5388:5404  address operator */\n      0x00\n        /* \"@openzeppelin/contracts/token/ERC1155/ERC1155.sol\":5407:5419  _msgSender() */\n      tag_322\n        /* \"@openzeppelin/contracts/token/ERC1155/ERC1155.sol\":5407:5417  _msgSender */\n      tag_133\n        /* \"@openzeppelin/contracts/token/ERC1155/ERC1155.sol\":5407:5419  _msgSender() */\n      jump\t// in\n    tag_322:\n        /* \"@openzeppelin/contracts/token/ERC1155/ERC1155.sol\":5388:5419  address operator = _msgSender() */\n      swap1\n      pop\n        /* \"@openzeppelin/contracts/token/ERC1155/ERC1155.sol\":5435:5444  uint256 i */\n      0x00\n        /* \"@openzeppelin/contracts/token/ERC1155/ERC1155.sol\":5430:6121  for (uint256 i = 0; i < ids.length; ++i) {... */\n    tag_323:\n        /* \"@openzeppelin/contracts/token/ERC1155/ERC1155.sol\":5454:5457  ids */\n      dup4\n        /* \"@openzeppelin/contracts/token/ERC1155/ERC1155.sol\":5454:5464  ids.length */\n      mload\n        /* \"@openzeppelin/contracts/token/ERC1155/ERC1155.sol\":5450:5451  i */\n      dup2\n        /* \"@openzeppelin/contracts/token/ERC1155/ERC1155.sol\":5450:5464  i < ids.length */\n      lt\n        /* \"@openzeppelin/contracts/token/ERC1155/ERC1155.sol\":5430:6121  for (uint256 i = 0; i < ids.length; ++i) {... */\n      iszero\n      tag_324\n      jumpi\n        /* \"@openzeppelin/contracts/token/ERC1155/ERC1155.sol\":5485:5495  uint256 id */\n      0x00\n        /* \"@openzeppelin/contracts/token/ERC1155/ERC1155.sol\":5498:5523  ids.unsafeMemoryAccess(i) */\n      tag_326\n        /* \"@openzeppelin/contracts/token/ERC1155/ERC1155.sol\":5521:5522  i */\n      dup3\n        /* \"@openzeppelin/contracts/token/ERC1155/ERC1155.sol\":5498:5501  ids */\n      dup7\n        /* \"@openzeppelin/contracts/token/ERC1155/ERC1155.sol\":5498:5520  ids.unsafeMemoryAccess */\n      tag_156\n      swap1\n        /* \"@openzeppelin/contracts/token/ERC1155/ERC1155.sol\":5498:5523  ids.unsafeMemoryAccess(i) */\n      swap2\n      swap1\n      0xffffffff\n      and\n      jump\t// in\n    tag_326:\n        /* \"@openzeppelin/contracts/token/ERC1155/ERC1155.sol\":5485:5523  uint256 id = ids.unsafeMemoryAccess(i) */\n      swap1\n      pop\n        /* \"@openzeppelin/contracts/token/ERC1155/ERC1155.sol\":5537:5550  uint256 value */\n      0x00\n        /* \"@openzeppelin/contracts/token/ERC1155/ERC1155.sol\":5553:5581  values.unsafeMemoryAccess(i) */\n      tag_327\n        /* \"@openzeppelin/contracts/token/ERC1155/ERC1155.sol\":5579:5580  i */\n      dup4\n        /* \"@openzeppelin/contracts/token/ERC1155/ERC1155.sol\":5553:5559  values */\n      dup7\n        /* \"@openzeppelin/contracts/token/ERC1155/ERC1155.sol\":5553:5578  values.unsafeMemoryAccess */\n      tag_156\n      swap1\n        /* \"@openzeppelin/contracts/token/ERC1155/ERC1155.sol\":5553:5581  values.unsafeMemoryAccess(i) */\n      swap2\n      swap1\n      0xffffffff\n      and\n      jump\t// in\n    tag_327:\n        /* \"@openzeppelin/contracts/token/ERC1155/ERC1155.sol\":5537:5581  uint256 value = values.unsafeMemoryAccess(i) */\n      swap1\n      pop\n        /* \"@openzeppelin/contracts/token/ERC1155/ERC1155.sol\":5616:5617  0 */\n      0x00\n        /* \"@openzeppelin/contracts/token/ERC1155/ERC1155.sol\":5600:5618  from != address(0) */\n      0xffffffffffffffffffffffffffffffffffffffff\n      and\n        /* \"@openzeppelin/contracts/token/ERC1155/ERC1155.sol\":5600:5604  from */\n      dup9\n        /* \"@openzeppelin/contracts/token/ERC1155/ERC1155.sol\":5600:5618  from != address(0) */\n      0xffffffffffffffffffffffffffffffffffffffff\n      and\n      eq\n        /* \"@openzeppelin/contracts/token/ERC1155/ERC1155.sol\":5596:6016  if (from != address(0)) {... */\n      tag_328\n      jumpi\n        /* \"@openzeppelin/contracts/token/ERC1155/ERC1155.sol\":5638:5657  uint256 fromBalance */\n      0x00\n        /* \"@openzeppelin/contracts/token/ERC1155/ERC1155.sol\":5660:5669  _balances */\n      dup1\n        /* \"@openzeppelin/contracts/token/ERC1155/ERC1155.sol\":5660:5673  _balances[id] */\n      0x00\n        /* \"@openzeppelin/contracts/token/ERC1155/ERC1155.sol\":5670:5672  id */\n      dup5\n        /* \"@openzeppelin/contracts/token/ERC1155/ERC1155.sol\":5660:5673  _balances[id] */\n      dup2\n      mstore\n      0x20\n      add\n      swap1\n      dup2\n      mstore\n      0x20\n      add\n      0x00\n      keccak256\n        /* \"@openzeppelin/contracts/token/ERC1155/ERC1155.sol\":5660:5679  _balances[id][from] */\n      0x00\n        /* \"@openzeppelin/contracts/token/ERC1155/ERC1155.sol\":5674:5678  from */\n      dup11\n        /* \"@openzeppelin/contracts/token/ERC1155/ERC1155.sol\":5660:5679  _balances[id][from] */\n      0xffffffffffffffffffffffffffffffffffffffff\n      and\n      0xffffffffffffffffffffffffffffffffffffffff\n      and\n      dup2\n      mstore\n      0x20\n      add\n      swap1\n      dup2\n      mstore\n      0x20\n      add\n      0x00\n      keccak256\n      sload\n        /* \"@openzeppelin/contracts/token/ERC1155/ERC1155.sol\":5638:5679  uint256 fromBalance = _balances[id][from] */\n      swap1\n      pop\n        /* \"@openzeppelin/contracts/token/ERC1155/ERC1155.sol\":5715:5720  value */\n      dup2\n        /* \"@openzeppelin/contracts/token/ERC1155/ERC1155.sol\":5701:5712  fromBalance */\n      dup2\n        /* \"@openzeppelin/contracts/token/ERC1155/ERC1155.sol\":5701:5720  fromBalance < value */\n      lt\n        /* \"@openzeppelin/contracts/token/ERC1155/ERC1155.sol\":5697:5826  if (fromBalance < value) {... */\n      iszero\n      tag_329\n      jumpi\n        /* \"@openzeppelin/contracts/token/ERC1155/ERC1155.sol\":5778:5782  from */\n      dup9\n        /* \"@openzeppelin/contracts/token/ERC1155/ERC1155.sol\":5784:5795  fromBalance */\n      dup2\n        /* \"@openzeppelin/contracts/token/ERC1155/ERC1155.sol\":5797:5802  value */\n      dup4\n        /* \"@openzeppelin/contracts/token/ERC1155/ERC1155.sol\":5804:5806  id */\n      dup6\n        /* \"@openzeppelin/contracts/token/ERC1155/ERC1155.sol\":5751:5807  ERC1155InsufficientBalance(from, fromBalance, value, id) */\n      mload(0x40)\n      0x03dee4c500000000000000000000000000000000000000000000000000000000\n      dup2\n      mstore\n      0x04\n      add\n      tag_330\n      swap5\n      swap4\n      swap3\n      swap2\n      swap1\n      tag_331\n      jump\t// in\n    tag_330:\n      mload(0x40)\n      dup1\n      swap2\n      sub\n      swap1\n      revert\n        /* \"@openzeppelin/contracts/token/ERC1155/ERC1155.sol\":5697:5826  if (fromBalance < value) {... */\n    tag_329:\n        /* \"@openzeppelin/contracts/token/ERC1155/ERC1155.sol\":5978:5983  value */\n      dup2\n        /* \"@openzeppelin/contracts/token/ERC1155/ERC1155.sol\":5964:5975  fromBalance */\n      dup2\n        /* \"@openzeppelin/contracts/token/ERC1155/ERC1155.sol\":5964:5983  fromBalance - value */\n      sub\n        /* \"@openzeppelin/contracts/token/ERC1155/ERC1155.sol\":5942:5951  _balances */\n      0x00\n        /* \"@openzeppelin/contracts/token/ERC1155/ERC1155.sol\":5942:5955  _balances[id] */\n      dup1\n        /* \"@openzeppelin/contracts/token/ERC1155/ERC1155.sol\":5952:5954  id */\n      dup6\n        /* \"@openzeppelin/contracts/token/ERC1155/ERC1155.sol\":5942:5955  _balances[id] */\n      dup2\n      mstore\n      0x20\n      add\n      swap1\n      dup2\n      mstore\n      0x20\n      add\n      0x00\n      keccak256\n        /* \"@openzeppelin/contracts/token/ERC1155/ERC1155.sol\":5942:5961  _balances[id][from] */\n      0x00\n        /* \"@openzeppelin/contracts/token/ERC1155/ERC1155.sol\":5956:5960  from */\n      dup12\n        /* \"@openzeppelin/contracts/token/ERC1155/ERC1155.sol\":5942:5961  _balances[id][from] */\n      0xffffffffffffffffffffffffffffffffffffffff\n      and\n      0xffffffffffffffffffffffffffffffffffffffff\n      and\n      dup2\n      mstore\n      0x20\n      add\n      swap1\n      dup2\n      mstore\n      0x20\n      add\n      0x00\n      keccak256\n        /* \"@openzeppelin/contracts/token/ERC1155/ERC1155.sol\":5942:5983  _balances[id][from] = fromBalance - value */\n      dup2\n      swap1\n      sstore\n      pop\n        /* \"@openzeppelin/contracts/token/ERC1155/ERC1155.sol\":5620:6016  {... */\n      pop\n        /* \"@openzeppelin/contracts/token/ERC1155/ERC1155.sol\":5596:6016  if (from != address(0)) {... */\n    tag_328:\n        /* \"@openzeppelin/contracts/token/ERC1155/ERC1155.sol\":6048:6049  0 */\n      0x00\n        /* \"@openzeppelin/contracts/token/ERC1155/ERC1155.sol\":6034:6050  to != address(0) */\n      0xffffffffffffffffffffffffffffffffffffffff\n      and\n        /* \"@openzeppelin/contracts/token/ERC1155/ERC1155.sol\":6034:6036  to */\n      dup8\n        /* \"@openzeppelin/contracts/token/ERC1155/ERC1155.sol\":6034:6050  to != address(0) */\n      0xffffffffffffffffffffffffffffffffffffffff\n      and\n      eq\n        /* \"@openzeppelin/contracts/token/ERC1155/ERC1155.sol\":6030:6111  if (to != address(0)) {... */\n      tag_332\n      jumpi\n        /* \"@openzeppelin/contracts/token/ERC1155/ERC1155.sol\":6091:6096  value */\n      dup1\n        /* \"@openzeppelin/contracts/token/ERC1155/ERC1155.sol\":6070:6079  _balances */\n      0x00\n        /* \"@openzeppelin/contracts/token/ERC1155/ERC1155.sol\":6070:6083  _balances[id] */\n      dup1\n        /* \"@openzeppelin/contracts/token/ERC1155/ERC1155.sol\":6080:6082  id */\n      dup5\n        /* \"@openzeppelin/contracts/token/ERC1155/ERC1155.sol\":6070:6083  _balances[id] */\n      dup2\n      mstore\n      0x20\n      add\n      swap1\n      dup2\n      mstore\n      0x20\n      add\n      0x00\n      keccak256\n        /* \"@openzeppelin/contracts/token/ERC1155/ERC1155.sol\":6070:6087  _balances[id][to] */\n      0x00\n        /* \"@openzeppelin/contracts/token/ERC1155/ERC1155.sol\":6084:6086  to */\n      dup10\n        /* \"@openzeppelin/contracts/token/ERC1155/ERC1155.sol\":6070:6087  _balances[id][to] */\n      0xffffffffffffffffffffffffffffffffffffffff\n      and\n      0xffffffffffffffffffffffffffffffffffffffff\n      and\n      dup2\n      mstore\n      0x20\n      add\n      swap1\n      dup2\n      mstore\n      0x20\n      add\n      0x00\n      keccak256\n      0x00\n        /* \"@openzeppelin/contracts/token/ERC1155/ERC1155.sol\":6070:6096  _balances[id][to] += value */\n      dup3\n      dup3\n      sload\n      tag_333\n      swap2\n      swap1\n      tag_308\n      jump\t// in\n    tag_333:\n      swap3\n      pop\n      pop\n      dup2\n      swap1\n      sstore\n      pop\n        /* \"@openzeppelin/contracts/token/ERC1155/ERC1155.sol\":6030:6111  if (to != address(0)) {... */\n    tag_332:\n        /* \"@openzeppelin/contracts/token/ERC1155/ERC1155.sol\":5471:6121  {... */\n      pop\n      pop\n        /* \"@openzeppelin/contracts/token/ERC1155/ERC1155.sol\":5466:5469  ++i */\n      dup1\n      0x01\n      add\n      swap1\n      pop\n        /* \"@openzeppelin/contracts/token/ERC1155/ERC1155.sol\":5430:6121  for (uint256 i = 0; i < ids.length; ++i) {... */\n      jump(tag_323)\n    tag_324:\n      pop\n        /* \"@openzeppelin/contracts/token/ERC1155/ERC1155.sol\":6149:6150  1 */\n      0x01\n        /* \"@openzeppelin/contracts/token/ERC1155/ERC1155.sol\":6135:6138  ids */\n      dup4\n        /* \"@openzeppelin/contracts/token/ERC1155/ERC1155.sol\":6135:6145  ids.length */\n      mload\n        /* \"@openzeppelin/contracts/token/ERC1155/ERC1155.sol\":6135:6150  ids.length == 1 */\n      sub\n        /* \"@openzeppelin/contracts/token/ERC1155/ERC1155.sol\":6131:6419  if (ids.length == 1) {... */\n      tag_334\n      jumpi\n        /* \"@openzeppelin/contracts/token/ERC1155/ERC1155.sol\":6166:6176  uint256 id */\n      0x00\n        /* \"@openzeppelin/contracts/token/ERC1155/ERC1155.sol\":6179:6204  ids.unsafeMemoryAccess(0) */\n      tag_335\n        /* \"@openzeppelin/contracts/token/ERC1155/ERC1155.sol\":6202:6203  0 */\n      0x00\n        /* \"@openzeppelin/contracts/token/ERC1155/ERC1155.sol\":6179:6182  ids */\n      dup6\n        /* \"@openzeppelin/contracts/token/ERC1155/ERC1155.sol\":6179:6201  ids.unsafeMemoryAccess */\n      tag_156\n      swap1\n        /* \"@openzeppelin/contracts/token/ERC1155/ERC1155.sol\":6179:6204  ids.unsafeMemoryAccess(0) */\n      swap2\n      swap1\n      0xffffffff\n      and\n      jump\t// in\n    tag_335:\n        /* \"@openzeppelin/contracts/token/ERC1155/ERC1155.sol\":6166:6204  uint256 id = ids.unsafeMemoryAccess(0) */\n      swap1\n      pop\n        /* \"@openzeppelin/contracts/token/ERC1155/ERC1155.sol\":6218:6231  uint256 value */\n      0x00\n        /* \"@openzeppelin/contracts/token/ERC1155/ERC1155.sol\":6234:6262  values.unsafeMemoryAccess(0) */\n      tag_336\n        /* \"@openzeppelin/contracts/token/ERC1155/ERC1155.sol\":6260:6261  0 */\n      0x00\n        /* \"@openzeppelin/contracts/token/ERC1155/ERC1155.sol\":6234:6240  values */\n      dup6\n        /* \"@openzeppelin/contracts/token/ERC1155/ERC1155.sol\":6234:6259  values.unsafeMemoryAccess */\n      tag_156\n      swap1\n        /* \"@openzeppelin/contracts/token/ERC1155/ERC1155.sol\":6234:6262  values.unsafeMemoryAccess(0) */\n      swap2\n      swap1\n      0xffffffff\n      and\n      jump\t// in\n    tag_336:\n        /* \"@openzeppelin/contracts/token/ERC1155/ERC1155.sol\":6218:6262  uint256 value = values.unsafeMemoryAccess(0) */\n      swap1\n      pop\n        /* \"@openzeppelin/contracts/token/ERC1155/ERC1155.sol\":6312:6314  to */\n      dup6\n        /* \"@openzeppelin/contracts/token/ERC1155/ERC1155.sol\":6281:6326  TransferSingle(operator, from, to, id, value) */\n      0xffffffffffffffffffffffffffffffffffffffff\n      and\n        /* \"@openzeppelin/contracts/token/ERC1155/ERC1155.sol\":6306:6310  from */\n      dup8\n        /* \"@openzeppelin/contracts/token/ERC1155/ERC1155.sol\":6281:6326  TransferSingle(operator, from, to, id, value) */\n      0xffffffffffffffffffffffffffffffffffffffff\n      and\n        /* \"@openzeppelin/contracts/token/ERC1155/ERC1155.sol\":6296:6304  operator */\n      dup5\n        /* \"@openzeppelin/contracts/token/ERC1155/ERC1155.sol\":6281:6326  TransferSingle(operator, from, to, id, value) */\n      0xffffffffffffffffffffffffffffffffffffffff\n      and\n      0xc3d58168c5ae7397731d063d5bbf3d657854427343f4c083240f7aacaa2d0f62\n        /* \"@openzeppelin/contracts/token/ERC1155/ERC1155.sol\":6316:6318  id */\n      dup6\n        /* \"@openzeppelin/contracts/token/ERC1155/ERC1155.sol\":6320:6325  value */\n      dup6\n        /* \"@openzeppelin/contracts/token/ERC1155/ERC1155.sol\":6281:6326  TransferSingle(operator, from, to, id, value) */\n      mload(0x40)\n      tag_337\n      swap3\n      swap2\n      swap1\n      tag_144\n      jump\t// in\n    tag_337:\n      mload(0x40)\n      dup1\n      swap2\n      sub\n      swap1\n      log4\n        /* \"@openzeppelin/contracts/token/ERC1155/ERC1155.sol\":6152:6337  {... */\n      pop\n      pop\n        /* \"@openzeppelin/contracts/token/ERC1155/ERC1155.sol\":6131:6419  if (ids.length == 1) {... */\n      jump(tag_338)\n    tag_334:\n        /* \"@openzeppelin/contracts/token/ERC1155/ERC1155.sol\":6392:6394  to */\n      dup4\n        /* \"@openzeppelin/contracts/token/ERC1155/ERC1155.sol\":6362:6408  TransferBatch(operator, from, to, ids, values) */\n      0xffffffffffffffffffffffffffffffffffffffff\n      and\n        /* \"@openzeppelin/contracts/token/ERC1155/ERC1155.sol\":6386:6390  from */\n      dup6\n        /* \"@openzeppelin/contracts/token/ERC1155/ERC1155.sol\":6362:6408  TransferBatch(operator, from, to, ids, values) */\n      0xffffffffffffffffffffffffffffffffffffffff\n      and\n        /* \"@openzeppelin/contracts/token/ERC1155/ERC1155.sol\":6376:6384  operator */\n      dup3\n        /* \"@openzeppelin/contracts/token/ERC1155/ERC1155.sol\":6362:6408  TransferBatch(operator, from, to, ids, values) */\n      0xffffffffffffffffffffffffffffffffffffffff\n      and\n      0x4a39dc06d4c0dbc64b70af90fd698a233a518aa5d07e595d983b8c0526c8f7fb\n        /* \"@openzeppelin/contracts/token/ERC1155/ERC1155.sol\":6396:6399  ids */\n      dup7\n        /* \"@openzeppelin/contracts/token/ERC1155/ERC1155.sol\":6401:6407  values */\n      dup7\n        /* \"@openzeppelin/contracts/token/ERC1155/ERC1155.sol\":6362:6408  TransferBatch(operator, from, to, ids, values) */\n      mload(0x40)\n      tag_339\n      swap3\n      swap2\n      swap1\n      tag_340\n      jump\t// in\n    tag_339:\n      mload(0x40)\n      dup1\n      swap2\n      sub\n      swap1\n      log4\n        /* \"@openzeppelin/contracts/token/ERC1155/ERC1155.sol\":6131:6419  if (ids.length == 1) {... */\n    tag_338:\n        /* \"@openzeppelin/contracts/token/ERC1155/ERC1155.sol\":5251:6425  {... */\n      pop\n        /* \"@openzeppelin/contracts/token/ERC1155/ERC1155.sol\":5144:6425  function _update(address from, address to, uint256[] memory ids, uint256[] memory values) internal virtual {... */\n      pop\n      pop\n      pop\n      pop\n      jump\t// out\n        /* \"#utility.yul\":7:82   */\n    tag_341:\n        /* \"#utility.yul\":40:46   */\n      0x00\n        /* \"#utility.yul\":73:75   */\n      0x40\n        /* \"#utility.yul\":67:76   */\n      mload\n        /* \"#utility.yul\":57:76   */\n      swap1\n      pop\n        /* \"#utility.yul\":7:82   */\n      swap1\n      jump\t// out\n        /* \"#utility.yul\":88:205   */\n    tag_342:\n        /* \"#utility.yul\":197:198   */\n      0x00\n        /* \"#utility.yul\":194:195   */\n      dup1\n        /* \"#utility.yul\":187:199   */\n      revert\n        /* \"#utility.yul\":211:328   */\n    tag_343:\n        /* \"#utility.yul\":320:321   */\n      0x00\n        /* \"#utility.yul\":317:318   */\n      dup1\n        /* \"#utility.yul\":310:322   */\n      revert\n        /* \"#utility.yul\":334:460   */\n    tag_344:\n        /* \"#utility.yul\":371:378   */\n      0x00\n        /* \"#utility.yul\":411:453   */\n      0xffffffffffffffffffffffffffffffffffffffff\n        /* \"#utility.yul\":404:409   */\n      dup3\n        /* \"#utility.yul\":400:454   */\n      and\n        /* \"#utility.yul\":389:454   */\n      swap1\n      pop\n        /* \"#utility.yul\":334:460   */\n      swap2\n      swap1\n      pop\n      jump\t// out\n        /* \"#utility.yul\":466:562   */\n    tag_345:\n        /* \"#utility.yul\":503:510   */\n      0x00\n        /* \"#utility.yul\":532:556   */\n      tag_417\n        /* \"#utility.yul\":550:555   */\n      dup3\n        /* \"#utility.yul\":532:556   */\n      tag_344\n      jump\t// in\n    tag_417:\n        /* \"#utility.yul\":521:556   */\n      swap1\n      pop\n        /* \"#utility.yul\":466:562   */\n      swap2\n      swap1\n      pop\n      jump\t// out\n        /* \"#utility.yul\":568:690   */\n    tag_346:\n        /* \"#utility.yul\":641:665   */\n      tag_419\n        /* \"#utility.yul\":659:664   */\n      dup2\n        /* \"#utility.yul\":641:665   */\n      tag_345\n      jump\t// in\n    tag_419:\n        /* \"#utility.yul\":634:639   */\n      dup2\n        /* \"#utility.yul\":631:666   */\n      eq\n        /* \"#utility.yul\":621:684   */\n      tag_420\n      jumpi\n        /* \"#utility.yul\":680:681   */\n      0x00\n        /* \"#utility.yul\":677:678   */\n      dup1\n        /* \"#utility.yul\":670:682   */\n      revert\n        /* \"#utility.yul\":621:684   */\n    tag_420:\n        /* \"#utility.yul\":568:690   */\n      pop\n      jump\t// out\n        /* \"#utility.yul\":696:835   */\n    tag_347:\n        /* \"#utility.yul\":742:747   */\n      0x00\n        /* \"#utility.yul\":780:786   */\n      dup2\n        /* \"#utility.yul\":767:787   */\n      calldataload\n        /* \"#utility.yul\":758:787   */\n      swap1\n      pop\n        /* \"#utility.yul\":796:829   */\n      tag_422\n        /* \"#utility.yul\":823:828   */\n      dup2\n        /* \"#utility.yul\":796:829   */\n      tag_346\n      jump\t// in\n    tag_422:\n        /* \"#utility.yul\":696:835   */\n      swap3\n      swap2\n      pop\n      pop\n      jump\t// out\n        /* \"#utility.yul\":841:918   */\n    tag_348:\n        /* \"#utility.yul\":878:885   */\n      0x00\n        /* \"#utility.yul\":907:912   */\n      dup2\n        /* \"#utility.yul\":896:912   */\n      swap1\n      pop\n        /* \"#utility.yul\":841:918   */\n      swap2\n      swap1\n      pop\n      jump\t// out\n        /* \"#utility.yul\":924:1046   */\n    tag_349:\n        /* \"#utility.yul\":997:1021   */\n      tag_425\n        /* \"#utility.yul\":1015:1020   */\n      dup2\n        /* \"#utility.yul\":997:1021   */\n      tag_348\n      jump\t// in\n    tag_425:\n        /* \"#utility.yul\":990:995   */\n      dup2\n        /* \"#utility.yul\":987:1022   */\n      eq\n        /* \"#utility.yul\":977:1040   */\n      tag_426\n      jumpi\n        /* \"#utility.yul\":1036:1037   */\n      0x00\n        /* \"#utility.yul\":1033:1034   */\n      dup1\n        /* \"#utility.yul\":1026:1038   */\n      revert\n        /* \"#utility.yul\":977:1040   */\n    tag_426:\n        /* \"#utility.yul\":924:1046   */\n      pop\n      jump\t// out\n        /* \"#utility.yul\":1052:1191   */\n    tag_350:\n        /* \"#utility.yul\":1098:1103   */\n      0x00\n        /* \"#utility.yul\":1136:1142   */\n      dup2\n        /* \"#utility.yul\":1123:1143   */\n      calldataload\n        /* \"#utility.yul\":1114:1143   */\n      swap1\n      pop\n        /* \"#utility.yul\":1152:1185   */\n      tag_428\n        /* \"#utility.yul\":1179:1184   */\n      dup2\n        /* \"#utility.yul\":1152:1185   */\n      tag_349\n      jump\t// in\n    tag_428:\n        /* \"#utility.yul\":1052:1191   */\n      swap3\n      swap2\n      pop\n      pop\n      jump\t// out\n        /* \"#utility.yul\":1197:1671   */\n    tag_26:\n        /* \"#utility.yul\":1265:1271   */\n      0x00\n        /* \"#utility.yul\":1273:1279   */\n      dup1\n        /* \"#utility.yul\":1322:1324   */\n      0x40\n        /* \"#utility.yul\":1310:1319   */\n      dup4\n        /* \"#utility.yul\":1301:1308   */\n      dup6\n        /* \"#utility.yul\":1297:1320   */\n      sub\n        /* \"#utility.yul\":1293:1325   */\n      slt\n        /* \"#utility.yul\":1290:1409   */\n      iszero\n      tag_430\n      jumpi\n        /* \"#utility.yul\":1328:1407   */\n      tag_431\n      tag_342\n      jump\t// in\n    tag_431:\n        /* \"#utility.yul\":1290:1409   */\n    tag_430:\n        /* \"#utility.yul\":1448:1449   */\n      0x00\n        /* \"#utility.yul\":1473:1526   */\n      tag_432\n        /* \"#utility.yul\":1518:1525   */\n      dup6\n        /* \"#utility.yul\":1509:1515   */\n      dup3\n        /* \"#utility.yul\":1498:1507   */\n      dup7\n        /* \"#utility.yul\":1494:1516   */\n      add\n        /* \"#utility.yul\":1473:1526   */\n      tag_347\n      jump\t// in\n    tag_432:\n        /* \"#utility.yul\":1463:1526   */\n      swap3\n      pop\n        /* \"#utility.yul\":1419:1536   */\n      pop\n        /* \"#utility.yul\":1575:1577   */\n      0x20\n        /* \"#utility.yul\":1601:1654   */\n      tag_433\n        /* \"#utility.yul\":1646:1653   */\n      dup6\n        /* \"#utility.yul\":1637:1643   */\n      dup3\n        /* \"#utility.yul\":1626:1635   */\n      dup7\n        /* \"#utility.yul\":1622:1644   */\n      add\n        /* \"#utility.yul\":1601:1654   */\n      tag_350\n      jump\t// in\n    tag_433:\n        /* \"#utility.yul\":1591:1654   */\n      swap2\n      pop\n        /* \"#utility.yul\":1546:1664   */\n      pop\n        /* \"#utility.yul\":1197:1671   */\n      swap3\n      pop\n      swap3\n      swap1\n      pop\n      jump\t// out\n        /* \"#utility.yul\":1677:1795   */\n    tag_351:\n        /* \"#utility.yul\":1764:1788   */\n      tag_435\n        /* \"#utility.yul\":1782:1787   */\n      dup2\n        /* \"#utility.yul\":1764:1788   */\n      tag_348\n      jump\t// in\n    tag_435:\n        /* \"#utility.yul\":1759:1762   */\n      dup3\n        /* \"#utility.yul\":1752:1789   */\n      mstore\n        /* \"#utility.yul\":1677:1795   */\n      pop\n      pop\n      jump\t// out\n        /* \"#utility.yul\":1801:2023   */\n    tag_29:\n        /* \"#utility.yul\":1894:1898   */\n      0x00\n        /* \"#utility.yul\":1932:1934   */\n      0x20\n        /* \"#utility.yul\":1921:1930   */\n      dup3\n        /* \"#utility.yul\":1917:1935   */\n      add\n        /* \"#utility.yul\":1909:1935   */\n      swap1\n      pop\n        /* \"#utility.yul\":1945:2016   */\n      tag_437\n        /* \"#utility.yul\":2013:2014   */\n      0x00\n        /* \"#utility.yul\":2002:2011   */\n      dup4\n        /* \"#utility.yul\":1998:2015   */\n      add\n        /* \"#utility.yul\":1989:1995   */\n      dup5\n        /* \"#utility.yul\":1945:2016   */\n      tag_351\n      jump\t// in\n    tag_437:\n        /* \"#utility.yul\":1801:2023   */\n      swap3\n      swap2\n      pop\n      pop\n      jump\t// out\n        /* \"#utility.yul\":2029:2178   */\n    tag_352:\n        /* \"#utility.yul\":2065:2072   */\n      0x00\n        /* \"#utility.yul\":2105:2171   */\n      0xffffffff00000000000000000000000000000000000000000000000000000000\n        /* \"#utility.yul\":2098:2103   */\n      dup3\n        /* \"#utility.yul\":2094:2172   */\n      and\n        /* \"#utility.yul\":2083:2172   */\n      swap1\n      pop\n        /* \"#utility.yul\":2029:2178   */\n      swap2\n      swap1\n      pop\n      jump\t// out\n        /* \"#utility.yul\":2184:2304   */\n    tag_353:\n        /* \"#utility.yul\":2256:2279   */\n      tag_440\n        /* \"#utility.yul\":2273:2278   */\n      dup2\n        /* \"#utility.yul\":2256:2279   */\n      tag_352\n      jump\t// in\n    tag_440:\n        /* \"#utility.yul\":2249:2254   */\n      dup2\n        /* \"#utility.yul\":2246:2280   */\n      eq\n        /* \"#utility.yul\":2236:2298   */\n      tag_441\n      jumpi\n        /* \"#utility.yul\":2294:2295   */\n      0x00\n        /* \"#utility.yul\":2291:2292   */\n      dup1\n        /* \"#utility.yul\":2284:2296   */\n      revert\n        /* \"#utility.yul\":2236:2298   */\n    tag_441:\n        /* \"#utility.yul\":2184:2304   */\n      pop\n      jump\t// out\n        /* \"#utility.yul\":2310:2447   */\n    tag_354:\n        /* \"#utility.yul\":2355:2360   */\n      0x00\n        /* \"#utility.yul\":2393:2399   */\n      dup2\n        /* \"#utility.yul\":2380:2400   */\n      calldataload\n        /* \"#utility.yul\":2371:2400   */\n      swap1\n      pop\n        /* \"#utility.yul\":2409:2441   */\n      tag_443\n        /* \"#utility.yul\":2435:2440   */\n      dup2\n        /* \"#utility.yul\":2409:2441   */\n      tag_353\n      jump\t// in\n    tag_443:\n        /* \"#utility.yul\":2310:2447   */\n      swap3\n      swap2\n      pop\n      pop\n      jump\t// out\n        /* \"#utility.yul\":2453:2780   */\n    tag_32:\n        /* \"#utility.yul\":2511:2517   */\n      0x00\n        /* \"#utility.yul\":2560:2562   */\n      0x20\n        /* \"#utility.yul\":2548:2557   */\n      dup3\n        /* \"#utility.yul\":2539:2546   */\n      dup5\n        /* \"#utility.yul\":2535:2558   */\n      sub\n        /* \"#utility.yul\":2531:2563   */\n      slt\n        /* \"#utility.yul\":2528:2647   */\n      iszero\n      tag_445\n      jumpi\n        /* \"#utility.yul\":2566:2645   */\n      tag_446\n      tag_342\n      jump\t// in\n    tag_446:\n        /* \"#utility.yul\":2528:2647   */\n    tag_445:\n        /* \"#utility.yul\":2686:2687   */\n      0x00\n        /* \"#utility.yul\":2711:2763   */\n      tag_447\n        /* \"#utility.yul\":2755:2762   */\n      dup5\n        /* \"#utility.yul\":2746:2752   */\n      dup3\n        /* \"#utility.yul\":2735:2744   */\n      dup6\n        /* \"#utility.yul\":2731:2753   */\n      add\n        /* \"#utility.yul\":2711:2763   */\n      tag_354\n      jump\t// in\n    tag_447:\n        /* \"#utility.yul\":2701:2763   */\n      swap2\n      pop\n        /* \"#utility.yul\":2657:2773   */\n      pop\n        /* \"#utility.yul\":2453:2780   */\n      swap3\n      swap2\n      pop\n      pop\n      jump\t// out\n        /* \"#utility.yul\":2786:2876   */\n    tag_355:\n        /* \"#utility.yul\":2820:2827   */\n      0x00\n        /* \"#utility.yul\":2863:2868   */\n      dup2\n        /* \"#utility.yul\":2856:2869   */\n      iszero\n        /* \"#utility.yul\":2849:2870   */\n      iszero\n        /* \"#utility.yul\":2838:2870   */\n      swap1\n      pop\n        /* \"#utility.yul\":2786:2876   */\n      swap2\n      swap1\n      pop\n      jump\t// out\n        /* \"#utility.yul\":2882:2991   */\n    tag_356:\n        /* \"#utility.yul\":2963:2984   */\n      tag_450\n        /* \"#utility.yul\":2978:2983   */\n      dup2\n        /* \"#utility.yul\":2963:2984   */\n      tag_355\n      jump\t// in\n    tag_450:\n        /* \"#utility.yul\":2958:2961   */\n      dup3\n        /* \"#utility.yul\":2951:2985   */\n      mstore\n        /* \"#utility.yul\":2882:2991   */\n      pop\n      pop\n      jump\t// out\n        /* \"#utility.yul\":2997:3207   */\n    tag_35:\n        /* \"#utility.yul\":3084:3088   */\n      0x00\n        /* \"#utility.yul\":3122:3124   */\n      0x20\n        /* \"#utility.yul\":3111:3120   */\n      dup3\n        /* \"#utility.yul\":3107:3125   */\n      add\n        /* \"#utility.yul\":3099:3125   */\n      swap1\n      pop\n        /* \"#utility.yul\":3135:3200   */\n      tag_452\n        /* \"#utility.yul\":3197:3198   */\n      0x00\n        /* \"#utility.yul\":3186:3195   */\n      dup4\n        /* \"#utility.yul\":3182:3199   */\n      add\n        /* \"#utility.yul\":3173:3179   */\n      dup5\n        /* \"#utility.yul\":3135:3200   */\n      tag_356\n      jump\t// in\n    tag_452:\n        /* \"#utility.yul\":2997:3207   */\n      swap3\n      swap2\n      pop\n      pop\n      jump\t// out\n        /* \"#utility.yul\":3213:3330   */\n    tag_357:\n        /* \"#utility.yul\":3322:3323   */\n      0x00\n        /* \"#utility.yul\":3319:3320   */\n      dup1\n        /* \"#utility.yul\":3312:3324   */\n      revert\n        /* \"#utility.yul\":3336:3453   */\n    tag_358:\n        /* \"#utility.yul\":3445:3446   */\n      0x00\n        /* \"#utility.yul\":3442:3443   */\n      dup1\n        /* \"#utility.yul\":3435:3447   */\n      revert\n        /* \"#utility.yul\":3459:3561   */\n    tag_359:\n        /* \"#utility.yul\":3500:3506   */\n      0x00\n        /* \"#utility.yul\":3551:3553   */\n      0x1f\n        /* \"#utility.yul\":3547:3554   */\n      not\n        /* \"#utility.yul\":3542:3544   */\n      0x1f\n        /* \"#utility.yul\":3535:3540   */\n      dup4\n        /* \"#utility.yul\":3531:3545   */\n      add\n        /* \"#utility.yul\":3527:3555   */\n      and\n        /* \"#utility.yul\":3517:3555   */\n      swap1\n      pop\n        /* \"#utility.yul\":3459:3561   */\n      swap2\n      swap1\n      pop\n      jump\t// out\n        /* \"#utility.yul\":3567:3747   */\n    tag_147:\n        /* \"#utility.yul\":3615:3692   */\n      0x4e487b7100000000000000000000000000000000000000000000000000000000\n        /* \"#utility.yul\":3612:3613   */\n      0x00\n        /* \"#utility.yul\":3605:3693   */\n      mstore\n        /* \"#utility.yul\":3712:3716   */\n      0x41\n        /* \"#utility.yul\":3709:3710   */\n      0x04\n        /* \"#utility.yul\":3702:3717   */\n      mstore\n        /* \"#utility.yul\":3736:3740   */\n      0x24\n        /* \"#utility.yul\":3733:3734   */\n      0x00\n        /* \"#utility.yul\":3726:3741   */\n      revert\n        /* \"#utility.yul\":3753:4034   */\n    tag_360:\n        /* \"#utility.yul\":3836:3863   */\n      tag_458\n        /* \"#utility.yul\":3858:3862   */\n      dup3\n        /* \"#utility.yul\":3836:3863   */\n      tag_359\n      jump\t// in\n    tag_458:\n        /* \"#utility.yul\":3828:3834   */\n      dup2\n        /* \"#utility.yul\":3824:3864   */\n      add\n        /* \"#utility.yul\":3966:3972   */\n      dup2\n        /* \"#utility.yul\":3954:3964   */\n      dup2\n        /* \"#utility.yul\":3951:3973   */\n      lt\n        /* \"#utility.yul\":3930:3948   */\n      0xffffffffffffffff\n        /* \"#utility.yul\":3918:3928   */\n      dup3\n        /* \"#utility.yul\":3915:3949   */\n      gt\n        /* \"#utility.yul\":3912:3974   */\n      or\n        /* \"#utility.yul\":3909:3997   */\n      iszero\n      tag_459\n      jumpi\n        /* \"#utility.yul\":3977:3995   */\n      tag_460\n      tag_147\n      jump\t// in\n    tag_460:\n        /* \"#utility.yul\":3909:3997   */\n    tag_459:\n        /* \"#utility.yul\":4017:4027   */\n      dup1\n        /* \"#utility.yul\":4013:4015   */\n      0x40\n        /* \"#utility.yul\":4006:4028   */\n      mstore\n        /* \"#utility.yul\":3796:4034   */\n      pop\n        /* \"#utility.yul\":3753:4034   */\n      pop\n      pop\n      jump\t// out\n        /* \"#utility.yul\":4040:4169   */\n    tag_361:\n        /* \"#utility.yul\":4074:4080   */\n      0x00\n        /* \"#utility.yul\":4101:4121   */\n      tag_462\n      tag_341\n      jump\t// in\n    tag_462:\n        /* \"#utility.yul\":4091:4121   */\n      swap1\n      pop\n        /* \"#utility.yul\":4130:4163   */\n      tag_463\n        /* \"#utility.yul\":4158:4162   */\n      dup3\n        /* \"#utility.yul\":4150:4156   */\n      dup3\n        /* \"#utility.yul\":4130:4163   */\n      tag_360\n      jump\t// in\n    tag_463:\n        /* \"#utility.yul\":4040:4169   */\n      swap2\n      swap1\n      pop\n      jump\t// out\n        /* \"#utility.yul\":4175:4483   */\n    tag_362:\n        /* \"#utility.yul\":4237:4241   */\n      0x00\n        /* \"#utility.yul\":4327:4345   */\n      0xffffffffffffffff\n        /* \"#utility.yul\":4319:4325   */\n      dup3\n        /* \"#utility.yul\":4316:4346   */\n      gt\n        /* \"#utility.yul\":4313:4369   */\n      iszero\n      tag_465\n      jumpi\n        /* \"#utility.yul\":4349:4367   */\n      tag_466\n      tag_147\n      jump\t// in\n    tag_466:\n        /* \"#utility.yul\":4313:4369   */\n    tag_465:\n        /* \"#utility.yul\":4387:4416   */\n      tag_467\n        /* \"#utility.yul\":4409:4415   */\n      dup3\n        /* \"#utility.yul\":4387:4416   */\n      tag_359\n      jump\t// in\n    tag_467:\n        /* \"#utility.yul\":4379:4416   */\n      swap1\n      pop\n        /* \"#utility.yul\":4471:4475   */\n      0x20\n        /* \"#utility.yul\":4465:4469   */\n      dup2\n        /* \"#utility.yul\":4461:4476   */\n      add\n        /* \"#utility.yul\":4453:4476   */\n      swap1\n      pop\n        /* \"#utility.yul\":4175:4483   */\n      swap2\n      swap1\n      pop\n      jump\t// out\n        /* \"#utility.yul\":4489:4637   */\n    tag_363:\n        /* \"#utility.yul\":4587:4593   */\n      dup3\n        /* \"#utility.yul\":4582:4585   */\n      dup2\n        /* \"#utility.yul\":4577:4580   */\n      dup4\n        /* \"#utility.yul\":4564:4594   */\n      calldatacopy\n        /* \"#utility.yul\":4628:4629   */\n      0x00\n        /* \"#utility.yul\":4619:4625   */\n      dup4\n        /* \"#utility.yul\":4614:4617   */\n      dup4\n        /* \"#utility.yul\":4610:4626   */\n      add\n        /* \"#utility.yul\":4603:4630   */\n      mstore\n        /* \"#utility.yul\":4489:4637   */\n      pop\n      pop\n      pop\n      jump\t// out\n        /* \"#utility.yul\":4643:5068   */\n    tag_364:\n        /* \"#utility.yul\":4721:4726   */\n      0x00\n        /* \"#utility.yul\":4746:4812   */\n      tag_470\n        /* \"#utility.yul\":4762:4811   */\n      tag_471\n        /* \"#utility.yul\":4804:4810   */\n      dup5\n        /* \"#utility.yul\":4762:4811   */\n      tag_362\n      jump\t// in\n    tag_471:\n        /* \"#utility.yul\":4746:4812   */\n      tag_361\n      jump\t// in\n    tag_470:\n        /* \"#utility.yul\":4737:4812   */\n      swap1\n      pop\n        /* \"#utility.yul\":4835:4841   */\n      dup3\n        /* \"#utility.yul\":4828:4833   */\n      dup2\n        /* \"#utility.yul\":4821:4842   */\n      mstore\n        /* \"#utility.yul\":4873:4877   */\n      0x20\n        /* \"#utility.yul\":4866:4871   */\n      dup2\n        /* \"#utility.yul\":4862:4878   */\n      add\n        /* \"#utility.yul\":4911:4914   */\n      dup5\n        /* \"#utility.yul\":4902:4908   */\n      dup5\n        /* \"#utility.yul\":4897:4900   */\n      dup5\n        /* \"#utility.yul\":4893:4909   */\n      add\n        /* \"#utility.yul\":4890:4915   */\n      gt\n        /* \"#utility.yul\":4887:4999   */\n      iszero\n      tag_472\n      jumpi\n        /* \"#utility.yul\":4918:4997   */\n      tag_473\n      tag_358\n      jump\t// in\n    tag_473:\n        /* \"#utility.yul\":4887:4999   */\n    tag_472:\n        /* \"#utility.yul\":5008:5062   */\n      tag_474\n        /* \"#utility.yul\":5055:5061   */\n      dup5\n        /* \"#utility.yul\":5050:5053   */\n      dup3\n        /* \"#utility.yul\":5045:5048   */\n      dup6\n        /* \"#utility.yul\":5008:5062   */\n      tag_363\n      jump\t// in\n    tag_474:\n        /* \"#utility.yul\":4727:5068   */\n      pop\n        /* \"#utility.yul\":4643:5068   */\n      swap4\n      swap3\n      pop\n      pop\n      pop\n      jump\t// out\n        /* \"#utility.yul\":5088:5428   */\n    tag_365:\n        /* \"#utility.yul\":5144:5149   */\n      0x00\n        /* \"#utility.yul\":5193:5196   */\n      dup3\n        /* \"#utility.yul\":5186:5190   */\n      0x1f\n        /* \"#utility.yul\":5178:5184   */\n      dup4\n        /* \"#utility.yul\":5174:5191   */\n      add\n        /* \"#utility.yul\":5170:5197   */\n      slt\n        /* \"#utility.yul\":5160:5282   */\n      tag_476\n      jumpi\n        /* \"#utility.yul\":5201:5280   */\n      tag_477\n      tag_357\n      jump\t// in\n    tag_477:\n        /* \"#utility.yul\":5160:5282   */\n    tag_476:\n        /* \"#utility.yul\":5318:5324   */\n      dup2\n        /* \"#utility.yul\":5305:5325   */\n      calldataload\n        /* \"#utility.yul\":5343:5422   */\n      tag_478\n        /* \"#utility.yul\":5418:5421   */\n      dup5\n        /* \"#utility.yul\":5410:5416   */\n      dup3\n        /* \"#utility.yul\":5403:5407   */\n      0x20\n        /* \"#utility.yul\":5395:5401   */\n      dup7\n        /* \"#utility.yul\":5391:5408   */\n      add\n        /* \"#utility.yul\":5343:5422   */\n      tag_364\n      jump\t// in\n    tag_478:\n        /* \"#utility.yul\":5334:5422   */\n      swap2\n      pop\n        /* \"#utility.yul\":5150:5428   */\n      pop\n        /* \"#utility.yul\":5088:5428   */\n      swap3\n      swap2\n      pop\n      pop\n      jump\t// out\n        /* \"#utility.yul\":5434:5943   */\n    tag_38:\n        /* \"#utility.yul\":5503:5509   */\n      0x00\n        /* \"#utility.yul\":5552:5554   */\n      0x20\n        /* \"#utility.yul\":5540:5549   */\n      dup3\n        /* \"#utility.yul\":5531:5538   */\n      dup5\n        /* \"#utility.yul\":5527:5550   */\n      sub\n        /* \"#utility.yul\":5523:5555   */\n      slt\n        /* \"#utility.yul\":5520:5639   */\n      iszero\n      tag_480\n      jumpi\n        /* \"#utility.yul\":5558:5637   */\n      tag_481\n      tag_342\n      jump\t// in\n    tag_481:\n        /* \"#utility.yul\":5520:5639   */\n    tag_480:\n        /* \"#utility.yul\":5706:5707   */\n      0x00\n        /* \"#utility.yul\":5695:5704   */\n      dup3\n        /* \"#utility.yul\":5691:5708   */\n      add\n        /* \"#utility.yul\":5678:5709   */\n      calldataload\n        /* \"#utility.yul\":5736:5754   */\n      0xffffffffffffffff\n        /* \"#utility.yul\":5728:5734   */\n      dup2\n        /* \"#utility.yul\":5725:5755   */\n      gt\n        /* \"#utility.yul\":5722:5839   */\n      iszero\n      tag_482\n      jumpi\n        /* \"#utility.yul\":5758:5837   */\n      tag_483\n      tag_343\n      jump\t// in\n    tag_483:\n        /* \"#utility.yul\":5722:5839   */\n    tag_482:\n        /* \"#utility.yul\":5863:5926   */\n      tag_484\n        /* \"#utility.yul\":5918:5925   */\n      dup5\n        /* \"#utility.yul\":5909:5915   */\n      dup3\n        /* \"#utility.yul\":5898:5907   */\n      dup6\n        /* \"#utility.yul\":5894:5916   */\n      add\n        /* \"#utility.yul\":5863:5926   */\n      tag_365\n      jump\t// in\n    tag_484:\n        /* \"#utility.yul\":5853:5926   */\n      swap2\n      pop\n        /* \"#utility.yul\":5649:5936   */\n      pop\n        /* \"#utility.yul\":5434:5943   */\n      swap3\n      swap2\n      pop\n      pop\n      jump\t// out\n        /* \"#utility.yul\":5949:6278   */\n    tag_42:\n        /* \"#utility.yul\":6008:6014   */\n      0x00\n        /* \"#utility.yul\":6057:6059   */\n      0x20\n        /* \"#utility.yul\":6045:6054   */\n      dup3\n        /* \"#utility.yul\":6036:6043   */\n      dup5\n        /* \"#utility.yul\":6032:6055   */\n      sub\n        /* \"#utility.yul\":6028:6060   */\n      slt\n        /* \"#utility.yul\":6025:6144   */\n      iszero\n      tag_486\n      jumpi\n        /* \"#utility.yul\":6063:6142   */\n      tag_487\n      tag_342\n      jump\t// in\n    tag_487:\n        /* \"#utility.yul\":6025:6144   */\n    tag_486:\n        /* \"#utility.yul\":6183:6184   */\n      0x00\n        /* \"#utility.yul\":6208:6261   */\n      tag_488\n        /* \"#utility.yul\":6253:6260   */\n      dup5\n        /* \"#utility.yul\":6244:6250   */\n      dup3\n        /* \"#utility.yul\":6233:6242   */\n      dup6\n        /* \"#utility.yul\":6229:6251   */\n      add\n        /* \"#utility.yul\":6208:6261   */\n      tag_350\n      jump\t// in\n    tag_488:\n        /* \"#utility.yul\":6198:6261   */\n      swap2\n      pop\n        /* \"#utility.yul\":6154:6271   */\n      pop\n        /* \"#utility.yul\":5949:6278   */\n      swap3\n      swap2\n      pop\n      pop\n      jump\t// out\n        /* \"#utility.yul\":6284:6383   */\n    tag_366:\n        /* \"#utility.yul\":6336:6342   */\n      0x00\n        /* \"#utility.yul\":6370:6375   */\n      dup2\n        /* \"#utility.yul\":6364:6376   */\n      mload\n        /* \"#utility.yul\":6354:6376   */\n      swap1\n      pop\n        /* \"#utility.yul\":6284:6383   */\n      swap2\n      swap1\n      pop\n      jump\t// out\n        /* \"#utility.yul\":6389:6558   */\n    tag_367:\n        /* \"#utility.yul\":6473:6484   */\n      0x00\n        /* \"#utility.yul\":6507:6513   */\n      dup3\n        /* \"#utility.yul\":6502:6505   */\n      dup3\n        /* \"#utility.yul\":6495:6514   */\n      mstore\n        /* \"#utility.yul\":6547:6551   */\n      0x20\n        /* \"#utility.yul\":6542:6545   */\n      dup3\n        /* \"#utility.yul\":6538:6552   */\n      add\n        /* \"#utility.yul\":6523:6552   */\n      swap1\n      pop\n        /* \"#utility.yul\":6389:6558   */\n      swap3\n      swap2\n      pop\n      pop\n      jump\t// out\n        /* \"#utility.yul\":6564:6703   */\n    tag_368:\n        /* \"#utility.yul\":6653:6659   */\n      dup3\n        /* \"#utility.yul\":6648:6651   */\n      dup2\n        /* \"#utility.yul\":6643:6646   */\n      dup4\n        /* \"#utility.yul\":6637:6660   */\n      mcopy\n        /* \"#utility.yul\":6694:6695   */\n      0x00\n        /* \"#utility.yul\":6685:6691   */\n      dup4\n        /* \"#utility.yul\":6680:6683   */\n      dup4\n        /* \"#utility.yul\":6676:6692   */\n      add\n        /* \"#utility.yul\":6669:6696   */\n      mstore\n        /* \"#utility.yul\":6564:6703   */\n      pop\n      pop\n      pop\n      jump\t// out\n        /* \"#utility.yul\":6709:7086   */\n    tag_369:\n        /* \"#utility.yul\":6797:6800   */\n      0x00\n        /* \"#utility.yul\":6825:6864   */\n      tag_493\n        /* \"#utility.yul\":6858:6863   */\n      dup3\n        /* \"#utility.yul\":6825:6864   */\n      tag_366\n      jump\t// in\n    tag_493:\n        /* \"#utility.yul\":6880:6951   */\n      tag_494\n        /* \"#utility.yul\":6944:6950   */\n      dup2\n        /* \"#utility.yul\":6939:6942   */\n      dup6\n        /* \"#utility.yul\":6880:6951   */\n      tag_367\n      jump\t// in\n    tag_494:\n        /* \"#utility.yul\":6873:6951   */\n      swap4\n      pop\n        /* \"#utility.yul\":6960:7025   */\n      tag_495\n        /* \"#utility.yul\":7018:7024   */\n      dup2\n        /* \"#utility.yul\":7013:7016   */\n      dup6\n        /* \"#utility.yul\":7006:7010   */\n      0x20\n        /* \"#utility.yul\":6999:7004   */\n      dup7\n        /* \"#utility.yul\":6995:7011   */\n      add\n        /* \"#utility.yul\":6960:7025   */\n      tag_368\n      jump\t// in\n    tag_495:\n        /* \"#utility.yul\":7050:7079   */\n      tag_496\n        /* \"#utility.yul\":7072:7078   */\n      dup2\n        /* \"#utility.yul\":7050:7079   */\n      tag_359\n      jump\t// in\n    tag_496:\n        /* \"#utility.yul\":7045:7048   */\n      dup5\n        /* \"#utility.yul\":7041:7080   */\n      add\n        /* \"#utility.yul\":7034:7080   */\n      swap2\n      pop\n        /* \"#utility.yul\":6801:7086   */\n      pop\n        /* \"#utility.yul\":6709:7086   */\n      swap3\n      swap2\n      pop\n      pop\n      jump\t// out\n        /* \"#utility.yul\":7092:7405   */\n    tag_45:\n        /* \"#utility.yul\":7205:7209   */\n      0x00\n        /* \"#utility.yul\":7243:7245   */\n      0x20\n        /* \"#utility.yul\":7232:7241   */\n      dup3\n        /* \"#utility.yul\":7228:7246   */\n      add\n        /* \"#utility.yul\":7220:7246   */\n      swap1\n      pop\n        /* \"#utility.yul\":7292:7301   */\n      dup2\n        /* \"#utility.yul\":7286:7290   */\n      dup2\n        /* \"#utility.yul\":7282:7302   */\n      sub\n        /* \"#utility.yul\":7278:7279   */\n      0x00\n        /* \"#utility.yul\":7267:7276   */\n      dup4\n        /* \"#utility.yul\":7263:7280   */\n      add\n        /* \"#utility.yul\":7256:7303   */\n      mstore\n        /* \"#utility.yul\":7320:7398   */\n      tag_498\n        /* \"#utility.yul\":7393:7397   */\n      dup2\n        /* \"#utility.yul\":7384:7390   */\n      dup5\n        /* \"#utility.yul\":7320:7398   */\n      tag_369\n      jump\t// in\n    tag_498:\n        /* \"#utility.yul\":7312:7398   */\n      swap1\n      pop\n        /* \"#utility.yul\":7092:7405   */\n      swap3\n      swap2\n      pop\n      pop\n      jump\t// out\n        /* \"#utility.yul\":7411:7718   */\n    tag_370:\n        /* \"#utility.yul\":7472:7476   */\n      0x00\n        /* \"#utility.yul\":7562:7580   */\n      0xffffffffffffffff\n        /* \"#utility.yul\":7554:7560   */\n      dup3\n        /* \"#utility.yul\":7551:7581   */\n      gt\n        /* \"#utility.yul\":7548:7604   */\n      iszero\n      tag_500\n      jumpi\n        /* \"#utility.yul\":7584:7602   */\n      tag_501\n      tag_147\n      jump\t// in\n    tag_501:\n        /* \"#utility.yul\":7548:7604   */\n    tag_500:\n        /* \"#utility.yul\":7622:7651   */\n      tag_502\n        /* \"#utility.yul\":7644:7650   */\n      dup3\n        /* \"#utility.yul\":7622:7651   */\n      tag_359\n      jump\t// in\n    tag_502:\n        /* \"#utility.yul\":7614:7651   */\n      swap1\n      pop\n        /* \"#utility.yul\":7706:7710   */\n      0x20\n        /* \"#utility.yul\":7700:7704   */\n      dup2\n        /* \"#utility.yul\":7696:7711   */\n      add\n        /* \"#utility.yul\":7688:7711   */\n      swap1\n      pop\n        /* \"#utility.yul\":7411:7718   */\n      swap2\n      swap1\n      pop\n      jump\t// out\n        /* \"#utility.yul\":7724:8147   */\n    tag_371:\n        /* \"#utility.yul\":7801:7806   */\n      0x00\n        /* \"#utility.yul\":7826:7891   */\n      tag_504\n        /* \"#utility.yul\":7842:7890   */\n      tag_505\n        /* \"#utility.yul\":7883:7889   */\n      dup5\n        /* \"#utility.yul\":7842:7890   */\n      tag_370\n      jump\t// in\n    tag_505:\n        /* \"#utility.yul\":7826:7891   */\n      tag_361\n      jump\t// in\n    tag_504:\n        /* \"#utility.yul\":7817:7891   */\n      swap1\n      pop\n        /* \"#utility.yul\":7914:7920   */\n      dup3\n        /* \"#utility.yul\":7907:7912   */\n      dup2\n        /* \"#utility.yul\":7900:7921   */\n      mstore\n        /* \"#utility.yul\":7952:7956   */\n      0x20\n        /* \"#utility.yul\":7945:7950   */\n      dup2\n        /* \"#utility.yul\":7941:7957   */\n      add\n        /* \"#utility.yul\":7990:7993   */\n      dup5\n        /* \"#utility.yul\":7981:7987   */\n      dup5\n        /* \"#utility.yul\":7976:7979   */\n      dup5\n        /* \"#utility.yul\":7972:7988   */\n      add\n        /* \"#utility.yul\":7969:7994   */\n      gt\n        /* \"#utility.yul\":7966:8078   */\n      iszero\n      tag_506\n      jumpi\n        /* \"#utility.yul\":7997:8076   */\n      tag_507\n      tag_358\n      jump\t// in\n    tag_507:\n        /* \"#utility.yul\":7966:8078   */\n    tag_506:\n        /* \"#utility.yul\":8087:8141   */\n      tag_508\n        /* \"#utility.yul\":8134:8140   */\n      dup5\n        /* \"#utility.yul\":8129:8132   */\n      dup3\n        /* \"#utility.yul\":8124:8127   */\n      dup6\n        /* \"#utility.yul\":8087:8141   */\n      tag_363\n      jump\t// in\n    tag_508:\n        /* \"#utility.yul\":7807:8147   */\n      pop\n        /* \"#utility.yul\":7724:8147   */\n      swap4\n      swap3\n      pop\n      pop\n      pop\n      jump\t// out\n        /* \"#utility.yul\":8166:8504   */\n    tag_372:\n        /* \"#utility.yul\":8221:8226   */\n      0x00\n        /* \"#utility.yul\":8270:8273   */\n      dup3\n        /* \"#utility.yul\":8263:8267   */\n      0x1f\n        /* \"#utility.yul\":8255:8261   */\n      dup4\n        /* \"#utility.yul\":8251:8268   */\n      add\n        /* \"#utility.yul\":8247:8274   */\n      slt\n        /* \"#utility.yul\":8237:8359   */\n      tag_510\n      jumpi\n        /* \"#utility.yul\":8278:8357   */\n      tag_511\n      tag_357\n      jump\t// in\n    tag_511:\n        /* \"#utility.yul\":8237:8359   */\n    tag_510:\n        /* \"#utility.yul\":8395:8401   */\n      dup2\n        /* \"#utility.yul\":8382:8402   */\n      calldataload\n        /* \"#utility.yul\":8420:8498   */\n      tag_512\n        /* \"#utility.yul\":8494:8497   */\n      dup5\n        /* \"#utility.yul\":8486:8492   */\n      dup3\n        /* \"#utility.yul\":8479:8483   */\n      0x20\n        /* \"#utility.yul\":8471:8477   */\n      dup7\n        /* \"#utility.yul\":8467:8484   */\n      add\n        /* \"#utility.yul\":8420:8498   */\n      tag_371\n      jump\t// in\n    tag_512:\n        /* \"#utility.yul\":8411:8498   */\n      swap2\n      pop\n        /* \"#utility.yul\":8227:8504   */\n      pop\n        /* \"#utility.yul\":8166:8504   */\n      swap3\n      swap2\n      pop\n      pop\n      jump\t// out\n        /* \"#utility.yul\":8510:9599   */\n    tag_48:\n        /* \"#utility.yul\":8614:8620   */\n      0x00\n        /* \"#utility.yul\":8622:8628   */\n      dup1\n        /* \"#utility.yul\":8630:8636   */\n      0x00\n        /* \"#utility.yul\":8638:8644   */\n      dup1\n        /* \"#utility.yul\":8646:8652   */\n      0x00\n        /* \"#utility.yul\":8695:8698   */\n      0xa0\n        /* \"#utility.yul\":8683:8692   */\n      dup7\n        /* \"#utility.yul\":8674:8681   */\n      dup9\n        /* \"#utility.yul\":8670:8693   */\n      sub\n        /* \"#utility.yul\":8666:8699   */\n      slt\n        /* \"#utility.yul\":8663:8783   */\n      iszero\n      tag_514\n      jumpi\n        /* \"#utility.yul\":8702:8781   */\n      tag_515\n      tag_342\n      jump\t// in\n    tag_515:\n        /* \"#utility.yul\":8663:8783   */\n    tag_514:\n        /* \"#utility.yul\":8822:8823   */\n      0x00\n        /* \"#utility.yul\":8847:8900   */\n      tag_516\n        /* \"#utility.yul\":8892:8899   */\n      dup9\n        /* \"#utility.yul\":8883:8889   */\n      dup3\n        /* \"#utility.yul\":8872:8881   */\n      dup10\n        /* \"#utility.yul\":8868:8890   */\n      add\n        /* \"#utility.yul\":8847:8900   */\n      tag_347\n      jump\t// in\n    tag_516:\n        /* \"#utility.yul\":8837:8900   */\n      swap6\n      pop\n        /* \"#utility.yul\":8793:8910   */\n      pop\n        /* \"#utility.yul\":8949:8951   */\n      0x20\n        /* \"#utility.yul\":8975:9028   */\n      tag_517\n        /* \"#utility.yul\":9020:9027   */\n      dup9\n        /* \"#utility.yul\":9011:9017   */\n      dup3\n        /* \"#utility.yul\":9000:9009   */\n      dup10\n        /* \"#utility.yul\":8996:9018   */\n      add\n        /* \"#utility.yul\":8975:9028   */\n      tag_347\n      jump\t// in\n    tag_517:\n        /* \"#utility.yul\":8965:9028   */\n      swap5\n      pop\n        /* \"#utility.yul\":8920:9038   */\n      pop\n        /* \"#utility.yul\":9077:9079   */\n      0x40\n        /* \"#utility.yul\":9103:9156   */\n      tag_518\n        /* \"#utility.yul\":9148:9155   */\n      dup9\n        /* \"#utility.yul\":9139:9145   */\n      dup3\n        /* \"#utility.yul\":9128:9137   */\n      dup10\n        /* \"#utility.yul\":9124:9146   */\n      add\n        /* \"#utility.yul\":9103:9156   */\n      tag_350\n      jump\t// in\n    tag_518:\n        /* \"#utility.yul\":9093:9156   */\n      swap4\n      pop\n        /* \"#utility.yul\":9048:9166   */\n      pop\n        /* \"#utility.yul\":9205:9207   */\n      0x60\n        /* \"#utility.yul\":9231:9284   */\n      tag_519\n        /* \"#utility.yul\":9276:9283   */\n      dup9\n        /* \"#utility.yul\":9267:9273   */\n      dup3\n        /* \"#utility.yul\":9256:9265   */\n      dup10\n        /* \"#utility.yul\":9252:9274   */\n      add\n        /* \"#utility.yul\":9231:9284   */\n      tag_350\n      jump\t// in\n    tag_519:\n        /* \"#utility.yul\":9221:9284   */\n      swap3\n      pop\n        /* \"#utility.yul\":9176:9294   */\n      pop\n        /* \"#utility.yul\":9361:9364   */\n      0x80\n        /* \"#utility.yul\":9350:9359   */\n      dup7\n        /* \"#utility.yul\":9346:9365   */\n      add\n        /* \"#utility.yul\":9333:9366   */\n      calldataload\n        /* \"#utility.yul\":9393:9411   */\n      0xffffffffffffffff\n        /* \"#utility.yul\":9385:9391   */\n      dup2\n        /* \"#utility.yul\":9382:9412   */\n      gt\n        /* \"#utility.yul\":9379:9496   */\n      iszero\n      tag_520\n      jumpi\n        /* \"#utility.yul\":9415:9494   */\n      tag_521\n      tag_343\n      jump\t// in\n    tag_521:\n        /* \"#utility.yul\":9379:9496   */\n    tag_520:\n        /* \"#utility.yul\":9520:9582   */\n      tag_522\n        /* \"#utility.yul\":9574:9581   */\n      dup9\n        /* \"#utility.yul\":9565:9571   */\n      dup3\n        /* \"#utility.yul\":9554:9563   */\n      dup10\n        /* \"#utility.yul\":9550:9572   */\n      add\n        /* \"#utility.yul\":9520:9582   */\n      tag_372\n      jump\t// in\n    tag_522:\n        /* \"#utility.yul\":9510:9582   */\n      swap2\n      pop\n        /* \"#utility.yul\":9304:9592   */\n      pop\n        /* \"#utility.yul\":8510:9599   */\n      swap3\n      swap6\n      pop\n      swap3\n      swap6\n      swap1\n      swap4\n      pop\n      jump\t// out\n        /* \"#utility.yul\":9605:9916   */\n    tag_373:\n        /* \"#utility.yul\":9682:9686   */\n      0x00\n        /* \"#utility.yul\":9772:9790   */\n      0xffffffffffffffff\n        /* \"#utility.yul\":9764:9770   */\n      dup3\n        /* \"#utility.yul\":9761:9791   */\n      gt\n        /* \"#utility.yul\":9758:9814   */\n      iszero\n      tag_524\n      jumpi\n        /* \"#utility.yul\":9794:9812   */\n      tag_525\n      tag_147\n      jump\t// in\n    tag_525:\n        /* \"#utility.yul\":9758:9814   */\n    tag_524:\n        /* \"#utility.yul\":9844:9848   */\n      0x20\n        /* \"#utility.yul\":9836:9842   */\n      dup3\n        /* \"#utility.yul\":9832:9849   */\n      mul\n        /* \"#utility.yul\":9824:9849   */\n      swap1\n      pop\n        /* \"#utility.yul\":9904:9908   */\n      0x20\n        /* \"#utility.yul\":9898:9902   */\n      dup2\n        /* \"#utility.yul\":9894:9909   */\n      add\n        /* \"#utility.yul\":9886:9909   */\n      swap1\n      pop\n        /* \"#utility.yul\":9605:9916   */\n      swap2\n      swap1\n      pop\n      jump\t// out\n        /* \"#utility.yul\":9922:10039   */\n    tag_374:\n        /* \"#utility.yul\":10031:10032   */\n      0x00\n        /* \"#utility.yul\":10028:10029   */\n      dup1\n        /* \"#utility.yul\":10021:10033   */\n      revert\n        /* \"#utility.yul\":10062:10772   */\n    tag_375:\n        /* \"#utility.yul\":10158:10163   */\n      0x00\n        /* \"#utility.yul\":10183:10264   */\n      tag_528\n        /* \"#utility.yul\":10199:10263   */\n      tag_529\n        /* \"#utility.yul\":10256:10262   */\n      dup5\n        /* \"#utility.yul\":10199:10263   */\n      tag_373\n      jump\t// in\n    tag_529:\n        /* \"#utility.yul\":10183:10264   */\n      tag_361\n      jump\t// in\n    tag_528:\n        /* \"#utility.yul\":10174:10264   */\n      swap1\n      pop\n        /* \"#utility.yul\":10284:10289   */\n      dup1\n        /* \"#utility.yul\":10313:10319   */\n      dup4\n        /* \"#utility.yul\":10306:10311   */\n      dup3\n        /* \"#utility.yul\":10299:10320   */\n      mstore\n        /* \"#utility.yul\":10347:10351   */\n      0x20\n        /* \"#utility.yul\":10340:10345   */\n      dup3\n        /* \"#utility.yul\":10336:10352   */\n      add\n        /* \"#utility.yul\":10329:10352   */\n      swap1\n      pop\n        /* \"#utility.yul\":10400:10404   */\n      0x20\n        /* \"#utility.yul\":10392:10398   */\n      dup5\n        /* \"#utility.yul\":10388:10405   */\n      mul\n        /* \"#utility.yul\":10380:10386   */\n      dup4\n        /* \"#utility.yul\":10376:10406   */\n      add\n        /* \"#utility.yul\":10429:10432   */\n      dup6\n        /* \"#utility.yul\":10421:10427   */\n      dup2\n        /* \"#utility.yul\":10418:10433   */\n      gt\n        /* \"#utility.yul\":10415:10537   */\n      iszero\n      tag_530\n      jumpi\n        /* \"#utility.yul\":10448:10527   */\n      tag_531\n      tag_374\n      jump\t// in\n    tag_531:\n        /* \"#utility.yul\":10415:10537   */\n    tag_530:\n        /* \"#utility.yul\":10563:10569   */\n      dup4\n        /* \"#utility.yul\":10546:10766   */\n    tag_532:\n        /* \"#utility.yul\":10580:10586   */\n      dup2\n        /* \"#utility.yul\":10575:10578   */\n      dup2\n        /* \"#utility.yul\":10572:10587   */\n      lt\n        /* \"#utility.yul\":10546:10766   */\n      iszero\n      tag_534\n      jumpi\n        /* \"#utility.yul\":10655:10658   */\n      dup1\n        /* \"#utility.yul\":10684:10721   */\n      tag_535\n        /* \"#utility.yul\":10717:10720   */\n      dup9\n        /* \"#utility.yul\":10705:10715   */\n      dup3\n        /* \"#utility.yul\":10684:10721   */\n      tag_350\n      jump\t// in\n    tag_535:\n        /* \"#utility.yul\":10679:10682   */\n      dup5\n        /* \"#utility.yul\":10672:10722   */\n      mstore\n        /* \"#utility.yul\":10751:10755   */\n      0x20\n        /* \"#utility.yul\":10746:10749   */\n      dup5\n        /* \"#utility.yul\":10742:10756   */\n      add\n        /* \"#utility.yul\":10735:10756   */\n      swap4\n      pop\n        /* \"#utility.yul\":10622:10766   */\n      pop\n        /* \"#utility.yul\":10606:10610   */\n      0x20\n        /* \"#utility.yul\":10601:10604   */\n      dup2\n        /* \"#utility.yul\":10597:10611   */\n      add\n        /* \"#utility.yul\":10590:10611   */\n      swap1\n      pop\n        /* \"#utility.yul\":10546:10766   */\n      jump(tag_532)\n    tag_534:\n        /* \"#utility.yul\":10550:10571   */\n      pop\n        /* \"#utility.yul\":10164:10772   */\n      pop\n      pop\n        /* \"#utility.yul\":10062:10772   */\n      swap4\n      swap3\n      pop\n      pop\n      pop\n      jump\t// out\n        /* \"#utility.yul\":10795:11165   */\n    tag_376:\n        /* \"#utility.yul\":10866:10871   */\n      0x00\n        /* \"#utility.yul\":10915:10918   */\n      dup3\n        /* \"#utility.yul\":10908:10912   */\n      0x1f\n        /* \"#utility.yul\":10900:10906   */\n      dup4\n        /* \"#utility.yul\":10896:10913   */\n      add\n        /* \"#utility.yul\":10892:10919   */\n      slt\n        /* \"#utility.yul\":10882:11004   */\n      tag_537\n      jumpi\n        /* \"#utility.yul\":10923:11002   */\n      tag_538\n      tag_357\n      jump\t// in\n    tag_538:\n        /* \"#utility.yul\":10882:11004   */\n    tag_537:\n        /* \"#utility.yul\":11040:11046   */\n      dup2\n        /* \"#utility.yul\":11027:11047   */\n      calldataload\n        /* \"#utility.yul\":11065:11159   */\n      tag_539\n        /* \"#utility.yul\":11155:11158   */\n      dup5\n        /* \"#utility.yul\":11147:11153   */\n      dup3\n        /* \"#utility.yul\":11140:11144   */\n      0x20\n        /* \"#utility.yul\":11132:11138   */\n      dup7\n        /* \"#utility.yul\":11128:11145   */\n      add\n        /* \"#utility.yul\":11065:11159   */\n      tag_375\n      jump\t// in\n    tag_539:\n        /* \"#utility.yul\":11056:11159   */\n      swap2\n      pop\n        /* \"#utility.yul\":10872:11165   */\n      pop\n        /* \"#utility.yul\":10795:11165   */\n      swap3\n      swap2\n      pop\n      pop\n      jump\t// out\n        /* \"#utility.yul\":11171:12534   */\n    tag_55:\n        /* \"#utility.yul\":11316:11322   */\n      0x00\n        /* \"#utility.yul\":11324:11330   */\n      dup1\n        /* \"#utility.yul\":11332:11338   */\n      0x00\n        /* \"#utility.yul\":11340:11346   */\n      dup1\n        /* \"#utility.yul\":11389:11392   */\n      0x80\n        /* \"#utility.yul\":11377:11386   */\n      dup6\n        /* \"#utility.yul\":11368:11375   */\n      dup8\n        /* \"#utility.yul\":11364:11387   */\n      sub\n        /* \"#utility.yul\":11360:11393   */\n      slt\n        /* \"#utility.yul\":11357:11477   */\n      iszero\n      tag_541\n      jumpi\n        /* \"#utility.yul\":11396:11475   */\n      tag_542\n      tag_342\n      jump\t// in\n    tag_542:\n        /* \"#utility.yul\":11357:11477   */\n    tag_541:\n        /* \"#utility.yul\":11516:11517   */\n      0x00\n        /* \"#utility.yul\":11541:11594   */\n      tag_543\n        /* \"#utility.yul\":11586:11593   */\n      dup8\n        /* \"#utility.yul\":11577:11583   */\n      dup3\n        /* \"#utility.yul\":11566:11575   */\n      dup9\n        /* \"#utility.yul\":11562:11584   */\n      add\n        /* \"#utility.yul\":11541:11594   */\n      tag_347\n      jump\t// in\n    tag_543:\n        /* \"#utility.yul\":11531:11594   */\n      swap5\n      pop\n        /* \"#utility.yul\":11487:11604   */\n      pop\n        /* \"#utility.yul\":11671:11673   */\n      0x20\n        /* \"#utility.yul\":11660:11669   */\n      dup6\n        /* \"#utility.yul\":11656:11674   */\n      add\n        /* \"#utility.yul\":11643:11675   */\n      calldataload\n        /* \"#utility.yul\":11702:11720   */\n      0xffffffffffffffff\n        /* \"#utility.yul\":11694:11700   */\n      dup2\n        /* \"#utility.yul\":11691:11721   */\n      gt\n        /* \"#utility.yul\":11688:11805   */\n      iszero\n      tag_544\n      jumpi\n        /* \"#utility.yul\":11724:11803   */\n      tag_545\n      tag_343\n      jump\t// in\n    tag_545:\n        /* \"#utility.yul\":11688:11805   */\n    tag_544:\n        /* \"#utility.yul\":11829:11907   */\n      tag_546\n        /* \"#utility.yul\":11899:11906   */\n      dup8\n        /* \"#utility.yul\":11890:11896   */\n      dup3\n        /* \"#utility.yul\":11879:11888   */\n      dup9\n        /* \"#utility.yul\":11875:11897   */\n      add\n        /* \"#utility.yul\":11829:11907   */\n      tag_376\n      jump\t// in\n    tag_546:\n        /* \"#utility.yul\":11819:11907   */\n      swap4\n      pop\n        /* \"#utility.yul\":11614:11917   */\n      pop\n        /* \"#utility.yul\":11984:11986   */\n      0x40\n        /* \"#utility.yul\":11973:11982   */\n      dup6\n        /* \"#utility.yul\":11969:11987   */\n      add\n        /* \"#utility.yul\":11956:11988   */\n      calldataload\n        /* \"#utility.yul\":12015:12033   */\n      0xffffffffffffffff\n        /* \"#utility.yul\":12007:12013   */\n      dup2\n        /* \"#utility.yul\":12004:12034   */\n      gt\n        /* \"#utility.yul\":12001:12118   */\n      iszero\n      tag_547\n      jumpi\n        /* \"#utility.yul\":12037:12116   */\n      tag_548\n      tag_343\n      jump\t// in\n    tag_548:\n        /* \"#utility.yul\":12001:12118   */\n    tag_547:\n        /* \"#utility.yul\":12142:12220   */\n      tag_549\n        /* \"#utility.yul\":12212:12219   */\n      dup8\n        /* \"#utility.yul\":12203:12209   */\n      dup3\n        /* \"#utility.yul\":12192:12201   */\n      dup9\n        /* \"#utility.yul\":12188:12210   */\n      add\n        /* \"#utility.yul\":12142:12220   */\n      tag_376\n      jump\t// in\n    tag_549:\n        /* \"#utility.yul\":12132:12220   */\n      swap3\n      pop\n        /* \"#utility.yul\":11927:12230   */\n      pop\n        /* \"#utility.yul\":12297:12299   */\n      0x60\n        /* \"#utility.yul\":12286:12295   */\n      dup6\n        /* \"#utility.yul\":12282:12300   */\n      add\n        /* \"#utility.yul\":12269:12301   */\n      calldataload\n        /* \"#utility.yul\":12328:12346   */\n      0xffffffffffffffff\n        /* \"#utility.yul\":12320:12326   */\n      dup2\n        /* \"#utility.yul\":12317:12347   */\n      gt\n        /* \"#utility.yul\":12314:12431   */\n      iszero\n      tag_550\n      jumpi\n        /* \"#utility.yul\":12350:12429   */\n      tag_551\n      tag_343\n      jump\t// in\n    tag_551:\n        /* \"#utility.yul\":12314:12431   */\n    tag_550:\n        /* \"#utility.yul\":12455:12517   */\n      tag_552\n        /* \"#utility.yul\":12509:12516   */\n      dup8\n        /* \"#utility.yul\":12500:12506   */\n      dup3\n        /* \"#utility.yul\":12489:12498   */\n      dup9\n        /* \"#utility.yul\":12485:12507   */\n      add\n        /* \"#utility.yul\":12455:12517   */\n      tag_372\n      jump\t// in\n    tag_552:\n        /* \"#utility.yul\":12445:12517   */\n      swap2\n      pop\n        /* \"#utility.yul\":12240:12527   */\n      pop\n        /* \"#utility.yul\":11171:12534   */\n      swap3\n      swap6\n      swap2\n      swap5\n      pop\n      swap3\n      pop\n      jump\t// out\n        /* \"#utility.yul\":12540:14049   */\n    tag_59:\n        /* \"#utility.yul\":12694:12700   */\n      0x00\n        /* \"#utility.yul\":12702:12708   */\n      dup1\n        /* \"#utility.yul\":12710:12716   */\n      0x00\n        /* \"#utility.yul\":12718:12724   */\n      dup1\n        /* \"#utility.yul\":12726:12732   */\n      0x00\n        /* \"#utility.yul\":12775:12778   */\n      0xa0\n        /* \"#utility.yul\":12763:12772   */\n      dup7\n        /* \"#utility.yul\":12754:12761   */\n      dup9\n        /* \"#utility.yul\":12750:12773   */\n      sub\n        /* \"#utility.yul\":12746:12779   */\n      slt\n        /* \"#utility.yul\":12743:12863   */\n      iszero\n      tag_554\n      jumpi\n        /* \"#utility.yul\":12782:12861   */\n      tag_555\n      tag_342\n      jump\t// in\n    tag_555:\n        /* \"#utility.yul\":12743:12863   */\n    tag_554:\n        /* \"#utility.yul\":12902:12903   */\n      0x00\n        /* \"#utility.yul\":12927:12980   */\n      tag_556\n        /* \"#utility.yul\":12972:12979   */\n      dup9\n        /* \"#utility.yul\":12963:12969   */\n      dup3\n        /* \"#utility.yul\":12952:12961   */\n      dup10\n        /* \"#utility.yul\":12948:12970   */\n      add\n        /* \"#utility.yul\":12927:12980   */\n      tag_347\n      jump\t// in\n    tag_556:\n        /* \"#utility.yul\":12917:12980   */\n      swap6\n      pop\n        /* \"#utility.yul\":12873:12990   */\n      pop\n        /* \"#utility.yul\":13029:13031   */\n      0x20\n        /* \"#utility.yul\":13055:13108   */\n      tag_557\n        /* \"#utility.yul\":13100:13107   */\n      dup9\n        /* \"#utility.yul\":13091:13097   */\n      dup3\n        /* \"#utility.yul\":13080:13089   */\n      dup10\n        /* \"#utility.yul\":13076:13098   */\n      add\n        /* \"#utility.yul\":13055:13108   */\n      tag_347\n      jump\t// in\n    tag_557:\n        /* \"#utility.yul\":13045:13108   */\n      swap5\n      pop\n        /* \"#utility.yul\":13000:13118   */\n      pop\n        /* \"#utility.yul\":13185:13187   */\n      0x40\n        /* \"#utility.yul\":13174:13183   */\n      dup7\n        /* \"#utility.yul\":13170:13188   */\n      add\n        /* \"#utility.yul\":13157:13189   */\n      calldataload\n        /* \"#utility.yul\":13216:13234   */\n      0xffffffffffffffff\n        /* \"#utility.yul\":13208:13214   */\n      dup2\n        /* \"#utility.yul\":13205:13235   */\n      gt\n        /* \"#utility.yul\":13202:13319   */\n      iszero\n      tag_558\n      jumpi\n        /* \"#utility.yul\":13238:13317   */\n      tag_559\n      tag_343\n      jump\t// in\n    tag_559:\n        /* \"#utility.yul\":13202:13319   */\n    tag_558:\n        /* \"#utility.yul\":13343:13421   */\n      tag_560\n        /* \"#utility.yul\":13413:13420   */\n      dup9\n        /* \"#utility.yul\":13404:13410   */\n      dup3\n        /* \"#utility.yul\":13393:13402   */\n      dup10\n        /* \"#utility.yul\":13389:13411   */\n      add\n        /* \"#utility.yul\":13343:13421   */\n      tag_376\n      jump\t// in\n    tag_560:\n        /* \"#utility.yul\":13333:13421   */\n      swap4\n      pop\n        /* \"#utility.yul\":13128:13431   */\n      pop\n        /* \"#utility.yul\":13498:13500   */\n      0x60\n        /* \"#utility.yul\":13487:13496   */\n      dup7\n        /* \"#utility.yul\":13483:13501   */\n      add\n        /* \"#utility.yul\":13470:13502   */\n      calldataload\n        /* \"#utility.yul\":13529:13547   */\n      0xffffffffffffffff\n        /* \"#utility.yul\":13521:13527   */\n      dup2\n        /* \"#utility.yul\":13518:13548   */\n      gt\n        /* \"#utility.yul\":13515:13632   */\n      iszero\n      tag_561\n      jumpi\n        /* \"#utility.yul\":13551:13630   */\n      tag_562\n      tag_343\n      jump\t// in\n    tag_562:\n        /* \"#utility.yul\":13515:13632   */\n    tag_561:\n        /* \"#utility.yul\":13656:13734   */\n      tag_563\n        /* \"#utility.yul\":13726:13733   */\n      dup9\n        /* \"#utility.yul\":13717:13723   */\n      dup3\n        /* \"#utility.yul\":13706:13715   */\n      dup10\n        /* \"#utility.yul\":13702:13724   */\n      add\n        /* \"#utility.yul\":13656:13734   */\n      tag_376\n      jump\t// in\n    tag_563:\n        /* \"#utility.yul\":13646:13734   */\n      swap3\n      pop\n        /* \"#utility.yul\":13441:13744   */\n      pop\n        /* \"#utility.yul\":13811:13814   */\n      0x80\n        /* \"#utility.yul\":13800:13809   */\n      dup7\n        /* \"#utility.yul\":13796:13815   */\n      add\n        /* \"#utility.yul\":13783:13816   */\n      calldataload\n        /* \"#utility.yul\":13843:13861   */\n      0xffffffffffffffff\n        /* \"#utility.yul\":13835:13841   */\n      dup2\n        /* \"#utility.yul\":13832:13862   */\n      gt\n        /* \"#utility.yul\":13829:13946   */\n      iszero\n      tag_564\n      jumpi\n        /* \"#utility.yul\":13865:13944   */\n      tag_565\n      tag_343\n      jump\t// in\n    tag_565:\n        /* \"#utility.yul\":13829:13946   */\n    tag_564:\n        /* \"#utility.yul\":13970:14032   */\n      tag_566\n        /* \"#utility.yul\":14024:14031   */\n      dup9\n        /* \"#utility.yul\":14015:14021   */\n      dup3\n        /* \"#utility.yul\":14004:14013   */\n      dup10\n        /* \"#utility.yul\":14000:14022   */\n      add\n        /* \"#utility.yul\":13970:14032   */\n      tag_372\n      jump\t// in\n    tag_566:\n        /* \"#utility.yul\":13960:14032   */\n      swap2\n      pop\n        /* \"#utility.yul\":13754:14042   */\n      pop\n        /* \"#utility.yul\":12540:14049   */\n      swap3\n      swap6\n      pop\n      swap3\n      swap6\n      swap1\n      swap4\n      pop\n      jump\t// out\n        /* \"#utility.yul\":14055:14366   */\n    tag_377:\n        /* \"#utility.yul\":14132:14136   */\n      0x00\n        /* \"#utility.yul\":14222:14240   */\n      0xffffffffffffffff\n        /* \"#utility.yul\":14214:14220   */\n      dup3\n        /* \"#utility.yul\":14211:14241   */\n      gt\n        /* \"#utility.yul\":14208:14264   */\n      iszero\n      tag_568\n      jumpi\n        /* \"#utility.yul\":14244:14262   */\n      tag_569\n      tag_147\n      jump\t// in\n    tag_569:\n        /* \"#utility.yul\":14208:14264   */\n    tag_568:\n        /* \"#utility.yul\":14294:14298   */\n      0x20\n        /* \"#utility.yul\":14286:14292   */\n      dup3\n        /* \"#utility.yul\":14282:14299   */\n      mul\n        /* \"#utility.yul\":14274:14299   */\n      swap1\n      pop\n        /* \"#utility.yul\":14354:14358   */\n      0x20\n        /* \"#utility.yul\":14348:14352   */\n      dup2\n        /* \"#utility.yul\":14344:14359   */\n      add\n        /* \"#utility.yul\":14336:14359   */\n      swap1\n      pop\n        /* \"#utility.yul\":14055:14366   */\n      swap2\n      swap1\n      pop\n      jump\t// out\n        /* \"#utility.yul\":14389:15099   */\n    tag_378:\n        /* \"#utility.yul\":14485:14490   */\n      0x00\n        /* \"#utility.yul\":14510:14591   */\n      tag_571\n        /* \"#utility.yul\":14526:14590   */\n      tag_572\n        /* \"#utility.yul\":14583:14589   */\n      dup5\n        /* \"#utility.yul\":14526:14590   */\n      tag_377\n      jump\t// in\n    tag_572:\n        /* \"#utility.yul\":14510:14591   */\n      tag_361\n      jump\t// in\n    tag_571:\n        /* \"#utility.yul\":14501:14591   */\n      swap1\n      pop\n        /* \"#utility.yul\":14611:14616   */\n      dup1\n        /* \"#utility.yul\":14640:14646   */\n      dup4\n        /* \"#utility.yul\":14633:14638   */\n      dup3\n        /* \"#utility.yul\":14626:14647   */\n      mstore\n        /* \"#utility.yul\":14674:14678   */\n      0x20\n        /* \"#utility.yul\":14667:14672   */\n      dup3\n        /* \"#utility.yul\":14663:14679   */\n      add\n        /* \"#utility.yul\":14656:14679   */\n      swap1\n      pop\n        /* \"#utility.yul\":14727:14731   */\n      0x20\n        /* \"#utility.yul\":14719:14725   */\n      dup5\n        /* \"#utility.yul\":14715:14732   */\n      mul\n        /* \"#utility.yul\":14707:14713   */\n      dup4\n        /* \"#utility.yul\":14703:14733   */\n      add\n        /* \"#utility.yul\":14756:14759   */\n      dup6\n        /* \"#utility.yul\":14748:14754   */\n      dup2\n        /* \"#utility.yul\":14745:14760   */\n      gt\n        /* \"#utility.yul\":14742:14864   */\n      iszero\n      tag_573\n      jumpi\n        /* \"#utility.yul\":14775:14854   */\n      tag_574\n      tag_374\n      jump\t// in\n    tag_574:\n        /* \"#utility.yul\":14742:14864   */\n    tag_573:\n        /* \"#utility.yul\":14890:14896   */\n      dup4\n        /* \"#utility.yul\":14873:15093   */\n    tag_575:\n        /* \"#utility.yul\":14907:14913   */\n      dup2\n        /* \"#utility.yul\":14902:14905   */\n      dup2\n        /* \"#utility.yul\":14899:14914   */\n      lt\n        /* \"#utility.yul\":14873:15093   */\n      iszero\n      tag_577\n      jumpi\n        /* \"#utility.yul\":14982:14985   */\n      dup1\n        /* \"#utility.yul\":15011:15048   */\n      tag_578\n        /* \"#utility.yul\":15044:15047   */\n      dup9\n        /* \"#utility.yul\":15032:15042   */\n      dup3\n        /* \"#utility.yul\":15011:15048   */\n      tag_347\n      jump\t// in\n    tag_578:\n        /* \"#utility.yul\":15006:15009   */\n      dup5\n        /* \"#utility.yul\":14999:15049   */\n      mstore\n        /* \"#utility.yul\":15078:15082   */\n      0x20\n        /* \"#utility.yul\":15073:15076   */\n      dup5\n        /* \"#utility.yul\":15069:15083   */\n      add\n        /* \"#utility.yul\":15062:15083   */\n      swap4\n      pop\n        /* \"#utility.yul\":14949:15093   */\n      pop\n        /* \"#utility.yul\":14933:14937   */\n      0x20\n        /* \"#utility.yul\":14928:14931   */\n      dup2\n        /* \"#utility.yul\":14924:14938   */\n      add\n        /* \"#utility.yul\":14917:14938   */\n      swap1\n      pop\n        /* \"#utility.yul\":14873:15093   */\n      jump(tag_575)\n    tag_577:\n        /* \"#utility.yul\":14877:14898   */\n      pop\n        /* \"#utility.yul\":14491:15099   */\n      pop\n      pop\n        /* \"#utility.yul\":14389:15099   */\n      swap4\n      swap3\n      pop\n      pop\n      pop\n      jump\t// out\n        /* \"#utility.yul\":15122:15492   */\n    tag_379:\n        /* \"#utility.yul\":15193:15198   */\n      0x00\n        /* \"#utility.yul\":15242:15245   */\n      dup3\n        /* \"#utility.yul\":15235:15239   */\n      0x1f\n        /* \"#utility.yul\":15227:15233   */\n      dup4\n        /* \"#utility.yul\":15223:15240   */\n      add\n        /* \"#utility.yul\":15219:15246   */\n      slt\n        /* \"#utility.yul\":15209:15331   */\n      tag_580\n      jumpi\n        /* \"#utility.yul\":15250:15329   */\n      tag_581\n      tag_357\n      jump\t// in\n    tag_581:\n        /* \"#utility.yul\":15209:15331   */\n    tag_580:\n        /* \"#utility.yul\":15367:15373   */\n      dup2\n        /* \"#utility.yul\":15354:15374   */\n      calldataload\n        /* \"#utility.yul\":15392:15486   */\n      tag_582\n        /* \"#utility.yul\":15482:15485   */\n      dup5\n        /* \"#utility.yul\":15474:15480   */\n      dup3\n        /* \"#utility.yul\":15467:15471   */\n      0x20\n        /* \"#utility.yul\":15459:15465   */\n      dup7\n        /* \"#utility.yul\":15455:15472   */\n      add\n        /* \"#utility.yul\":15392:15486   */\n      tag_378\n      jump\t// in\n    tag_582:\n        /* \"#utility.yul\":15383:15486   */\n      swap2\n      pop\n        /* \"#utility.yul\":15199:15492   */\n      pop\n        /* \"#utility.yul\":15122:15492   */\n      swap3\n      swap2\n      pop\n      pop\n      jump\t// out\n        /* \"#utility.yul\":15498:16392   */\n    tag_63:\n        /* \"#utility.yul\":15616:15622   */\n      0x00\n        /* \"#utility.yul\":15624:15630   */\n      dup1\n        /* \"#utility.yul\":15673:15675   */\n      0x40\n        /* \"#utility.yul\":15661:15670   */\n      dup4\n        /* \"#utility.yul\":15652:15659   */\n      dup6\n        /* \"#utility.yul\":15648:15671   */\n      sub\n        /* \"#utility.yul\":15644:15676   */\n      slt\n        /* \"#utility.yul\":15641:15760   */\n      iszero\n      tag_584\n      jumpi\n        /* \"#utility.yul\":15679:15758   */\n      tag_585\n      tag_342\n      jump\t// in\n    tag_585:\n        /* \"#utility.yul\":15641:15760   */\n    tag_584:\n        /* \"#utility.yul\":15827:15828   */\n      0x00\n        /* \"#utility.yul\":15816:15825   */\n      dup4\n        /* \"#utility.yul\":15812:15829   */\n      add\n        /* \"#utility.yul\":15799:15830   */\n      calldataload\n        /* \"#utility.yul\":15857:15875   */\n      0xffffffffffffffff\n        /* \"#utility.yul\":15849:15855   */\n      dup2\n        /* \"#utility.yul\":15846:15876   */\n      gt\n        /* \"#utility.yul\":15843:15960   */\n      iszero\n      tag_586\n      jumpi\n        /* \"#utility.yul\":15879:15958   */\n      tag_587\n      tag_343\n      jump\t// in\n    tag_587:\n        /* \"#utility.yul\":15843:15960   */\n    tag_586:\n        /* \"#utility.yul\":15984:16062   */\n      tag_588\n        /* \"#utility.yul\":16054:16061   */\n      dup6\n        /* \"#utility.yul\":16045:16051   */\n      dup3\n        /* \"#utility.yul\":16034:16043   */\n      dup7\n        /* \"#utility.yul\":16030:16052   */\n      add\n        /* \"#utility.yul\":15984:16062   */\n      tag_379\n      jump\t// in\n    tag_588:\n        /* \"#utility.yul\":15974:16062   */\n      swap3\n      pop\n        /* \"#utility.yul\":15770:16072   */\n      pop\n        /* \"#utility.yul\":16139:16141   */\n      0x20\n        /* \"#utility.yul\":16128:16137   */\n      dup4\n        /* \"#utility.yul\":16124:16142   */\n      add\n        /* \"#utility.yul\":16111:16143   */\n      calldataload\n        /* \"#utility.yul\":16170:16188   */\n      0xffffffffffffffff\n        /* \"#utility.yul\":16162:16168   */\n      dup2\n        /* \"#utility.yul\":16159:16189   */\n      gt\n        /* \"#utility.yul\":16156:16273   */\n      iszero\n      tag_589\n      jumpi\n        /* \"#utility.yul\":16192:16271   */\n      tag_590\n      tag_343\n      jump\t// in\n    tag_590:\n        /* \"#utility.yul\":16156:16273   */\n    tag_589:\n        /* \"#utility.yul\":16297:16375   */\n      tag_591\n        /* \"#utility.yul\":16367:16374   */\n      dup6\n        /* \"#utility.yul\":16358:16364   */\n      dup3\n        /* \"#utility.yul\":16347:16356   */\n      dup7\n        /* \"#utility.yul\":16343:16365   */\n      add\n        /* \"#utility.yul\":16297:16375   */\n      tag_376\n      jump\t// in\n    tag_591:\n        /* \"#utility.yul\":16287:16375   */\n      swap2\n      pop\n        /* \"#utility.yul\":16082:16385   */\n      pop\n        /* \"#utility.yul\":15498:16392   */\n      swap3\n      pop\n      swap3\n      swap1\n      pop\n      jump\t// out\n        /* \"#utility.yul\":16398:16512   */\n    tag_380:\n        /* \"#utility.yul\":16465:16471   */\n      0x00\n        /* \"#utility.yul\":16499:16504   */\n      dup2\n        /* \"#utility.yul\":16493:16505   */\n      mload\n        /* \"#utility.yul\":16483:16505   */\n      swap1\n      pop\n        /* \"#utility.yul\":16398:16512   */\n      swap2\n      swap1\n      pop\n      jump\t// out\n        /* \"#utility.yul\":16518:16702   */\n    tag_381:\n        /* \"#utility.yul\":16617:16628   */\n      0x00\n        /* \"#utility.yul\":16651:16657   */\n      dup3\n        /* \"#utility.yul\":16646:16649   */\n      dup3\n        /* \"#utility.yul\":16639:16658   */\n      mstore\n        /* \"#utility.yul\":16691:16695   */\n      0x20\n        /* \"#utility.yul\":16686:16689   */\n      dup3\n        /* \"#utility.yul\":16682:16696   */\n      add\n        /* \"#utility.yul\":16667:16696   */\n      swap1\n      pop\n        /* \"#utility.yul\":16518:16702   */\n      swap3\n      swap2\n      pop\n      pop\n      jump\t// out\n        /* \"#utility.yul\":16708:16840   */\n    tag_382:\n        /* \"#utility.yul\":16775:16779   */\n      0x00\n        /* \"#utility.yul\":16798:16801   */\n      dup2\n        /* \"#utility.yul\":16790:16801   */\n      swap1\n      pop\n        /* \"#utility.yul\":16828:16832   */\n      0x20\n        /* \"#utility.yul\":16823:16826   */\n      dup3\n        /* \"#utility.yul\":16819:16833   */\n      add\n        /* \"#utility.yul\":16811:16833   */\n      swap1\n      pop\n        /* \"#utility.yul\":16708:16840   */\n      swap2\n      swap1\n      pop\n      jump\t// out\n        /* \"#utility.yul\":16846:16954   */\n    tag_383:\n        /* \"#utility.yul\":16923:16947   */\n      tag_596\n        /* \"#utility.yul\":16941:16946   */\n      dup2\n        /* \"#utility.yul\":16923:16947   */\n      tag_348\n      jump\t// in\n    tag_596:\n        /* \"#utility.yul\":16918:16921   */\n      dup3\n        /* \"#utility.yul\":16911:16948   */\n      mstore\n        /* \"#utility.yul\":16846:16954   */\n      pop\n      pop\n      jump\t// out\n        /* \"#utility.yul\":16960:17139   */\n    tag_384:\n        /* \"#utility.yul\":17029:17039   */\n      0x00\n        /* \"#utility.yul\":17050:17096   */\n      tag_598\n        /* \"#utility.yul\":17092:17095   */\n      dup4\n        /* \"#utility.yul\":17084:17090   */\n      dup4\n        /* \"#utility.yul\":17050:17096   */\n      tag_383\n      jump\t// in\n    tag_598:\n        /* \"#utility.yul\":17128:17132   */\n      0x20\n        /* \"#utility.yul\":17123:17126   */\n      dup4\n        /* \"#utility.yul\":17119:17133   */\n      add\n        /* \"#utility.yul\":17105:17133   */\n      swap1\n      pop\n        /* \"#utility.yul\":16960:17139   */\n      swap3\n      swap2\n      pop\n      pop\n      jump\t// out\n        /* \"#utility.yul\":17145:17258   */\n    tag_385:\n        /* \"#utility.yul\":17215:17219   */\n      0x00\n        /* \"#utility.yul\":17247:17251   */\n      0x20\n        /* \"#utility.yul\":17242:17245   */\n      dup3\n        /* \"#utility.yul\":17238:17252   */\n      add\n        /* \"#utility.yul\":17230:17252   */\n      swap1\n      pop\n        /* \"#utility.yul\":17145:17258   */\n      swap2\n      swap1\n      pop\n      jump\t// out\n        /* \"#utility.yul\":17294:18026   */\n    tag_386:\n        /* \"#utility.yul\":17413:17416   */\n      0x00\n        /* \"#utility.yul\":17442:17496   */\n      tag_601\n        /* \"#utility.yul\":17490:17495   */\n      dup3\n        /* \"#utility.yul\":17442:17496   */\n      tag_380\n      jump\t// in\n    tag_601:\n        /* \"#utility.yul\":17512:17598   */\n      tag_602\n        /* \"#utility.yul\":17591:17597   */\n      dup2\n        /* \"#utility.yul\":17586:17589   */\n      dup6\n        /* \"#utility.yul\":17512:17598   */\n      tag_381\n      jump\t// in\n    tag_602:\n        /* \"#utility.yul\":17505:17598   */\n      swap4\n      pop\n        /* \"#utility.yul\":17622:17678   */\n      tag_603\n        /* \"#utility.yul\":17672:17677   */\n      dup4\n        /* \"#utility.yul\":17622:17678   */\n      tag_382\n      jump\t// in\n    tag_603:\n        /* \"#utility.yul\":17701:17708   */\n      dup1\n        /* \"#utility.yul\":17732:17733   */\n      0x00\n        /* \"#utility.yul\":17717:18001   */\n    tag_604:\n        /* \"#utility.yul\":17742:17748   */\n      dup4\n        /* \"#utility.yul\":17739:17740   */\n      dup2\n        /* \"#utility.yul\":17736:17749   */\n      lt\n        /* \"#utility.yul\":17717:18001   */\n      iszero\n      tag_606\n      jumpi\n        /* \"#utility.yul\":17818:17824   */\n      dup2\n        /* \"#utility.yul\":17812:17825   */\n      mload\n        /* \"#utility.yul\":17845:17908   */\n      tag_607\n        /* \"#utility.yul\":17904:17907   */\n      dup9\n        /* \"#utility.yul\":17889:17902   */\n      dup3\n        /* \"#utility.yul\":17845:17908   */\n      tag_384\n      jump\t// in\n    tag_607:\n        /* \"#utility.yul\":17838:17908   */\n      swap8\n      pop\n        /* \"#utility.yul\":17931:17991   */\n      tag_608\n        /* \"#utility.yul\":17984:17990   */\n      dup4\n        /* \"#utility.yul\":17931:17991   */\n      tag_385\n      jump\t// in\n    tag_608:\n        /* \"#utility.yul\":17921:17991   */\n      swap3\n      pop\n        /* \"#utility.yul\":17777:18001   */\n      pop\n        /* \"#utility.yul\":17764:17765   */\n      0x01\n        /* \"#utility.yul\":17761:17762   */\n      dup2\n        /* \"#utility.yul\":17757:17766   */\n      add\n        /* \"#utility.yul\":17752:17766   */\n      swap1\n      pop\n        /* \"#utility.yul\":17717:18001   */\n      jump(tag_604)\n    tag_606:\n        /* \"#utility.yul\":17721:17735   */\n      pop\n        /* \"#utility.yul\":18017:18020   */\n      dup6\n        /* \"#utility.yul\":18010:18020   */\n      swap4\n      pop\n        /* \"#utility.yul\":17418:18026   */\n      pop\n      pop\n      pop\n        /* \"#utility.yul\":17294:18026   */\n      swap3\n      swap2\n      pop\n      pop\n      jump\t// out\n        /* \"#utility.yul\":18032:18405   */\n    tag_66:\n        /* \"#utility.yul\":18175:18179   */\n      0x00\n        /* \"#utility.yul\":18213:18215   */\n      0x20\n        /* \"#utility.yul\":18202:18211   */\n      dup3\n        /* \"#utility.yul\":18198:18216   */\n      add\n        /* \"#utility.yul\":18190:18216   */\n      swap1\n      pop\n        /* \"#utility.yul\":18262:18271   */\n      dup2\n        /* \"#utility.yul\":18256:18260   */\n      dup2\n        /* \"#utility.yul\":18252:18272   */\n      sub\n        /* \"#utility.yul\":18248:18249   */\n      0x00\n        /* \"#utility.yul\":18237:18246   */\n      dup4\n        /* \"#utility.yul\":18233:18250   */\n      add\n        /* \"#utility.yul\":18226:18273   */\n      mstore\n        /* \"#utility.yul\":18290:18398   */\n      tag_610\n        /* \"#utility.yul\":18393:18397   */\n      dup2\n        /* \"#utility.yul\":18384:18390   */\n      dup5\n        /* \"#utility.yul\":18290:18398   */\n      tag_386\n      jump\t// in\n    tag_610:\n        /* \"#utility.yul\":18282:18398   */\n      swap1\n      pop\n        /* \"#utility.yul\":18032:18405   */\n      swap3\n      swap2\n      pop\n      pop\n      jump\t// out\n        /* \"#utility.yul\":18411:18529   */\n    tag_387:\n        /* \"#utility.yul\":18498:18522   */\n      tag_612\n        /* \"#utility.yul\":18516:18521   */\n      dup2\n        /* \"#utility.yul\":18498:18522   */\n      tag_345\n      jump\t// in\n    tag_612:\n        /* \"#utility.yul\":18493:18496   */\n      dup3\n        /* \"#utility.yul\":18486:18523   */\n      mstore\n        /* \"#utility.yul\":18411:18529   */\n      pop\n      pop\n      jump\t// out\n        /* \"#utility.yul\":18535:18757   */\n    tag_76:\n        /* \"#utility.yul\":18628:18632   */\n      0x00\n        /* \"#utility.yul\":18666:18668   */\n      0x20\n        /* \"#utility.yul\":18655:18664   */\n      dup3\n        /* \"#utility.yul\":18651:18669   */\n      add\n        /* \"#utility.yul\":18643:18669   */\n      swap1\n      pop\n        /* \"#utility.yul\":18679:18750   */\n      tag_614\n        /* \"#utility.yul\":18747:18748   */\n      0x00\n        /* \"#utility.yul\":18736:18745   */\n      dup4\n        /* \"#utility.yul\":18732:18749   */\n      add\n        /* \"#utility.yul\":18723:18729   */\n      dup5\n        /* \"#utility.yul\":18679:18750   */\n      tag_387\n      jump\t// in\n    tag_614:\n        /* \"#utility.yul\":18535:18757   */\n      swap3\n      swap2\n      pop\n      pop\n      jump\t// out\n        /* \"#utility.yul\":18763:19560   */\n    tag_79:\n        /* \"#utility.yul\":18849:18855   */\n      0x00\n        /* \"#utility.yul\":18857:18863   */\n      dup1\n        /* \"#utility.yul\":18865:18871   */\n      0x00\n        /* \"#utility.yul\":18914:18916   */\n      0x60\n        /* \"#utility.yul\":18902:18911   */\n      dup5\n        /* \"#utility.yul\":18893:18900   */\n      dup7\n        /* \"#utility.yul\":18889:18912   */\n      sub\n        /* \"#utility.yul\":18885:18917   */\n      slt\n        /* \"#utility.yul\":18882:19001   */\n      iszero\n      tag_616\n      jumpi\n        /* \"#utility.yul\":18920:18999   */\n      tag_617\n      tag_342\n      jump\t// in\n    tag_617:\n        /* \"#utility.yul\":18882:19001   */\n    tag_616:\n        /* \"#utility.yul\":19040:19041   */\n      0x00\n        /* \"#utility.yul\":19065:19118   */\n      tag_618\n        /* \"#utility.yul\":19110:19117   */\n      dup7\n        /* \"#utility.yul\":19101:19107   */\n      dup3\n        /* \"#utility.yul\":19090:19099   */\n      dup8\n        /* \"#utility.yul\":19086:19108   */\n      add\n        /* \"#utility.yul\":19065:19118   */\n      tag_347\n      jump\t// in\n    tag_618:\n        /* \"#utility.yul\":19055:19118   */\n      swap4\n      pop\n        /* \"#utility.yul\":19011:19128   */\n      pop\n        /* \"#utility.yul\":19167:19169   */\n      0x20\n        /* \"#utility.yul\":19193:19246   */\n      tag_619\n        /* \"#utility.yul\":19238:19245   */\n      dup7\n        /* \"#utility.yul\":19229:19235   */\n      dup3\n        /* \"#utility.yul\":19218:19227   */\n      dup8\n        /* \"#utility.yul\":19214:19236   */\n      add\n        /* \"#utility.yul\":19193:19246   */\n      tag_350\n      jump\t// in\n    tag_619:\n        /* \"#utility.yul\":19183:19246   */\n      swap3\n      pop\n        /* \"#utility.yul\":19138:19256   */\n      pop\n        /* \"#utility.yul\":19323:19325   */\n      0x40\n        /* \"#utility.yul\":19312:19321   */\n      dup5\n        /* \"#utility.yul\":19308:19326   */\n      add\n        /* \"#utility.yul\":19295:19327   */\n      calldataload\n        /* \"#utility.yul\":19354:19372   */\n      0xffffffffffffffff\n        /* \"#utility.yul\":19346:19352   */\n      dup2\n        /* \"#utility.yul\":19343:19373   */\n      gt\n        /* \"#utility.yul\":19340:19457   */\n      iszero\n      tag_620\n      jumpi\n        /* \"#utility.yul\":19376:19455   */\n      tag_621\n      tag_343\n      jump\t// in\n    tag_621:\n        /* \"#utility.yul\":19340:19457   */\n    tag_620:\n        /* \"#utility.yul\":19481:19543   */\n      tag_622\n        /* \"#utility.yul\":19535:19542   */\n      dup7\n        /* \"#utility.yul\":19526:19532   */\n      dup3\n        /* \"#utility.yul\":19515:19524   */\n      dup8\n        /* \"#utility.yul\":19511:19533   */\n      add\n        /* \"#utility.yul\":19481:19543   */\n      tag_372\n      jump\t// in\n    tag_622:\n        /* \"#utility.yul\":19471:19543   */\n      swap2\n      pop\n        /* \"#utility.yul\":19266:19553   */\n      pop\n        /* \"#utility.yul\":18763:19560   */\n      swap3\n      pop\n      swap3\n      pop\n      swap3\n      jump\t// out\n        /* \"#utility.yul\":19566:19682   */\n    tag_388:\n        /* \"#utility.yul\":19636:19657   */\n      tag_624\n        /* \"#utility.yul\":19651:19656   */\n      dup2\n        /* \"#utility.yul\":19636:19657   */\n      tag_355\n      jump\t// in\n    tag_624:\n        /* \"#utility.yul\":19629:19634   */\n      dup2\n        /* \"#utility.yul\":19626:19658   */\n      eq\n        /* \"#utility.yul\":19616:19676   */\n      tag_625\n      jumpi\n        /* \"#utility.yul\":19672:19673   */\n      0x00\n        /* \"#utility.yul\":19669:19670   */\n      dup1\n        /* \"#utility.yul\":19662:19674   */\n      revert\n        /* \"#utility.yul\":19616:19676   */\n    tag_625:\n        /* \"#utility.yul\":19566:19682   */\n      pop\n      jump\t// out\n        /* \"#utility.yul\":19688:19821   */\n    tag_389:\n        /* \"#utility.yul\":19731:19736   */\n      0x00\n        /* \"#utility.yul\":19769:19775   */\n      dup2\n        /* \"#utility.yul\":19756:19776   */\n      calldataload\n        /* \"#utility.yul\":19747:19776   */\n      swap1\n      pop\n        /* \"#utility.yul\":19785:19815   */\n      tag_627\n        /* \"#utility.yul\":19809:19814   */\n      dup2\n        /* \"#utility.yul\":19785:19815   */\n      tag_388\n      jump\t// in\n    tag_627:\n        /* \"#utility.yul\":19688:19821   */\n      swap3\n      swap2\n      pop\n      pop\n      jump\t// out\n        /* \"#utility.yul\":19827:20295   */\n    tag_83:\n        /* \"#utility.yul\":19892:19898   */\n      0x00\n        /* \"#utility.yul\":19900:19906   */\n      dup1\n        /* \"#utility.yul\":19949:19951   */\n      0x40\n        /* \"#utility.yul\":19937:19946   */\n      dup4\n        /* \"#utility.yul\":19928:19935   */\n      dup6\n        /* \"#utility.yul\":19924:19947   */\n      sub\n        /* \"#utility.yul\":19920:19952   */\n      slt\n        /* \"#utility.yul\":19917:20036   */\n      iszero\n      tag_629\n      jumpi\n        /* \"#utility.yul\":19955:20034   */\n      tag_630\n      tag_342\n      jump\t// in\n    tag_630:\n        /* \"#utility.yul\":19917:20036   */\n    tag_629:\n        /* \"#utility.yul\":20075:20076   */\n      0x00\n        /* \"#utility.yul\":20100:20153   */\n      tag_631\n        /* \"#utility.yul\":20145:20152   */\n      dup6\n        /* \"#utility.yul\":20136:20142   */\n      dup3\n        /* \"#utility.yul\":20125:20134   */\n      dup7\n        /* \"#utility.yul\":20121:20143   */\n      add\n        /* \"#utility.yul\":20100:20153   */\n      tag_347\n      jump\t// in\n    tag_631:\n        /* \"#utility.yul\":20090:20153   */\n      swap3\n      pop\n        /* \"#utility.yul\":20046:20163   */\n      pop\n        /* \"#utility.yul\":20202:20204   */\n      0x20\n        /* \"#utility.yul\":20228:20278   */\n      tag_632\n        /* \"#utility.yul\":20270:20277   */\n      dup6\n        /* \"#utility.yul\":20261:20267   */\n      dup3\n        /* \"#utility.yul\":20250:20259   */\n      dup7\n        /* \"#utility.yul\":20246:20268   */\n      add\n        /* \"#utility.yul\":20228:20278   */\n      tag_389\n      jump\t// in\n    tag_632:\n        /* \"#utility.yul\":20218:20278   */\n      swap2\n      pop\n        /* \"#utility.yul\":20173:20288   */\n      pop\n        /* \"#utility.yul\":19827:20295   */\n      swap3\n      pop\n      swap3\n      swap1\n      pop\n      jump\t// out\n        /* \"#utility.yul\":20301:20775   */\n    tag_91:\n        /* \"#utility.yul\":20369:20375   */\n      0x00\n        /* \"#utility.yul\":20377:20383   */\n      dup1\n        /* \"#utility.yul\":20426:20428   */\n      0x40\n        /* \"#utility.yul\":20414:20423   */\n      dup4\n        /* \"#utility.yul\":20405:20412   */\n      dup6\n        /* \"#utility.yul\":20401:20424   */\n      sub\n        /* \"#utility.yul\":20397:20429   */\n      slt\n        /* \"#utility.yul\":20394:20513   */\n      iszero\n      tag_634\n      jumpi\n        /* \"#utility.yul\":20432:20511   */\n      tag_635\n      tag_342\n      jump\t// in\n    tag_635:\n        /* \"#utility.yul\":20394:20513   */\n    tag_634:\n        /* \"#utility.yul\":20552:20553   */\n      0x00\n        /* \"#utility.yul\":20577:20630   */\n      tag_636\n        /* \"#utility.yul\":20622:20629   */\n      dup6\n        /* \"#utility.yul\":20613:20619   */\n      dup3\n        /* \"#utility.yul\":20602:20611   */\n      dup7\n        /* \"#utility.yul\":20598:20620   */\n      add\n        /* \"#utility.yul\":20577:20630   */\n      tag_347\n      jump\t// in\n    tag_636:\n        /* \"#utility.yul\":20567:20630   */\n      swap3\n      pop\n        /* \"#utility.yul\":20523:20640   */\n      pop\n        /* \"#utility.yul\":20679:20681   */\n      0x20\n        /* \"#utility.yul\":20705:20758   */\n      tag_637\n        /* \"#utility.yul\":20750:20757   */\n      dup6\n        /* \"#utility.yul\":20741:20747   */\n      dup3\n        /* \"#utility.yul\":20730:20739   */\n      dup7\n        /* \"#utility.yul\":20726:20748   */\n      add\n        /* \"#utility.yul\":20705:20758   */\n      tag_347\n      jump\t// in\n    tag_637:\n        /* \"#utility.yul\":20695:20758   */\n      swap2\n      pop\n        /* \"#utility.yul\":20650:20768   */\n      pop\n        /* \"#utility.yul\":20301:20775   */\n      swap3\n      pop\n      swap3\n      swap1\n      pop\n      jump\t// out\n        /* \"#utility.yul\":20781:21110   */\n    tag_99:\n        /* \"#utility.yul\":20840:20846   */\n      0x00\n        /* \"#utility.yul\":20889:20891   */\n      0x20\n        /* \"#utility.yul\":20877:20886   */\n      dup3\n        /* \"#utility.yul\":20868:20875   */\n      dup5\n        /* \"#utility.yul\":20864:20887   */\n      sub\n        /* \"#utility.yul\":20860:20892   */\n      slt\n        /* \"#utility.yul\":20857:20976   */\n      iszero\n      tag_639\n      jumpi\n        /* \"#utility.yul\":20895:20974   */\n      tag_640\n      tag_342\n      jump\t// in\n    tag_640:\n        /* \"#utility.yul\":20857:20976   */\n    tag_639:\n        /* \"#utility.yul\":21015:21016   */\n      0x00\n        /* \"#utility.yul\":21040:21093   */\n      tag_641\n        /* \"#utility.yul\":21085:21092   */\n      dup5\n        /* \"#utility.yul\":21076:21082   */\n      dup3\n        /* \"#utility.yul\":21065:21074   */\n      dup6\n        /* \"#utility.yul\":21061:21083   */\n      add\n        /* \"#utility.yul\":21040:21093   */\n      tag_347\n      jump\t// in\n    tag_641:\n        /* \"#utility.yul\":21030:21093   */\n      swap2\n      pop\n        /* \"#utility.yul\":20986:21103   */\n      pop\n        /* \"#utility.yul\":20781:21110   */\n      swap3\n      swap2\n      pop\n      pop\n      jump\t// out\n        /* \"#utility.yul\":21116:21296   */\n    tag_390:\n        /* \"#utility.yul\":21164:21241   */\n      0x4e487b7100000000000000000000000000000000000000000000000000000000\n        /* \"#utility.yul\":21161:21162   */\n      0x00\n        /* \"#utility.yul\":21154:21242   */\n      mstore\n        /* \"#utility.yul\":21261:21265   */\n      0x22\n        /* \"#utility.yul\":21258:21259   */\n      0x04\n        /* \"#utility.yul\":21251:21266   */\n      mstore\n        /* \"#utility.yul\":21285:21289   */\n      0x24\n        /* \"#utility.yul\":21282:21283   */\n      0x00\n        /* \"#utility.yul\":21275:21290   */\n      revert\n        /* \"#utility.yul\":21302:21622   */\n    tag_115:\n        /* \"#utility.yul\":21346:21352   */\n      0x00\n        /* \"#utility.yul\":21383:21384   */\n      0x02\n        /* \"#utility.yul\":21377:21381   */\n      dup3\n        /* \"#utility.yul\":21373:21385   */\n      div\n        /* \"#utility.yul\":21363:21385   */\n      swap1\n      pop\n        /* \"#utility.yul\":21430:21431   */\n      0x01\n        /* \"#utility.yul\":21424:21428   */\n      dup3\n        /* \"#utility.yul\":21420:21432   */\n      and\n        /* \"#utility.yul\":21451:21469   */\n      dup1\n        /* \"#utility.yul\":21441:21522   */\n      tag_644\n      jumpi\n        /* \"#utility.yul\":21507:21511   */\n      0x7f\n        /* \"#utility.yul\":21499:21505   */\n      dup3\n        /* \"#utility.yul\":21495:21512   */\n      and\n        /* \"#utility.yul\":21485:21512   */\n      swap2\n      pop\n        /* \"#utility.yul\":21441:21522   */\n    tag_644:\n        /* \"#utility.yul\":21569:21571   */\n      0x20\n        /* \"#utility.yul\":21561:21567   */\n      dup3\n        /* \"#utility.yul\":21558:21572   */\n      lt\n        /* \"#utility.yul\":21538:21556   */\n      dup2\n        /* \"#utility.yul\":21535:21573   */\n      sub\n        /* \"#utility.yul\":21532:21616   */\n      tag_645\n      jumpi\n        /* \"#utility.yul\":21588:21606   */\n      tag_646\n      tag_390\n      jump\t// in\n    tag_646:\n        /* \"#utility.yul\":21532:21616   */\n    tag_645:\n        /* \"#utility.yul\":21353:21622   */\n      pop\n        /* \"#utility.yul\":21302:21622   */\n      swap2\n      swap1\n      pop\n      jump\t// out\n        /* \"#utility.yul\":21628:21960   */\n    tag_138:\n        /* \"#utility.yul\":21749:21753   */\n      0x00\n        /* \"#utility.yul\":21787:21789   */\n      0x40\n        /* \"#utility.yul\":21776:21785   */\n      dup3\n        /* \"#utility.yul\":21772:21790   */\n      add\n        /* \"#utility.yul\":21764:21790   */\n      swap1\n      pop\n        /* \"#utility.yul\":21800:21871   */\n      tag_648\n        /* \"#utility.yul\":21868:21869   */\n      0x00\n        /* \"#utility.yul\":21857:21866   */\n      dup4\n        /* \"#utility.yul\":21853:21870   */\n      add\n        /* \"#utility.yul\":21844:21850   */\n      dup6\n        /* \"#utility.yul\":21800:21871   */\n      tag_387\n      jump\t// in\n    tag_648:\n        /* \"#utility.yul\":21881:21953   */\n      tag_649\n        /* \"#utility.yul\":21949:21951   */\n      0x20\n        /* \"#utility.yul\":21938:21947   */\n      dup4\n        /* \"#utility.yul\":21934:21952   */\n      add\n        /* \"#utility.yul\":21925:21931   */\n      dup5\n        /* \"#utility.yul\":21881:21953   */\n      tag_387\n      jump\t// in\n    tag_649:\n        /* \"#utility.yul\":21628:21960   */\n      swap4\n      swap3\n      pop\n      pop\n      pop\n      jump\t// out\n        /* \"#utility.yul\":21966:22298   */\n    tag_144:\n        /* \"#utility.yul\":22087:22091   */\n      0x00\n        /* \"#utility.yul\":22125:22127   */\n      0x40\n        /* \"#utility.yul\":22114:22123   */\n      dup3\n        /* \"#utility.yul\":22110:22128   */\n      add\n        /* \"#utility.yul\":22102:22128   */\n      swap1\n      pop\n        /* \"#utility.yul\":22138:22209   */\n      tag_651\n        /* \"#utility.yul\":22206:22207   */\n      0x00\n        /* \"#utility.yul\":22195:22204   */\n      dup4\n        /* \"#utility.yul\":22191:22208   */\n      add\n        /* \"#utility.yul\":22182:22188   */\n      dup6\n        /* \"#utility.yul\":22138:22209   */\n      tag_351\n      jump\t// in\n    tag_651:\n        /* \"#utility.yul\":22219:22291   */\n      tag_652\n        /* \"#utility.yul\":22287:22289   */\n      0x20\n        /* \"#utility.yul\":22276:22285   */\n      dup4\n        /* \"#utility.yul\":22272:22290   */\n      add\n        /* \"#utility.yul\":22263:22269   */\n      dup5\n        /* \"#utility.yul\":22219:22291   */\n      tag_351\n      jump\t// in\n    tag_652:\n        /* \"#utility.yul\":21966:22298   */\n      swap4\n      swap3\n      pop\n      pop\n      pop\n      jump\t// out\n        /* \"#utility.yul\":22304:22484   */\n    tag_159:\n        /* \"#utility.yul\":22352:22429   */\n      0x4e487b7100000000000000000000000000000000000000000000000000000000\n        /* \"#utility.yul\":22349:22350   */\n      0x00\n        /* \"#utility.yul\":22342:22430   */\n      mstore\n        /* \"#utility.yul\":22449:22453   */\n      0x32\n        /* \"#utility.yul\":22446:22447   */\n      0x04\n        /* \"#utility.yul\":22439:22454   */\n      mstore\n        /* \"#utility.yul\":22473:22477   */\n      0x24\n        /* \"#utility.yul\":22470:22471   */\n      0x00\n        /* \"#utility.yul\":22463:22478   */\n      revert\n        /* \"#utility.yul\":22490:22631   */\n    tag_391:\n        /* \"#utility.yul\":22539:22543   */\n      0x00\n        /* \"#utility.yul\":22562:22565   */\n      dup2\n        /* \"#utility.yul\":22554:22565   */\n      swap1\n      pop\n        /* \"#utility.yul\":22585:22588   */\n      dup2\n        /* \"#utility.yul\":22582:22583   */\n      0x00\n        /* \"#utility.yul\":22575:22589   */\n      mstore\n        /* \"#utility.yul\":22619:22623   */\n      0x20\n        /* \"#utility.yul\":22616:22617   */\n      0x00\n        /* \"#utility.yul\":22606:22624   */\n      keccak256\n        /* \"#utility.yul\":22598:22624   */\n      swap1\n      pop\n        /* \"#utility.yul\":22490:22631   */\n      swap2\n      swap1\n      pop\n      jump\t// out\n        /* \"#utility.yul\":22637:22730   */\n    tag_392:\n        /* \"#utility.yul\":22674:22680   */\n      0x00\n        /* \"#utility.yul\":22721:22723   */\n      0x20\n        /* \"#utility.yul\":22716:22718   */\n      0x1f\n        /* \"#utility.yul\":22709:22714   */\n      dup4\n        /* \"#utility.yul\":22705:22719   */\n      add\n        /* \"#utility.yul\":22701:22724   */\n      div\n        /* \"#utility.yul\":22691:22724   */\n      swap1\n      pop\n        /* \"#utility.yul\":22637:22730   */\n      swap2\n      swap1\n      pop\n      jump\t// out\n        /* \"#utility.yul\":22736:22843   */\n    tag_393:\n        /* \"#utility.yul\":22780:22788   */\n      0x00\n        /* \"#utility.yul\":22830:22835   */\n      dup3\n        /* \"#utility.yul\":22824:22828   */\n      dup3\n        /* \"#utility.yul\":22820:22836   */\n      shl\n        /* \"#utility.yul\":22799:22836   */\n      swap1\n      pop\n        /* \"#utility.yul\":22736:22843   */\n      swap3\n      swap2\n      pop\n      pop\n      jump\t// out\n        /* \"#utility.yul\":22849:23242   */\n    tag_394:\n        /* \"#utility.yul\":22918:22924   */\n      0x00\n        /* \"#utility.yul\":22968:22969   */\n      0x08\n        /* \"#utility.yul\":22956:22966   */\n      dup4\n        /* \"#utility.yul\":22952:22970   */\n      mul\n        /* \"#utility.yul\":22991:23088   */\n      tag_658\n        /* \"#utility.yul\":23021:23087   */\n      0xffffffffffffffffffffffffffffffffffffffffffffffffffffffffffffffff\n        /* \"#utility.yul\":23010:23019   */\n      dup3\n        /* \"#utility.yul\":22991:23088   */\n      tag_393\n      jump\t// in\n    tag_658:\n        /* \"#utility.yul\":23109:23148   */\n      tag_659\n        /* \"#utility.yul\":23139:23147   */\n      dup7\n        /* \"#utility.yul\":23128:23137   */\n      dup4\n        /* \"#utility.yul\":23109:23148   */\n      tag_393\n      jump\t// in\n    tag_659:\n        /* \"#utility.yul\":23097:23148   */\n      swap6\n      pop\n        /* \"#utility.yul\":23181:23185   */\n      dup1\n        /* \"#utility.yul\":23177:23186   */\n      not\n        /* \"#utility.yul\":23170:23175   */\n      dup5\n        /* \"#utility.yul\":23166:23187   */\n      and\n        /* \"#utility.yul\":23157:23187   */\n      swap4\n      pop\n        /* \"#utility.yul\":23230:23234   */\n      dup1\n        /* \"#utility.yul\":23220:23228   */\n      dup7\n        /* \"#utility.yul\":23216:23235   */\n      and\n        /* \"#utility.yul\":23209:23214   */\n      dup5\n        /* \"#utility.yul\":23206:23236   */\n      or\n        /* \"#utility.yul\":23196:23236   */\n      swap3\n      pop\n        /* \"#utility.yul\":22925:23242   */\n      pop\n      pop\n        /* \"#utility.yul\":22849:23242   */\n      swap4\n      swap3\n      pop\n      pop\n      pop\n      jump\t// out\n        /* \"#utility.yul\":23248:23308   */\n    tag_395:\n        /* \"#utility.yul\":23276:23279   */\n      0x00\n        /* \"#utility.yul\":23297:23302   */\n      dup2\n        /* \"#utility.yul\":23290:23302   */\n      swap1\n      pop\n        /* \"#utility.yul\":23248:23308   */\n      swap2\n      swap1\n      pop\n      jump\t// out\n        /* \"#utility.yul\":23314:23456   */\n    tag_396:\n        /* \"#utility.yul\":23364:23373   */\n      0x00\n        /* \"#utility.yul\":23397:23450   */\n      tag_662\n        /* \"#utility.yul\":23415:23449   */\n      tag_663\n        /* \"#utility.yul\":23424:23448   */\n      tag_664\n        /* \"#utility.yul\":23442:23447   */\n      dup5\n        /* \"#utility.yul\":23424:23448   */\n      tag_348\n      jump\t// in\n    tag_664:\n        /* \"#utility.yul\":23415:23449   */\n      tag_395\n      jump\t// in\n    tag_663:\n        /* \"#utility.yul\":23397:23450   */\n      tag_348\n      jump\t// in\n    tag_662:\n        /* \"#utility.yul\":23384:23450   */\n      swap1\n      pop\n        /* \"#utility.yul\":23314:23456   */\n      swap2\n      swap1\n      pop\n      jump\t// out\n        /* \"#utility.yul\":23462:23537   */\n    tag_397:\n        /* \"#utility.yul\":23505:23508   */\n      0x00\n        /* \"#utility.yul\":23526:23531   */\n      dup2\n        /* \"#utility.yul\":23519:23531   */\n      swap1\n      pop\n        /* \"#utility.yul\":23462:23537   */\n      swap2\n      swap1\n      pop\n      jump\t// out\n        /* \"#utility.yul\":23543:23812   */\n    tag_398:\n        /* \"#utility.yul\":23653:23692   */\n      tag_667\n        /* \"#utility.yul\":23684:23691   */\n      dup4\n        /* \"#utility.yul\":23653:23692   */\n      tag_396\n      jump\t// in\n    tag_667:\n        /* \"#utility.yul\":23714:23805   */\n      tag_668\n        /* \"#utility.yul\":23763:23804   */\n      tag_669\n        /* \"#utility.yul\":23787:23803   */\n      dup3\n        /* \"#utility.yul\":23763:23804   */\n      tag_397\n      jump\t// in\n    tag_669:\n        /* \"#utility.yul\":23755:23761   */\n      dup5\n        /* \"#utility.yul\":23748:23752   */\n      dup5\n        /* \"#utility.yul\":23742:23753   */\n      sload\n        /* \"#utility.yul\":23714:23805   */\n      tag_394\n      jump\t// in\n    tag_668:\n        /* \"#utility.yul\":23708:23712   */\n      dup3\n        /* \"#utility.yul\":23701:23806   */\n      sstore\n        /* \"#utility.yul\":23619:23812   */\n      pop\n        /* \"#utility.yul\":23543:23812   */\n      pop\n      pop\n      pop\n      jump\t// out\n        /* \"#utility.yul\":23818:23891   */\n    tag_399:\n        /* \"#utility.yul\":23863:23866   */\n      0x00\n        /* \"#utility.yul\":23818:23891   */\n      swap1\n      jump\t// out\n        /* \"#utility.yul\":23897:24086   */\n    tag_400:\n        /* \"#utility.yul\":23974:24006   */\n      tag_672\n      tag_399\n      jump\t// in\n    tag_672:\n        /* \"#utility.yul\":24015:24080   */\n      tag_673\n        /* \"#utility.yul\":24073:24079   */\n      dup2\n        /* \"#utility.yul\":24065:24071   */\n      dup5\n        /* \"#utility.yul\":24059:24063   */\n      dup5\n        /* \"#utility.yul\":24015:24080   */\n      tag_398\n      jump\t// in\n    tag_673:\n        /* \"#utility.yul\":23950:24086   */\n      pop\n        /* \"#utility.yul\":23897:24086   */\n      pop\n      pop\n      jump\t// out\n        /* \"#utility.yul\":24092:24278   */\n    tag_401:\n        /* \"#utility.yul\":24152:24272   */\n    tag_675:\n        /* \"#utility.yul\":24169:24172   */\n      dup2\n        /* \"#utility.yul\":24162:24167   */\n      dup2\n        /* \"#utility.yul\":24159:24173   */\n      lt\n        /* \"#utility.yul\":24152:24272   */\n      iszero\n      tag_677\n      jumpi\n        /* \"#utility.yul\":24223:24262   */\n      tag_678\n        /* \"#utility.yul\":24260:24261   */\n      0x00\n        /* \"#utility.yul\":24253:24258   */\n      dup3\n        /* \"#utility.yul\":24223:24262   */\n      tag_400\n      jump\t// in\n    tag_678:\n        /* \"#utility.yul\":24196:24197   */\n      0x01\n        /* \"#utility.yul\":24189:24194   */\n      dup2\n        /* \"#utility.yul\":24185:24198   */\n      add\n        /* \"#utility.yul\":24176:24198   */\n      swap1\n      pop\n        /* \"#utility.yul\":24152:24272   */\n      jump(tag_675)\n    tag_677:\n        /* \"#utility.yul\":24092:24278   */\n      pop\n      pop\n      jump\t// out\n        /* \"#utility.yul\":24284:24827   */\n    tag_402:\n        /* \"#utility.yul\":24385:24387   */\n      0x1f\n        /* \"#utility.yul\":24380:24383   */\n      dup3\n        /* \"#utility.yul\":24377:24388   */\n      gt\n        /* \"#utility.yul\":24374:24820   */\n      iszero\n      tag_680\n      jumpi\n        /* \"#utility.yul\":24419:24457   */\n      tag_681\n        /* \"#utility.yul\":24451:24456   */\n      dup2\n        /* \"#utility.yul\":24419:24457   */\n      tag_391\n      jump\t// in\n    tag_681:\n        /* \"#utility.yul\":24503:24532   */\n      tag_682\n        /* \"#utility.yul\":24521:24531   */\n      dup5\n        /* \"#utility.yul\":24503:24532   */\n      tag_392\n      jump\t// in\n    tag_682:\n        /* \"#utility.yul\":24493:24501   */\n      dup2\n        /* \"#utility.yul\":24489:24533   */\n      add\n        /* \"#utility.yul\":24686:24688   */\n      0x20\n        /* \"#utility.yul\":24674:24684   */\n      dup6\n        /* \"#utility.yul\":24671:24689   */\n      lt\n        /* \"#utility.yul\":24668:24717   */\n      iszero\n      tag_683\n      jumpi\n        /* \"#utility.yul\":24707:24715   */\n      dup2\n        /* \"#utility.yul\":24692:24715   */\n      swap1\n      pop\n        /* \"#utility.yul\":24668:24717   */\n    tag_683:\n        /* \"#utility.yul\":24730:24810   */\n      tag_684\n        /* \"#utility.yul\":24786:24808   */\n      tag_685\n        /* \"#utility.yul\":24804:24807   */\n      dup6\n        /* \"#utility.yul\":24786:24808   */\n      tag_392\n      jump\t// in\n    tag_685:\n        /* \"#utility.yul\":24776:24784   */\n      dup4\n        /* \"#utility.yul\":24772:24809   */\n      add\n        /* \"#utility.yul\":24759:24770   */\n      dup3\n        /* \"#utility.yul\":24730:24810   */\n      tag_401\n      jump\t// in\n    tag_684:\n        /* \"#utility.yul\":24389:24820   */\n      pop\n      pop\n        /* \"#utility.yul\":24374:24820   */\n    tag_680:\n        /* \"#utility.yul\":24284:24827   */\n      pop\n      pop\n      pop\n      jump\t// out\n        /* \"#utility.yul\":24833:24950   */\n    tag_403:\n        /* \"#utility.yul\":24887:24895   */\n      0x00\n        /* \"#utility.yul\":24937:24942   */\n      dup3\n        /* \"#utility.yul\":24931:24935   */\n      dup3\n        /* \"#utility.yul\":24927:24943   */\n      shr\n        /* \"#utility.yul\":24906:24943   */\n      swap1\n      pop\n        /* \"#utility.yul\":24833:24950   */\n      swap3\n      swap2\n      pop\n      pop\n      jump\t// out\n        /* \"#utility.yul\":24956:25125   */\n    tag_404:\n        /* \"#utility.yul\":25000:25006   */\n      0x00\n        /* \"#utility.yul\":25033:25084   */\n      tag_688\n        /* \"#utility.yul\":25081:25082   */\n      0x00\n        /* \"#utility.yul\":25077:25083   */\n      not\n        /* \"#utility.yul\":25069:25074   */\n      dup5\n        /* \"#utility.yul\":25066:25067   */\n      0x08\n        /* \"#utility.yul\":25062:25075   */\n      mul\n        /* \"#utility.yul\":25033:25084   */\n      tag_403\n      jump\t// in\n    tag_688:\n        /* \"#utility.yul\":25029:25085   */\n      not\n        /* \"#utility.yul\":25114:25118   */\n      dup1\n        /* \"#utility.yul\":25108:25112   */\n      dup4\n        /* \"#utility.yul\":25104:25119   */\n      and\n        /* \"#utility.yul\":25094:25119   */\n      swap2\n      pop\n        /* \"#utility.yul\":25007:25125   */\n      pop\n        /* \"#utility.yul\":24956:25125   */\n      swap3\n      swap2\n      pop\n      pop\n      jump\t// out\n        /* \"#utility.yul\":25130:25425   */\n    tag_405:\n        /* \"#utility.yul\":25206:25210   */\n      0x00\n        /* \"#utility.yul\":25352:25381   */\n      tag_690\n        /* \"#utility.yul\":25377:25380   */\n      dup4\n        /* \"#utility.yul\":25371:25375   */\n      dup4\n        /* \"#utility.yul\":25352:25381   */\n      tag_404\n      jump\t// in\n    tag_690:\n        /* \"#utility.yul\":25344:25381   */\n      swap2\n      pop\n        /* \"#utility.yul\":25414:25417   */\n      dup3\n        /* \"#utility.yul\":25411:25412   */\n      0x02\n        /* \"#utility.yul\":25407:25418   */\n      mul\n        /* \"#utility.yul\":25401:25405   */\n      dup3\n        /* \"#utility.yul\":25398:25419   */\n      or\n        /* \"#utility.yul\":25390:25419   */\n      swap1\n      pop\n        /* \"#utility.yul\":25130:25425   */\n      swap3\n      swap2\n      pop\n      pop\n      jump\t// out\n        /* \"#utility.yul\":25430:26825   */\n    tag_207:\n        /* \"#utility.yul\":25547:25584   */\n      tag_692\n        /* \"#utility.yul\":25580:25583   */\n      dup3\n        /* \"#utility.yul\":25547:25584   */\n      tag_366\n      jump\t// in\n    tag_692:\n        /* \"#utility.yul\":25649:25667   */\n      0xffffffffffffffff\n        /* \"#utility.yul\":25641:25647   */\n      dup2\n        /* \"#utility.yul\":25638:25668   */\n      gt\n        /* \"#utility.yul\":25635:25691   */\n      iszero\n      tag_693\n      jumpi\n        /* \"#utility.yul\":25671:25689   */\n      tag_694\n      tag_147\n      jump\t// in\n    tag_694:\n        /* \"#utility.yul\":25635:25691   */\n    tag_693:\n        /* \"#utility.yul\":25715:25753   */\n      tag_695\n        /* \"#utility.yul\":25747:25751   */\n      dup3\n        /* \"#utility.yul\":25741:25752   */\n      sload\n        /* \"#utility.yul\":25715:25753   */\n      tag_115\n      jump\t// in\n    tag_695:\n        /* \"#utility.yul\":25800:25867   */\n      tag_696\n        /* \"#utility.yul\":25860:25866   */\n      dup3\n        /* \"#utility.yul\":25852:25858   */\n      dup3\n        /* \"#utility.yul\":25846:25850   */\n      dup6\n        /* \"#utility.yul\":25800:25867   */\n      tag_402\n      jump\t// in\n    tag_696:\n        /* \"#utility.yul\":25894:25895   */\n      0x00\n        /* \"#utility.yul\":25918:25922   */\n      0x20\n        /* \"#utility.yul\":25905:25922   */\n      swap1\n      pop\n        /* \"#utility.yul\":25950:25952   */\n      0x1f\n        /* \"#utility.yul\":25942:25948   */\n      dup4\n        /* \"#utility.yul\":25939:25953   */\n      gt\n        /* \"#utility.yul\":25967:25968   */\n      0x01\n        /* \"#utility.yul\":25962:26580   */\n      dup2\n      eq\n      tag_698\n      jumpi\n        /* \"#utility.yul\":26624:26625   */\n      0x00\n        /* \"#utility.yul\":26641:26647   */\n      dup5\n        /* \"#utility.yul\":26638:26715   */\n      iszero\n      tag_699\n      jumpi\n        /* \"#utility.yul\":26690:26699   */\n      dup3\n        /* \"#utility.yul\":26685:26688   */\n      dup8\n        /* \"#utility.yul\":26681:26700   */\n      add\n        /* \"#utility.yul\":26675:26701   */\n      mload\n        /* \"#utility.yul\":26666:26701   */\n      swap1\n      pop\n        /* \"#utility.yul\":26638:26715   */\n    tag_699:\n        /* \"#utility.yul\":26741:26808   */\n      tag_700\n        /* \"#utility.yul\":26801:26807   */\n      dup6\n        /* \"#utility.yul\":26794:26799   */\n      dup3\n        /* \"#utility.yul\":26741:26808   */\n      tag_405\n      jump\t// in\n    tag_700:\n        /* \"#utility.yul\":26735:26739   */\n      dup7\n        /* \"#utility.yul\":26728:26809   */\n      sstore\n        /* \"#utility.yul\":26597:26819   */\n      pop\n        /* \"#utility.yul\":25932:26819   */\n      jump(tag_697)\n        /* \"#utility.yul\":25962:26580   */\n    tag_698:\n        /* \"#utility.yul\":26014:26018   */\n      0x1f\n        /* \"#utility.yul\":26010:26019   */\n      not\n        /* \"#utility.yul\":26002:26008   */\n      dup5\n        /* \"#utility.yul\":25998:26020   */\n      and\n        /* \"#utility.yul\":26048:26085   */\n      tag_701\n        /* \"#utility.yul\":26080:26084   */\n      dup7\n        /* \"#utility.yul\":26048:26085   */\n      tag_391\n      jump\t// in\n    tag_701:\n        /* \"#utility.yul\":26107:26108   */\n      0x00\n        /* \"#utility.yul\":26121:26329   */\n    tag_702:\n        /* \"#utility.yul\":26135:26142   */\n      dup3\n        /* \"#utility.yul\":26132:26133   */\n      dup2\n        /* \"#utility.yul\":26129:26143   */\n      lt\n        /* \"#utility.yul\":26121:26329   */\n      iszero\n      tag_704\n      jumpi\n        /* \"#utility.yul\":26214:26223   */\n      dup5\n        /* \"#utility.yul\":26209:26212   */\n      dup10\n        /* \"#utility.yul\":26205:26224   */\n      add\n        /* \"#utility.yul\":26199:26225   */\n      mload\n        /* \"#utility.yul\":26191:26197   */\n      dup3\n        /* \"#utility.yul\":26184:26226   */\n      sstore\n        /* \"#utility.yul\":26265:26266   */\n      0x01\n        /* \"#utility.yul\":26257:26263   */\n      dup3\n        /* \"#utility.yul\":26253:26267   */\n      add\n        /* \"#utility.yul\":26243:26267   */\n      swap2\n      pop\n        /* \"#utility.yul\":26312:26314   */\n      0x20\n        /* \"#utility.yul\":26301:26310   */\n      dup6\n        /* \"#utility.yul\":26297:26315   */\n      add\n        /* \"#utility.yul\":26284:26315   */\n      swap5\n      pop\n        /* \"#utility.yul\":26158:26162   */\n      0x20\n        /* \"#utility.yul\":26155:26156   */\n      dup2\n        /* \"#utility.yul\":26151:26163   */\n      add\n        /* \"#utility.yul\":26146:26163   */\n      swap1\n      pop\n        /* \"#utility.yul\":26121:26329   */\n      jump(tag_702)\n    tag_704:\n        /* \"#utility.yul\":26357:26363   */\n      dup7\n        /* \"#utility.yul\":26348:26355   */\n      dup4\n        /* \"#utility.yul\":26345:26364   */\n      lt\n        /* \"#utility.yul\":26342:26521   */\n      iszero\n      tag_705\n      jumpi\n        /* \"#utility.yul\":26415:26424   */\n      dup5\n        /* \"#utility.yul\":26410:26413   */\n      dup10\n        /* \"#utility.yul\":26406:26425   */\n      add\n        /* \"#utility.yul\":26400:26426   */\n      mload\n        /* \"#utility.yul\":26458:26506   */\n      tag_706\n        /* \"#utility.yul\":26500:26504   */\n      0x1f\n        /* \"#utility.yul\":26492:26498   */\n      dup10\n        /* \"#utility.yul\":26488:26505   */\n      and\n        /* \"#utility.yul\":26477:26486   */\n      dup3\n        /* \"#utility.yul\":26458:26506   */\n      tag_404\n      jump\t// in\n    tag_706:\n        /* \"#utility.yul\":26450:26456   */\n      dup4\n        /* \"#utility.yul\":26443:26507   */\n      sstore\n        /* \"#utility.yul\":26365:26521   */\n      pop\n        /* \"#utility.yul\":26342:26521   */\n    tag_705:\n        /* \"#utility.yul\":26567:26568   */\n      0x01\n        /* \"#utility.yul\":26563:26564   */\n      0x02\n        /* \"#utility.yul\":26555:26561   */\n      dup9\n        /* \"#utility.yul\":26551:26565   */\n      mul\n        /* \"#utility.yul\":26547:26569   */\n      add\n        /* \"#utility.yul\":26541:26545   */\n      dup9\n        /* \"#utility.yul\":26534:26570   */\n      sstore\n        /* \"#utility.yul\":25969:26580   */\n      pop\n      pop\n      pop\n        /* \"#utility.yul\":25932:26819   */\n    tag_697:\n      pop\n        /* \"#utility.yul\":25522:26825   */\n      pop\n      pop\n      pop\n        /* \"#utility.yul\":25430:26825   */\n      pop\n      pop\n      jump\t// out\n        /* \"#utility.yul\":26831:26929   */\n    tag_406:\n        /* \"#utility.yul\":26882:26888   */\n      0x00\n        /* \"#utility.yul\":26916:26921   */\n      dup2\n        /* \"#utility.yul\":26910:26922   */\n      mload\n        /* \"#utility.yul\":26900:26922   */\n      swap1\n      pop\n        /* \"#utility.yul\":26831:26929   */\n      swap2\n      swap1\n      pop\n      jump\t// out\n        /* \"#utility.yul\":26935:27103   */\n    tag_407:\n        /* \"#utility.yul\":27018:27029   */\n      0x00\n        /* \"#utility.yul\":27052:27058   */\n      dup3\n        /* \"#utility.yul\":27047:27050   */\n      dup3\n        /* \"#utility.yul\":27040:27059   */\n      mstore\n        /* \"#utility.yul\":27092:27096   */\n      0x20\n        /* \"#utility.yul\":27087:27090   */\n      dup3\n        /* \"#utility.yul\":27083:27097   */\n      add\n        /* \"#utility.yul\":27068:27097   */\n      swap1\n      pop\n        /* \"#utility.yul\":26935:27103   */\n      swap3\n      swap2\n      pop\n      pop\n      jump\t// out\n        /* \"#utility.yul\":27109:27482   */\n    tag_408:\n        /* \"#utility.yul\":27195:27198   */\n      0x00\n        /* \"#utility.yul\":27223:27261   */\n      tag_710\n        /* \"#utility.yul\":27255:27260   */\n      dup3\n        /* \"#utility.yul\":27223:27261   */\n      tag_406\n      jump\t// in\n    tag_710:\n        /* \"#utility.yul\":27277:27347   */\n      tag_711\n        /* \"#utility.yul\":27340:27346   */\n      dup2\n        /* \"#utility.yul\":27335:27338   */\n      dup6\n        /* \"#utility.yul\":27277:27347   */\n      tag_407\n      jump\t// in\n    tag_711:\n        /* \"#utility.yul\":27270:27347   */\n      swap4\n      pop\n        /* \"#utility.yul\":27356:27421   */\n      tag_712\n        /* \"#utility.yul\":27414:27420   */\n      dup2\n        /* \"#utility.yul\":27409:27412   */\n      dup6\n        /* \"#utility.yul\":27402:27406   */\n      0x20\n        /* \"#utility.yul\":27395:27400   */\n      dup7\n        /* \"#utility.yul\":27391:27407   */\n      add\n        /* \"#utility.yul\":27356:27421   */\n      tag_368\n      jump\t// in\n    tag_712:\n        /* \"#utility.yul\":27446:27475   */\n      tag_713\n        /* \"#utility.yul\":27468:27474   */\n      dup2\n        /* \"#utility.yul\":27446:27475   */\n      tag_359\n      jump\t// in\n    tag_713:\n        /* \"#utility.yul\":27441:27444   */\n      dup5\n        /* \"#utility.yul\":27437:27476   */\n      add\n        /* \"#utility.yul\":27430:27476   */\n      swap2\n      pop\n        /* \"#utility.yul\":27199:27482   */\n      pop\n        /* \"#utility.yul\":27109:27482   */\n      swap3\n      swap2\n      pop\n      pop\n      jump\t// out\n        /* \"#utility.yul\":27488:28239   */\n    tag_262:\n        /* \"#utility.yul\":27711:27715   */\n      0x00\n        /* \"#utility.yul\":27749:27752   */\n      0xa0\n        /* \"#utility.yul\":27738:27747   */\n      dup3\n        /* \"#utility.yul\":27734:27753   */\n      add\n        /* \"#utility.yul\":27726:27753   */\n      swap1\n      pop\n        /* \"#utility.yul\":27763:27834   */\n      tag_715\n        /* \"#utility.yul\":27831:27832   */\n      0x00\n        /* \"#utility.yul\":27820:27829   */\n      dup4\n        /* \"#utility.yul\":27816:27833   */\n      add\n        /* \"#utility.yul\":27807:27813   */\n      dup9\n        /* \"#utility.yul\":27763:27834   */\n      tag_387\n      jump\t// in\n    tag_715:\n        /* \"#utility.yul\":27844:27916   */\n      tag_716\n        /* \"#utility.yul\":27912:27914   */\n      0x20\n        /* \"#utility.yul\":27901:27910   */\n      dup4\n        /* \"#utility.yul\":27897:27915   */\n      add\n        /* \"#utility.yul\":27888:27894   */\n      dup8\n        /* \"#utility.yul\":27844:27916   */\n      tag_387\n      jump\t// in\n    tag_716:\n        /* \"#utility.yul\":27926:27998   */\n      tag_717\n        /* \"#utility.yul\":27994:27996   */\n      0x40\n        /* \"#utility.yul\":27983:27992   */\n      dup4\n        /* \"#utility.yul\":27979:27997   */\n      add\n        /* \"#utility.yul\":27970:27976   */\n      dup7\n        /* \"#utility.yul\":27926:27998   */\n      tag_351\n      jump\t// in\n    tag_717:\n        /* \"#utility.yul\":28008:28080   */\n      tag_718\n        /* \"#utility.yul\":28076:28078   */\n      0x60\n        /* \"#utility.yul\":28065:28074   */\n      dup4\n        /* \"#utility.yul\":28061:28079   */\n      add\n        /* \"#utility.yul\":28052:28058   */\n      dup6\n        /* \"#utility.yul\":28008:28080   */\n      tag_351\n      jump\t// in\n    tag_718:\n        /* \"#utility.yul\":28128:28137   */\n      dup2\n        /* \"#utility.yul\":28122:28126   */\n      dup2\n        /* \"#utility.yul\":28118:28138   */\n      sub\n        /* \"#utility.yul\":28112:28115   */\n      0x80\n        /* \"#utility.yul\":28101:28110   */\n      dup4\n        /* \"#utility.yul\":28097:28116   */\n      add\n        /* \"#utility.yul\":28090:28139   */\n      mstore\n        /* \"#utility.yul\":28156:28232   */\n      tag_719\n        /* \"#utility.yul\":28227:28231   */\n      dup2\n        /* \"#utility.yul\":28218:28224   */\n      dup5\n        /* \"#utility.yul\":28156:28232   */\n      tag_408\n      jump\t// in\n    tag_719:\n        /* \"#utility.yul\":28148:28232   */\n      swap1\n      pop\n        /* \"#utility.yul\":27488:28239   */\n      swap7\n      swap6\n      pop\n      pop\n      pop\n      pop\n      pop\n      pop\n      jump\t// out\n        /* \"#utility.yul\":28245:28386   */\n    tag_409:\n        /* \"#utility.yul\":28301:28306   */\n      0x00\n        /* \"#utility.yul\":28332:28338   */\n      dup2\n        /* \"#utility.yul\":28326:28339   */\n      mload\n        /* \"#utility.yul\":28317:28339   */\n      swap1\n      pop\n        /* \"#utility.yul\":28348:28380   */\n      tag_721\n        /* \"#utility.yul\":28374:28379   */\n      dup2\n        /* \"#utility.yul\":28348:28380   */\n      tag_353\n      jump\t// in\n    tag_721:\n        /* \"#utility.yul\":28245:28386   */\n      swap3\n      swap2\n      pop\n      pop\n      jump\t// out\n        /* \"#utility.yul\":28392:28741   */\n    tag_265:\n        /* \"#utility.yul\":28461:28467   */\n      0x00\n        /* \"#utility.yul\":28510:28512   */\n      0x20\n        /* \"#utility.yul\":28498:28507   */\n      dup3\n        /* \"#utility.yul\":28489:28496   */\n      dup5\n        /* \"#utility.yul\":28485:28508   */\n      sub\n        /* \"#utility.yul\":28481:28513   */\n      slt\n        /* \"#utility.yul\":28478:28597   */\n      iszero\n      tag_723\n      jumpi\n        /* \"#utility.yul\":28516:28595   */\n      tag_724\n      tag_342\n      jump\t// in\n    tag_724:\n        /* \"#utility.yul\":28478:28597   */\n    tag_723:\n        /* \"#utility.yul\":28636:28637   */\n      0x00\n        /* \"#utility.yul\":28661:28724   */\n      tag_725\n        /* \"#utility.yul\":28716:28723   */\n      dup5\n        /* \"#utility.yul\":28707:28713   */\n      dup3\n        /* \"#utility.yul\":28696:28705   */\n      dup6\n        /* \"#utility.yul\":28692:28714   */\n      add\n        /* \"#utility.yul\":28661:28724   */\n      tag_409\n      jump\t// in\n    tag_725:\n        /* \"#utility.yul\":28651:28724   */\n      swap2\n      pop\n        /* \"#utility.yul\":28607:28734   */\n      pop\n        /* \"#utility.yul\":28392:28741   */\n      swap3\n      swap2\n      pop\n      pop\n      jump\t// out\n        /* \"#utility.yul\":28747:29800   */\n    tag_281:\n        /* \"#utility.yul\":29070:29074   */\n      0x00\n        /* \"#utility.yul\":29108:29111   */\n      0xa0\n        /* \"#utility.yul\":29097:29106   */\n      dup3\n        /* \"#utility.yul\":29093:29112   */\n      add\n        /* \"#utility.yul\":29085:29112   */\n      swap1\n      pop\n        /* \"#utility.yul\":29122:29193   */\n      tag_727\n        /* \"#utility.yul\":29190:29191   */\n      0x00\n        /* \"#utility.yul\":29179:29188   */\n      dup4\n        /* \"#utility.yul\":29175:29192   */\n      add\n        /* \"#utility.yul\":29166:29172   */\n      dup9\n        /* \"#utility.yul\":29122:29193   */\n      tag_387\n      jump\t// in\n    tag_727:\n        /* \"#utility.yul\":29203:29275   */\n      tag_728\n        /* \"#utility.yul\":29271:29273   */\n      0x20\n        /* \"#utility.yul\":29260:29269   */\n      dup4\n        /* \"#utility.yul\":29256:29274   */\n      add\n        /* \"#utility.yul\":29247:29253   */\n      dup8\n        /* \"#utility.yul\":29203:29275   */\n      tag_387\n      jump\t// in\n    tag_728:\n        /* \"#utility.yul\":29322:29331   */\n      dup2\n        /* \"#utility.yul\":29316:29320   */\n      dup2\n        /* \"#utility.yul\":29312:29332   */\n      sub\n        /* \"#utility.yul\":29307:29309   */\n      0x40\n        /* \"#utility.yul\":29296:29305   */\n      dup4\n        /* \"#utility.yul\":29292:29310   */\n      add\n        /* \"#utility.yul\":29285:29333   */\n      mstore\n        /* \"#utility.yul\":29350:29458   */\n      tag_729\n        /* \"#utility.yul\":29453:29457   */\n      dup2\n        /* \"#utility.yul\":29444:29450   */\n      dup7\n        /* \"#utility.yul\":29350:29458   */\n      tag_386\n      jump\t// in\n    tag_729:\n        /* \"#utility.yul\":29342:29458   */\n      swap1\n      pop\n        /* \"#utility.yul\":29505:29514   */\n      dup2\n        /* \"#utility.yul\":29499:29503   */\n      dup2\n        /* \"#utility.yul\":29495:29515   */\n      sub\n        /* \"#utility.yul\":29490:29492   */\n      0x60\n        /* \"#utility.yul\":29479:29488   */\n      dup4\n        /* \"#utility.yul\":29475:29493   */\n      add\n        /* \"#utility.yul\":29468:29516   */\n      mstore\n        /* \"#utility.yul\":29533:29641   */\n      tag_730\n        /* \"#utility.yul\":29636:29640   */\n      dup2\n        /* \"#utility.yul\":29627:29633   */\n      dup6\n        /* \"#utility.yul\":29533:29641   */\n      tag_386\n      jump\t// in\n    tag_730:\n        /* \"#utility.yul\":29525:29641   */\n      swap1\n      pop\n        /* \"#utility.yul\":29689:29698   */\n      dup2\n        /* \"#utility.yul\":29683:29687   */\n      dup2\n        /* \"#utility.yul\":29679:29699   */\n      sub\n        /* \"#utility.yul\":29673:29676   */\n      0x80\n        /* \"#utility.yul\":29662:29671   */\n      dup4\n        /* \"#utility.yul\":29658:29677   */\n      add\n        /* \"#utility.yul\":29651:29700   */\n      mstore\n        /* \"#utility.yul\":29717:29793   */\n      tag_731\n        /* \"#utility.yul\":29788:29792   */\n      dup2\n        /* \"#utility.yul\":29779:29785   */\n      dup5\n        /* \"#utility.yul\":29717:29793   */\n      tag_408\n      jump\t// in\n    tag_731:\n        /* \"#utility.yul\":29709:29793   */\n      swap1\n      pop\n        /* \"#utility.yul\":28747:29800   */\n      swap7\n      swap6\n      pop\n      pop\n      pop\n      pop\n      pop\n      pop\n      jump\t// out\n        /* \"#utility.yul\":29806:29986   */\n    tag_410:\n        /* \"#utility.yul\":29854:29931   */\n      0x4e487b7100000000000000000000000000000000000000000000000000000000\n        /* \"#utility.yul\":29851:29852   */\n      0x00\n        /* \"#utility.yul\":29844:29932   */\n      mstore\n        /* \"#utility.yul\":29951:29955   */\n      0x11\n        /* \"#utility.yul\":29948:29949   */\n      0x04\n        /* \"#utility.yul\":29941:29956   */\n      mstore\n        /* \"#utility.yul\":29975:29979   */\n      0x24\n        /* \"#utility.yul\":29972:29973   */\n      0x00\n        /* \"#utility.yul\":29965:29980   */\n      revert\n        /* \"#utility.yul\":29992:30183   */\n    tag_308:\n        /* \"#utility.yul\":30032:30035   */\n      0x00\n        /* \"#utility.yul\":30051:30071   */\n      tag_734\n        /* \"#utility.yul\":30069:30070   */\n      dup3\n        /* \"#utility.yul\":30051:30071   */\n      tag_348\n      jump\t// in\n    tag_734:\n        /* \"#utility.yul\":30046:30071   */\n      swap2\n      pop\n        /* \"#utility.yul\":30085:30105   */\n      tag_735\n        /* \"#utility.yul\":30103:30104   */\n      dup4\n        /* \"#utility.yul\":30085:30105   */\n      tag_348\n      jump\t// in\n    tag_735:\n        /* \"#utility.yul\":30080:30105   */\n      swap3\n      pop\n        /* \"#utility.yul\":30128:30129   */\n      dup3\n        /* \"#utility.yul\":30125:30126   */\n      dup3\n        /* \"#utility.yul\":30121:30130   */\n      add\n        /* \"#utility.yul\":30114:30130   */\n      swap1\n      pop\n        /* \"#utility.yul\":30149:30152   */\n      dup1\n        /* \"#utility.yul\":30146:30147   */\n      dup3\n        /* \"#utility.yul\":30143:30153   */\n      gt\n        /* \"#utility.yul\":30140:30176   */\n      iszero\n      tag_736\n      jumpi\n        /* \"#utility.yul\":30156:30174   */\n      tag_737\n      tag_410\n      jump\t// in\n    tag_737:\n        /* \"#utility.yul\":30140:30176   */\n    tag_736:\n        /* \"#utility.yul\":29992:30183   */\n      swap3\n      swap2\n      pop\n      pop\n      jump\t// out\n        /* \"#utility.yul\":30189:30742   */\n    tag_331:\n        /* \"#utility.yul\":30366:30370   */\n      0x00\n        /* \"#utility.yul\":30404:30407   */\n      0x80\n        /* \"#utility.yul\":30393:30402   */\n      dup3\n        /* \"#utility.yul\":30389:30408   */\n      add\n        /* \"#utility.yul\":30381:30408   */\n      swap1\n      pop\n        /* \"#utility.yul\":30418:30489   */\n      tag_739\n        /* \"#utility.yul\":30486:30487   */\n      0x00\n        /* \"#utility.yul\":30475:30484   */\n      dup4\n        /* \"#utility.yul\":30471:30488   */\n      add\n        /* \"#utility.yul\":30462:30468   */\n      dup8\n        /* \"#utility.yul\":30418:30489   */\n      tag_387\n      jump\t// in\n    tag_739:\n        /* \"#utility.yul\":30499:30571   */\n      tag_740\n        /* \"#utility.yul\":30567:30569   */\n      0x20\n        /* \"#utility.yul\":30556:30565   */\n      dup4\n        /* \"#utility.yul\":30552:30570   */\n      add\n        /* \"#utility.yul\":30543:30549   */\n      dup7\n        /* \"#utility.yul\":30499:30571   */\n      tag_351\n      jump\t// in\n    tag_740:\n        /* \"#utility.yul\":30581:30653   */\n      tag_741\n        /* \"#utility.yul\":30649:30651   */\n      0x40\n        /* \"#utility.yul\":30638:30647   */\n      dup4\n        /* \"#utility.yul\":30634:30652   */\n      add\n        /* \"#utility.yul\":30625:30631   */\n      dup6\n        /* \"#utility.yul\":30581:30653   */\n      tag_351\n      jump\t// in\n    tag_741:\n        /* \"#utility.yul\":30663:30735   */\n      tag_742\n        /* \"#utility.yul\":30731:30733   */\n      0x60\n        /* \"#utility.yul\":30720:30729   */\n      dup4\n        /* \"#utility.yul\":30716:30734   */\n      add\n        /* \"#utility.yul\":30707:30713   */\n      dup5\n        /* \"#utility.yul\":30663:30735   */\n      tag_351\n      jump\t// in\n    tag_742:\n        /* \"#utility.yul\":30189:30742   */\n      swap6\n      swap5\n      pop\n      pop\n      pop\n      pop\n      pop\n      jump\t// out\n        /* \"#utility.yul\":30748:31382   */\n    tag_340:\n        /* \"#utility.yul\":30969:30973   */\n      0x00\n        /* \"#utility.yul\":31007:31009   */\n      0x40\n        /* \"#utility.yul\":30996:31005   */\n      dup3\n        /* \"#utility.yul\":30992:31010   */\n      add\n        /* \"#utility.yul\":30984:31010   */\n      swap1\n      pop\n        /* \"#utility.yul\":31056:31065   */\n      dup2\n        /* \"#utility.yul\":31050:31054   */\n      dup2\n        /* \"#utility.yul\":31046:31066   */\n      sub\n        /* \"#utility.yul\":31042:31043   */\n      0x00\n        /* \"#utility.yul\":31031:31040   */\n      dup4\n        /* \"#utility.yul\":31027:31044   */\n      add\n        /* \"#utility.yul\":31020:31067   */\n      mstore\n        /* \"#utility.yul\":31084:31192   */\n      tag_744\n        /* \"#utility.yul\":31187:31191   */\n      dup2\n        /* \"#utility.yul\":31178:31184   */\n      dup6\n        /* \"#utility.yul\":31084:31192   */\n      tag_386\n      jump\t// in\n    tag_744:\n        /* \"#utility.yul\":31076:31192   */\n      swap1\n      pop\n        /* \"#utility.yul\":31239:31248   */\n      dup2\n        /* \"#utility.yul\":31233:31237   */\n      dup2\n        /* \"#utility.yul\":31229:31249   */\n      sub\n        /* \"#utility.yul\":31224:31226   */\n      0x20\n        /* \"#utility.yul\":31213:31222   */\n      dup4\n        /* \"#utility.yul\":31209:31227   */\n      add\n        /* \"#utility.yul\":31202:31250   */\n      mstore\n        /* \"#utility.yul\":31267:31375   */\n      tag_745\n        /* \"#utility.yul\":31370:31374   */\n      dup2\n        /* \"#utility.yul\":31361:31367   */\n      dup5\n        /* \"#utility.yul\":31267:31375   */\n      tag_386\n      jump\t// in\n    tag_745:\n        /* \"#utility.yul\":31259:31375   */\n      swap1\n      pop\n        /* \"#utility.yul\":30748:31382   */\n      swap4\n      swap3\n      pop\n      pop\n      pop\n      jump\t// out\n\n    auxdata: 0xa2646970667358221220c861dabef3cd0bfae055e46920ae4f30d86aa65a52e9807abd8a76fdb798f6b564736f6c63430008190033\n}\n",
				"bytecode": {
					"linkReferences": {},
					"object": "608060405234801561000f575f80fd5b50604051612fec380380612fec8339818101604052810190610031919061020b565b8060405180602001604052805f815250610050816100d760201b60201c565b505f73ffffffffffffffffffffffffffffffffffffffff168173ffffffffffffffffffffffffffffffffffffffff16036100c1575f6040517f1e4fbdf70000000000000000000000000000000000000000000000000000000081526004016100b89190610245565b60405180910390fd5b6100d0816100ea60201b60201c565b5050610567565b80600290816100e69190610498565b5050565b5f60035f9054906101000a900473ffffffffffffffffffffffffffffffffffffffff1690508160035f6101000a81548173ffffffffffffffffffffffffffffffffffffffff021916908373ffffffffffffffffffffffffffffffffffffffff1602179055508173ffffffffffffffffffffffffffffffffffffffff168173ffffffffffffffffffffffffffffffffffffffff167f8be0079c531659141344cd1fd0a4f28419497f9722a3daafe3b4186f6b6457e060405160405180910390a35050565b5f80fd5b5f73ffffffffffffffffffffffffffffffffffffffff82169050919050565b5f6101da826101b1565b9050919050565b6101ea816101d0565b81146101f4575f80fd5b50565b5f81519050610205816101e1565b92915050565b5f602082840312156102205761021f6101ad565b5b5f61022d848285016101f7565b91505092915050565b61023f816101d0565b82525050565b5f6020820190506102585f830184610236565b92915050565b5f81519050919050565b7f4e487b71000000000000000000000000000000000000000000000000000000005f52604160045260245ffd5b7f4e487b71000000000000000000000000000000000000000000000000000000005f52602260045260245ffd5b5f60028204905060018216806102d957607f821691505b6020821081036102ec576102eb610295565b5b50919050565b5f819050815f5260205f209050919050565b5f6020601f8301049050919050565b5f82821b905092915050565b5f6008830261034e7fffffffffffffffffffffffffffffffffffffffffffffffffffffffffffffffff82610313565b6103588683610313565b95508019841693508086168417925050509392505050565b5f819050919050565b5f819050919050565b5f61039c61039761039284610370565b610379565b610370565b9050919050565b5f819050919050565b6103b583610382565b6103c96103c1826103a3565b84845461031f565b825550505050565b5f90565b6103dd6103d1565b6103e88184846103ac565b505050565b5b8181101561040b576104005f826103d5565b6001810190506103ee565b5050565b601f82111561045057610421816102f2565b61042a84610304565b81016020851015610439578190505b61044d61044585610304565b8301826103ed565b50505b505050565b5f82821c905092915050565b5f6104705f1984600802610455565b1980831691505092915050565b5f6104888383610461565b9150826002028217905092915050565b6104a18261025e565b67ffffffffffffffff8111156104ba576104b9610268565b5b6104c482546102c2565b6104cf82828561040f565b5f60209050601f831160018114610500575f84156104ee578287015190505b6104f8858261047d565b86555061055f565b601f19841661050e866102f2565b5f5b8281101561053557848901518255600182019150602085019450602081019050610510565b86831015610552578489015161054e601f891682610461565b8355505b6001600288020188555050505b505050505050565b612a78806105745f395ff3fe608060405234801561000f575f80fd5b5060043610610113575f3560e01c80634f558e79116100a0578063a22cb4651161006f578063a22cb465146102d9578063bd85b039146102f5578063e985e9c514610325578063f242432a14610355578063f2fde38b1461037157610113565b80634f558e7914610265578063715018a6146102955780638da5cb5b1461029f57806394d008ef146102bd57610113565b8063127217d6116100e7578063127217d6146101c357806318160ddd146101df5780631f7fdffa146101fd5780632eb2c2d6146102195780634e1273f41461023557610113565b8062fdd58e1461011757806301ffc9a71461014757806302fe5305146101775780630e89341c14610193575b5f80fd5b610131600480360381019061012c9190611aa6565b61038d565b60405161013e9190611af3565b60405180910390f35b610161600480360381019061015c9190611b61565b6103e2565b60405161016e9190611ba6565b60405180910390f35b610191600480360381019061018c9190611cfb565b6104c3565b005b6101ad60048036038101906101a89190611d42565b6104d7565b6040516101ba9190611dcd565b60405180910390f35b6101dd60048036038101906101d89190611e8b565b610569565b005b6101e7610585565b6040516101f49190611af3565b60405180910390f35b61021760048036038101906102129190611fe2565b61058e565b005b610233600480360381019061022e919061209a565b6105a8565b005b61024f600480360381019061024a9190612225565b61064f565b60405161025c9190612352565b60405180910390f35b61027f600480360381019061027a9190611d42565b610756565b60405161028c9190611ba6565b60405180910390f35b61029d610769565b005b6102a761077c565b6040516102b49190612381565b60405180910390f35b6102d760048036038101906102d2919061239a565b6107a4565b005b6102f360048036038101906102ee9190612430565b610818565b005b61030f600480360381019061030a9190611d42565b61082e565b60405161031c9190611af3565b60405180910390f35b61033f600480360381019061033a919061246e565b610848565b60405161034c9190611ba6565b60405180910390f35b61036f600480360381019061036a9190611e8b565b6108d6565b005b61038b600480360381019061038691906124ac565b61097d565b005b5f805f8381526020019081526020015f205f8473ffffffffffffffffffffffffffffffffffffffff1673ffffffffffffffffffffffffffffffffffffffff1681526020019081526020015f2054905092915050565b5f7fd9b67a26000000000000000000000000000000000000000000000000000000007bffffffffffffffffffffffffffffffffffffffffffffffffffffffff1916827bffffffffffffffffffffffffffffffffffffffffffffffffffffffff191614806104ac57507f0e89341c000000000000000000000000000000000000000000000000000000007bffffffffffffffffffffffffffffffffffffffffffffffffffffffff1916827bffffffffffffffffffffffffffffffffffffffffffffffffffffffff1916145b806104bc57506104bb82610a01565b5b9050919050565b6104cb610a6a565b6104d481610af1565b50565b6060600280546104e690612504565b80601f016020809104026020016040519081016040528092919081815260200182805461051290612504565b801561055d5780601f106105345761010080835404028352916020019161055d565b820191905f5260205f20905b81548152906001019060200180831161054057829003601f168201915b50505050509050919050565b610571610a6a565b61057e8585858585610b04565b5050505050565b5f600554905090565b610596610a6a565b6105a284848484610c0a565b50505050565b5f6105b1610c8d565b90508073ffffffffffffffffffffffffffffffffffffffff168673ffffffffffffffffffffffffffffffffffffffff16141580156105f657506105f48682610848565b155b1561063a5780866040517fe237d922000000000000000000000000000000000000000000000000000000008152600401610631929190612534565b60405180910390fd5b6106478686868686610c94565b505050505050565b6060815183511461069b57815183516040517f5b05999100000000000000000000000000000000000000000000000000000000815260040161069292919061255b565b60405180910390fd5b5f835167ffffffffffffffff8111156106b7576106b6611bd7565b5b6040519080825280602002602001820160405280156106e55781602001602082028036833780820191505090505b5090505f5b845181101561074b576107216107098287610d8890919063ffffffff16565b61071c8387610d9b90919063ffffffff16565b61038d565b82828151811061073457610733612582565b5b6020026020010181815250508060010190506106ea565b508091505092915050565b5f806107618361082e565b119050919050565b610771610a6a565b61077a5f610dae565b565b5f60035f9054906101000a900473ffffffffffffffffffffffffffffffffffffffff16905090565b6107ac610a6a565b5f6107b76006610e71565b90506107c36006610e7d565b6107cf84828585610e91565b6107db84306001610f26565b7f23671a655a5b028acaa9a5c23db2113fa8bd161984ff35c7d2dd7f4f7b5f93a48160405161080a9190611af3565b60405180910390a150505050565b61082a610823610c8d565b8383610f26565b5050565b5f60045f8381526020019081526020015f20549050919050565b5f60015f8473ffffffffffffffffffffffffffffffffffffffff1673ffffffffffffffffffffffffffffffffffffffff1681526020019081526020015f205f8373ffffffffffffffffffffffffffffffffffffffff1673ffffffffffffffffffffffffffffffffffffffff1681526020019081526020015f205f9054906101000a900460ff16905092915050565b5f6108df610c8d565b90508073ffffffffffffffffffffffffffffffffffffffff168673ffffffffffffffffffffffffffffffffffffffff161415801561092457506109228682610848565b155b156109685780866040517fe237d92200000000000000000000000000000000000000000000000000000000815260040161095f929190612534565b60405180910390fd5b6109758686868686610b04565b505050505050565b610985610a6a565b5f73ffffffffffffffffffffffffffffffffffffffff168173ffffffffffffffffffffffffffffffffffffffff16036109f5575f6040517f1e4fbdf70000000000000000000000000000000000000000000000000000000081526004016109ec9190612381565b60405180910390fd5b6109fe81610dae565b50565b5f7f01ffc9a7000000000000000000000000000000000000000000000000000000007bffffffffffffffffffffffffffffffffffffffffffffffffffffffff1916827bffffffffffffffffffffffffffffffffffffffffffffffffffffffff1916149050919050565b610a72610c8d565b73ffffffffffffffffffffffffffffffffffffffff16610a9061077c565b73ffffffffffffffffffffffffffffffffffffffff1614610aef57610ab3610c8d565b6040517f118cdaa7000000000000000000000000000000000000000000000000000000008152600401610ae69190612381565b60405180910390fd5b565b8060029081610b00919061274c565b5050565b5f73ffffffffffffffffffffffffffffffffffffffff168473ffffffffffffffffffffffffffffffffffffffff1603610b74575f6040517f57f447ce000000000000000000000000000000000000000000000000000000008152600401610b6b9190612381565b60405180910390fd5b5f73ffffffffffffffffffffffffffffffffffffffff168573ffffffffffffffffffffffffffffffffffffffff1603610be4575f6040517f01a83514000000000000000000000000000000000000000000000000000000008152600401610bdb9190612381565b60405180910390fd5b5f80610bf0858561108f565b91509150610c0187878484876110bf565b50505050505050565b5f73ffffffffffffffffffffffffffffffffffffffff168473ffffffffffffffffffffffffffffffffffffffff1603610c7a575f6040517f57f447ce000000000000000000000000000000000000000000000000000000008152600401610c719190612381565b60405180910390fd5b610c875f858585856110bf565b50505050565b5f33905090565b5f73ffffffffffffffffffffffffffffffffffffffff168473ffffffffffffffffffffffffffffffffffffffff1603610d04575f6040517f57f447ce000000000000000000000000000000000000000000000000000000008152600401610cfb9190612381565b60405180910390fd5b5f73ffffffffffffffffffffffffffffffffffffffff168573ffffffffffffffffffffffffffffffffffffffff1603610d74575f6040517f01a83514000000000000000000000000000000000000000000000000000000008152600401610d6b9190612381565b60405180910390fd5b610d8185858585856110bf565b5050505050565b5f60208202602084010151905092915050565b5f60208202602084010151905092915050565b5f60035f9054906101000a900473ffffffffffffffffffffffffffffffffffffffff1690508160035f6101000a81548173ffffffffffffffffffffffffffffffffffffffff021916908373ffffffffffffffffffffffffffffffffffffffff1602179055508173ffffffffffffffffffffffffffffffffffffffff168173ffffffffffffffffffffffffffffffffffffffff167f8be0079c531659141344cd1fd0a4f28419497f9722a3daafe3b4186f6b6457e060405160405180910390a35050565b5f815f01549050919050565b6001815f015f828254019250508190555050565b5f73ffffffffffffffffffffffffffffffffffffffff168473ffffffffffffffffffffffffffffffffffffffff1603610f01575f6040517f57f447ce000000000000000000000000000000000000000000000000000000008152600401610ef89190612381565b60405180910390fd5b5f80610f0d858561108f565b91509150610f1e5f878484876110bf565b505050505050565b5f73ffffffffffffffffffffffffffffffffffffffff168273ffffffffffffffffffffffffffffffffffffffff1603610f96575f6040517fced3e100000000000000000000000000000000000000000000000000000000008152600401610f8d9190612381565b60405180910390fd5b8060015f8573ffffffffffffffffffffffffffffffffffffffff1673ffffffffffffffffffffffffffffffffffffffff1681526020019081526020015f205f8473ffffffffffffffffffffffffffffffffffffffff1673ffffffffffffffffffffffffffffffffffffffff1681526020019081526020015f205f6101000a81548160ff0219169083151502179055508173ffffffffffffffffffffffffffffffffffffffff168373ffffffffffffffffffffffffffffffffffffffff167f17307eab39ab6107e8899845ad3d59bd9653f200f220920489ca2b5937696c31836040516110829190611ba6565b60405180910390a3505050565b60608060405191506001825283602083015260408201905060018152826020820152604081016040529250929050565b6110cb8585858561116b565b5f73ffffffffffffffffffffffffffffffffffffffff168473ffffffffffffffffffffffffffffffffffffffff1614611164575f611107610c8d565b90506001845103611153575f6111265f86610d9b90919063ffffffff16565b90505f61113c5f86610d9b90919063ffffffff16565b905061114c83898985858961117d565b5050611162565b61116181878787878761132c565b5b505b5050505050565b611177848484846114db565b50505050565b5f8473ffffffffffffffffffffffffffffffffffffffff163b1115611324578373ffffffffffffffffffffffffffffffffffffffff1663f23a6e6187878686866040518663ffffffff1660e01b81526004016111dd95949392919061286d565b6020604051808303815f875af192505050801561121857506040513d601f19601f8201168201806040525081019061121591906128d9565b60015b611299573d805f8114611246576040519150601f19603f3d011682016040523d82523d5f602084013e61124b565b606091505b505f81510361129157846040517f57f447ce0000000000000000000000000000000000000000000000000000000081526004016112889190612381565b60405180910390fd5b805181602001fd5b63f23a6e6160e01b7bffffffffffffffffffffffffffffffffffffffffffffffffffffffff1916817bffffffffffffffffffffffffffffffffffffffffffffffffffffffff19161461132257846040517f57f447ce0000000000000000000000000000000000000000000000000000000081526004016113199190612381565b60405180910390fd5b505b505050505050565b5f8473ffffffffffffffffffffffffffffffffffffffff163b11156114d3578373ffffffffffffffffffffffffffffffffffffffff1663bc197c8187878686866040518663ffffffff1660e01b815260040161138c959493929190612904565b6020604051808303815f875af19250505080156113c757506040513d601f19601f820116820180604052508101906113c491906128d9565b60015b611448573d805f81146113f5576040519150601f19603f3d011682016040523d82523d5f602084013e6113fa565b606091505b505f81510361144057846040517f57f447ce0000000000000000000000000000000000000000000000000000000081526004016114379190612381565b60405180910390fd5b805181602001fd5b63bc197c8160e01b7bffffffffffffffffffffffffffffffffffffffffffffffffffffffff1916817bffffffffffffffffffffffffffffffffffffffffffffffffffffffff1916146114d157846040517f57f447ce0000000000000000000000000000000000000000000000000000000081526004016114c89190612381565b60405180910390fd5b505b505050505050565b6114e784848484611678565b5f73ffffffffffffffffffffffffffffffffffffffff168473ffffffffffffffffffffffffffffffffffffffff16036115ba575f805b835181101561159f575f83828151811061153a57611539612582565b5b602002602001015190508060045f87858151811061155b5761155a612582565b5b602002602001015181526020019081526020015f205f82825461157e9190612997565b9250508190555080836115919190612997565b92505080600101905061151d565b508060055f8282546115b19190612997565b92505081905550505b5f73ffffffffffffffffffffffffffffffffffffffff168373ffffffffffffffffffffffffffffffffffffffff1603611672575f805b8351811015611660575f83828151811061160d5761160c612582565b5b602002602001015190508060045f87858151811061162e5761162d612582565b5b602002602001015181526020019081526020015f205f82825403925050819055508083019250508060010190506115f0565b508060055f8282540392505081905550505b50505050565b80518251146116c257815181516040517f5b0599910000000000000000000000000000000000000000000000000000000081526004016116b992919061255b565b60405180910390fd5b5f6116cb610c8d565b90505f5b83518110156118c7575f6116ec8286610d9b90919063ffffffff16565b90505f6117028386610d9b90919063ffffffff16565b90505f73ffffffffffffffffffffffffffffffffffffffff168873ffffffffffffffffffffffffffffffffffffffff1614611825575f805f8481526020019081526020015f205f8a73ffffffffffffffffffffffffffffffffffffffff1673ffffffffffffffffffffffffffffffffffffffff1681526020019081526020015f20549050818110156117d157888183856040517f03dee4c50000000000000000000000000000000000000000000000000000000081526004016117c894939291906129ca565b60405180910390fd5b8181035f808581526020019081526020015f205f8b73ffffffffffffffffffffffffffffffffffffffff1673ffffffffffffffffffffffffffffffffffffffff1681526020019081526020015f2081905550505b5f73ffffffffffffffffffffffffffffffffffffffff168773ffffffffffffffffffffffffffffffffffffffff16146118ba57805f808481526020019081526020015f205f8973ffffffffffffffffffffffffffffffffffffffff1673ffffffffffffffffffffffffffffffffffffffff1681526020019081526020015f205f8282546118b29190612997565b925050819055505b50508060010190506116cf565b506001835103611982575f6118e55f85610d9b90919063ffffffff16565b90505f6118fb5f85610d9b90919063ffffffff16565b90508573ffffffffffffffffffffffffffffffffffffffff168773ffffffffffffffffffffffffffffffffffffffff168473ffffffffffffffffffffffffffffffffffffffff167fc3d58168c5ae7397731d063d5bbf3d657854427343f4c083240f7aacaa2d0f62858560405161197392919061255b565b60405180910390a45050611a01565b8373ffffffffffffffffffffffffffffffffffffffff168573ffffffffffffffffffffffffffffffffffffffff168273ffffffffffffffffffffffffffffffffffffffff167f4a39dc06d4c0dbc64b70af90fd698a233a518aa5d07e595d983b8c0526c8f7fb86866040516119f8929190612a0d565b60405180910390a45b5050505050565b5f604051905090565b5f80fd5b5f80fd5b5f73ffffffffffffffffffffffffffffffffffffffff82169050919050565b5f611a4282611a19565b9050919050565b611a5281611a38565b8114611a5c575f80fd5b50565b5f81359050611a6d81611a49565b92915050565b5f819050919050565b611a8581611a73565b8114611a8f575f80fd5b50565b5f81359050611aa081611a7c565b92915050565b5f8060408385031215611abc57611abb611a11565b5b5f611ac985828601611a5f565b9250506020611ada85828601611a92565b9150509250929050565b611aed81611a73565b82525050565b5f602082019050611b065f830184611ae4565b92915050565b5f7fffffffff0000000000000000000000000000000000000000000000000000000082169050919050565b611b4081611b0c565b8114611b4a575f80fd5b50565b5f81359050611b5b81611b37565b92915050565b5f60208284031215611b7657611b75611a11565b5b5f611b8384828501611b4d565b91505092915050565b5f8115159050919050565b611ba081611b8c565b82525050565b5f602082019050611bb95f830184611b97565b92915050565b5f80fd5b5f80fd5b5f601f19601f8301169050919050565b7f4e487b71000000000000000000000000000000000000000000000000000000005f52604160045260245ffd5b611c0d82611bc7565b810181811067ffffffffffffffff82111715611c2c57611c2b611bd7565b5b80604052505050565b5f611c3e611a08565b9050611c4a8282611c04565b919050565b5f67ffffffffffffffff821115611c6957611c68611bd7565b5b611c7282611bc7565b9050602081019050919050565b828183375f83830152505050565b5f611c9f611c9a84611c4f565b611c35565b905082815260208101848484011115611cbb57611cba611bc3565b5b611cc6848285611c7f565b509392505050565b5f82601f830112611ce257611ce1611bbf565b5b8135611cf2848260208601611c8d565b91505092915050565b5f60208284031215611d1057611d0f611a11565b5b5f82013567ffffffffffffffff811115611d2d57611d2c611a15565b5b611d3984828501611cce565b91505092915050565b5f60208284031215611d5757611d56611a11565b5b5f611d6484828501611a92565b91505092915050565b5f81519050919050565b5f82825260208201905092915050565b8281835e5f83830152505050565b5f611d9f82611d6d565b611da98185611d77565b9350611db9818560208601611d87565b611dc281611bc7565b840191505092915050565b5f6020820190508181035f830152611de58184611d95565b905092915050565b5f67ffffffffffffffff821115611e0757611e06611bd7565b5b611e1082611bc7565b9050602081019050919050565b5f611e2f611e2a84611ded565b611c35565b905082815260208101848484011115611e4b57611e4a611bc3565b5b611e56848285611c7f565b509392505050565b5f82601f830112611e7257611e71611bbf565b5b8135611e82848260208601611e1d565b91505092915050565b5f805f805f60a08688031215611ea457611ea3611a11565b5b5f611eb188828901611a5f565b9550506020611ec288828901611a5f565b9450506040611ed388828901611a92565b9350506060611ee488828901611a92565b925050608086013567ffffffffffffffff811115611f0557611f04611a15565b5b611f1188828901611e5e565b9150509295509295909350565b5f67ffffffffffffffff821115611f3857611f37611bd7565b5b602082029050602081019050919050565b5f80fd5b5f611f5f611f5a84611f1e565b611c35565b90508083825260208201905060208402830185811115611f8257611f81611f49565b5b835b81811015611fab5780611f978882611a92565b845260208401935050602081019050611f84565b5050509392505050565b5f82601f830112611fc957611fc8611bbf565b5b8135611fd9848260208601611f4d565b91505092915050565b5f805f8060808587031215611ffa57611ff9611a11565b5b5f61200787828801611a5f565b945050602085013567ffffffffffffffff81111561202857612027611a15565b5b61203487828801611fb5565b935050604085013567ffffffffffffffff81111561205557612054611a15565b5b61206187828801611fb5565b925050606085013567ffffffffffffffff81111561208257612081611a15565b5b61208e87828801611e5e565b91505092959194509250565b5f805f805f60a086880312156120b3576120b2611a11565b5b5f6120c088828901611a5f565b95505060206120d188828901611a5f565b945050604086013567ffffffffffffffff8111156120f2576120f1611a15565b5b6120fe88828901611fb5565b935050606086013567ffffffffffffffff81111561211f5761211e611a15565b5b61212b88828901611fb5565b925050608086013567ffffffffffffffff81111561214c5761214b611a15565b5b61215888828901611e5e565b9150509295509295909350565b5f67ffffffffffffffff82111561217f5761217e611bd7565b5b602082029050602081019050919050565b5f6121a261219d84612165565b611c35565b905080838252602082019050602084028301858111156121c5576121c4611f49565b5b835b818110156121ee57806121da8882611a5f565b8452602084019350506020810190506121c7565b5050509392505050565b5f82601f83011261220c5761220b611bbf565b5b813561221c848260208601612190565b91505092915050565b5f806040838503121561223b5761223a611a11565b5b5f83013567ffffffffffffffff81111561225857612257611a15565b5b612264858286016121f8565b925050602083013567ffffffffffffffff81111561228557612284611a15565b5b61229185828601611fb5565b9150509250929050565b5f81519050919050565b5f82825260208201905092915050565b5f819050602082019050919050565b6122cd81611a73565b82525050565b5f6122de83836122c4565b60208301905092915050565b5f602082019050919050565b5f6123008261229b565b61230a81856122a5565b9350612315836122b5565b805f5b8381101561234557815161232c88826122d3565b9750612337836122ea565b925050600181019050612318565b5085935050505092915050565b5f6020820190508181035f83015261236a81846122f6565b905092915050565b61237b81611a38565b82525050565b5f6020820190506123945f830184612372565b92915050565b5f805f606084860312156123b1576123b0611a11565b5b5f6123be86828701611a5f565b93505060206123cf86828701611a92565b925050604084013567ffffffffffffffff8111156123f0576123ef611a15565b5b6123fc86828701611e5e565b9150509250925092565b61240f81611b8c565b8114612419575f80fd5b50565b5f8135905061242a81612406565b92915050565b5f806040838503121561244657612445611a11565b5b5f61245385828601611a5f565b92505060206124648582860161241c565b9150509250929050565b5f806040838503121561248457612483611a11565b5b5f61249185828601611a5f565b92505060206124a285828601611a5f565b9150509250929050565b5f602082840312156124c1576124c0611a11565b5b5f6124ce84828501611a5f565b91505092915050565b7f4e487b71000000000000000000000000000000000000000000000000000000005f52602260045260245ffd5b5f600282049050600182168061251b57607f821691505b60208210810361252e5761252d6124d7565b5b50919050565b5f6040820190506125475f830185612372565b6125546020830184612372565b9392505050565b5f60408201905061256e5f830185611ae4565b61257b6020830184611ae4565b9392505050565b7f4e487b71000000000000000000000000000000000000000000000000000000005f52603260045260245ffd5b5f819050815f5260205f209050919050565b5f6020601f8301049050919050565b5f82821b905092915050565b5f6008830261260b7fffffffffffffffffffffffffffffffffffffffffffffffffffffffffffffffff826125d0565b61261586836125d0565b95508019841693508086168417925050509392505050565b5f819050919050565b5f61265061264b61264684611a73565b61262d565b611a73565b9050919050565b5f819050919050565b61266983612636565b61267d61267582612657565b8484546125dc565b825550505050565b5f90565b612691612685565b61269c818484612660565b505050565b5b818110156126bf576126b45f82612689565b6001810190506126a2565b5050565b601f821115612704576126d5816125af565b6126de846125c1565b810160208510156126ed578190505b6127016126f9856125c1565b8301826126a1565b50505b505050565b5f82821c905092915050565b5f6127245f1984600802612709565b1980831691505092915050565b5f61273c8383612715565b9150826002028217905092915050565b61275582611d6d565b67ffffffffffffffff81111561276e5761276d611bd7565b5b6127788254612504565b6127838282856126c3565b5f60209050601f8311600181146127b4575f84156127a2578287015190505b6127ac8582612731565b865550612813565b601f1984166127c2866125af565b5f5b828110156127e9578489015182556001820191506020850194506020810190506127c4565b868310156128065784890151612802601f891682612715565b8355505b6001600288020188555050505b505050505050565b5f81519050919050565b5f82825260208201905092915050565b5f61283f8261281b565b6128498185612825565b9350612859818560208601611d87565b61286281611bc7565b840191505092915050565b5f60a0820190506128805f830188612372565b61288d6020830187612372565b61289a6040830186611ae4565b6128a76060830185611ae4565b81810360808301526128b98184612835565b90509695505050505050565b5f815190506128d381611b37565b92915050565b5f602082840312156128ee576128ed611a11565b5b5f6128fb848285016128c5565b91505092915050565b5f60a0820190506129175f830188612372565b6129246020830187612372565b818103604083015261293681866122f6565b9050818103606083015261294a81856122f6565b9050818103608083015261295e8184612835565b90509695505050505050565b7f4e487b71000000000000000000000000000000000000000000000000000000005f52601160045260245ffd5b5f6129a182611a73565b91506129ac83611a73565b92508282019050808211156129c4576129c361296a565b5b92915050565b5f6080820190506129dd5f830187612372565b6129ea6020830186611ae4565b6129f76040830185611ae4565b612a046060830184611ae4565b95945050505050565b5f6040820190508181035f830152612a2581856122f6565b90508181036020830152612a3981846122f6565b9050939250505056fea2646970667358221220c861dabef3cd0bfae055e46920ae4f30d86aa65a52e9807abd8a76fdb798f6b564736f6c63430008190033",
					"opcodes": "PUSH1 0x80 PUSH1 0x40 MSTORE CALLVALUE DUP1 ISZERO PUSH2 0xF JUMPI PUSH0 DUP1 REVERT JUMPDEST POP PUSH1 0x40 MLOAD PUSH2 0x2FEC CODESIZE SUB DUP1 PUSH2 0x2FEC DUP4 CODECOPY DUP2 DUP2 ADD PUSH1 0x40 MSTORE DUP2 ADD SWAP1 PUSH2 0x31 SWAP2 SWAP1 PUSH2 0x20B JUMP JUMPDEST DUP1 PUSH1 0x40 MLOAD DUP1 PUSH1 0x20 ADD PUSH1 0x40 MSTORE DUP1 PUSH0 DUP2 MSTORE POP PUSH2 0x50 DUP2 PUSH2 0xD7 PUSH1 0x20 SHL PUSH1 0x20 SHR JUMP JUMPDEST POP PUSH0 PUSH20 0xFFFFFFFFFFFFFFFFFFFFFFFFFFFFFFFFFFFFFFFF AND DUP2 PUSH20 0xFFFFFFFFFFFFFFFFFFFFFFFFFFFFFFFFFFFFFFFF AND SUB PUSH2 0xC1 JUMPI PUSH0 PUSH1 0x40 MLOAD PUSH32 0x1E4FBDF700000000000000000000000000000000000000000000000000000000 DUP2 MSTORE PUSH1 0x4 ADD PUSH2 0xB8 SWAP2 SWAP1 PUSH2 0x245 JUMP JUMPDEST PUSH1 0x40 MLOAD DUP1 SWAP2 SUB SWAP1 REVERT JUMPDEST PUSH2 0xD0 DUP2 PUSH2 0xEA PUSH1 0x20 SHL PUSH1 0x20 SHR JUMP JUMPDEST POP POP PUSH2 0x567 JUMP JUMPDEST DUP1 PUSH1 0x2 SWAP1 DUP2 PUSH2 0xE6 SWAP2 SWAP1 PUSH2 0x498 JUMP JUMPDEST POP POP JUMP JUMPDEST PUSH0 PUSH1 0x3 PUSH0 SWAP1 SLOAD SWAP1 PUSH2 0x100 EXP SWAP1 DIV PUSH20 0xFFFFFFFFFFFFFFFFFFFFFFFFFFFFFFFFFFFFFFFF AND SWAP1 POP DUP2 PUSH1 0x3 PUSH0 PUSH2 0x100 EXP DUP2 SLOAD DUP2 PUSH20 0xFFFFFFFFFFFFFFFFFFFFFFFFFFFFFFFFFFFFFFFF MUL NOT AND SWAP1 DUP4 PUSH20 0xFFFFFFFFFFFFFFFFFFFFFFFFFFFFFFFFFFFFFFFF AND MUL OR SWAP1 SSTORE POP DUP2 PUSH20 0xFFFFFFFFFFFFFFFFFFFFFFFFFFFFFFFFFFFFFFFF AND DUP2 PUSH20 0xFFFFFFFFFFFFFFFFFFFFFFFFFFFFFFFFFFFFFFFF AND PUSH32 0x8BE0079C531659141344CD1FD0A4F28419497F9722A3DAAFE3B4186F6B6457E0 PUSH1 0x40 MLOAD PUSH1 0x40 MLOAD DUP1 SWAP2 SUB SWAP1 LOG3 POP POP JUMP JUMPDEST PUSH0 DUP1 REVERT JUMPDEST PUSH0 PUSH20 0xFFFFFFFFFFFFFFFFFFFFFFFFFFFFFFFFFFFFFFFF DUP3 AND SWAP1 POP SWAP2 SWAP1 POP JUMP JUMPDEST PUSH0 PUSH2 0x1DA DUP3 PUSH2 0x1B1 JUMP JUMPDEST SWAP1 POP SWAP2 SWAP1 POP JUMP JUMPDEST PUSH2 0x1EA DUP2 PUSH2 0x1D0 JUMP JUMPDEST DUP2 EQ PUSH2 0x1F4 JUMPI PUSH0 DUP1 REVERT JUMPDEST POP JUMP JUMPDEST PUSH0 DUP2 MLOAD SWAP1 POP PUSH2 0x205 DUP2 PUSH2 0x1E1 JUMP JUMPDEST SWAP3 SWAP2 POP POP JUMP JUMPDEST PUSH0 PUSH1 0x20 DUP3 DUP5 SUB SLT ISZERO PUSH2 0x220 JUMPI PUSH2 0x21F PUSH2 0x1AD JUMP JUMPDEST JUMPDEST PUSH0 PUSH2 0x22D DUP5 DUP3 DUP6 ADD PUSH2 0x1F7 JUMP JUMPDEST SWAP2 POP POP SWAP3 SWAP2 POP POP JUMP JUMPDEST PUSH2 0x23F DUP2 PUSH2 0x1D0 JUMP JUMPDEST DUP3 MSTORE POP POP JUMP JUMPDEST PUSH0 PUSH1 0x20 DUP3 ADD SWAP1 POP PUSH2 0x258 PUSH0 DUP4 ADD DUP5 PUSH2 0x236 JUMP JUMPDEST SWAP3 SWAP2 POP POP JUMP JUMPDEST PUSH0 DUP2 MLOAD SWAP1 POP SWAP2 SWAP1 POP JUMP JUMPDEST PUSH32 0x4E487B7100000000000000000000000000000000000000000000000000000000 PUSH0 MSTORE PUSH1 0x41 PUSH1 0x4 MSTORE PUSH1 0x24 PUSH0 REVERT JUMPDEST PUSH32 0x4E487B7100000000000000000000000000000000000000000000000000000000 PUSH0 MSTORE PUSH1 0x22 PUSH1 0x4 MSTORE PUSH1 0x24 PUSH0 REVERT JUMPDEST PUSH0 PUSH1 0x2 DUP3 DIV SWAP1 POP PUSH1 0x1 DUP3 AND DUP1 PUSH2 0x2D9 JUMPI PUSH1 0x7F DUP3 AND SWAP2 POP JUMPDEST PUSH1 0x20 DUP3 LT DUP2 SUB PUSH2 0x2EC JUMPI PUSH2 0x2EB PUSH2 0x295 JUMP JUMPDEST JUMPDEST POP SWAP2 SWAP1 POP JUMP JUMPDEST PUSH0 DUP2 SWAP1 POP DUP2 PUSH0 MSTORE PUSH1 0x20 PUSH0 KECCAK256 SWAP1 POP SWAP2 SWAP1 POP JUMP JUMPDEST PUSH0 PUSH1 0x20 PUSH1 0x1F DUP4 ADD DIV SWAP1 POP SWAP2 SWAP1 POP JUMP JUMPDEST PUSH0 DUP3 DUP3 SHL SWAP1 POP SWAP3 SWAP2 POP POP JUMP JUMPDEST PUSH0 PUSH1 0x8 DUP4 MUL PUSH2 0x34E PUSH32 0xFFFFFFFFFFFFFFFFFFFFFFFFFFFFFFFFFFFFFFFFFFFFFFFFFFFFFFFFFFFFFFFF DUP3 PUSH2 0x313 JUMP JUMPDEST PUSH2 0x358 DUP7 DUP4 PUSH2 0x313 JUMP JUMPDEST SWAP6 POP DUP1 NOT DUP5 AND SWAP4 POP DUP1 DUP7 AND DUP5 OR SWAP3 POP POP POP SWAP4 SWAP3 POP POP POP JUMP JUMPDEST PUSH0 DUP2 SWAP1 POP SWAP2 SWAP1 POP JUMP JUMPDEST PUSH0 DUP2 SWAP1 POP SWAP2 SWAP1 POP JUMP JUMPDEST PUSH0 PUSH2 0x39C PUSH2 0x397 PUSH2 0x392 DUP5 PUSH2 0x370 JUMP JUMPDEST PUSH2 0x379 JUMP JUMPDEST PUSH2 0x370 JUMP JUMPDEST SWAP1 POP SWAP2 SWAP1 POP JUMP JUMPDEST PUSH0 DUP2 SWAP1 POP SWAP2 SWAP1 POP JUMP JUMPDEST PUSH2 0x3B5 DUP4 PUSH2 0x382 JUMP JUMPDEST PUSH2 0x3C9 PUSH2 0x3C1 DUP3 PUSH2 0x3A3 JUMP JUMPDEST DUP5 DUP5 SLOAD PUSH2 0x31F JUMP JUMPDEST DUP3 SSTORE POP POP POP POP JUMP JUMPDEST PUSH0 SWAP1 JUMP JUMPDEST PUSH2 0x3DD PUSH2 0x3D1 JUMP JUMPDEST PUSH2 0x3E8 DUP2 DUP5 DUP5 PUSH2 0x3AC JUMP JUMPDEST POP POP POP JUMP JUMPDEST JUMPDEST DUP2 DUP2 LT ISZERO PUSH2 0x40B JUMPI PUSH2 0x400 PUSH0 DUP3 PUSH2 0x3D5 JUMP JUMPDEST PUSH1 0x1 DUP2 ADD SWAP1 POP PUSH2 0x3EE JUMP JUMPDEST POP POP JUMP JUMPDEST PUSH1 0x1F DUP3 GT ISZERO PUSH2 0x450 JUMPI PUSH2 0x421 DUP2 PUSH2 0x2F2 JUMP JUMPDEST PUSH2 0x42A DUP5 PUSH2 0x304 JUMP JUMPDEST DUP2 ADD PUSH1 0x20 DUP6 LT ISZERO PUSH2 0x439 JUMPI DUP2 SWAP1 POP JUMPDEST PUSH2 0x44D PUSH2 0x445 DUP6 PUSH2 0x304 JUMP JUMPDEST DUP4 ADD DUP3 PUSH2 0x3ED JUMP JUMPDEST POP POP JUMPDEST POP POP POP JUMP JUMPDEST PUSH0 DUP3 DUP3 SHR SWAP1 POP SWAP3 SWAP2 POP POP JUMP JUMPDEST PUSH0 PUSH2 0x470 PUSH0 NOT DUP5 PUSH1 0x8 MUL PUSH2 0x455 JUMP JUMPDEST NOT DUP1 DUP4 AND SWAP2 POP POP SWAP3 SWAP2 POP POP JUMP JUMPDEST PUSH0 PUSH2 0x488 DUP4 DUP4 PUSH2 0x461 JUMP JUMPDEST SWAP2 POP DUP3 PUSH1 0x2 MUL DUP3 OR SWAP1 POP SWAP3 SWAP2 POP POP JUMP JUMPDEST PUSH2 0x4A1 DUP3 PUSH2 0x25E JUMP JUMPDEST PUSH8 0xFFFFFFFFFFFFFFFF DUP2 GT ISZERO PUSH2 0x4BA JUMPI PUSH2 0x4B9 PUSH2 0x268 JUMP JUMPDEST JUMPDEST PUSH2 0x4C4 DUP3 SLOAD PUSH2 0x2C2 JUMP JUMPDEST PUSH2 0x4CF DUP3 DUP3 DUP6 PUSH2 0x40F JUMP JUMPDEST PUSH0 PUSH1 0x20 SWAP1 POP PUSH1 0x1F DUP4 GT PUSH1 0x1 DUP2 EQ PUSH2 0x500 JUMPI PUSH0 DUP5 ISZERO PUSH2 0x4EE JUMPI DUP3 DUP8 ADD MLOAD SWAP1 POP JUMPDEST PUSH2 0x4F8 DUP6 DUP3 PUSH2 0x47D JUMP JUMPDEST DUP7 SSTORE POP PUSH2 0x55F JUMP JUMPDEST PUSH1 0x1F NOT DUP5 AND PUSH2 0x50E DUP7 PUSH2 0x2F2 JUMP JUMPDEST PUSH0 JUMPDEST DUP3 DUP2 LT ISZERO PUSH2 0x535 JUMPI DUP5 DUP10 ADD MLOAD DUP3 SSTORE PUSH1 0x1 DUP3 ADD SWAP2 POP PUSH1 0x20 DUP6 ADD SWAP5 POP PUSH1 0x20 DUP2 ADD SWAP1 POP PUSH2 0x510 JUMP JUMPDEST DUP7 DUP4 LT ISZERO PUSH2 0x552 JUMPI DUP5 DUP10 ADD MLOAD PUSH2 0x54E PUSH1 0x1F DUP10 AND DUP3 PUSH2 0x461 JUMP JUMPDEST DUP4 SSTORE POP JUMPDEST PUSH1 0x1 PUSH1 0x2 DUP9 MUL ADD DUP9 SSTORE POP POP POP JUMPDEST POP POP POP POP POP POP JUMP JUMPDEST PUSH2 0x2A78 DUP1 PUSH2 0x574 PUSH0 CODECOPY PUSH0 RETURN INVALID PUSH1 0x80 PUSH1 0x40 MSTORE CALLVALUE DUP1 ISZERO PUSH2 0xF JUMPI PUSH0 DUP1 REVERT JUMPDEST POP PUSH1 0x4 CALLDATASIZE LT PUSH2 0x113 JUMPI PUSH0 CALLDATALOAD PUSH1 0xE0 SHR DUP1 PUSH4 0x4F558E79 GT PUSH2 0xA0 JUMPI DUP1 PUSH4 0xA22CB465 GT PUSH2 0x6F JUMPI DUP1 PUSH4 0xA22CB465 EQ PUSH2 0x2D9 JUMPI DUP1 PUSH4 0xBD85B039 EQ PUSH2 0x2F5 JUMPI DUP1 PUSH4 0xE985E9C5 EQ PUSH2 0x325 JUMPI DUP1 PUSH4 0xF242432A EQ PUSH2 0x355 JUMPI DUP1 PUSH4 0xF2FDE38B EQ PUSH2 0x371 JUMPI PUSH2 0x113 JUMP JUMPDEST DUP1 PUSH4 0x4F558E79 EQ PUSH2 0x265 JUMPI DUP1 PUSH4 0x715018A6 EQ PUSH2 0x295 JUMPI DUP1 PUSH4 0x8DA5CB5B EQ PUSH2 0x29F JUMPI DUP1 PUSH4 0x94D008EF EQ PUSH2 0x2BD JUMPI PUSH2 0x113 JUMP JUMPDEST DUP1 PUSH4 0x127217D6 GT PUSH2 0xE7 JUMPI DUP1 PUSH4 0x127217D6 EQ PUSH2 0x1C3 JUMPI DUP1 PUSH4 0x18160DDD EQ PUSH2 0x1DF JUMPI DUP1 PUSH4 0x1F7FDFFA EQ PUSH2 0x1FD JUMPI DUP1 PUSH4 0x2EB2C2D6 EQ PUSH2 0x219 JUMPI DUP1 PUSH4 0x4E1273F4 EQ PUSH2 0x235 JUMPI PUSH2 0x113 JUMP JUMPDEST DUP1 PUSH3 0xFDD58E EQ PUSH2 0x117 JUMPI DUP1 PUSH4 0x1FFC9A7 EQ PUSH2 0x147 JUMPI DUP1 PUSH4 0x2FE5305 EQ PUSH2 0x177 JUMPI DUP1 PUSH4 0xE89341C EQ PUSH2 0x193 JUMPI JUMPDEST PUSH0 DUP1 REVERT JUMPDEST PUSH2 0x131 PUSH1 0x4 DUP1 CALLDATASIZE SUB DUP2 ADD SWAP1 PUSH2 0x12C SWAP2 SWAP1 PUSH2 0x1AA6 JUMP JUMPDEST PUSH2 0x38D JUMP JUMPDEST PUSH1 0x40 MLOAD PUSH2 0x13E SWAP2 SWAP1 PUSH2 0x1AF3 JUMP JUMPDEST PUSH1 0x40 MLOAD DUP1 SWAP2 SUB SWAP1 RETURN JUMPDEST PUSH2 0x161 PUSH1 0x4 DUP1 CALLDATASIZE SUB DUP2 ADD SWAP1 PUSH2 0x15C SWAP2 SWAP1 PUSH2 0x1B61 JUMP JUMPDEST PUSH2 0x3E2 JUMP JUMPDEST PUSH1 0x40 MLOAD PUSH2 0x16E SWAP2 SWAP1 PUSH2 0x1BA6 JUMP JUMPDEST PUSH1 0x40 MLOAD DUP1 SWAP2 SUB SWAP1 RETURN JUMPDEST PUSH2 0x191 PUSH1 0x4 DUP1 CALLDATASIZE SUB DUP2 ADD SWAP1 PUSH2 0x18C SWAP2 SWAP1 PUSH2 0x1CFB JUMP JUMPDEST PUSH2 0x4C3 JUMP JUMPDEST STOP JUMPDEST PUSH2 0x1AD PUSH1 0x4 DUP1 CALLDATASIZE SUB DUP2 ADD SWAP1 PUSH2 0x1A8 SWAP2 SWAP1 PUSH2 0x1D42 JUMP JUMPDEST PUSH2 0x4D7 JUMP JUMPDEST PUSH1 0x40 MLOAD PUSH2 0x1BA SWAP2 SWAP1 PUSH2 0x1DCD JUMP JUMPDEST PUSH1 0x40 MLOAD DUP1 SWAP2 SUB SWAP1 RETURN JUMPDEST PUSH2 0x1DD PUSH1 0x4 DUP1 CALLDATASIZE SUB DUP2 ADD SWAP1 PUSH2 0x1D8 SWAP2 SWAP1 PUSH2 0x1E8B JUMP JUMPDEST PUSH2 0x569 JUMP JUMPDEST STOP JUMPDEST PUSH2 0x1E7 PUSH2 0x585 JUMP JUMPDEST PUSH1 0x40 MLOAD PUSH2 0x1F4 SWAP2 SWAP1 PUSH2 0x1AF3 JUMP JUMPDEST PUSH1 0x40 MLOAD DUP1 SWAP2 SUB SWAP1 RETURN JUMPDEST PUSH2 0x217 PUSH1 0x4 DUP1 CALLDATASIZE SUB DUP2 ADD SWAP1 PUSH2 0x212 SWAP2 SWAP1 PUSH2 0x1FE2 JUMP JUMPDEST PUSH2 0x58E JUMP JUMPDEST STOP JUMPDEST PUSH2 0x233 PUSH1 0x4 DUP1 CALLDATASIZE SUB DUP2 ADD SWAP1 PUSH2 0x22E SWAP2 SWAP1 PUSH2 0x209A JUMP JUMPDEST PUSH2 0x5A8 JUMP JUMPDEST STOP JUMPDEST PUSH2 0x24F PUSH1 0x4 DUP1 CALLDATASIZE SUB DUP2 ADD SWAP1 PUSH2 0x24A SWAP2 SWAP1 PUSH2 0x2225 JUMP JUMPDEST PUSH2 0x64F JUMP JUMPDEST PUSH1 0x40 MLOAD PUSH2 0x25C SWAP2 SWAP1 PUSH2 0x2352 JUMP JUMPDEST PUSH1 0x40 MLOAD DUP1 SWAP2 SUB SWAP1 RETURN JUMPDEST PUSH2 0x27F PUSH1 0x4 DUP1 CALLDATASIZE SUB DUP2 ADD SWAP1 PUSH2 0x27A SWAP2 SWAP1 PUSH2 0x1D42 JUMP JUMPDEST PUSH2 0x756 JUMP JUMPDEST PUSH1 0x40 MLOAD PUSH2 0x28C SWAP2 SWAP1 PUSH2 0x1BA6 JUMP JUMPDEST PUSH1 0x40 MLOAD DUP1 SWAP2 SUB SWAP1 RETURN JUMPDEST PUSH2 0x29D PUSH2 0x769 JUMP JUMPDEST STOP JUMPDEST PUSH2 0x2A7 PUSH2 0x77C JUMP JUMPDEST PUSH1 0x40 MLOAD PUSH2 0x2B4 SWAP2 SWAP1 PUSH2 0x2381 JUMP JUMPDEST PUSH1 0x40 MLOAD DUP1 SWAP2 SUB SWAP1 RETURN JUMPDEST PUSH2 0x2D7 PUSH1 0x4 DUP1 CALLDATASIZE SUB DUP2 ADD SWAP1 PUSH2 0x2D2 SWAP2 SWAP1 PUSH2 0x239A JUMP JUMPDEST PUSH2 0x7A4 JUMP JUMPDEST STOP JUMPDEST PUSH2 0x2F3 PUSH1 0x4 DUP1 CALLDATASIZE SUB DUP2 ADD SWAP1 PUSH2 0x2EE SWAP2 SWAP1 PUSH2 0x2430 JUMP JUMPDEST PUSH2 0x818 JUMP JUMPDEST STOP JUMPDEST PUSH2 0x30F PUSH1 0x4 DUP1 CALLDATASIZE SUB DUP2 ADD SWAP1 PUSH2 0x30A SWAP2 SWAP1 PUSH2 0x1D42 JUMP JUMPDEST PUSH2 0x82E JUMP JUMPDEST PUSH1 0x40 MLOAD PUSH2 0x31C SWAP2 SWAP1 PUSH2 0x1AF3 JUMP JUMPDEST PUSH1 0x40 MLOAD DUP1 SWAP2 SUB SWAP1 RETURN JUMPDEST PUSH2 0x33F PUSH1 0x4 DUP1 CALLDATASIZE SUB DUP2 ADD SWAP1 PUSH2 0x33A SWAP2 SWAP1 PUSH2 0x246E JUMP JUMPDEST PUSH2 0x848 JUMP JUMPDEST PUSH1 0x40 MLOAD PUSH2 0x34C SWAP2 SWAP1 PUSH2 0x1BA6 JUMP JUMPDEST PUSH1 0x40 MLOAD DUP1 SWAP2 SUB SWAP1 RETURN JUMPDEST PUSH2 0x36F PUSH1 0x4 DUP1 CALLDATASIZE SUB DUP2 ADD SWAP1 PUSH2 0x36A SWAP2 SWAP1 PUSH2 0x1E8B JUMP JUMPDEST PUSH2 0x8D6 JUMP JUMPDEST STOP JUMPDEST PUSH2 0x38B PUSH1 0x4 DUP1 CALLDATASIZE SUB DUP2 ADD SWAP1 PUSH2 0x386 SWAP2 SWAP1 PUSH2 0x24AC JUMP JUMPDEST PUSH2 0x97D JUMP JUMPDEST STOP JUMPDEST PUSH0 DUP1 PUSH0 DUP4 DUP2 MSTORE PUSH1 0x20 ADD SWAP1 DUP2 MSTORE PUSH1 0x20 ADD PUSH0 KECCAK256 PUSH0 DUP5 PUSH20 0xFFFFFFFFFFFFFFFFFFFFFFFFFFFFFFFFFFFFFFFF AND PUSH20 0xFFFFFFFFFFFFFFFFFFFFFFFFFFFFFFFFFFFFFFFF AND DUP2 MSTORE PUSH1 0x20 ADD SWAP1 DUP2 MSTORE PUSH1 0x20 ADD PUSH0 KECCAK256 SLOAD SWAP1 POP SWAP3 SWAP2 POP POP JUMP JUMPDEST PUSH0 PUSH32 0xD9B67A2600000000000000000000000000000000000000000000000000000000 PUSH28 0xFFFFFFFFFFFFFFFFFFFFFFFFFFFFFFFFFFFFFFFFFFFFFFFFFFFFFFFF NOT AND DUP3 PUSH28 0xFFFFFFFFFFFFFFFFFFFFFFFFFFFFFFFFFFFFFFFFFFFFFFFFFFFFFFFF NOT AND EQ DUP1 PUSH2 0x4AC JUMPI POP PUSH32 0xE89341C00000000000000000000000000000000000000000000000000000000 PUSH28 0xFFFFFFFFFFFFFFFFFFFFFFFFFFFFFFFFFFFFFFFFFFFFFFFFFFFFFFFF NOT AND DUP3 PUSH28 0xFFFFFFFFFFFFFFFFFFFFFFFFFFFFFFFFFFFFFFFFFFFFFFFFFFFFFFFF NOT AND EQ JUMPDEST DUP1 PUSH2 0x4BC JUMPI POP PUSH2 0x4BB DUP3 PUSH2 0xA01 JUMP JUMPDEST JUMPDEST SWAP1 POP SWAP2 SWAP1 POP JUMP JUMPDEST PUSH2 0x4CB PUSH2 0xA6A JUMP JUMPDEST PUSH2 0x4D4 DUP2 PUSH2 0xAF1 JUMP JUMPDEST POP JUMP JUMPDEST PUSH1 0x60 PUSH1 0x2 DUP1 SLOAD PUSH2 0x4E6 SWAP1 PUSH2 0x2504 JUMP JUMPDEST DUP1 PUSH1 0x1F ADD PUSH1 0x20 DUP1 SWAP2 DIV MUL PUSH1 0x20 ADD PUSH1 0x40 MLOAD SWAP1 DUP2 ADD PUSH1 0x40 MSTORE DUP1 SWAP3 SWAP2 SWAP1 DUP2 DUP2 MSTORE PUSH1 0x20 ADD DUP3 DUP1 SLOAD PUSH2 0x512 SWAP1 PUSH2 0x2504 JUMP JUMPDEST DUP1 ISZERO PUSH2 0x55D JUMPI DUP1 PUSH1 0x1F LT PUSH2 0x534 JUMPI PUSH2 0x100 DUP1 DUP4 SLOAD DIV MUL DUP4 MSTORE SWAP2 PUSH1 0x20 ADD SWAP2 PUSH2 0x55D JUMP JUMPDEST DUP3 ADD SWAP2 SWAP1 PUSH0 MSTORE PUSH1 0x20 PUSH0 KECCAK256 SWAP1 JUMPDEST DUP2 SLOAD DUP2 MSTORE SWAP1 PUSH1 0x1 ADD SWAP1 PUSH1 0x20 ADD DUP1 DUP4 GT PUSH2 0x540 JUMPI DUP3 SWAP1 SUB PUSH1 0x1F AND DUP3 ADD SWAP2 JUMPDEST POP POP POP POP POP SWAP1 POP SWAP2 SWAP1 POP JUMP JUMPDEST PUSH2 0x571 PUSH2 0xA6A JUMP JUMPDEST PUSH2 0x57E DUP6 DUP6 DUP6 DUP6 DUP6 PUSH2 0xB04 JUMP JUMPDEST POP POP POP POP POP JUMP JUMPDEST PUSH0 PUSH1 0x5 SLOAD SWAP1 POP SWAP1 JUMP JUMPDEST PUSH2 0x596 PUSH2 0xA6A JUMP JUMPDEST PUSH2 0x5A2 DUP5 DUP5 DUP5 DUP5 PUSH2 0xC0A JUMP JUMPDEST POP POP POP POP JUMP JUMPDEST PUSH0 PUSH2 0x5B1 PUSH2 0xC8D JUMP JUMPDEST SWAP1 POP DUP1 PUSH20 0xFFFFFFFFFFFFFFFFFFFFFFFFFFFFFFFFFFFFFFFF AND DUP7 PUSH20 0xFFFFFFFFFFFFFFFFFFFFFFFFFFFFFFFFFFFFFFFF AND EQ ISZERO DUP1 ISZERO PUSH2 0x5F6 JUMPI POP PUSH2 0x5F4 DUP7 DUP3 PUSH2 0x848 JUMP JUMPDEST ISZERO JUMPDEST ISZERO PUSH2 0x63A JUMPI DUP1 DUP7 PUSH1 0x40 MLOAD PUSH32 0xE237D92200000000000000000000000000000000000000000000000000000000 DUP2 MSTORE PUSH1 0x4 ADD PUSH2 0x631 SWAP3 SWAP2 SWAP1 PUSH2 0x2534 JUMP JUMPDEST PUSH1 0x40 MLOAD DUP1 SWAP2 SUB SWAP1 REVERT JUMPDEST PUSH2 0x647 DUP7 DUP7 DUP7 DUP7 DUP7 PUSH2 0xC94 JUMP JUMPDEST POP POP POP POP POP POP JUMP JUMPDEST PUSH1 0x60 DUP2 MLOAD DUP4 MLOAD EQ PUSH2 0x69B JUMPI DUP2 MLOAD DUP4 MLOAD PUSH1 0x40 MLOAD PUSH32 0x5B05999100000000000000000000000000000000000000000000000000000000 DUP2 MSTORE PUSH1 0x4 ADD PUSH2 0x692 SWAP3 SWAP2 SWAP1 PUSH2 0x255B JUMP JUMPDEST PUSH1 0x40 MLOAD DUP1 SWAP2 SUB SWAP1 REVERT JUMPDEST PUSH0 DUP4 MLOAD PUSH8 0xFFFFFFFFFFFFFFFF DUP2 GT ISZERO PUSH2 0x6B7 JUMPI PUSH2 0x6B6 PUSH2 0x1BD7 JUMP JUMPDEST JUMPDEST PUSH1 0x40 MLOAD SWAP1 DUP1 DUP3 MSTORE DUP1 PUSH1 0x20 MUL PUSH1 0x20 ADD DUP3 ADD PUSH1 0x40 MSTORE DUP1 ISZERO PUSH2 0x6E5 JUMPI DUP2 PUSH1 0x20 ADD PUSH1 0x20 DUP3 MUL DUP1 CALLDATASIZE DUP4 CALLDATACOPY DUP1 DUP3 ADD SWAP2 POP POP SWAP1 POP JUMPDEST POP SWAP1 POP PUSH0 JUMPDEST DUP5 MLOAD DUP2 LT ISZERO PUSH2 0x74B JUMPI PUSH2 0x721 PUSH2 0x709 DUP3 DUP8 PUSH2 0xD88 SWAP1 SWAP2 SWAP1 PUSH4 0xFFFFFFFF AND JUMP JUMPDEST PUSH2 0x71C DUP4 DUP8 PUSH2 0xD9B SWAP1 SWAP2 SWAP1 PUSH4 0xFFFFFFFF AND JUMP JUMPDEST PUSH2 0x38D JUMP JUMPDEST DUP3 DUP3 DUP2 MLOAD DUP2 LT PUSH2 0x734 JUMPI PUSH2 0x733 PUSH2 0x2582 JUMP JUMPDEST JUMPDEST PUSH1 0x20 MUL PUSH1 0x20 ADD ADD DUP2 DUP2 MSTORE POP POP DUP1 PUSH1 0x1 ADD SWAP1 POP PUSH2 0x6EA JUMP JUMPDEST POP DUP1 SWAP2 POP POP SWAP3 SWAP2 POP POP JUMP JUMPDEST PUSH0 DUP1 PUSH2 0x761 DUP4 PUSH2 0x82E JUMP JUMPDEST GT SWAP1 POP SWAP2 SWAP1 POP JUMP JUMPDEST PUSH2 0x771 PUSH2 0xA6A JUMP JUMPDEST PUSH2 0x77A PUSH0 PUSH2 0xDAE JUMP JUMPDEST JUMP JUMPDEST PUSH0 PUSH1 0x3 PUSH0 SWAP1 SLOAD SWAP1 PUSH2 0x100 EXP SWAP1 DIV PUSH20 0xFFFFFFFFFFFFFFFFFFFFFFFFFFFFFFFFFFFFFFFF AND SWAP1 POP SWAP1 JUMP JUMPDEST PUSH2 0x7AC PUSH2 0xA6A JUMP JUMPDEST PUSH0 PUSH2 0x7B7 PUSH1 0x6 PUSH2 0xE71 JUMP JUMPDEST SWAP1 POP PUSH2 0x7C3 PUSH1 0x6 PUSH2 0xE7D JUMP JUMPDEST PUSH2 0x7CF DUP5 DUP3 DUP6 DUP6 PUSH2 0xE91 JUMP JUMPDEST PUSH2 0x7DB DUP5 ADDRESS PUSH1 0x1 PUSH2 0xF26 JUMP JUMPDEST PUSH32 0x23671A655A5B028ACAA9A5C23DB2113FA8BD161984FF35C7D2DD7F4F7B5F93A4 DUP2 PUSH1 0x40 MLOAD PUSH2 0x80A SWAP2 SWAP1 PUSH2 0x1AF3 JUMP JUMPDEST PUSH1 0x40 MLOAD DUP1 SWAP2 SUB SWAP1 LOG1 POP POP POP POP JUMP JUMPDEST PUSH2 0x82A PUSH2 0x823 PUSH2 0xC8D JUMP JUMPDEST DUP4 DUP4 PUSH2 0xF26 JUMP JUMPDEST POP POP JUMP JUMPDEST PUSH0 PUSH1 0x4 PUSH0 DUP4 DUP2 MSTORE PUSH1 0x20 ADD SWAP1 DUP2 MSTORE PUSH1 0x20 ADD PUSH0 KECCAK256 SLOAD SWAP1 POP SWAP2 SWAP1 POP JUMP JUMPDEST PUSH0 PUSH1 0x1 PUSH0 DUP5 PUSH20 0xFFFFFFFFFFFFFFFFFFFFFFFFFFFFFFFFFFFFFFFF AND PUSH20 0xFFFFFFFFFFFFFFFFFFFFFFFFFFFFFFFFFFFFFFFF AND DUP2 MSTORE PUSH1 0x20 ADD SWAP1 DUP2 MSTORE PUSH1 0x20 ADD PUSH0 KECCAK256 PUSH0 DUP4 PUSH20 0xFFFFFFFFFFFFFFFFFFFFFFFFFFFFFFFFFFFFFFFF AND PUSH20 0xFFFFFFFFFFFFFFFFFFFFFFFFFFFFFFFFFFFFFFFF AND DUP2 MSTORE PUSH1 0x20 ADD SWAP1 DUP2 MSTORE PUSH1 0x20 ADD PUSH0 KECCAK256 PUSH0 SWAP1 SLOAD SWAP1 PUSH2 0x100 EXP SWAP1 DIV PUSH1 0xFF AND SWAP1 POP SWAP3 SWAP2 POP POP JUMP JUMPDEST PUSH0 PUSH2 0x8DF PUSH2 0xC8D JUMP JUMPDEST SWAP1 POP DUP1 PUSH20 0xFFFFFFFFFFFFFFFFFFFFFFFFFFFFFFFFFFFFFFFF AND DUP7 PUSH20 0xFFFFFFFFFFFFFFFFFFFFFFFFFFFFFFFFFFFFFFFF AND EQ ISZERO DUP1 ISZERO PUSH2 0x924 JUMPI POP PUSH2 0x922 DUP7 DUP3 PUSH2 0x848 JUMP JUMPDEST ISZERO JUMPDEST ISZERO PUSH2 0x968 JUMPI DUP1 DUP7 PUSH1 0x40 MLOAD PUSH32 0xE237D92200000000000000000000000000000000000000000000000000000000 DUP2 MSTORE PUSH1 0x4 ADD PUSH2 0x95F SWAP3 SWAP2 SWAP1 PUSH2 0x2534 JUMP JUMPDEST PUSH1 0x40 MLOAD DUP1 SWAP2 SUB SWAP1 REVERT JUMPDEST PUSH2 0x975 DUP7 DUP7 DUP7 DUP7 DUP7 PUSH2 0xB04 JUMP JUMPDEST POP POP POP POP POP POP JUMP JUMPDEST PUSH2 0x985 PUSH2 0xA6A JUMP JUMPDEST PUSH0 PUSH20 0xFFFFFFFFFFFFFFFFFFFFFFFFFFFFFFFFFFFFFFFF AND DUP2 PUSH20 0xFFFFFFFFFFFFFFFFFFFFFFFFFFFFFFFFFFFFFFFF AND SUB PUSH2 0x9F5 JUMPI PUSH0 PUSH1 0x40 MLOAD PUSH32 0x1E4FBDF700000000000000000000000000000000000000000000000000000000 DUP2 MSTORE PUSH1 0x4 ADD PUSH2 0x9EC SWAP2 SWAP1 PUSH2 0x2381 JUMP JUMPDEST PUSH1 0x40 MLOAD DUP1 SWAP2 SUB SWAP1 REVERT JUMPDEST PUSH2 0x9FE DUP2 PUSH2 0xDAE JUMP JUMPDEST POP JUMP JUMPDEST PUSH0 PUSH32 0x1FFC9A700000000000000000000000000000000000000000000000000000000 PUSH28 0xFFFFFFFFFFFFFFFFFFFFFFFFFFFFFFFFFFFFFFFFFFFFFFFFFFFFFFFF NOT AND DUP3 PUSH28 0xFFFFFFFFFFFFFFFFFFFFFFFFFFFFFFFFFFFFFFFFFFFFFFFFFFFFFFFF NOT AND EQ SWAP1 POP SWAP2 SWAP1 POP JUMP JUMPDEST PUSH2 0xA72 PUSH2 0xC8D JUMP JUMPDEST PUSH20 0xFFFFFFFFFFFFFFFFFFFFFFFFFFFFFFFFFFFFFFFF AND PUSH2 0xA90 PUSH2 0x77C JUMP JUMPDEST PUSH20 0xFFFFFFFFFFFFFFFFFFFFFFFFFFFFFFFFFFFFFFFF AND EQ PUSH2 0xAEF JUMPI PUSH2 0xAB3 PUSH2 0xC8D JUMP JUMPDEST PUSH1 0x40 MLOAD PUSH32 0x118CDAA700000000000000000000000000000000000000000000000000000000 DUP2 MSTORE PUSH1 0x4 ADD PUSH2 0xAE6 SWAP2 SWAP1 PUSH2 0x2381 JUMP JUMPDEST PUSH1 0x40 MLOAD DUP1 SWAP2 SUB SWAP1 REVERT JUMPDEST JUMP JUMPDEST DUP1 PUSH1 0x2 SWAP1 DUP2 PUSH2 0xB00 SWAP2 SWAP1 PUSH2 0x274C JUMP JUMPDEST POP POP JUMP JUMPDEST PUSH0 PUSH20 0xFFFFFFFFFFFFFFFFFFFFFFFFFFFFFFFFFFFFFFFF AND DUP5 PUSH20 0xFFFFFFFFFFFFFFFFFFFFFFFFFFFFFFFFFFFFFFFF AND SUB PUSH2 0xB74 JUMPI PUSH0 PUSH1 0x40 MLOAD PUSH32 0x57F447CE00000000000000000000000000000000000000000000000000000000 DUP2 MSTORE PUSH1 0x4 ADD PUSH2 0xB6B SWAP2 SWAP1 PUSH2 0x2381 JUMP JUMPDEST PUSH1 0x40 MLOAD DUP1 SWAP2 SUB SWAP1 REVERT JUMPDEST PUSH0 PUSH20 0xFFFFFFFFFFFFFFFFFFFFFFFFFFFFFFFFFFFFFFFF AND DUP6 PUSH20 0xFFFFFFFFFFFFFFFFFFFFFFFFFFFFFFFFFFFFFFFF AND SUB PUSH2 0xBE4 JUMPI PUSH0 PUSH1 0x40 MLOAD PUSH32 0x1A8351400000000000000000000000000000000000000000000000000000000 DUP2 MSTORE PUSH1 0x4 ADD PUSH2 0xBDB SWAP2 SWAP1 PUSH2 0x2381 JUMP JUMPDEST PUSH1 0x40 MLOAD DUP1 SWAP2 SUB SWAP1 REVERT JUMPDEST PUSH0 DUP1 PUSH2 0xBF0 DUP6 DUP6 PUSH2 0x108F JUMP JUMPDEST SWAP2 POP SWAP2 POP PUSH2 0xC01 DUP8 DUP8 DUP5 DUP5 DUP8 PUSH2 0x10BF JUMP JUMPDEST POP POP POP POP POP POP POP JUMP JUMPDEST PUSH0 PUSH20 0xFFFFFFFFFFFFFFFFFFFFFFFFFFFFFFFFFFFFFFFF AND DUP5 PUSH20 0xFFFFFFFFFFFFFFFFFFFFFFFFFFFFFFFFFFFFFFFF AND SUB PUSH2 0xC7A JUMPI PUSH0 PUSH1 0x40 MLOAD PUSH32 0x57F447CE00000000000000000000000000000000000000000000000000000000 DUP2 MSTORE PUSH1 0x4 ADD PUSH2 0xC71 SWAP2 SWAP1 PUSH2 0x2381 JUMP JUMPDEST PUSH1 0x40 MLOAD DUP1 SWAP2 SUB SWAP1 REVERT JUMPDEST PUSH2 0xC87 PUSH0 DUP6 DUP6 DUP6 DUP6 PUSH2 0x10BF JUMP JUMPDEST POP POP POP POP JUMP JUMPDEST PUSH0 CALLER SWAP1 POP SWAP1 JUMP JUMPDEST PUSH0 PUSH20 0xFFFFFFFFFFFFFFFFFFFFFFFFFFFFFFFFFFFFFFFF AND DUP5 PUSH20 0xFFFFFFFFFFFFFFFFFFFFFFFFFFFFFFFFFFFFFFFF AND SUB PUSH2 0xD04 JUMPI PUSH0 PUSH1 0x40 MLOAD PUSH32 0x57F447CE00000000000000000000000000000000000000000000000000000000 DUP2 MSTORE PUSH1 0x4 ADD PUSH2 0xCFB SWAP2 SWAP1 PUSH2 0x2381 JUMP JUMPDEST PUSH1 0x40 MLOAD DUP1 SWAP2 SUB SWAP1 REVERT JUMPDEST PUSH0 PUSH20 0xFFFFFFFFFFFFFFFFFFFFFFFFFFFFFFFFFFFFFFFF AND DUP6 PUSH20 0xFFFFFFFFFFFFFFFFFFFFFFFFFFFFFFFFFFFFFFFF AND SUB PUSH2 0xD74 JUMPI PUSH0 PUSH1 0x40 MLOAD PUSH32 0x1A8351400000000000000000000000000000000000000000000000000000000 DUP2 MSTORE PUSH1 0x4 ADD PUSH2 0xD6B SWAP2 SWAP1 PUSH2 0x2381 JUMP JUMPDEST PUSH1 0x40 MLOAD DUP1 SWAP2 SUB SWAP1 REVERT JUMPDEST PUSH2 0xD81 DUP6 DUP6 DUP6 DUP6 DUP6 PUSH2 0x10BF JUMP JUMPDEST POP POP POP POP POP JUMP JUMPDEST PUSH0 PUSH1 0x20 DUP3 MUL PUSH1 0x20 DUP5 ADD ADD MLOAD SWAP1 POP SWAP3 SWAP2 POP POP JUMP JUMPDEST PUSH0 PUSH1 0x20 DUP3 MUL PUSH1 0x20 DUP5 ADD ADD MLOAD SWAP1 POP SWAP3 SWAP2 POP POP JUMP JUMPDEST PUSH0 PUSH1 0x3 PUSH0 SWAP1 SLOAD SWAP1 PUSH2 0x100 EXP SWAP1 DIV PUSH20 0xFFFFFFFFFFFFFFFFFFFFFFFFFFFFFFFFFFFFFFFF AND SWAP1 POP DUP2 PUSH1 0x3 PUSH0 PUSH2 0x100 EXP DUP2 SLOAD DUP2 PUSH20 0xFFFFFFFFFFFFFFFFFFFFFFFFFFFFFFFFFFFFFFFF MUL NOT AND SWAP1 DUP4 PUSH20 0xFFFFFFFFFFFFFFFFFFFFFFFFFFFFFFFFFFFFFFFF AND MUL OR SWAP1 SSTORE POP DUP2 PUSH20 0xFFFFFFFFFFFFFFFFFFFFFFFFFFFFFFFFFFFFFFFF AND DUP2 PUSH20 0xFFFFFFFFFFFFFFFFFFFFFFFFFFFFFFFFFFFFFFFF AND PUSH32 0x8BE0079C531659141344CD1FD0A4F28419497F9722A3DAAFE3B4186F6B6457E0 PUSH1 0x40 MLOAD PUSH1 0x40 MLOAD DUP1 SWAP2 SUB SWAP1 LOG3 POP POP JUMP JUMPDEST PUSH0 DUP2 PUSH0 ADD SLOAD SWAP1 POP SWAP2 SWAP1 POP JUMP JUMPDEST PUSH1 0x1 DUP2 PUSH0 ADD PUSH0 DUP3 DUP3 SLOAD ADD SWAP3 POP POP DUP2 SWAP1 SSTORE POP POP JUMP JUMPDEST PUSH0 PUSH20 0xFFFFFFFFFFFFFFFFFFFFFFFFFFFFFFFFFFFFFFFF AND DUP5 PUSH20 0xFFFFFFFFFFFFFFFFFFFFFFFFFFFFFFFFFFFFFFFF AND SUB PUSH2 0xF01 JUMPI PUSH0 PUSH1 0x40 MLOAD PUSH32 0x57F447CE00000000000000000000000000000000000000000000000000000000 DUP2 MSTORE PUSH1 0x4 ADD PUSH2 0xEF8 SWAP2 SWAP1 PUSH2 0x2381 JUMP JUMPDEST PUSH1 0x40 MLOAD DUP1 SWAP2 SUB SWAP1 REVERT JUMPDEST PUSH0 DUP1 PUSH2 0xF0D DUP6 DUP6 PUSH2 0x108F JUMP JUMPDEST SWAP2 POP SWAP2 POP PUSH2 0xF1E PUSH0 DUP8 DUP5 DUP5 DUP8 PUSH2 0x10BF JUMP JUMPDEST POP POP POP POP POP POP JUMP JUMPDEST PUSH0 PUSH20 0xFFFFFFFFFFFFFFFFFFFFFFFFFFFFFFFFFFFFFFFF AND DUP3 PUSH20 0xFFFFFFFFFFFFFFFFFFFFFFFFFFFFFFFFFFFFFFFF AND SUB PUSH2 0xF96 JUMPI PUSH0 PUSH1 0x40 MLOAD PUSH32 0xCED3E10000000000000000000000000000000000000000000000000000000000 DUP2 MSTORE PUSH1 0x4 ADD PUSH2 0xF8D SWAP2 SWAP1 PUSH2 0x2381 JUMP JUMPDEST PUSH1 0x40 MLOAD DUP1 SWAP2 SUB SWAP1 REVERT JUMPDEST DUP1 PUSH1 0x1 PUSH0 DUP6 PUSH20 0xFFFFFFFFFFFFFFFFFFFFFFFFFFFFFFFFFFFFFFFF AND PUSH20 0xFFFFFFFFFFFFFFFFFFFFFFFFFFFFFFFFFFFFFFFF AND DUP2 MSTORE PUSH1 0x20 ADD SWAP1 DUP2 MSTORE PUSH1 0x20 ADD PUSH0 KECCAK256 PUSH0 DUP5 PUSH20 0xFFFFFFFFFFFFFFFFFFFFFFFFFFFFFFFFFFFFFFFF AND PUSH20 0xFFFFFFFFFFFFFFFFFFFFFFFFFFFFFFFFFFFFFFFF AND DUP2 MSTORE PUSH1 0x20 ADD SWAP1 DUP2 MSTORE PUSH1 0x20 ADD PUSH0 KECCAK256 PUSH0 PUSH2 0x100 EXP DUP2 SLOAD DUP2 PUSH1 0xFF MUL NOT AND SWAP1 DUP4 ISZERO ISZERO MUL OR SWAP1 SSTORE POP DUP2 PUSH20 0xFFFFFFFFFFFFFFFFFFFFFFFFFFFFFFFFFFFFFFFF AND DUP4 PUSH20 0xFFFFFFFFFFFFFFFFFFFFFFFFFFFFFFFFFFFFFFFF AND PUSH32 0x17307EAB39AB6107E8899845AD3D59BD9653F200F220920489CA2B5937696C31 DUP4 PUSH1 0x40 MLOAD PUSH2 0x1082 SWAP2 SWAP1 PUSH2 0x1BA6 JUMP JUMPDEST PUSH1 0x40 MLOAD DUP1 SWAP2 SUB SWAP1 LOG3 POP POP POP JUMP JUMPDEST PUSH1 0x60 DUP1 PUSH1 0x40 MLOAD SWAP2 POP PUSH1 0x1 DUP3 MSTORE DUP4 PUSH1 0x20 DUP4 ADD MSTORE PUSH1 0x40 DUP3 ADD SWAP1 POP PUSH1 0x1 DUP2 MSTORE DUP3 PUSH1 0x20 DUP3 ADD MSTORE PUSH1 0x40 DUP2 ADD PUSH1 0x40 MSTORE SWAP3 POP SWAP3 SWAP1 POP JUMP JUMPDEST PUSH2 0x10CB DUP6 DUP6 DUP6 DUP6 PUSH2 0x116B JUMP JUMPDEST PUSH0 PUSH20 0xFFFFFFFFFFFFFFFFFFFFFFFFFFFFFFFFFFFFFFFF AND DUP5 PUSH20 0xFFFFFFFFFFFFFFFFFFFFFFFFFFFFFFFFFFFFFFFF AND EQ PUSH2 0x1164 JUMPI PUSH0 PUSH2 0x1107 PUSH2 0xC8D JUMP JUMPDEST SWAP1 POP PUSH1 0x1 DUP5 MLOAD SUB PUSH2 0x1153 JUMPI PUSH0 PUSH2 0x1126 PUSH0 DUP7 PUSH2 0xD9B SWAP1 SWAP2 SWAP1 PUSH4 0xFFFFFFFF AND JUMP JUMPDEST SWAP1 POP PUSH0 PUSH2 0x113C PUSH0 DUP7 PUSH2 0xD9B SWAP1 SWAP2 SWAP1 PUSH4 0xFFFFFFFF AND JUMP JUMPDEST SWAP1 POP PUSH2 0x114C DUP4 DUP10 DUP10 DUP6 DUP6 DUP10 PUSH2 0x117D JUMP JUMPDEST POP POP PUSH2 0x1162 JUMP JUMPDEST PUSH2 0x1161 DUP2 DUP8 DUP8 DUP8 DUP8 DUP8 PUSH2 0x132C JUMP JUMPDEST JUMPDEST POP JUMPDEST POP POP POP POP POP JUMP JUMPDEST PUSH2 0x1177 DUP5 DUP5 DUP5 DUP5 PUSH2 0x14DB JUMP JUMPDEST POP POP POP POP JUMP JUMPDEST PUSH0 DUP5 PUSH20 0xFFFFFFFFFFFFFFFFFFFFFFFFFFFFFFFFFFFFFFFF AND EXTCODESIZE GT ISZERO PUSH2 0x1324 JUMPI DUP4 PUSH20 0xFFFFFFFFFFFFFFFFFFFFFFFFFFFFFFFFFFFFFFFF AND PUSH4 0xF23A6E61 DUP8 DUP8 DUP7 DUP7 DUP7 PUSH1 0x40 MLOAD DUP7 PUSH4 0xFFFFFFFF AND PUSH1 0xE0 SHL DUP2 MSTORE PUSH1 0x4 ADD PUSH2 0x11DD SWAP6 SWAP5 SWAP4 SWAP3 SWAP2 SWAP1 PUSH2 0x286D JUMP JUMPDEST PUSH1 0x20 PUSH1 0x40 MLOAD DUP1 DUP4 SUB DUP2 PUSH0 DUP8 GAS CALL SWAP3 POP POP POP DUP1 ISZERO PUSH2 0x1218 JUMPI POP PUSH1 0x40 MLOAD RETURNDATASIZE PUSH1 0x1F NOT PUSH1 0x1F DUP3 ADD AND DUP3 ADD DUP1 PUSH1 0x40 MSTORE POP DUP2 ADD SWAP1 PUSH2 0x1215 SWAP2 SWAP1 PUSH2 0x28D9 JUMP JUMPDEST PUSH1 0x1 JUMPDEST PUSH2 0x1299 JUMPI RETURNDATASIZE DUP1 PUSH0 DUP2 EQ PUSH2 0x1246 JUMPI PUSH1 0x40 MLOAD SWAP2 POP PUSH1 0x1F NOT PUSH1 0x3F RETURNDATASIZE ADD AND DUP3 ADD PUSH1 0x40 MSTORE RETURNDATASIZE DUP3 MSTORE RETURNDATASIZE PUSH0 PUSH1 0x20 DUP5 ADD RETURNDATACOPY PUSH2 0x124B JUMP JUMPDEST PUSH1 0x60 SWAP2 POP JUMPDEST POP PUSH0 DUP2 MLOAD SUB PUSH2 0x1291 JUMPI DUP5 PUSH1 0x40 MLOAD PUSH32 0x57F447CE00000000000000000000000000000000000000000000000000000000 DUP2 MSTORE PUSH1 0x4 ADD PUSH2 0x1288 SWAP2 SWAP1 PUSH2 0x2381 JUMP JUMPDEST PUSH1 0x40 MLOAD DUP1 SWAP2 SUB SWAP1 REVERT JUMPDEST DUP1 MLOAD DUP2 PUSH1 0x20 ADD REVERT JUMPDEST PUSH4 0xF23A6E61 PUSH1 0xE0 SHL PUSH28 0xFFFFFFFFFFFFFFFFFFFFFFFFFFFFFFFFFFFFFFFFFFFFFFFFFFFFFFFF NOT AND DUP2 PUSH28 0xFFFFFFFFFFFFFFFFFFFFFFFFFFFFFFFFFFFFFFFFFFFFFFFFFFFFFFFF NOT AND EQ PUSH2 0x1322 JUMPI DUP5 PUSH1 0x40 MLOAD PUSH32 0x57F447CE00000000000000000000000000000000000000000000000000000000 DUP2 MSTORE PUSH1 0x4 ADD PUSH2 0x1319 SWAP2 SWAP1 PUSH2 0x2381 JUMP JUMPDEST PUSH1 0x40 MLOAD DUP1 SWAP2 SUB SWAP1 REVERT JUMPDEST POP JUMPDEST POP POP POP POP POP POP JUMP JUMPDEST PUSH0 DUP5 PUSH20 0xFFFFFFFFFFFFFFFFFFFFFFFFFFFFFFFFFFFFFFFF AND EXTCODESIZE GT ISZERO PUSH2 0x14D3 JUMPI DUP4 PUSH20 0xFFFFFFFFFFFFFFFFFFFFFFFFFFFFFFFFFFFFFFFF AND PUSH4 0xBC197C81 DUP8 DUP8 DUP7 DUP7 DUP7 PUSH1 0x40 MLOAD DUP7 PUSH4 0xFFFFFFFF AND PUSH1 0xE0 SHL DUP2 MSTORE PUSH1 0x4 ADD PUSH2 0x138C SWAP6 SWAP5 SWAP4 SWAP3 SWAP2 SWAP1 PUSH2 0x2904 JUMP JUMPDEST PUSH1 0x20 PUSH1 0x40 MLOAD DUP1 DUP4 SUB DUP2 PUSH0 DUP8 GAS CALL SWAP3 POP POP POP DUP1 ISZERO PUSH2 0x13C7 JUMPI POP PUSH1 0x40 MLOAD RETURNDATASIZE PUSH1 0x1F NOT PUSH1 0x1F DUP3 ADD AND DUP3 ADD DUP1 PUSH1 0x40 MSTORE POP DUP2 ADD SWAP1 PUSH2 0x13C4 SWAP2 SWAP1 PUSH2 0x28D9 JUMP JUMPDEST PUSH1 0x1 JUMPDEST PUSH2 0x1448 JUMPI RETURNDATASIZE DUP1 PUSH0 DUP2 EQ PUSH2 0x13F5 JUMPI PUSH1 0x40 MLOAD SWAP2 POP PUSH1 0x1F NOT PUSH1 0x3F RETURNDATASIZE ADD AND DUP3 ADD PUSH1 0x40 MSTORE RETURNDATASIZE DUP3 MSTORE RETURNDATASIZE PUSH0 PUSH1 0x20 DUP5 ADD RETURNDATACOPY PUSH2 0x13FA JUMP JUMPDEST PUSH1 0x60 SWAP2 POP JUMPDEST POP PUSH0 DUP2 MLOAD SUB PUSH2 0x1440 JUMPI DUP5 PUSH1 0x40 MLOAD PUSH32 0x57F447CE00000000000000000000000000000000000000000000000000000000 DUP2 MSTORE PUSH1 0x4 ADD PUSH2 0x1437 SWAP2 SWAP1 PUSH2 0x2381 JUMP JUMPDEST PUSH1 0x40 MLOAD DUP1 SWAP2 SUB SWAP1 REVERT JUMPDEST DUP1 MLOAD DUP2 PUSH1 0x20 ADD REVERT JUMPDEST PUSH4 0xBC197C81 PUSH1 0xE0 SHL PUSH28 0xFFFFFFFFFFFFFFFFFFFFFFFFFFFFFFFFFFFFFFFFFFFFFFFFFFFFFFFF NOT AND DUP2 PUSH28 0xFFFFFFFFFFFFFFFFFFFFFFFFFFFFFFFFFFFFFFFFFFFFFFFFFFFFFFFF NOT AND EQ PUSH2 0x14D1 JUMPI DUP5 PUSH1 0x40 MLOAD PUSH32 0x57F447CE00000000000000000000000000000000000000000000000000000000 DUP2 MSTORE PUSH1 0x4 ADD PUSH2 0x14C8 SWAP2 SWAP1 PUSH2 0x2381 JUMP JUMPDEST PUSH1 0x40 MLOAD DUP1 SWAP2 SUB SWAP1 REVERT JUMPDEST POP JUMPDEST POP POP POP POP POP POP JUMP JUMPDEST PUSH2 0x14E7 DUP5 DUP5 DUP5 DUP5 PUSH2 0x1678 JUMP JUMPDEST PUSH0 PUSH20 0xFFFFFFFFFFFFFFFFFFFFFFFFFFFFFFFFFFFFFFFF AND DUP5 PUSH20 0xFFFFFFFFFFFFFFFFFFFFFFFFFFFFFFFFFFFFFFFF AND SUB PUSH2 0x15BA JUMPI PUSH0 DUP1 JUMPDEST DUP4 MLOAD DUP2 LT ISZERO PUSH2 0x159F JUMPI PUSH0 DUP4 DUP3 DUP2 MLOAD DUP2 LT PUSH2 0x153A JUMPI PUSH2 0x1539 PUSH2 0x2582 JUMP JUMPDEST JUMPDEST PUSH1 0x20 MUL PUSH1 0x20 ADD ADD MLOAD SWAP1 POP DUP1 PUSH1 0x4 PUSH0 DUP8 DUP6 DUP2 MLOAD DUP2 LT PUSH2 0x155B JUMPI PUSH2 0x155A PUSH2 0x2582 JUMP JUMPDEST JUMPDEST PUSH1 0x20 MUL PUSH1 0x20 ADD ADD MLOAD DUP2 MSTORE PUSH1 0x20 ADD SWAP1 DUP2 MSTORE PUSH1 0x20 ADD PUSH0 KECCAK256 PUSH0 DUP3 DUP3 SLOAD PUSH2 0x157E SWAP2 SWAP1 PUSH2 0x2997 JUMP JUMPDEST SWAP3 POP POP DUP2 SWAP1 SSTORE POP DUP1 DUP4 PUSH2 0x1591 SWAP2 SWAP1 PUSH2 0x2997 JUMP JUMPDEST SWAP3 POP POP DUP1 PUSH1 0x1 ADD SWAP1 POP PUSH2 0x151D JUMP JUMPDEST POP DUP1 PUSH1 0x5 PUSH0 DUP3 DUP3 SLOAD PUSH2 0x15B1 SWAP2 SWAP1 PUSH2 0x2997 JUMP JUMPDEST SWAP3 POP POP DUP2 SWAP1 SSTORE POP POP JUMPDEST PUSH0 PUSH20 0xFFFFFFFFFFFFFFFFFFFFFFFFFFFFFFFFFFFFFFFF AND DUP4 PUSH20 0xFFFFFFFFFFFFFFFFFFFFFFFFFFFFFFFFFFFFFFFF AND SUB PUSH2 0x1672 JUMPI PUSH0 DUP1 JUMPDEST DUP4 MLOAD DUP2 LT ISZERO PUSH2 0x1660 JUMPI PUSH0 DUP4 DUP3 DUP2 MLOAD DUP2 LT PUSH2 0x160D JUMPI PUSH2 0x160C PUSH2 0x2582 JUMP JUMPDEST JUMPDEST PUSH1 0x20 MUL PUSH1 0x20 ADD ADD MLOAD SWAP1 POP DUP1 PUSH1 0x4 PUSH0 DUP8 DUP6 DUP2 MLOAD DUP2 LT PUSH2 0x162E JUMPI PUSH2 0x162D PUSH2 0x2582 JUMP JUMPDEST JUMPDEST PUSH1 0x20 MUL PUSH1 0x20 ADD ADD MLOAD DUP2 MSTORE PUSH1 0x20 ADD SWAP1 DUP2 MSTORE PUSH1 0x20 ADD PUSH0 KECCAK256 PUSH0 DUP3 DUP3 SLOAD SUB SWAP3 POP POP DUP2 SWAP1 SSTORE POP DUP1 DUP4 ADD SWAP3 POP POP DUP1 PUSH1 0x1 ADD SWAP1 POP PUSH2 0x15F0 JUMP JUMPDEST POP DUP1 PUSH1 0x5 PUSH0 DUP3 DUP3 SLOAD SUB SWAP3 POP POP DUP2 SWAP1 SSTORE POP POP JUMPDEST POP POP POP POP JUMP JUMPDEST DUP1 MLOAD DUP3 MLOAD EQ PUSH2 0x16C2 JUMPI DUP2 MLOAD DUP2 MLOAD PUSH1 0x40 MLOAD PUSH32 0x5B05999100000000000000000000000000000000000000000000000000000000 DUP2 MSTORE PUSH1 0x4 ADD PUSH2 0x16B9 SWAP3 SWAP2 SWAP1 PUSH2 0x255B JUMP JUMPDEST PUSH1 0x40 MLOAD DUP1 SWAP2 SUB SWAP1 REVERT JUMPDEST PUSH0 PUSH2 0x16CB PUSH2 0xC8D JUMP JUMPDEST SWAP1 POP PUSH0 JUMPDEST DUP4 MLOAD DUP2 LT ISZERO PUSH2 0x18C7 JUMPI PUSH0 PUSH2 0x16EC DUP3 DUP7 PUSH2 0xD9B SWAP1 SWAP2 SWAP1 PUSH4 0xFFFFFFFF AND JUMP JUMPDEST SWAP1 POP PUSH0 PUSH2 0x1702 DUP4 DUP7 PUSH2 0xD9B SWAP1 SWAP2 SWAP1 PUSH4 0xFFFFFFFF AND JUMP JUMPDEST SWAP1 POP PUSH0 PUSH20 0xFFFFFFFFFFFFFFFFFFFFFFFFFFFFFFFFFFFFFFFF AND DUP9 PUSH20 0xFFFFFFFFFFFFFFFFFFFFFFFFFFFFFFFFFFFFFFFF AND EQ PUSH2 0x1825 JUMPI PUSH0 DUP1 PUSH0 DUP5 DUP2 MSTORE PUSH1 0x20 ADD SWAP1 DUP2 MSTORE PUSH1 0x20 ADD PUSH0 KECCAK256 PUSH0 DUP11 PUSH20 0xFFFFFFFFFFFFFFFFFFFFFFFFFFFFFFFFFFFFFFFF AND PUSH20 0xFFFFFFFFFFFFFFFFFFFFFFFFFFFFFFFFFFFFFFFF AND DUP2 MSTORE PUSH1 0x20 ADD SWAP1 DUP2 MSTORE PUSH1 0x20 ADD PUSH0 KECCAK256 SLOAD SWAP1 POP DUP2 DUP2 LT ISZERO PUSH2 0x17D1 JUMPI DUP9 DUP2 DUP4 DUP6 PUSH1 0x40 MLOAD PUSH32 0x3DEE4C500000000000000000000000000000000000000000000000000000000 DUP2 MSTORE PUSH1 0x4 ADD PUSH2 0x17C8 SWAP5 SWAP4 SWAP3 SWAP2 SWAP1 PUSH2 0x29CA JUMP JUMPDEST PUSH1 0x40 MLOAD DUP1 SWAP2 SUB SWAP1 REVERT JUMPDEST DUP2 DUP2 SUB PUSH0 DUP1 DUP6 DUP2 MSTORE PUSH1 0x20 ADD SWAP1 DUP2 MSTORE PUSH1 0x20 ADD PUSH0 KECCAK256 PUSH0 DUP12 PUSH20 0xFFFFFFFFFFFFFFFFFFFFFFFFFFFFFFFFFFFFFFFF AND PUSH20 0xFFFFFFFFFFFFFFFFFFFFFFFFFFFFFFFFFFFFFFFF AND DUP2 MSTORE PUSH1 0x20 ADD SWAP1 DUP2 MSTORE PUSH1 0x20 ADD PUSH0 KECCAK256 DUP2 SWAP1 SSTORE POP POP JUMPDEST PUSH0 PUSH20 0xFFFFFFFFFFFFFFFFFFFFFFFFFFFFFFFFFFFFFFFF AND DUP8 PUSH20 0xFFFFFFFFFFFFFFFFFFFFFFFFFFFFFFFFFFFFFFFF AND EQ PUSH2 0x18BA JUMPI DUP1 PUSH0 DUP1 DUP5 DUP2 MSTORE PUSH1 0x20 ADD SWAP1 DUP2 MSTORE PUSH1 0x20 ADD PUSH0 KECCAK256 PUSH0 DUP10 PUSH20 0xFFFFFFFFFFFFFFFFFFFFFFFFFFFFFFFFFFFFFFFF AND PUSH20 0xFFFFFFFFFFFFFFFFFFFFFFFFFFFFFFFFFFFFFFFF AND DUP2 MSTORE PUSH1 0x20 ADD SWAP1 DUP2 MSTORE PUSH1 0x20 ADD PUSH0 KECCAK256 PUSH0 DUP3 DUP3 SLOAD PUSH2 0x18B2 SWAP2 SWAP1 PUSH2 0x2997 JUMP JUMPDEST SWAP3 POP POP DUP2 SWAP1 SSTORE POP JUMPDEST POP POP DUP1 PUSH1 0x1 ADD SWAP1 POP PUSH2 0x16CF JUMP JUMPDEST POP PUSH1 0x1 DUP4 MLOAD SUB PUSH2 0x1982 JUMPI PUSH0 PUSH2 0x18E5 PUSH0 DUP6 PUSH2 0xD9B SWAP1 SWAP2 SWAP1 PUSH4 0xFFFFFFFF AND JUMP JUMPDEST SWAP1 POP PUSH0 PUSH2 0x18FB PUSH0 DUP6 PUSH2 0xD9B SWAP1 SWAP2 SWAP1 PUSH4 0xFFFFFFFF AND JUMP JUMPDEST SWAP1 POP DUP6 PUSH20 0xFFFFFFFFFFFFFFFFFFFFFFFFFFFFFFFFFFFFFFFF AND DUP8 PUSH20 0xFFFFFFFFFFFFFFFFFFFFFFFFFFFFFFFFFFFFFFFF AND DUP5 PUSH20 0xFFFFFFFFFFFFFFFFFFFFFFFFFFFFFFFFFFFFFFFF AND PUSH32 0xC3D58168C5AE7397731D063D5BBF3D657854427343F4C083240F7AACAA2D0F62 DUP6 DUP6 PUSH1 0x40 MLOAD PUSH2 0x1973 SWAP3 SWAP2 SWAP1 PUSH2 0x255B JUMP JUMPDEST PUSH1 0x40 MLOAD DUP1 SWAP2 SUB SWAP1 LOG4 POP POP PUSH2 0x1A01 JUMP JUMPDEST DUP4 PUSH20 0xFFFFFFFFFFFFFFFFFFFFFFFFFFFFFFFFFFFFFFFF AND DUP6 PUSH20 0xFFFFFFFFFFFFFFFFFFFFFFFFFFFFFFFFFFFFFFFF AND DUP3 PUSH20 0xFFFFFFFFFFFFFFFFFFFFFFFFFFFFFFFFFFFFFFFF AND PUSH32 0x4A39DC06D4C0DBC64B70AF90FD698A233A518AA5D07E595D983B8C0526C8F7FB DUP7 DUP7 PUSH1 0x40 MLOAD PUSH2 0x19F8 SWAP3 SWAP2 SWAP1 PUSH2 0x2A0D JUMP JUMPDEST PUSH1 0x40 MLOAD DUP1 SWAP2 SUB SWAP1 LOG4 JUMPDEST POP POP POP POP POP JUMP JUMPDEST PUSH0 PUSH1 0x40 MLOAD SWAP1 POP SWAP1 JUMP JUMPDEST PUSH0 DUP1 REVERT JUMPDEST PUSH0 DUP1 REVERT JUMPDEST PUSH0 PUSH20 0xFFFFFFFFFFFFFFFFFFFFFFFFFFFFFFFFFFFFFFFF DUP3 AND SWAP1 POP SWAP2 SWAP1 POP JUMP JUMPDEST PUSH0 PUSH2 0x1A42 DUP3 PUSH2 0x1A19 JUMP JUMPDEST SWAP1 POP SWAP2 SWAP1 POP JUMP JUMPDEST PUSH2 0x1A52 DUP2 PUSH2 0x1A38 JUMP JUMPDEST DUP2 EQ PUSH2 0x1A5C JUMPI PUSH0 DUP1 REVERT JUMPDEST POP JUMP JUMPDEST PUSH0 DUP2 CALLDATALOAD SWAP1 POP PUSH2 0x1A6D DUP2 PUSH2 0x1A49 JUMP JUMPDEST SWAP3 SWAP2 POP POP JUMP JUMPDEST PUSH0 DUP2 SWAP1 POP SWAP2 SWAP1 POP JUMP JUMPDEST PUSH2 0x1A85 DUP2 PUSH2 0x1A73 JUMP JUMPDEST DUP2 EQ PUSH2 0x1A8F JUMPI PUSH0 DUP1 REVERT JUMPDEST POP JUMP JUMPDEST PUSH0 DUP2 CALLDATALOAD SWAP1 POP PUSH2 0x1AA0 DUP2 PUSH2 0x1A7C JUMP JUMPDEST SWAP3 SWAP2 POP POP JUMP JUMPDEST PUSH0 DUP1 PUSH1 0x40 DUP4 DUP6 SUB SLT ISZERO PUSH2 0x1ABC JUMPI PUSH2 0x1ABB PUSH2 0x1A11 JUMP JUMPDEST JUMPDEST PUSH0 PUSH2 0x1AC9 DUP6 DUP3 DUP7 ADD PUSH2 0x1A5F JUMP JUMPDEST SWAP3 POP POP PUSH1 0x20 PUSH2 0x1ADA DUP6 DUP3 DUP7 ADD PUSH2 0x1A92 JUMP JUMPDEST SWAP2 POP POP SWAP3 POP SWAP3 SWAP1 POP JUMP JUMPDEST PUSH2 0x1AED DUP2 PUSH2 0x1A73 JUMP JUMPDEST DUP3 MSTORE POP POP JUMP JUMPDEST PUSH0 PUSH1 0x20 DUP3 ADD SWAP1 POP PUSH2 0x1B06 PUSH0 DUP4 ADD DUP5 PUSH2 0x1AE4 JUMP JUMPDEST SWAP3 SWAP2 POP POP JUMP JUMPDEST PUSH0 PUSH32 0xFFFFFFFF00000000000000000000000000000000000000000000000000000000 DUP3 AND SWAP1 POP SWAP2 SWAP1 POP JUMP JUMPDEST PUSH2 0x1B40 DUP2 PUSH2 0x1B0C JUMP JUMPDEST DUP2 EQ PUSH2 0x1B4A JUMPI PUSH0 DUP1 REVERT JUMPDEST POP JUMP JUMPDEST PUSH0 DUP2 CALLDATALOAD SWAP1 POP PUSH2 0x1B5B DUP2 PUSH2 0x1B37 JUMP JUMPDEST SWAP3 SWAP2 POP POP JUMP JUMPDEST PUSH0 PUSH1 0x20 DUP3 DUP5 SUB SLT ISZERO PUSH2 0x1B76 JUMPI PUSH2 0x1B75 PUSH2 0x1A11 JUMP JUMPDEST JUMPDEST PUSH0 PUSH2 0x1B83 DUP5 DUP3 DUP6 ADD PUSH2 0x1B4D JUMP JUMPDEST SWAP2 POP POP SWAP3 SWAP2 POP POP JUMP JUMPDEST PUSH0 DUP2 ISZERO ISZERO SWAP1 POP SWAP2 SWAP1 POP JUMP JUMPDEST PUSH2 0x1BA0 DUP2 PUSH2 0x1B8C JUMP JUMPDEST DUP3 MSTORE POP POP JUMP JUMPDEST PUSH0 PUSH1 0x20 DUP3 ADD SWAP1 POP PUSH2 0x1BB9 PUSH0 DUP4 ADD DUP5 PUSH2 0x1B97 JUMP JUMPDEST SWAP3 SWAP2 POP POP JUMP JUMPDEST PUSH0 DUP1 REVERT JUMPDEST PUSH0 DUP1 REVERT JUMPDEST PUSH0 PUSH1 0x1F NOT PUSH1 0x1F DUP4 ADD AND SWAP1 POP SWAP2 SWAP1 POP JUMP JUMPDEST PUSH32 0x4E487B7100000000000000000000000000000000000000000000000000000000 PUSH0 MSTORE PUSH1 0x41 PUSH1 0x4 MSTORE PUSH1 0x24 PUSH0 REVERT JUMPDEST PUSH2 0x1C0D DUP3 PUSH2 0x1BC7 JUMP JUMPDEST DUP2 ADD DUP2 DUP2 LT PUSH8 0xFFFFFFFFFFFFFFFF DUP3 GT OR ISZERO PUSH2 0x1C2C JUMPI PUSH2 0x1C2B PUSH2 0x1BD7 JUMP JUMPDEST JUMPDEST DUP1 PUSH1 0x40 MSTORE POP POP POP JUMP JUMPDEST PUSH0 PUSH2 0x1C3E PUSH2 0x1A08 JUMP JUMPDEST SWAP1 POP PUSH2 0x1C4A DUP3 DUP3 PUSH2 0x1C04 JUMP JUMPDEST SWAP2 SWAP1 POP JUMP JUMPDEST PUSH0 PUSH8 0xFFFFFFFFFFFFFFFF DUP3 GT ISZERO PUSH2 0x1C69 JUMPI PUSH2 0x1C68 PUSH2 0x1BD7 JUMP JUMPDEST JUMPDEST PUSH2 0x1C72 DUP3 PUSH2 0x1BC7 JUMP JUMPDEST SWAP1 POP PUSH1 0x20 DUP2 ADD SWAP1 POP SWAP2 SWAP1 POP JUMP JUMPDEST DUP3 DUP2 DUP4 CALLDATACOPY PUSH0 DUP4 DUP4 ADD MSTORE POP POP POP JUMP JUMPDEST PUSH0 PUSH2 0x1C9F PUSH2 0x1C9A DUP5 PUSH2 0x1C4F JUMP JUMPDEST PUSH2 0x1C35 JUMP JUMPDEST SWAP1 POP DUP3 DUP2 MSTORE PUSH1 0x20 DUP2 ADD DUP5 DUP5 DUP5 ADD GT ISZERO PUSH2 0x1CBB JUMPI PUSH2 0x1CBA PUSH2 0x1BC3 JUMP JUMPDEST JUMPDEST PUSH2 0x1CC6 DUP5 DUP3 DUP6 PUSH2 0x1C7F JUMP JUMPDEST POP SWAP4 SWAP3 POP POP POP JUMP JUMPDEST PUSH0 DUP3 PUSH1 0x1F DUP4 ADD SLT PUSH2 0x1CE2 JUMPI PUSH2 0x1CE1 PUSH2 0x1BBF JUMP JUMPDEST JUMPDEST DUP2 CALLDATALOAD PUSH2 0x1CF2 DUP5 DUP3 PUSH1 0x20 DUP7 ADD PUSH2 0x1C8D JUMP JUMPDEST SWAP2 POP POP SWAP3 SWAP2 POP POP JUMP JUMPDEST PUSH0 PUSH1 0x20 DUP3 DUP5 SUB SLT ISZERO PUSH2 0x1D10 JUMPI PUSH2 0x1D0F PUSH2 0x1A11 JUMP JUMPDEST JUMPDEST PUSH0 DUP3 ADD CALLDATALOAD PUSH8 0xFFFFFFFFFFFFFFFF DUP2 GT ISZERO PUSH2 0x1D2D JUMPI PUSH2 0x1D2C PUSH2 0x1A15 JUMP JUMPDEST JUMPDEST PUSH2 0x1D39 DUP5 DUP3 DUP6 ADD PUSH2 0x1CCE JUMP JUMPDEST SWAP2 POP POP SWAP3 SWAP2 POP POP JUMP JUMPDEST PUSH0 PUSH1 0x20 DUP3 DUP5 SUB SLT ISZERO PUSH2 0x1D57 JUMPI PUSH2 0x1D56 PUSH2 0x1A11 JUMP JUMPDEST JUMPDEST PUSH0 PUSH2 0x1D64 DUP5 DUP3 DUP6 ADD PUSH2 0x1A92 JUMP JUMPDEST SWAP2 POP POP SWAP3 SWAP2 POP POP JUMP JUMPDEST PUSH0 DUP2 MLOAD SWAP1 POP SWAP2 SWAP1 POP JUMP JUMPDEST PUSH0 DUP3 DUP3 MSTORE PUSH1 0x20 DUP3 ADD SWAP1 POP SWAP3 SWAP2 POP POP JUMP JUMPDEST DUP3 DUP2 DUP4 MCOPY PUSH0 DUP4 DUP4 ADD MSTORE POP POP POP JUMP JUMPDEST PUSH0 PUSH2 0x1D9F DUP3 PUSH2 0x1D6D JUMP JUMPDEST PUSH2 0x1DA9 DUP2 DUP6 PUSH2 0x1D77 JUMP JUMPDEST SWAP4 POP PUSH2 0x1DB9 DUP2 DUP6 PUSH1 0x20 DUP7 ADD PUSH2 0x1D87 JUMP JUMPDEST PUSH2 0x1DC2 DUP2 PUSH2 0x1BC7 JUMP JUMPDEST DUP5 ADD SWAP2 POP POP SWAP3 SWAP2 POP POP JUMP JUMPDEST PUSH0 PUSH1 0x20 DUP3 ADD SWAP1 POP DUP2 DUP2 SUB PUSH0 DUP4 ADD MSTORE PUSH2 0x1DE5 DUP2 DUP5 PUSH2 0x1D95 JUMP JUMPDEST SWAP1 POP SWAP3 SWAP2 POP POP JUMP JUMPDEST PUSH0 PUSH8 0xFFFFFFFFFFFFFFFF DUP3 GT ISZERO PUSH2 0x1E07 JUMPI PUSH2 0x1E06 PUSH2 0x1BD7 JUMP JUMPDEST JUMPDEST PUSH2 0x1E10 DUP3 PUSH2 0x1BC7 JUMP JUMPDEST SWAP1 POP PUSH1 0x20 DUP2 ADD SWAP1 POP SWAP2 SWAP1 POP JUMP JUMPDEST PUSH0 PUSH2 0x1E2F PUSH2 0x1E2A DUP5 PUSH2 0x1DED JUMP JUMPDEST PUSH2 0x1C35 JUMP JUMPDEST SWAP1 POP DUP3 DUP2 MSTORE PUSH1 0x20 DUP2 ADD DUP5 DUP5 DUP5 ADD GT ISZERO PUSH2 0x1E4B JUMPI PUSH2 0x1E4A PUSH2 0x1BC3 JUMP JUMPDEST JUMPDEST PUSH2 0x1E56 DUP5 DUP3 DUP6 PUSH2 0x1C7F JUMP JUMPDEST POP SWAP4 SWAP3 POP POP POP JUMP JUMPDEST PUSH0 DUP3 PUSH1 0x1F DUP4 ADD SLT PUSH2 0x1E72 JUMPI PUSH2 0x1E71 PUSH2 0x1BBF JUMP JUMPDEST JUMPDEST DUP2 CALLDATALOAD PUSH2 0x1E82 DUP5 DUP3 PUSH1 0x20 DUP7 ADD PUSH2 0x1E1D JUMP JUMPDEST SWAP2 POP POP SWAP3 SWAP2 POP POP JUMP JUMPDEST PUSH0 DUP1 PUSH0 DUP1 PUSH0 PUSH1 0xA0 DUP7 DUP9 SUB SLT ISZERO PUSH2 0x1EA4 JUMPI PUSH2 0x1EA3 PUSH2 0x1A11 JUMP JUMPDEST JUMPDEST PUSH0 PUSH2 0x1EB1 DUP9 DUP3 DUP10 ADD PUSH2 0x1A5F JUMP JUMPDEST SWAP6 POP POP PUSH1 0x20 PUSH2 0x1EC2 DUP9 DUP3 DUP10 ADD PUSH2 0x1A5F JUMP JUMPDEST SWAP5 POP POP PUSH1 0x40 PUSH2 0x1ED3 DUP9 DUP3 DUP10 ADD PUSH2 0x1A92 JUMP JUMPDEST SWAP4 POP POP PUSH1 0x60 PUSH2 0x1EE4 DUP9 DUP3 DUP10 ADD PUSH2 0x1A92 JUMP JUMPDEST SWAP3 POP POP PUSH1 0x80 DUP7 ADD CALLDATALOAD PUSH8 0xFFFFFFFFFFFFFFFF DUP2 GT ISZERO PUSH2 0x1F05 JUMPI PUSH2 0x1F04 PUSH2 0x1A15 JUMP JUMPDEST JUMPDEST PUSH2 0x1F11 DUP9 DUP3 DUP10 ADD PUSH2 0x1E5E JUMP JUMPDEST SWAP2 POP POP SWAP3 SWAP6 POP SWAP3 SWAP6 SWAP1 SWAP4 POP JUMP JUMPDEST PUSH0 PUSH8 0xFFFFFFFFFFFFFFFF DUP3 GT ISZERO PUSH2 0x1F38 JUMPI PUSH2 0x1F37 PUSH2 0x1BD7 JUMP JUMPDEST JUMPDEST PUSH1 0x20 DUP3 MUL SWAP1 POP PUSH1 0x20 DUP2 ADD SWAP1 POP SWAP2 SWAP1 POP JUMP JUMPDEST PUSH0 DUP1 REVERT JUMPDEST PUSH0 PUSH2 0x1F5F PUSH2 0x1F5A DUP5 PUSH2 0x1F1E JUMP JUMPDEST PUSH2 0x1C35 JUMP JUMPDEST SWAP1 POP DUP1 DUP4 DUP3 MSTORE PUSH1 0x20 DUP3 ADD SWAP1 POP PUSH1 0x20 DUP5 MUL DUP4 ADD DUP6 DUP2 GT ISZERO PUSH2 0x1F82 JUMPI PUSH2 0x1F81 PUSH2 0x1F49 JUMP JUMPDEST JUMPDEST DUP4 JUMPDEST DUP2 DUP2 LT ISZERO PUSH2 0x1FAB JUMPI DUP1 PUSH2 0x1F97 DUP9 DUP3 PUSH2 0x1A92 JUMP JUMPDEST DUP5 MSTORE PUSH1 0x20 DUP5 ADD SWAP4 POP POP PUSH1 0x20 DUP2 ADD SWAP1 POP PUSH2 0x1F84 JUMP JUMPDEST POP POP POP SWAP4 SWAP3 POP POP POP JUMP JUMPDEST PUSH0 DUP3 PUSH1 0x1F DUP4 ADD SLT PUSH2 0x1FC9 JUMPI PUSH2 0x1FC8 PUSH2 0x1BBF JUMP JUMPDEST JUMPDEST DUP2 CALLDATALOAD PUSH2 0x1FD9 DUP5 DUP3 PUSH1 0x20 DUP7 ADD PUSH2 0x1F4D JUMP JUMPDEST SWAP2 POP POP SWAP3 SWAP2 POP POP JUMP JUMPDEST PUSH0 DUP1 PUSH0 DUP1 PUSH1 0x80 DUP6 DUP8 SUB SLT ISZERO PUSH2 0x1FFA JUMPI PUSH2 0x1FF9 PUSH2 0x1A11 JUMP JUMPDEST JUMPDEST PUSH0 PUSH2 0x2007 DUP8 DUP3 DUP9 ADD PUSH2 0x1A5F JUMP JUMPDEST SWAP5 POP POP PUSH1 0x20 DUP6 ADD CALLDATALOAD PUSH8 0xFFFFFFFFFFFFFFFF DUP2 GT ISZERO PUSH2 0x2028 JUMPI PUSH2 0x2027 PUSH2 0x1A15 JUMP JUMPDEST JUMPDEST PUSH2 0x2034 DUP8 DUP3 DUP9 ADD PUSH2 0x1FB5 JUMP JUMPDEST SWAP4 POP POP PUSH1 0x40 DUP6 ADD CALLDATALOAD PUSH8 0xFFFFFFFFFFFFFFFF DUP2 GT ISZERO PUSH2 0x2055 JUMPI PUSH2 0x2054 PUSH2 0x1A15 JUMP JUMPDEST JUMPDEST PUSH2 0x2061 DUP8 DUP3 DUP9 ADD PUSH2 0x1FB5 JUMP JUMPDEST SWAP3 POP POP PUSH1 0x60 DUP6 ADD CALLDATALOAD PUSH8 0xFFFFFFFFFFFFFFFF DUP2 GT ISZERO PUSH2 0x2082 JUMPI PUSH2 0x2081 PUSH2 0x1A15 JUMP JUMPDEST JUMPDEST PUSH2 0x208E DUP8 DUP3 DUP9 ADD PUSH2 0x1E5E JUMP JUMPDEST SWAP2 POP POP SWAP3 SWAP6 SWAP2 SWAP5 POP SWAP3 POP JUMP JUMPDEST PUSH0 DUP1 PUSH0 DUP1 PUSH0 PUSH1 0xA0 DUP7 DUP9 SUB SLT ISZERO PUSH2 0x20B3 JUMPI PUSH2 0x20B2 PUSH2 0x1A11 JUMP JUMPDEST JUMPDEST PUSH0 PUSH2 0x20C0 DUP9 DUP3 DUP10 ADD PUSH2 0x1A5F JUMP JUMPDEST SWAP6 POP POP PUSH1 0x20 PUSH2 0x20D1 DUP9 DUP3 DUP10 ADD PUSH2 0x1A5F JUMP JUMPDEST SWAP5 POP POP PUSH1 0x40 DUP7 ADD CALLDATALOAD PUSH8 0xFFFFFFFFFFFFFFFF DUP2 GT ISZERO PUSH2 0x20F2 JUMPI PUSH2 0x20F1 PUSH2 0x1A15 JUMP JUMPDEST JUMPDEST PUSH2 0x20FE DUP9 DUP3 DUP10 ADD PUSH2 0x1FB5 JUMP JUMPDEST SWAP4 POP POP PUSH1 0x60 DUP7 ADD CALLDATALOAD PUSH8 0xFFFFFFFFFFFFFFFF DUP2 GT ISZERO PUSH2 0x211F JUMPI PUSH2 0x211E PUSH2 0x1A15 JUMP JUMPDEST JUMPDEST PUSH2 0x212B DUP9 DUP3 DUP10 ADD PUSH2 0x1FB5 JUMP JUMPDEST SWAP3 POP POP PUSH1 0x80 DUP7 ADD CALLDATALOAD PUSH8 0xFFFFFFFFFFFFFFFF DUP2 GT ISZERO PUSH2 0x214C JUMPI PUSH2 0x214B PUSH2 0x1A15 JUMP JUMPDEST JUMPDEST PUSH2 0x2158 DUP9 DUP3 DUP10 ADD PUSH2 0x1E5E JUMP JUMPDEST SWAP2 POP POP SWAP3 SWAP6 POP SWAP3 SWAP6 SWAP1 SWAP4 POP JUMP JUMPDEST PUSH0 PUSH8 0xFFFFFFFFFFFFFFFF DUP3 GT ISZERO PUSH2 0x217F JUMPI PUSH2 0x217E PUSH2 0x1BD7 JUMP JUMPDEST JUMPDEST PUSH1 0x20 DUP3 MUL SWAP1 POP PUSH1 0x20 DUP2 ADD SWAP1 POP SWAP2 SWAP1 POP JUMP JUMPDEST PUSH0 PUSH2 0x21A2 PUSH2 0x219D DUP5 PUSH2 0x2165 JUMP JUMPDEST PUSH2 0x1C35 JUMP JUMPDEST SWAP1 POP DUP1 DUP4 DUP3 MSTORE PUSH1 0x20 DUP3 ADD SWAP1 POP PUSH1 0x20 DUP5 MUL DUP4 ADD DUP6 DUP2 GT ISZERO PUSH2 0x21C5 JUMPI PUSH2 0x21C4 PUSH2 0x1F49 JUMP JUMPDEST JUMPDEST DUP4 JUMPDEST DUP2 DUP2 LT ISZERO PUSH2 0x21EE JUMPI DUP1 PUSH2 0x21DA DUP9 DUP3 PUSH2 0x1A5F JUMP JUMPDEST DUP5 MSTORE PUSH1 0x20 DUP5 ADD SWAP4 POP POP PUSH1 0x20 DUP2 ADD SWAP1 POP PUSH2 0x21C7 JUMP JUMPDEST POP POP POP SWAP4 SWAP3 POP POP POP JUMP JUMPDEST PUSH0 DUP3 PUSH1 0x1F DUP4 ADD SLT PUSH2 0x220C JUMPI PUSH2 0x220B PUSH2 0x1BBF JUMP JUMPDEST JUMPDEST DUP2 CALLDATALOAD PUSH2 0x221C DUP5 DUP3 PUSH1 0x20 DUP7 ADD PUSH2 0x2190 JUMP JUMPDEST SWAP2 POP POP SWAP3 SWAP2 POP POP JUMP JUMPDEST PUSH0 DUP1 PUSH1 0x40 DUP4 DUP6 SUB SLT ISZERO PUSH2 0x223B JUMPI PUSH2 0x223A PUSH2 0x1A11 JUMP JUMPDEST JUMPDEST PUSH0 DUP4 ADD CALLDATALOAD PUSH8 0xFFFFFFFFFFFFFFFF DUP2 GT ISZERO PUSH2 0x2258 JUMPI PUSH2 0x2257 PUSH2 0x1A15 JUMP JUMPDEST JUMPDEST PUSH2 0x2264 DUP6 DUP3 DUP7 ADD PUSH2 0x21F8 JUMP JUMPDEST SWAP3 POP POP PUSH1 0x20 DUP4 ADD CALLDATALOAD PUSH8 0xFFFFFFFFFFFFFFFF DUP2 GT ISZERO PUSH2 0x2285 JUMPI PUSH2 0x2284 PUSH2 0x1A15 JUMP JUMPDEST JUMPDEST PUSH2 0x2291 DUP6 DUP3 DUP7 ADD PUSH2 0x1FB5 JUMP JUMPDEST SWAP2 POP POP SWAP3 POP SWAP3 SWAP1 POP JUMP JUMPDEST PUSH0 DUP2 MLOAD SWAP1 POP SWAP2 SWAP1 POP JUMP JUMPDEST PUSH0 DUP3 DUP3 MSTORE PUSH1 0x20 DUP3 ADD SWAP1 POP SWAP3 SWAP2 POP POP JUMP JUMPDEST PUSH0 DUP2 SWAP1 POP PUSH1 0x20 DUP3 ADD SWAP1 POP SWAP2 SWAP1 POP JUMP JUMPDEST PUSH2 0x22CD DUP2 PUSH2 0x1A73 JUMP JUMPDEST DUP3 MSTORE POP POP JUMP JUMPDEST PUSH0 PUSH2 0x22DE DUP4 DUP4 PUSH2 0x22C4 JUMP JUMPDEST PUSH1 0x20 DUP4 ADD SWAP1 POP SWAP3 SWAP2 POP POP JUMP JUMPDEST PUSH0 PUSH1 0x20 DUP3 ADD SWAP1 POP SWAP2 SWAP1 POP JUMP JUMPDEST PUSH0 PUSH2 0x2300 DUP3 PUSH2 0x229B JUMP JUMPDEST PUSH2 0x230A DUP2 DUP6 PUSH2 0x22A5 JUMP JUMPDEST SWAP4 POP PUSH2 0x2315 DUP4 PUSH2 0x22B5 JUMP JUMPDEST DUP1 PUSH0 JUMPDEST DUP4 DUP2 LT ISZERO PUSH2 0x2345 JUMPI DUP2 MLOAD PUSH2 0x232C DUP9 DUP3 PUSH2 0x22D3 JUMP JUMPDEST SWAP8 POP PUSH2 0x2337 DUP4 PUSH2 0x22EA JUMP JUMPDEST SWAP3 POP POP PUSH1 0x1 DUP2 ADD SWAP1 POP PUSH2 0x2318 JUMP JUMPDEST POP DUP6 SWAP4 POP POP POP POP SWAP3 SWAP2 POP POP JUMP JUMPDEST PUSH0 PUSH1 0x20 DUP3 ADD SWAP1 POP DUP2 DUP2 SUB PUSH0 DUP4 ADD MSTORE PUSH2 0x236A DUP2 DUP5 PUSH2 0x22F6 JUMP JUMPDEST SWAP1 POP SWAP3 SWAP2 POP POP JUMP JUMPDEST PUSH2 0x237B DUP2 PUSH2 0x1A38 JUMP JUMPDEST DUP3 MSTORE POP POP JUMP JUMPDEST PUSH0 PUSH1 0x20 DUP3 ADD SWAP1 POP PUSH2 0x2394 PUSH0 DUP4 ADD DUP5 PUSH2 0x2372 JUMP JUMPDEST SWAP3 SWAP2 POP POP JUMP JUMPDEST PUSH0 DUP1 PUSH0 PUSH1 0x60 DUP5 DUP7 SUB SLT ISZERO PUSH2 0x23B1 JUMPI PUSH2 0x23B0 PUSH2 0x1A11 JUMP JUMPDEST JUMPDEST PUSH0 PUSH2 0x23BE DUP7 DUP3 DUP8 ADD PUSH2 0x1A5F JUMP JUMPDEST SWAP4 POP POP PUSH1 0x20 PUSH2 0x23CF DUP7 DUP3 DUP8 ADD PUSH2 0x1A92 JUMP JUMPDEST SWAP3 POP POP PUSH1 0x40 DUP5 ADD CALLDATALOAD PUSH8 0xFFFFFFFFFFFFFFFF DUP2 GT ISZERO PUSH2 0x23F0 JUMPI PUSH2 0x23EF PUSH2 0x1A15 JUMP JUMPDEST JUMPDEST PUSH2 0x23FC DUP7 DUP3 DUP8 ADD PUSH2 0x1E5E JUMP JUMPDEST SWAP2 POP POP SWAP3 POP SWAP3 POP SWAP3 JUMP JUMPDEST PUSH2 0x240F DUP2 PUSH2 0x1B8C JUMP JUMPDEST DUP2 EQ PUSH2 0x2419 JUMPI PUSH0 DUP1 REVERT JUMPDEST POP JUMP JUMPDEST PUSH0 DUP2 CALLDATALOAD SWAP1 POP PUSH2 0x242A DUP2 PUSH2 0x2406 JUMP JUMPDEST SWAP3 SWAP2 POP POP JUMP JUMPDEST PUSH0 DUP1 PUSH1 0x40 DUP4 DUP6 SUB SLT ISZERO PUSH2 0x2446 JUMPI PUSH2 0x2445 PUSH2 0x1A11 JUMP JUMPDEST JUMPDEST PUSH0 PUSH2 0x2453 DUP6 DUP3 DUP7 ADD PUSH2 0x1A5F JUMP JUMPDEST SWAP3 POP POP PUSH1 0x20 PUSH2 0x2464 DUP6 DUP3 DUP7 ADD PUSH2 0x241C JUMP JUMPDEST SWAP2 POP POP SWAP3 POP SWAP3 SWAP1 POP JUMP JUMPDEST PUSH0 DUP1 PUSH1 0x40 DUP4 DUP6 SUB SLT ISZERO PUSH2 0x2484 JUMPI PUSH2 0x2483 PUSH2 0x1A11 JUMP JUMPDEST JUMPDEST PUSH0 PUSH2 0x2491 DUP6 DUP3 DUP7 ADD PUSH2 0x1A5F JUMP JUMPDEST SWAP3 POP POP PUSH1 0x20 PUSH2 0x24A2 DUP6 DUP3 DUP7 ADD PUSH2 0x1A5F JUMP JUMPDEST SWAP2 POP POP SWAP3 POP SWAP3 SWAP1 POP JUMP JUMPDEST PUSH0 PUSH1 0x20 DUP3 DUP5 SUB SLT ISZERO PUSH2 0x24C1 JUMPI PUSH2 0x24C0 PUSH2 0x1A11 JUMP JUMPDEST JUMPDEST PUSH0 PUSH2 0x24CE DUP5 DUP3 DUP6 ADD PUSH2 0x1A5F JUMP JUMPDEST SWAP2 POP POP SWAP3 SWAP2 POP POP JUMP JUMPDEST PUSH32 0x4E487B7100000000000000000000000000000000000000000000000000000000 PUSH0 MSTORE PUSH1 0x22 PUSH1 0x4 MSTORE PUSH1 0x24 PUSH0 REVERT JUMPDEST PUSH0 PUSH1 0x2 DUP3 DIV SWAP1 POP PUSH1 0x1 DUP3 AND DUP1 PUSH2 0x251B JUMPI PUSH1 0x7F DUP3 AND SWAP2 POP JUMPDEST PUSH1 0x20 DUP3 LT DUP2 SUB PUSH2 0x252E JUMPI PUSH2 0x252D PUSH2 0x24D7 JUMP JUMPDEST JUMPDEST POP SWAP2 SWAP1 POP JUMP JUMPDEST PUSH0 PUSH1 0x40 DUP3 ADD SWAP1 POP PUSH2 0x2547 PUSH0 DUP4 ADD DUP6 PUSH2 0x2372 JUMP JUMPDEST PUSH2 0x2554 PUSH1 0x20 DUP4 ADD DUP5 PUSH2 0x2372 JUMP JUMPDEST SWAP4 SWAP3 POP POP POP JUMP JUMPDEST PUSH0 PUSH1 0x40 DUP3 ADD SWAP1 POP PUSH2 0x256E PUSH0 DUP4 ADD DUP6 PUSH2 0x1AE4 JUMP JUMPDEST PUSH2 0x257B PUSH1 0x20 DUP4 ADD DUP5 PUSH2 0x1AE4 JUMP JUMPDEST SWAP4 SWAP3 POP POP POP JUMP JUMPDEST PUSH32 0x4E487B7100000000000000000000000000000000000000000000000000000000 PUSH0 MSTORE PUSH1 0x32 PUSH1 0x4 MSTORE PUSH1 0x24 PUSH0 REVERT JUMPDEST PUSH0 DUP2 SWAP1 POP DUP2 PUSH0 MSTORE PUSH1 0x20 PUSH0 KECCAK256 SWAP1 POP SWAP2 SWAP1 POP JUMP JUMPDEST PUSH0 PUSH1 0x20 PUSH1 0x1F DUP4 ADD DIV SWAP1 POP SWAP2 SWAP1 POP JUMP JUMPDEST PUSH0 DUP3 DUP3 SHL SWAP1 POP SWAP3 SWAP2 POP POP JUMP JUMPDEST PUSH0 PUSH1 0x8 DUP4 MUL PUSH2 0x260B PUSH32 0xFFFFFFFFFFFFFFFFFFFFFFFFFFFFFFFFFFFFFFFFFFFFFFFFFFFFFFFFFFFFFFFF DUP3 PUSH2 0x25D0 JUMP JUMPDEST PUSH2 0x2615 DUP7 DUP4 PUSH2 0x25D0 JUMP JUMPDEST SWAP6 POP DUP1 NOT DUP5 AND SWAP4 POP DUP1 DUP7 AND DUP5 OR SWAP3 POP POP POP SWAP4 SWAP3 POP POP POP JUMP JUMPDEST PUSH0 DUP2 SWAP1 POP SWAP2 SWAP1 POP JUMP JUMPDEST PUSH0 PUSH2 0x2650 PUSH2 0x264B PUSH2 0x2646 DUP5 PUSH2 0x1A73 JUMP JUMPDEST PUSH2 0x262D JUMP JUMPDEST PUSH2 0x1A73 JUMP JUMPDEST SWAP1 POP SWAP2 SWAP1 POP JUMP JUMPDEST PUSH0 DUP2 SWAP1 POP SWAP2 SWAP1 POP JUMP JUMPDEST PUSH2 0x2669 DUP4 PUSH2 0x2636 JUMP JUMPDEST PUSH2 0x267D PUSH2 0x2675 DUP3 PUSH2 0x2657 JUMP JUMPDEST DUP5 DUP5 SLOAD PUSH2 0x25DC JUMP JUMPDEST DUP3 SSTORE POP POP POP POP JUMP JUMPDEST PUSH0 SWAP1 JUMP JUMPDEST PUSH2 0x2691 PUSH2 0x2685 JUMP JUMPDEST PUSH2 0x269C DUP2 DUP5 DUP5 PUSH2 0x2660 JUMP JUMPDEST POP POP POP JUMP JUMPDEST JUMPDEST DUP2 DUP2 LT ISZERO PUSH2 0x26BF JUMPI PUSH2 0x26B4 PUSH0 DUP3 PUSH2 0x2689 JUMP JUMPDEST PUSH1 0x1 DUP2 ADD SWAP1 POP PUSH2 0x26A2 JUMP JUMPDEST POP POP JUMP JUMPDEST PUSH1 0x1F DUP3 GT ISZERO PUSH2 0x2704 JUMPI PUSH2 0x26D5 DUP2 PUSH2 0x25AF JUMP JUMPDEST PUSH2 0x26DE DUP5 PUSH2 0x25C1 JUMP JUMPDEST DUP2 ADD PUSH1 0x20 DUP6 LT ISZERO PUSH2 0x26ED JUMPI DUP2 SWAP1 POP JUMPDEST PUSH2 0x2701 PUSH2 0x26F9 DUP6 PUSH2 0x25C1 JUMP JUMPDEST DUP4 ADD DUP3 PUSH2 0x26A1 JUMP JUMPDEST POP POP JUMPDEST POP POP POP JUMP JUMPDEST PUSH0 DUP3 DUP3 SHR SWAP1 POP SWAP3 SWAP2 POP POP JUMP JUMPDEST PUSH0 PUSH2 0x2724 PUSH0 NOT DUP5 PUSH1 0x8 MUL PUSH2 0x2709 JUMP JUMPDEST NOT DUP1 DUP4 AND SWAP2 POP POP SWAP3 SWAP2 POP POP JUMP JUMPDEST PUSH0 PUSH2 0x273C DUP4 DUP4 PUSH2 0x2715 JUMP JUMPDEST SWAP2 POP DUP3 PUSH1 0x2 MUL DUP3 OR SWAP1 POP SWAP3 SWAP2 POP POP JUMP JUMPDEST PUSH2 0x2755 DUP3 PUSH2 0x1D6D JUMP JUMPDEST PUSH8 0xFFFFFFFFFFFFFFFF DUP2 GT ISZERO PUSH2 0x276E JUMPI PUSH2 0x276D PUSH2 0x1BD7 JUMP JUMPDEST JUMPDEST PUSH2 0x2778 DUP3 SLOAD PUSH2 0x2504 JUMP JUMPDEST PUSH2 0x2783 DUP3 DUP3 DUP6 PUSH2 0x26C3 JUMP JUMPDEST PUSH0 PUSH1 0x20 SWAP1 POP PUSH1 0x1F DUP4 GT PUSH1 0x1 DUP2 EQ PUSH2 0x27B4 JUMPI PUSH0 DUP5 ISZERO PUSH2 0x27A2 JUMPI DUP3 DUP8 ADD MLOAD SWAP1 POP JUMPDEST PUSH2 0x27AC DUP6 DUP3 PUSH2 0x2731 JUMP JUMPDEST DUP7 SSTORE POP PUSH2 0x2813 JUMP JUMPDEST PUSH1 0x1F NOT DUP5 AND PUSH2 0x27C2 DUP7 PUSH2 0x25AF JUMP JUMPDEST PUSH0 JUMPDEST DUP3 DUP2 LT ISZERO PUSH2 0x27E9 JUMPI DUP5 DUP10 ADD MLOAD DUP3 SSTORE PUSH1 0x1 DUP3 ADD SWAP2 POP PUSH1 0x20 DUP6 ADD SWAP5 POP PUSH1 0x20 DUP2 ADD SWAP1 POP PUSH2 0x27C4 JUMP JUMPDEST DUP7 DUP4 LT ISZERO PUSH2 0x2806 JUMPI DUP5 DUP10 ADD MLOAD PUSH2 0x2802 PUSH1 0x1F DUP10 AND DUP3 PUSH2 0x2715 JUMP JUMPDEST DUP4 SSTORE POP JUMPDEST PUSH1 0x1 PUSH1 0x2 DUP9 MUL ADD DUP9 SSTORE POP POP POP JUMPDEST POP POP POP POP POP POP JUMP JUMPDEST PUSH0 DUP2 MLOAD SWAP1 POP SWAP2 SWAP1 POP JUMP JUMPDEST PUSH0 DUP3 DUP3 MSTORE PUSH1 0x20 DUP3 ADD SWAP1 POP SWAP3 SWAP2 POP POP JUMP JUMPDEST PUSH0 PUSH2 0x283F DUP3 PUSH2 0x281B JUMP JUMPDEST PUSH2 0x2849 DUP2 DUP6 PUSH2 0x2825 JUMP JUMPDEST SWAP4 POP PUSH2 0x2859 DUP2 DUP6 PUSH1 0x20 DUP7 ADD PUSH2 0x1D87 JUMP JUMPDEST PUSH2 0x2862 DUP2 PUSH2 0x1BC7 JUMP JUMPDEST DUP5 ADD SWAP2 POP POP SWAP3 SWAP2 POP POP JUMP JUMPDEST PUSH0 PUSH1 0xA0 DUP3 ADD SWAP1 POP PUSH2 0x2880 PUSH0 DUP4 ADD DUP9 PUSH2 0x2372 JUMP JUMPDEST PUSH2 0x288D PUSH1 0x20 DUP4 ADD DUP8 PUSH2 0x2372 JUMP JUMPDEST PUSH2 0x289A PUSH1 0x40 DUP4 ADD DUP7 PUSH2 0x1AE4 JUMP JUMPDEST PUSH2 0x28A7 PUSH1 0x60 DUP4 ADD DUP6 PUSH2 0x1AE4 JUMP JUMPDEST DUP2 DUP2 SUB PUSH1 0x80 DUP4 ADD MSTORE PUSH2 0x28B9 DUP2 DUP5 PUSH2 0x2835 JUMP JUMPDEST SWAP1 POP SWAP7 SWAP6 POP POP POP POP POP POP JUMP JUMPDEST PUSH0 DUP2 MLOAD SWAP1 POP PUSH2 0x28D3 DUP2 PUSH2 0x1B37 JUMP JUMPDEST SWAP3 SWAP2 POP POP JUMP JUMPDEST PUSH0 PUSH1 0x20 DUP3 DUP5 SUB SLT ISZERO PUSH2 0x28EE JUMPI PUSH2 0x28ED PUSH2 0x1A11 JUMP JUMPDEST JUMPDEST PUSH0 PUSH2 0x28FB DUP5 DUP3 DUP6 ADD PUSH2 0x28C5 JUMP JUMPDEST SWAP2 POP POP SWAP3 SWAP2 POP POP JUMP JUMPDEST PUSH0 PUSH1 0xA0 DUP3 ADD SWAP1 POP PUSH2 0x2917 PUSH0 DUP4 ADD DUP9 PUSH2 0x2372 JUMP JUMPDEST PUSH2 0x2924 PUSH1 0x20 DUP4 ADD DUP8 PUSH2 0x2372 JUMP JUMPDEST DUP2 DUP2 SUB PUSH1 0x40 DUP4 ADD MSTORE PUSH2 0x2936 DUP2 DUP7 PUSH2 0x22F6 JUMP JUMPDEST SWAP1 POP DUP2 DUP2 SUB PUSH1 0x60 DUP4 ADD MSTORE PUSH2 0x294A DUP2 DUP6 PUSH2 0x22F6 JUMP JUMPDEST SWAP1 POP DUP2 DUP2 SUB PUSH1 0x80 DUP4 ADD MSTORE PUSH2 0x295E DUP2 DUP5 PUSH2 0x2835 JUMP JUMPDEST SWAP1 POP SWAP7 SWAP6 POP POP POP POP POP POP JUMP JUMPDEST PUSH32 0x4E487B7100000000000000000000000000000000000000000000000000000000 PUSH0 MSTORE PUSH1 0x11 PUSH1 0x4 MSTORE PUSH1 0x24 PUSH0 REVERT JUMPDEST PUSH0 PUSH2 0x29A1 DUP3 PUSH2 0x1A73 JUMP JUMPDEST SWAP2 POP PUSH2 0x29AC DUP4 PUSH2 0x1A73 JUMP JUMPDEST SWAP3 POP DUP3 DUP3 ADD SWAP1 POP DUP1 DUP3 GT ISZERO PUSH2 0x29C4 JUMPI PUSH2 0x29C3 PUSH2 0x296A JUMP JUMPDEST JUMPDEST SWAP3 SWAP2 POP POP JUMP JUMPDEST PUSH0 PUSH1 0x80 DUP3 ADD SWAP1 POP PUSH2 0x29DD PUSH0 DUP4 ADD DUP8 PUSH2 0x2372 JUMP JUMPDEST PUSH2 0x29EA PUSH1 0x20 DUP4 ADD DUP7 PUSH2 0x1AE4 JUMP JUMPDEST PUSH2 0x29F7 PUSH1 0x40 DUP4 ADD DUP6 PUSH2 0x1AE4 JUMP JUMPDEST PUSH2 0x2A04 PUSH1 0x60 DUP4 ADD DUP5 PUSH2 0x1AE4 JUMP JUMPDEST SWAP6 SWAP5 POP POP POP POP POP JUMP JUMPDEST PUSH0 PUSH1 0x40 DUP3 ADD SWAP1 POP DUP2 DUP2 SUB PUSH0 DUP4 ADD MSTORE PUSH2 0x2A25 DUP2 DUP6 PUSH2 0x22F6 JUMP JUMPDEST SWAP1 POP DUP2 DUP2 SUB PUSH1 0x20 DUP4 ADD MSTORE PUSH2 0x2A39 DUP2 DUP5 PUSH2 0x22F6 JUMP JUMPDEST SWAP1 POP SWAP4 SWAP3 POP POP POP JUMP INVALID LOG2 PUSH5 0x6970667358 0x22 SLT KECCAK256 0xC8 PUSH2 0xDABE RETURN 0xCD SIGNEXTEND STATICCALL 0xE0 SSTORE 0xE4 PUSH10 0x20AE4F30D86AA65A52E9 DUP1 PUSH27 0xBD8A76FDB798F6B564736F6C634300081900330000000000000000 "
				},
				"gasEstimates": {
					"creation": {
						"codeDepositCost": "2174400",
						"executionCost": "infinite",
						"totalCost": "infinite"
					},
					"external": {
						"balanceOf(address,uint256)": "infinite",
						"balanceOfBatch(address[],uint256[])": "infinite",
						"exists(uint256)": "2846",
						"isApprovedForAll(address,address)": "infinite",
						"mint(address,uint256,bytes)": "infinite",
						"mintBatch(address,uint256[],uint256[],bytes)": "infinite",
						"owner()": "2582",
						"renounceOwnership()": "infinite",
						"safeBatchTransferFrom(address,address,uint256[],uint256[],bytes)": "infinite",
						"safeTransferFrom(address,address,uint256,uint256,bytes)": "infinite",
						"setApprovalForAll(address,bool)": "infinite",
						"setURI(string)": "infinite",
						"supportsInterface(bytes4)": "809",
						"totalSupply()": "2477",
						"totalSupply(uint256)": "infinite",
						"transfer(address,address,uint256,uint256,bytes)": "infinite",
						"transferOwnership(address)": "infinite",
						"uri(uint256)": "infinite"
					},
					"internal": {
						"_update(address,address,uint256[] memory,uint256[] memory)": "infinite"
					}
				},
				"methodIdentifiers": {
					"balanceOf(address,uint256)": "00fdd58e",
					"balanceOfBatch(address[],uint256[])": "4e1273f4",
					"exists(uint256)": "4f558e79",
					"isApprovedForAll(address,address)": "e985e9c5",
					"mint(address,uint256,bytes)": "94d008ef",
					"mintBatch(address,uint256[],uint256[],bytes)": "1f7fdffa",
					"owner()": "8da5cb5b",
					"renounceOwnership()": "715018a6",
					"safeBatchTransferFrom(address,address,uint256[],uint256[],bytes)": "2eb2c2d6",
					"safeTransferFrom(address,address,uint256,uint256,bytes)": "f242432a",
					"setApprovalForAll(address,bool)": "a22cb465",
					"setURI(string)": "02fe5305",
					"supportsInterface(bytes4)": "01ffc9a7",
					"totalSupply()": "18160ddd",
					"totalSupply(uint256)": "bd85b039",
					"transfer(address,address,uint256,uint256,bytes)": "127217d6",
					"transferOwnership(address)": "f2fde38b",
					"uri(uint256)": "0e89341c"
				}
			},
			"storageLayout": {
				"storage": [
					{
						"astId": 326,
						"contract": "contracts/Song.sol:Song",
						"label": "_balances",
						"offset": 0,
						"slot": "0",
						"type": "t_mapping(t_uint256,t_mapping(t_address,t_uint256))"
					},
					{
						"astId": 332,
						"contract": "contracts/Song.sol:Song",
						"label": "_operatorApprovals",
						"offset": 0,
						"slot": "1",
						"type": "t_mapping(t_address,t_mapping(t_address,t_bool))"
					},
					{
						"astId": 334,
						"contract": "contracts/Song.sol:Song",
						"label": "_uri",
						"offset": 0,
						"slot": "2",
						"type": "t_string_storage"
					},
					{
						"astId": 8,
						"contract": "contracts/Song.sol:Song",
						"label": "_owner",
						"offset": 0,
						"slot": "3",
						"type": "t_address"
					},
					{
						"astId": 1511,
						"contract": "contracts/Song.sol:Song",
						"label": "_totalSupply",
						"offset": 0,
						"slot": "4",
						"type": "t_mapping(t_uint256,t_uint256)"
					},
					{
						"astId": 1513,
						"contract": "contracts/Song.sol:Song",
						"label": "_totalSupplyAll",
						"offset": 0,
						"slot": "5",
						"type": "t_uint256"
					},
					{
						"astId": 3198,
						"contract": "contracts/Song.sol:Song",
						"label": "tokenId",
						"offset": 0,
						"slot": "6",
						"type": "t_struct(Counter)1907_storage"
					}
				],
				"types": {
					"t_address": {
						"encoding": "inplace",
						"label": "address",
						"numberOfBytes": "20"
					},
					"t_bool": {
						"encoding": "inplace",
						"label": "bool",
						"numberOfBytes": "1"
					},
					"t_mapping(t_address,t_bool)": {
						"encoding": "mapping",
						"key": "t_address",
						"label": "mapping(address => bool)",
						"numberOfBytes": "32",
						"value": "t_bool"
					},
					"t_mapping(t_address,t_mapping(t_address,t_bool))": {
						"encoding": "mapping",
						"key": "t_address",
						"label": "mapping(address => mapping(address => bool))",
						"numberOfBytes": "32",
						"value": "t_mapping(t_address,t_bool)"
					},
					"t_mapping(t_address,t_uint256)": {
						"encoding": "mapping",
						"key": "t_address",
						"label": "mapping(address => uint256)",
						"numberOfBytes": "32",
						"value": "t_uint256"
					},
					"t_mapping(t_uint256,t_mapping(t_address,t_uint256))": {
						"encoding": "mapping",
						"key": "t_uint256",
						"label": "mapping(uint256 => mapping(address => uint256))",
						"numberOfBytes": "32",
						"value": "t_mapping(t_address,t_uint256)"
					},
					"t_mapping(t_uint256,t_uint256)": {
						"encoding": "mapping",
						"key": "t_uint256",
						"label": "mapping(uint256 => uint256)",
						"numberOfBytes": "32",
						"value": "t_uint256"
					},
					"t_string_storage": {
						"encoding": "bytes",
						"label": "string",
						"numberOfBytes": "32"
					},
					"t_struct(Counter)1907_storage": {
						"encoding": "inplace",
						"label": "struct Counters.Counter",
						"members": [
							{
								"astId": 1906,
								"contract": "contracts/Song.sol:Song",
								"label": "_value",
								"offset": 0,
								"slot": "0",
								"type": "t_uint256"
							}
						],
						"numberOfBytes": "32"
					},
					"t_uint256": {
						"encoding": "inplace",
						"label": "uint256",
						"numberOfBytes": "32"
					}
				}
			},
			"userdoc": {
				"kind": "user",
				"methods": {},
				"version": 1
			}
		}
	}
}